
USART.elf:     file format elf32-littlearm

Sections:
Idx Name          Size      VMA       LMA       File off  Algn
  0 .isr_vector   00000188  08000000  08000000  00010000  2**0
                  CONTENTS, ALLOC, LOAD, READONLY, DATA
  1 .text         00001c20  08000188  08000188  00010188  2**2
                  CONTENTS, ALLOC, LOAD, READONLY, CODE
  2 .rodata       00000024  08001da8  08001da8  00011da8  2**2
                  CONTENTS, ALLOC, LOAD, READONLY, DATA
  3 .ARM.extab    00000000  08001dcc  08001dcc  00020010  2**0
                  CONTENTS
  4 .ARM          00000008  08001dcc  08001dcc  00011dcc  2**2
                  CONTENTS, ALLOC, LOAD, READONLY, DATA
  5 .preinit_array 00000000  08001dd4  08001dd4  00020010  2**0
                  CONTENTS, ALLOC, LOAD, DATA
  6 .init_array   00000004  08001dd4  08001dd4  00011dd4  2**2
                  CONTENTS, ALLOC, LOAD, DATA
  7 .fini_array   00000004  08001dd8  08001dd8  00011dd8  2**2
                  CONTENTS, ALLOC, LOAD, DATA
  8 .data         00000010  20000000  08001ddc  00020000  2**2
                  CONTENTS, ALLOC, LOAD, DATA
  9 .bss          00000064  20000010  08001dec  00020010  2**2
                  ALLOC
 10 ._user_heap_stack 00000604  20000074  08001dec  00020074  2**0
                  ALLOC
 11 .ARM.attributes 00000030  00000000  00000000  00020010  2**0
                  CONTENTS, READONLY
 12 .debug_info   0000791a  00000000  00000000  00020040  2**0
                  CONTENTS, READONLY, DEBUGGING, OCTETS
 13 .debug_abbrev 00001297  00000000  00000000  0002795a  2**0
                  CONTENTS, READONLY, DEBUGGING, OCTETS
 14 .debug_aranges 00000608  00000000  00000000  00028bf8  2**3
                  CONTENTS, READONLY, DEBUGGING, OCTETS
 15 .debug_ranges 000005a0  00000000  00000000  00029200  2**3
                  CONTENTS, READONLY, DEBUGGING, OCTETS
 16 .debug_macro  0001f1d5  00000000  00000000  000297a0  2**0
                  CONTENTS, READONLY, DEBUGGING, OCTETS
 17 .debug_line   000074e2  00000000  00000000  00048975  2**0
                  CONTENTS, READONLY, DEBUGGING, OCTETS
 18 .debug_str    000be4dc  00000000  00000000  0004fe57  2**0
                  CONTENTS, READONLY, DEBUGGING, OCTETS
 19 .comment      00000053  00000000  00000000  0010e333  2**0
                  CONTENTS, READONLY
 20 .debug_frame  000017a8  00000000  00000000  0010e388  2**2
                  CONTENTS, READONLY, DEBUGGING, OCTETS

Disassembly of section .text:

08000188 <__do_global_dtors_aux>:
 8000188:	b510      	push	{r4, lr}
 800018a:	4c05      	ldr	r4, [pc, #20]	; (80001a0 <__do_global_dtors_aux+0x18>)
 800018c:	7823      	ldrb	r3, [r4, #0]
 800018e:	b933      	cbnz	r3, 800019e <__do_global_dtors_aux+0x16>
 8000190:	4b04      	ldr	r3, [pc, #16]	; (80001a4 <__do_global_dtors_aux+0x1c>)
 8000192:	b113      	cbz	r3, 800019a <__do_global_dtors_aux+0x12>
 8000194:	4804      	ldr	r0, [pc, #16]	; (80001a8 <__do_global_dtors_aux+0x20>)
 8000196:	f3af 8000 	nop.w
 800019a:	2301      	movs	r3, #1
 800019c:	7023      	strb	r3, [r4, #0]
 800019e:	bd10      	pop	{r4, pc}
 80001a0:	20000010 	.word	0x20000010
 80001a4:	00000000 	.word	0x00000000
 80001a8:	08001d90 	.word	0x08001d90

080001ac <frame_dummy>:
 80001ac:	b508      	push	{r3, lr}
 80001ae:	4b03      	ldr	r3, [pc, #12]	; (80001bc <frame_dummy+0x10>)
 80001b0:	b11b      	cbz	r3, 80001ba <frame_dummy+0xe>
 80001b2:	4903      	ldr	r1, [pc, #12]	; (80001c0 <frame_dummy+0x14>)
 80001b4:	4803      	ldr	r0, [pc, #12]	; (80001c4 <frame_dummy+0x18>)
 80001b6:	f3af 8000 	nop.w
 80001ba:	bd08      	pop	{r3, pc}
 80001bc:	00000000 	.word	0x00000000
 80001c0:	20000014 	.word	0x20000014
 80001c4:	08001d90 	.word	0x08001d90

080001c8 <strlen>:
 80001c8:	4603      	mov	r3, r0
 80001ca:	f813 2b01 	ldrb.w	r2, [r3], #1
 80001ce:	2a00      	cmp	r2, #0
 80001d0:	d1fb      	bne.n	80001ca <strlen+0x2>
 80001d2:	1a18      	subs	r0, r3, r0
 80001d4:	3801      	subs	r0, #1
 80001d6:	4770      	bx	lr

080001d8 <__aeabi_uldivmod>:
 80001d8:	b953      	cbnz	r3, 80001f0 <__aeabi_uldivmod+0x18>
 80001da:	b94a      	cbnz	r2, 80001f0 <__aeabi_uldivmod+0x18>
 80001dc:	2900      	cmp	r1, #0
 80001de:	bf08      	it	eq
 80001e0:	2800      	cmpeq	r0, #0
 80001e2:	bf1c      	itt	ne
 80001e4:	f04f 31ff 	movne.w	r1, #4294967295
 80001e8:	f04f 30ff 	movne.w	r0, #4294967295
 80001ec:	f000 b96e 	b.w	80004cc <__aeabi_idiv0>
 80001f0:	f1ad 0c08 	sub.w	ip, sp, #8
 80001f4:	e96d ce04 	strd	ip, lr, [sp, #-16]!
 80001f8:	f000 f806 	bl	8000208 <__udivmoddi4>
 80001fc:	f8dd e004 	ldr.w	lr, [sp, #4]
 8000200:	e9dd 2302 	ldrd	r2, r3, [sp, #8]
 8000204:	b004      	add	sp, #16
 8000206:	4770      	bx	lr

08000208 <__udivmoddi4>:
 8000208:	e92d 47f0 	stmdb	sp!, {r4, r5, r6, r7, r8, r9, sl, lr}
 800020c:	9d08      	ldr	r5, [sp, #32]
 800020e:	4604      	mov	r4, r0
 8000210:	468c      	mov	ip, r1
 8000212:	2b00      	cmp	r3, #0
 8000214:	f040 8083 	bne.w	800031e <__udivmoddi4+0x116>
 8000218:	428a      	cmp	r2, r1
 800021a:	4617      	mov	r7, r2
 800021c:	d947      	bls.n	80002ae <__udivmoddi4+0xa6>
 800021e:	fab2 f282 	clz	r2, r2
 8000222:	b142      	cbz	r2, 8000236 <__udivmoddi4+0x2e>
 8000224:	f1c2 0020 	rsb	r0, r2, #32
 8000228:	fa24 f000 	lsr.w	r0, r4, r0
 800022c:	4091      	lsls	r1, r2
 800022e:	4097      	lsls	r7, r2
 8000230:	ea40 0c01 	orr.w	ip, r0, r1
 8000234:	4094      	lsls	r4, r2
 8000236:	ea4f 4817 	mov.w	r8, r7, lsr #16
 800023a:	0c23      	lsrs	r3, r4, #16
 800023c:	fbbc f6f8 	udiv	r6, ip, r8
 8000240:	fa1f fe87 	uxth.w	lr, r7
 8000244:	fb08 c116 	mls	r1, r8, r6, ip
 8000248:	ea43 4301 	orr.w	r3, r3, r1, lsl #16
 800024c:	fb06 f10e 	mul.w	r1, r6, lr
 8000250:	4299      	cmp	r1, r3
 8000252:	d909      	bls.n	8000268 <__udivmoddi4+0x60>
 8000254:	18fb      	adds	r3, r7, r3
 8000256:	f106 30ff 	add.w	r0, r6, #4294967295
 800025a:	f080 8119 	bcs.w	8000490 <__udivmoddi4+0x288>
 800025e:	4299      	cmp	r1, r3
 8000260:	f240 8116 	bls.w	8000490 <__udivmoddi4+0x288>
 8000264:	3e02      	subs	r6, #2
 8000266:	443b      	add	r3, r7
 8000268:	1a5b      	subs	r3, r3, r1
 800026a:	b2a4      	uxth	r4, r4
 800026c:	fbb3 f0f8 	udiv	r0, r3, r8
 8000270:	fb08 3310 	mls	r3, r8, r0, r3
 8000274:	ea44 4403 	orr.w	r4, r4, r3, lsl #16
 8000278:	fb00 fe0e 	mul.w	lr, r0, lr
 800027c:	45a6      	cmp	lr, r4
 800027e:	d909      	bls.n	8000294 <__udivmoddi4+0x8c>
 8000280:	193c      	adds	r4, r7, r4
 8000282:	f100 33ff 	add.w	r3, r0, #4294967295
 8000286:	f080 8105 	bcs.w	8000494 <__udivmoddi4+0x28c>
 800028a:	45a6      	cmp	lr, r4
 800028c:	f240 8102 	bls.w	8000494 <__udivmoddi4+0x28c>
 8000290:	3802      	subs	r0, #2
 8000292:	443c      	add	r4, r7
 8000294:	ea40 4006 	orr.w	r0, r0, r6, lsl #16
 8000298:	eba4 040e 	sub.w	r4, r4, lr
 800029c:	2600      	movs	r6, #0
 800029e:	b11d      	cbz	r5, 80002a8 <__udivmoddi4+0xa0>
 80002a0:	40d4      	lsrs	r4, r2
 80002a2:	2300      	movs	r3, #0
 80002a4:	e9c5 4300 	strd	r4, r3, [r5]
 80002a8:	4631      	mov	r1, r6
 80002aa:	e8bd 87f0 	ldmia.w	sp!, {r4, r5, r6, r7, r8, r9, sl, pc}
 80002ae:	b902      	cbnz	r2, 80002b2 <__udivmoddi4+0xaa>
 80002b0:	deff      	udf	#255	; 0xff
 80002b2:	fab2 f282 	clz	r2, r2
 80002b6:	2a00      	cmp	r2, #0
 80002b8:	d150      	bne.n	800035c <__udivmoddi4+0x154>
 80002ba:	1bcb      	subs	r3, r1, r7
 80002bc:	ea4f 4e17 	mov.w	lr, r7, lsr #16
 80002c0:	fa1f f887 	uxth.w	r8, r7
 80002c4:	2601      	movs	r6, #1
 80002c6:	fbb3 fcfe 	udiv	ip, r3, lr
 80002ca:	0c21      	lsrs	r1, r4, #16
 80002cc:	fb0e 331c 	mls	r3, lr, ip, r3
 80002d0:	ea41 4103 	orr.w	r1, r1, r3, lsl #16
 80002d4:	fb08 f30c 	mul.w	r3, r8, ip
 80002d8:	428b      	cmp	r3, r1
 80002da:	d907      	bls.n	80002ec <__udivmoddi4+0xe4>
 80002dc:	1879      	adds	r1, r7, r1
 80002de:	f10c 30ff 	add.w	r0, ip, #4294967295
 80002e2:	d202      	bcs.n	80002ea <__udivmoddi4+0xe2>
 80002e4:	428b      	cmp	r3, r1
 80002e6:	f200 80e9 	bhi.w	80004bc <__udivmoddi4+0x2b4>
 80002ea:	4684      	mov	ip, r0
 80002ec:	1ac9      	subs	r1, r1, r3
 80002ee:	b2a3      	uxth	r3, r4
 80002f0:	fbb1 f0fe 	udiv	r0, r1, lr
 80002f4:	fb0e 1110 	mls	r1, lr, r0, r1
 80002f8:	ea43 4401 	orr.w	r4, r3, r1, lsl #16
 80002fc:	fb08 f800 	mul.w	r8, r8, r0
 8000300:	45a0      	cmp	r8, r4
 8000302:	d907      	bls.n	8000314 <__udivmoddi4+0x10c>
 8000304:	193c      	adds	r4, r7, r4
 8000306:	f100 33ff 	add.w	r3, r0, #4294967295
 800030a:	d202      	bcs.n	8000312 <__udivmoddi4+0x10a>
 800030c:	45a0      	cmp	r8, r4
 800030e:	f200 80d9 	bhi.w	80004c4 <__udivmoddi4+0x2bc>
 8000312:	4618      	mov	r0, r3
 8000314:	eba4 0408 	sub.w	r4, r4, r8
 8000318:	ea40 400c 	orr.w	r0, r0, ip, lsl #16
 800031c:	e7bf      	b.n	800029e <__udivmoddi4+0x96>
 800031e:	428b      	cmp	r3, r1
 8000320:	d909      	bls.n	8000336 <__udivmoddi4+0x12e>
 8000322:	2d00      	cmp	r5, #0
 8000324:	f000 80b1 	beq.w	800048a <__udivmoddi4+0x282>
 8000328:	2600      	movs	r6, #0
 800032a:	e9c5 0100 	strd	r0, r1, [r5]
 800032e:	4630      	mov	r0, r6
 8000330:	4631      	mov	r1, r6
 8000332:	e8bd 87f0 	ldmia.w	sp!, {r4, r5, r6, r7, r8, r9, sl, pc}
 8000336:	fab3 f683 	clz	r6, r3
 800033a:	2e00      	cmp	r6, #0
 800033c:	d14a      	bne.n	80003d4 <__udivmoddi4+0x1cc>
 800033e:	428b      	cmp	r3, r1
 8000340:	d302      	bcc.n	8000348 <__udivmoddi4+0x140>
 8000342:	4282      	cmp	r2, r0
 8000344:	f200 80b8 	bhi.w	80004b8 <__udivmoddi4+0x2b0>
 8000348:	1a84      	subs	r4, r0, r2
 800034a:	eb61 0103 	sbc.w	r1, r1, r3
 800034e:	2001      	movs	r0, #1
 8000350:	468c      	mov	ip, r1
 8000352:	2d00      	cmp	r5, #0
 8000354:	d0a8      	beq.n	80002a8 <__udivmoddi4+0xa0>
 8000356:	e9c5 4c00 	strd	r4, ip, [r5]
 800035a:	e7a5      	b.n	80002a8 <__udivmoddi4+0xa0>
 800035c:	f1c2 0320 	rsb	r3, r2, #32
 8000360:	fa20 f603 	lsr.w	r6, r0, r3
 8000364:	4097      	lsls	r7, r2
 8000366:	fa01 f002 	lsl.w	r0, r1, r2
 800036a:	ea4f 4e17 	mov.w	lr, r7, lsr #16
 800036e:	40d9      	lsrs	r1, r3
 8000370:	4330      	orrs	r0, r6
 8000372:	0c03      	lsrs	r3, r0, #16
 8000374:	fbb1 f6fe 	udiv	r6, r1, lr
 8000378:	fa1f f887 	uxth.w	r8, r7
 800037c:	fb0e 1116 	mls	r1, lr, r6, r1
 8000380:	ea43 4301 	orr.w	r3, r3, r1, lsl #16
 8000384:	fb06 f108 	mul.w	r1, r6, r8
 8000388:	4299      	cmp	r1, r3
 800038a:	fa04 f402 	lsl.w	r4, r4, r2
 800038e:	d909      	bls.n	80003a4 <__udivmoddi4+0x19c>
 8000390:	18fb      	adds	r3, r7, r3
 8000392:	f106 3cff 	add.w	ip, r6, #4294967295
 8000396:	f080 808d 	bcs.w	80004b4 <__udivmoddi4+0x2ac>
 800039a:	4299      	cmp	r1, r3
 800039c:	f240 808a 	bls.w	80004b4 <__udivmoddi4+0x2ac>
 80003a0:	3e02      	subs	r6, #2
 80003a2:	443b      	add	r3, r7
 80003a4:	1a5b      	subs	r3, r3, r1
 80003a6:	b281      	uxth	r1, r0
 80003a8:	fbb3 f0fe 	udiv	r0, r3, lr
 80003ac:	fb0e 3310 	mls	r3, lr, r0, r3
 80003b0:	ea41 4103 	orr.w	r1, r1, r3, lsl #16
 80003b4:	fb00 f308 	mul.w	r3, r0, r8
 80003b8:	428b      	cmp	r3, r1
 80003ba:	d907      	bls.n	80003cc <__udivmoddi4+0x1c4>
 80003bc:	1879      	adds	r1, r7, r1
 80003be:	f100 3cff 	add.w	ip, r0, #4294967295
 80003c2:	d273      	bcs.n	80004ac <__udivmoddi4+0x2a4>
 80003c4:	428b      	cmp	r3, r1
 80003c6:	d971      	bls.n	80004ac <__udivmoddi4+0x2a4>
 80003c8:	3802      	subs	r0, #2
 80003ca:	4439      	add	r1, r7
 80003cc:	1acb      	subs	r3, r1, r3
 80003ce:	ea40 4606 	orr.w	r6, r0, r6, lsl #16
 80003d2:	e778      	b.n	80002c6 <__udivmoddi4+0xbe>
 80003d4:	f1c6 0c20 	rsb	ip, r6, #32
 80003d8:	fa03 f406 	lsl.w	r4, r3, r6
 80003dc:	fa22 f30c 	lsr.w	r3, r2, ip
 80003e0:	431c      	orrs	r4, r3
 80003e2:	fa20 f70c 	lsr.w	r7, r0, ip
 80003e6:	fa01 f306 	lsl.w	r3, r1, r6
 80003ea:	ea4f 4e14 	mov.w	lr, r4, lsr #16
 80003ee:	fa21 f10c 	lsr.w	r1, r1, ip
 80003f2:	431f      	orrs	r7, r3
 80003f4:	0c3b      	lsrs	r3, r7, #16
 80003f6:	fbb1 f9fe 	udiv	r9, r1, lr
 80003fa:	fa1f f884 	uxth.w	r8, r4
 80003fe:	fb0e 1119 	mls	r1, lr, r9, r1
 8000402:	ea43 4101 	orr.w	r1, r3, r1, lsl #16
 8000406:	fb09 fa08 	mul.w	sl, r9, r8
 800040a:	458a      	cmp	sl, r1
 800040c:	fa02 f206 	lsl.w	r2, r2, r6
 8000410:	fa00 f306 	lsl.w	r3, r0, r6
 8000414:	d908      	bls.n	8000428 <__udivmoddi4+0x220>
 8000416:	1861      	adds	r1, r4, r1
 8000418:	f109 30ff 	add.w	r0, r9, #4294967295
 800041c:	d248      	bcs.n	80004b0 <__udivmoddi4+0x2a8>
 800041e:	458a      	cmp	sl, r1
 8000420:	d946      	bls.n	80004b0 <__udivmoddi4+0x2a8>
 8000422:	f1a9 0902 	sub.w	r9, r9, #2
 8000426:	4421      	add	r1, r4
 8000428:	eba1 010a 	sub.w	r1, r1, sl
 800042c:	b2bf      	uxth	r7, r7
 800042e:	fbb1 f0fe 	udiv	r0, r1, lr
 8000432:	fb0e 1110 	mls	r1, lr, r0, r1
 8000436:	ea47 4701 	orr.w	r7, r7, r1, lsl #16
 800043a:	fb00 f808 	mul.w	r8, r0, r8
 800043e:	45b8      	cmp	r8, r7
 8000440:	d907      	bls.n	8000452 <__udivmoddi4+0x24a>
 8000442:	19e7      	adds	r7, r4, r7
 8000444:	f100 31ff 	add.w	r1, r0, #4294967295
 8000448:	d22e      	bcs.n	80004a8 <__udivmoddi4+0x2a0>
 800044a:	45b8      	cmp	r8, r7
 800044c:	d92c      	bls.n	80004a8 <__udivmoddi4+0x2a0>
 800044e:	3802      	subs	r0, #2
 8000450:	4427      	add	r7, r4
 8000452:	ea40 4009 	orr.w	r0, r0, r9, lsl #16
 8000456:	eba7 0708 	sub.w	r7, r7, r8
 800045a:	fba0 8902 	umull	r8, r9, r0, r2
 800045e:	454f      	cmp	r7, r9
 8000460:	46c6      	mov	lr, r8
 8000462:	4649      	mov	r1, r9
 8000464:	d31a      	bcc.n	800049c <__udivmoddi4+0x294>
 8000466:	d017      	beq.n	8000498 <__udivmoddi4+0x290>
 8000468:	b15d      	cbz	r5, 8000482 <__udivmoddi4+0x27a>
 800046a:	ebb3 020e 	subs.w	r2, r3, lr
 800046e:	eb67 0701 	sbc.w	r7, r7, r1
 8000472:	fa07 fc0c 	lsl.w	ip, r7, ip
 8000476:	40f2      	lsrs	r2, r6
 8000478:	ea4c 0202 	orr.w	r2, ip, r2
 800047c:	40f7      	lsrs	r7, r6
 800047e:	e9c5 2700 	strd	r2, r7, [r5]
 8000482:	2600      	movs	r6, #0
 8000484:	4631      	mov	r1, r6
 8000486:	e8bd 87f0 	ldmia.w	sp!, {r4, r5, r6, r7, r8, r9, sl, pc}
 800048a:	462e      	mov	r6, r5
 800048c:	4628      	mov	r0, r5
 800048e:	e70b      	b.n	80002a8 <__udivmoddi4+0xa0>
 8000490:	4606      	mov	r6, r0
 8000492:	e6e9      	b.n	8000268 <__udivmoddi4+0x60>
 8000494:	4618      	mov	r0, r3
 8000496:	e6fd      	b.n	8000294 <__udivmoddi4+0x8c>
 8000498:	4543      	cmp	r3, r8
 800049a:	d2e5      	bcs.n	8000468 <__udivmoddi4+0x260>
 800049c:	ebb8 0e02 	subs.w	lr, r8, r2
 80004a0:	eb69 0104 	sbc.w	r1, r9, r4
 80004a4:	3801      	subs	r0, #1
 80004a6:	e7df      	b.n	8000468 <__udivmoddi4+0x260>
 80004a8:	4608      	mov	r0, r1
 80004aa:	e7d2      	b.n	8000452 <__udivmoddi4+0x24a>
 80004ac:	4660      	mov	r0, ip
 80004ae:	e78d      	b.n	80003cc <__udivmoddi4+0x1c4>
 80004b0:	4681      	mov	r9, r0
 80004b2:	e7b9      	b.n	8000428 <__udivmoddi4+0x220>
 80004b4:	4666      	mov	r6, ip
 80004b6:	e775      	b.n	80003a4 <__udivmoddi4+0x19c>
 80004b8:	4630      	mov	r0, r6
 80004ba:	e74a      	b.n	8000352 <__udivmoddi4+0x14a>
 80004bc:	f1ac 0c02 	sub.w	ip, ip, #2
 80004c0:	4439      	add	r1, r7
 80004c2:	e713      	b.n	80002ec <__udivmoddi4+0xe4>
 80004c4:	3802      	subs	r0, #2
 80004c6:	443c      	add	r4, r7
 80004c8:	e724      	b.n	8000314 <__udivmoddi4+0x10c>
 80004ca:	bf00      	nop

080004cc <__aeabi_idiv0>:
 80004cc:	4770      	bx	lr
 80004ce:	bf00      	nop

080004d0 <main>:
/**
  * @brief  The application entry point.
  * @retval int
  */
int main(void)
{
 80004d0:	b598      	push	{r3, r4, r7, lr}
 80004d2:	af00      	add	r7, sp, #0
  /* USER CODE END 1 */

  /* MCU Configuration--------------------------------------------------------*/

  /* Reset of all peripherals, Initializes the Flash interface and the Systick. */
  HAL_Init();
 80004d4:	f000 f9b2 	bl	800083c <HAL_Init>
  /* USER CODE BEGIN Init */

  /* USER CODE END Init */

  /* Configure the system clock */
  SystemClock_Config();
 80004d8:	f000 f818 	bl	800050c <SystemClock_Config>
  /* USER CODE BEGIN SysInit */

  /* USER CODE END SysInit */

  /* Initialize all configured peripherals */
  MX_GPIO_Init();
 80004dc:	f000 f8aa 	bl	8000634 <MX_GPIO_Init>
  MX_USART3_UART_Init();
 80004e0:	f000 f87e 	bl	80005e0 <MX_USART3_UART_Init>
  /* USER CODE BEGIN 2 */

	HAL_UART_Transmit(&huart3, (uint8_t*)dat, strlen(dat), HAL_MAX_DELAY);
 80004e4:	4b07      	ldr	r3, [pc, #28]	; (8000504 <main+0x34>)
 80004e6:	681c      	ldr	r4, [r3, #0]
 80004e8:	4b06      	ldr	r3, [pc, #24]	; (8000504 <main+0x34>)
 80004ea:	681b      	ldr	r3, [r3, #0]
 80004ec:	4618      	mov	r0, r3
 80004ee:	f7ff fe6b 	bl	80001c8 <strlen>
 80004f2:	4603      	mov	r3, r0
 80004f4:	b29a      	uxth	r2, r3
 80004f6:	f04f 33ff 	mov.w	r3, #4294967295
 80004fa:	4621      	mov	r1, r4
 80004fc:	4802      	ldr	r0, [pc, #8]	; (8000508 <main+0x38>)
 80004fe:	f001 f952 	bl	80017a6 <HAL_UART_Transmit>

  /* USER CODE END 2 */

  /* Infinite loop */
  /* USER CODE BEGIN WHILE */
  while (1)
 8000502:	e7fe      	b.n	8000502 <main+0x32>
 8000504:	20000000 	.word	0x20000000
 8000508:	2000002c 	.word	0x2000002c

0800050c <SystemClock_Config>:
/**
  * @brief System Clock Configuration
  * @retval None
  */
void SystemClock_Config(void)
{
 800050c:	b580      	push	{r7, lr}
 800050e:	b094      	sub	sp, #80	; 0x50
 8000510:	af00      	add	r7, sp, #0
  RCC_OscInitTypeDef RCC_OscInitStruct = {0};
 8000512:	f107 0320 	add.w	r3, r7, #32
 8000516:	2230      	movs	r2, #48	; 0x30
 8000518:	2100      	movs	r1, #0
 800051a:	4618      	mov	r0, r3
 800051c:	f001 fc30 	bl	8001d80 <memset>
  RCC_ClkInitTypeDef RCC_ClkInitStruct = {0};
 8000520:	f107 030c 	add.w	r3, r7, #12
 8000524:	2200      	movs	r2, #0
 8000526:	601a      	str	r2, [r3, #0]
 8000528:	605a      	str	r2, [r3, #4]
 800052a:	609a      	str	r2, [r3, #8]
 800052c:	60da      	str	r2, [r3, #12]
 800052e:	611a      	str	r2, [r3, #16]

  /** Configure the main internal regulator output voltage
  */
  __HAL_RCC_PWR_CLK_ENABLE();
 8000530:	2300      	movs	r3, #0
 8000532:	60bb      	str	r3, [r7, #8]
 8000534:	4b28      	ldr	r3, [pc, #160]	; (80005d8 <SystemClock_Config+0xcc>)
 8000536:	6c1b      	ldr	r3, [r3, #64]	; 0x40
 8000538:	4a27      	ldr	r2, [pc, #156]	; (80005d8 <SystemClock_Config+0xcc>)
 800053a:	f043 5380 	orr.w	r3, r3, #268435456	; 0x10000000
 800053e:	6413      	str	r3, [r2, #64]	; 0x40
 8000540:	4b25      	ldr	r3, [pc, #148]	; (80005d8 <SystemClock_Config+0xcc>)
 8000542:	6c1b      	ldr	r3, [r3, #64]	; 0x40
 8000544:	f003 5380 	and.w	r3, r3, #268435456	; 0x10000000
 8000548:	60bb      	str	r3, [r7, #8]
 800054a:	68bb      	ldr	r3, [r7, #8]
  __HAL_PWR_VOLTAGESCALING_CONFIG(PWR_REGULATOR_VOLTAGE_SCALE1);
 800054c:	2300      	movs	r3, #0
 800054e:	607b      	str	r3, [r7, #4]
 8000550:	4b22      	ldr	r3, [pc, #136]	; (80005dc <SystemClock_Config+0xd0>)
 8000552:	681b      	ldr	r3, [r3, #0]
 8000554:	4a21      	ldr	r2, [pc, #132]	; (80005dc <SystemClock_Config+0xd0>)
 8000556:	f443 4380 	orr.w	r3, r3, #16384	; 0x4000
 800055a:	6013      	str	r3, [r2, #0]
 800055c:	4b1f      	ldr	r3, [pc, #124]	; (80005dc <SystemClock_Config+0xd0>)
 800055e:	681b      	ldr	r3, [r3, #0]
 8000560:	f403 4380 	and.w	r3, r3, #16384	; 0x4000
 8000564:	607b      	str	r3, [r7, #4]
 8000566:	687b      	ldr	r3, [r7, #4]
  /** Initializes the RCC Oscillators according to the specified parameters
  * in the RCC_OscInitTypeDef structure.
  */
  RCC_OscInitStruct.OscillatorType = RCC_OSCILLATORTYPE_HSE;
 8000568:	2301      	movs	r3, #1
 800056a:	623b      	str	r3, [r7, #32]
  RCC_OscInitStruct.HSEState = RCC_HSE_ON;
 800056c:	f44f 3380 	mov.w	r3, #65536	; 0x10000
 8000570:	627b      	str	r3, [r7, #36]	; 0x24
  RCC_OscInitStruct.PLL.PLLState = RCC_PLL_ON;
 8000572:	2302      	movs	r3, #2
 8000574:	63bb      	str	r3, [r7, #56]	; 0x38
  RCC_OscInitStruct.PLL.PLLSource = RCC_PLLSOURCE_HSE;
 8000576:	f44f 0380 	mov.w	r3, #4194304	; 0x400000
 800057a:	63fb      	str	r3, [r7, #60]	; 0x3c
  RCC_OscInitStruct.PLL.PLLM = 4;
 800057c:	2304      	movs	r3, #4
 800057e:	643b      	str	r3, [r7, #64]	; 0x40
  RCC_OscInitStruct.PLL.PLLN = 168;
 8000580:	23a8      	movs	r3, #168	; 0xa8
 8000582:	647b      	str	r3, [r7, #68]	; 0x44
  RCC_OscInitStruct.PLL.PLLP = RCC_PLLP_DIV2;
 8000584:	2302      	movs	r3, #2
 8000586:	64bb      	str	r3, [r7, #72]	; 0x48
  RCC_OscInitStruct.PLL.PLLQ = 7;
 8000588:	2307      	movs	r3, #7
 800058a:	64fb      	str	r3, [r7, #76]	; 0x4c
  if (HAL_RCC_OscConfig(&RCC_OscInitStruct) != HAL_OK)
 800058c:	f107 0320 	add.w	r3, r7, #32
 8000590:	4618      	mov	r0, r3
 8000592:	f000 fc47 	bl	8000e24 <HAL_RCC_OscConfig>
 8000596:	4603      	mov	r3, r0
 8000598:	2b00      	cmp	r3, #0
 800059a:	d001      	beq.n	80005a0 <SystemClock_Config+0x94>
  {
    Error_Handler();
 800059c:	f000 f872 	bl	8000684 <Error_Handler>
  }
  /** Initializes the CPU, AHB and APB buses clocks
  */
  RCC_ClkInitStruct.ClockType = RCC_CLOCKTYPE_HCLK|RCC_CLOCKTYPE_SYSCLK
 80005a0:	230f      	movs	r3, #15
 80005a2:	60fb      	str	r3, [r7, #12]
                              |RCC_CLOCKTYPE_PCLK1|RCC_CLOCKTYPE_PCLK2;
  RCC_ClkInitStruct.SYSCLKSource = RCC_SYSCLKSOURCE_PLLCLK;
 80005a4:	2302      	movs	r3, #2
 80005a6:	613b      	str	r3, [r7, #16]
  RCC_ClkInitStruct.AHBCLKDivider = RCC_SYSCLK_DIV1;
 80005a8:	2300      	movs	r3, #0
 80005aa:	617b      	str	r3, [r7, #20]
  RCC_ClkInitStruct.APB1CLKDivider = RCC_HCLK_DIV4;
 80005ac:	f44f 53a0 	mov.w	r3, #5120	; 0x1400
 80005b0:	61bb      	str	r3, [r7, #24]
  RCC_ClkInitStruct.APB2CLKDivider = RCC_HCLK_DIV2;
 80005b2:	f44f 5380 	mov.w	r3, #4096	; 0x1000
 80005b6:	61fb      	str	r3, [r7, #28]

  if (HAL_RCC_ClockConfig(&RCC_ClkInitStruct, FLASH_LATENCY_5) != HAL_OK)
 80005b8:	f107 030c 	add.w	r3, r7, #12
 80005bc:	2105      	movs	r1, #5
 80005be:	4618      	mov	r0, r3
 80005c0:	f000 fea8 	bl	8001314 <HAL_RCC_ClockConfig>
 80005c4:	4603      	mov	r3, r0
 80005c6:	2b00      	cmp	r3, #0
 80005c8:	d001      	beq.n	80005ce <SystemClock_Config+0xc2>
  {
    Error_Handler();
 80005ca:	f000 f85b 	bl	8000684 <Error_Handler>
  }
}
 80005ce:	bf00      	nop
 80005d0:	3750      	adds	r7, #80	; 0x50
 80005d2:	46bd      	mov	sp, r7
 80005d4:	bd80      	pop	{r7, pc}
 80005d6:	bf00      	nop
 80005d8:	40023800 	.word	0x40023800
 80005dc:	40007000 	.word	0x40007000

080005e0 <MX_USART3_UART_Init>:
  * @brief USART3 Initialization Function
  * @param None
  * @retval None
  */
static void MX_USART3_UART_Init(void)
{
 80005e0:	b580      	push	{r7, lr}
 80005e2:	af00      	add	r7, sp, #0
  /* USER CODE END USART3_Init 0 */

  /* USER CODE BEGIN USART3_Init 1 */

  /* USER CODE END USART3_Init 1 */
  huart3.Instance = USART3;
 80005e4:	4b11      	ldr	r3, [pc, #68]	; (800062c <MX_USART3_UART_Init+0x4c>)
 80005e6:	4a12      	ldr	r2, [pc, #72]	; (8000630 <MX_USART3_UART_Init+0x50>)
 80005e8:	601a      	str	r2, [r3, #0]
  huart3.Init.BaudRate = 115200;
 80005ea:	4b10      	ldr	r3, [pc, #64]	; (800062c <MX_USART3_UART_Init+0x4c>)
 80005ec:	f44f 32e1 	mov.w	r2, #115200	; 0x1c200
 80005f0:	605a      	str	r2, [r3, #4]
  huart3.Init.WordLength = UART_WORDLENGTH_8B;
 80005f2:	4b0e      	ldr	r3, [pc, #56]	; (800062c <MX_USART3_UART_Init+0x4c>)
 80005f4:	2200      	movs	r2, #0
 80005f6:	609a      	str	r2, [r3, #8]
  huart3.Init.StopBits = UART_STOPBITS_1;
 80005f8:	4b0c      	ldr	r3, [pc, #48]	; (800062c <MX_USART3_UART_Init+0x4c>)
 80005fa:	2200      	movs	r2, #0
 80005fc:	60da      	str	r2, [r3, #12]
  huart3.Init.Parity = UART_PARITY_NONE;
 80005fe:	4b0b      	ldr	r3, [pc, #44]	; (800062c <MX_USART3_UART_Init+0x4c>)
 8000600:	2200      	movs	r2, #0
 8000602:	611a      	str	r2, [r3, #16]
  huart3.Init.Mode = UART_MODE_TX_RX;
 8000604:	4b09      	ldr	r3, [pc, #36]	; (800062c <MX_USART3_UART_Init+0x4c>)
 8000606:	220c      	movs	r2, #12
 8000608:	615a      	str	r2, [r3, #20]
  huart3.Init.HwFlowCtl = UART_HWCONTROL_NONE;
 800060a:	4b08      	ldr	r3, [pc, #32]	; (800062c <MX_USART3_UART_Init+0x4c>)
 800060c:	2200      	movs	r2, #0
 800060e:	619a      	str	r2, [r3, #24]
  huart3.Init.OverSampling = UART_OVERSAMPLING_16;
 8000610:	4b06      	ldr	r3, [pc, #24]	; (800062c <MX_USART3_UART_Init+0x4c>)
 8000612:	2200      	movs	r2, #0
 8000614:	61da      	str	r2, [r3, #28]
  if (HAL_UART_Init(&huart3) != HAL_OK)
 8000616:	4805      	ldr	r0, [pc, #20]	; (800062c <MX_USART3_UART_Init+0x4c>)
 8000618:	f001 f878 	bl	800170c <HAL_UART_Init>
 800061c:	4603      	mov	r3, r0
 800061e:	2b00      	cmp	r3, #0
 8000620:	d001      	beq.n	8000626 <MX_USART3_UART_Init+0x46>
  {
    Error_Handler();
 8000622:	f000 f82f 	bl	8000684 <Error_Handler>
  }
  /* USER CODE BEGIN USART3_Init 2 */

  /* USER CODE END USART3_Init 2 */

}
 8000626:	bf00      	nop
 8000628:	bd80      	pop	{r7, pc}
 800062a:	bf00      	nop
 800062c:	2000002c 	.word	0x2000002c
 8000630:	40004800 	.word	0x40004800

08000634 <MX_GPIO_Init>:
  * @brief GPIO Initialization Function
  * @param None
  * @retval None
  */
static void MX_GPIO_Init(void)
{
 8000634:	b480      	push	{r7}
 8000636:	b083      	sub	sp, #12
 8000638:	af00      	add	r7, sp, #0

  /* GPIO Ports Clock Enable */
  __HAL_RCC_GPIOH_CLK_ENABLE();
 800063a:	2300      	movs	r3, #0
 800063c:	607b      	str	r3, [r7, #4]
 800063e:	4b10      	ldr	r3, [pc, #64]	; (8000680 <MX_GPIO_Init+0x4c>)
 8000640:	6b1b      	ldr	r3, [r3, #48]	; 0x30
 8000642:	4a0f      	ldr	r2, [pc, #60]	; (8000680 <MX_GPIO_Init+0x4c>)
 8000644:	f043 0380 	orr.w	r3, r3, #128	; 0x80
 8000648:	6313      	str	r3, [r2, #48]	; 0x30
 800064a:	4b0d      	ldr	r3, [pc, #52]	; (8000680 <MX_GPIO_Init+0x4c>)
 800064c:	6b1b      	ldr	r3, [r3, #48]	; 0x30
 800064e:	f003 0380 	and.w	r3, r3, #128	; 0x80
 8000652:	607b      	str	r3, [r7, #4]
 8000654:	687b      	ldr	r3, [r7, #4]
  __HAL_RCC_GPIOB_CLK_ENABLE();
 8000656:	2300      	movs	r3, #0
 8000658:	603b      	str	r3, [r7, #0]
 800065a:	4b09      	ldr	r3, [pc, #36]	; (8000680 <MX_GPIO_Init+0x4c>)
 800065c:	6b1b      	ldr	r3, [r3, #48]	; 0x30
 800065e:	4a08      	ldr	r2, [pc, #32]	; (8000680 <MX_GPIO_Init+0x4c>)
 8000660:	f043 0302 	orr.w	r3, r3, #2
 8000664:	6313      	str	r3, [r2, #48]	; 0x30
 8000666:	4b06      	ldr	r3, [pc, #24]	; (8000680 <MX_GPIO_Init+0x4c>)
 8000668:	6b1b      	ldr	r3, [r3, #48]	; 0x30
 800066a:	f003 0302 	and.w	r3, r3, #2
 800066e:	603b      	str	r3, [r7, #0]
 8000670:	683b      	ldr	r3, [r7, #0]

}
 8000672:	bf00      	nop
 8000674:	370c      	adds	r7, #12
 8000676:	46bd      	mov	sp, r7
 8000678:	f85d 7b04 	ldr.w	r7, [sp], #4
 800067c:	4770      	bx	lr
 800067e:	bf00      	nop
 8000680:	40023800 	.word	0x40023800

08000684 <Error_Handler>:
/**
  * @brief  This function is executed in case of error occurrence.
  * @retval None
  */
void Error_Handler(void)
{
 8000684:	b480      	push	{r7}
 8000686:	af00      	add	r7, sp, #0
  \details Disables IRQ interrupts by setting the I-bit in the CPSR.
           Can only be executed in Privileged modes.
 */
__STATIC_FORCEINLINE void __disable_irq(void)
{
  __ASM volatile ("cpsid i" : : : "memory");
 8000688:	b672      	cpsid	i
}
 800068a:	bf00      	nop
  /* USER CODE BEGIN Error_Handler_Debug */
  /* User can add his own implementation to report the HAL error return state */
  __disable_irq();
  while (1)
 800068c:	e7fe      	b.n	800068c <Error_Handler+0x8>
	...

08000690 <HAL_MspInit>:
/* USER CODE END 0 */
/**
  * Initializes the Global MSP.
  */
void HAL_MspInit(void)
{
 8000690:	b580      	push	{r7, lr}
 8000692:	b082      	sub	sp, #8
 8000694:	af00      	add	r7, sp, #0
  /* USER CODE BEGIN MspInit 0 */

  /* USER CODE END MspInit 0 */

  __HAL_RCC_SYSCFG_CLK_ENABLE();
 8000696:	2300      	movs	r3, #0
 8000698:	607b      	str	r3, [r7, #4]
 800069a:	4b10      	ldr	r3, [pc, #64]	; (80006dc <HAL_MspInit+0x4c>)
 800069c:	6c5b      	ldr	r3, [r3, #68]	; 0x44
 800069e:	4a0f      	ldr	r2, [pc, #60]	; (80006dc <HAL_MspInit+0x4c>)
 80006a0:	f443 4380 	orr.w	r3, r3, #16384	; 0x4000
 80006a4:	6453      	str	r3, [r2, #68]	; 0x44
 80006a6:	4b0d      	ldr	r3, [pc, #52]	; (80006dc <HAL_MspInit+0x4c>)
 80006a8:	6c5b      	ldr	r3, [r3, #68]	; 0x44
 80006aa:	f403 4380 	and.w	r3, r3, #16384	; 0x4000
 80006ae:	607b      	str	r3, [r7, #4]
 80006b0:	687b      	ldr	r3, [r7, #4]
  __HAL_RCC_PWR_CLK_ENABLE();
 80006b2:	2300      	movs	r3, #0
 80006b4:	603b      	str	r3, [r7, #0]
 80006b6:	4b09      	ldr	r3, [pc, #36]	; (80006dc <HAL_MspInit+0x4c>)
 80006b8:	6c1b      	ldr	r3, [r3, #64]	; 0x40
 80006ba:	4a08      	ldr	r2, [pc, #32]	; (80006dc <HAL_MspInit+0x4c>)
 80006bc:	f043 5380 	orr.w	r3, r3, #268435456	; 0x10000000
 80006c0:	6413      	str	r3, [r2, #64]	; 0x40
 80006c2:	4b06      	ldr	r3, [pc, #24]	; (80006dc <HAL_MspInit+0x4c>)
 80006c4:	6c1b      	ldr	r3, [r3, #64]	; 0x40
 80006c6:	f003 5380 	and.w	r3, r3, #268435456	; 0x10000000
 80006ca:	603b      	str	r3, [r7, #0]
 80006cc:	683b      	ldr	r3, [r7, #0]

  HAL_NVIC_SetPriorityGrouping(NVIC_PRIORITYGROUP_0);
 80006ce:	2007      	movs	r0, #7
 80006d0:	f000 f9d8 	bl	8000a84 <HAL_NVIC_SetPriorityGrouping>
  /* System interrupt init*/

  /* USER CODE BEGIN MspInit 1 */

  /* USER CODE END MspInit 1 */
}
 80006d4:	bf00      	nop
 80006d6:	3708      	adds	r7, #8
 80006d8:	46bd      	mov	sp, r7
 80006da:	bd80      	pop	{r7, pc}
 80006dc:	40023800 	.word	0x40023800

080006e0 <HAL_UART_MspInit>:
* This function configures the hardware resources used in this example
* @param huart: UART handle pointer
* @retval None
*/
void HAL_UART_MspInit(UART_HandleTypeDef* huart)
{
 80006e0:	b580      	push	{r7, lr}
 80006e2:	b08a      	sub	sp, #40	; 0x28
 80006e4:	af00      	add	r7, sp, #0
 80006e6:	6078      	str	r0, [r7, #4]
  GPIO_InitTypeDef GPIO_InitStruct = {0};
 80006e8:	f107 0314 	add.w	r3, r7, #20
 80006ec:	2200      	movs	r2, #0
 80006ee:	601a      	str	r2, [r3, #0]
 80006f0:	605a      	str	r2, [r3, #4]
 80006f2:	609a      	str	r2, [r3, #8]
 80006f4:	60da      	str	r2, [r3, #12]
 80006f6:	611a      	str	r2, [r3, #16]
  if(huart->Instance==USART3)
 80006f8:	687b      	ldr	r3, [r7, #4]
 80006fa:	681b      	ldr	r3, [r3, #0]
 80006fc:	4a19      	ldr	r2, [pc, #100]	; (8000764 <HAL_UART_MspInit+0x84>)
 80006fe:	4293      	cmp	r3, r2
 8000700:	d12c      	bne.n	800075c <HAL_UART_MspInit+0x7c>
  {
  /* USER CODE BEGIN USART3_MspInit 0 */

  /* USER CODE END USART3_MspInit 0 */
    /* Peripheral clock enable */
    __HAL_RCC_USART3_CLK_ENABLE();
 8000702:	2300      	movs	r3, #0
 8000704:	613b      	str	r3, [r7, #16]
 8000706:	4b18      	ldr	r3, [pc, #96]	; (8000768 <HAL_UART_MspInit+0x88>)
 8000708:	6c1b      	ldr	r3, [r3, #64]	; 0x40
 800070a:	4a17      	ldr	r2, [pc, #92]	; (8000768 <HAL_UART_MspInit+0x88>)
 800070c:	f443 2380 	orr.w	r3, r3, #262144	; 0x40000
 8000710:	6413      	str	r3, [r2, #64]	; 0x40
 8000712:	4b15      	ldr	r3, [pc, #84]	; (8000768 <HAL_UART_MspInit+0x88>)
 8000714:	6c1b      	ldr	r3, [r3, #64]	; 0x40
 8000716:	f403 2380 	and.w	r3, r3, #262144	; 0x40000
 800071a:	613b      	str	r3, [r7, #16]
 800071c:	693b      	ldr	r3, [r7, #16]

    __HAL_RCC_GPIOB_CLK_ENABLE();
 800071e:	2300      	movs	r3, #0
 8000720:	60fb      	str	r3, [r7, #12]
 8000722:	4b11      	ldr	r3, [pc, #68]	; (8000768 <HAL_UART_MspInit+0x88>)
 8000724:	6b1b      	ldr	r3, [r3, #48]	; 0x30
 8000726:	4a10      	ldr	r2, [pc, #64]	; (8000768 <HAL_UART_MspInit+0x88>)
 8000728:	f043 0302 	orr.w	r3, r3, #2
 800072c:	6313      	str	r3, [r2, #48]	; 0x30
 800072e:	4b0e      	ldr	r3, [pc, #56]	; (8000768 <HAL_UART_MspInit+0x88>)
 8000730:	6b1b      	ldr	r3, [r3, #48]	; 0x30
 8000732:	f003 0302 	and.w	r3, r3, #2
 8000736:	60fb      	str	r3, [r7, #12]
 8000738:	68fb      	ldr	r3, [r7, #12]
    /**USART3 GPIO Configuration
    PB10     ------> USART3_TX
    PB11     ------> USART3_RX
    */
    GPIO_InitStruct.Pin = GPIO_PIN_10|GPIO_PIN_11;
 800073a:	f44f 6340 	mov.w	r3, #3072	; 0xc00
 800073e:	617b      	str	r3, [r7, #20]
    GPIO_InitStruct.Mode = GPIO_MODE_AF_PP;
 8000740:	2302      	movs	r3, #2
 8000742:	61bb      	str	r3, [r7, #24]
    GPIO_InitStruct.Pull = GPIO_NOPULL;
 8000744:	2300      	movs	r3, #0
 8000746:	61fb      	str	r3, [r7, #28]
    GPIO_InitStruct.Speed = GPIO_SPEED_FREQ_VERY_HIGH;
 8000748:	2303      	movs	r3, #3
 800074a:	623b      	str	r3, [r7, #32]
    GPIO_InitStruct.Alternate = GPIO_AF7_USART3;
 800074c:	2307      	movs	r3, #7
 800074e:	627b      	str	r3, [r7, #36]	; 0x24
    HAL_GPIO_Init(GPIOB, &GPIO_InitStruct);
 8000750:	f107 0314 	add.w	r3, r7, #20
 8000754:	4619      	mov	r1, r3
 8000756:	4805      	ldr	r0, [pc, #20]	; (800076c <HAL_UART_MspInit+0x8c>)
 8000758:	f000 f9c8 	bl	8000aec <HAL_GPIO_Init>
  /* USER CODE BEGIN USART3_MspInit 1 */

  /* USER CODE END USART3_MspInit 1 */
  }

}
 800075c:	bf00      	nop
 800075e:	3728      	adds	r7, #40	; 0x28
 8000760:	46bd      	mov	sp, r7
 8000762:	bd80      	pop	{r7, pc}
 8000764:	40004800 	.word	0x40004800
 8000768:	40023800 	.word	0x40023800
 800076c:	40020400 	.word	0x40020400

08000770 <NMI_Handler>:
/******************************************************************************/
/**
  * @brief This function handles Non maskable interrupt.
  */
void NMI_Handler(void)
{
 8000770:	b480      	push	{r7}
 8000772:	af00      	add	r7, sp, #0
  /* USER CODE BEGIN NonMaskableInt_IRQn 0 */

  /* USER CODE END NonMaskableInt_IRQn 0 */
  /* USER CODE BEGIN NonMaskableInt_IRQn 1 */
  while (1)
 8000774:	e7fe      	b.n	8000774 <NMI_Handler+0x4>

08000776 <HardFault_Handler>:

/**
  * @brief This function handles Hard fault interrupt.
  */
void HardFault_Handler(void)
{
 8000776:	b480      	push	{r7}
 8000778:	af00      	add	r7, sp, #0
  /* USER CODE BEGIN HardFault_IRQn 0 */

  /* USER CODE END HardFault_IRQn 0 */
  while (1)
 800077a:	e7fe      	b.n	800077a <HardFault_Handler+0x4>

0800077c <MemManage_Handler>:

/**
  * @brief This function handles Memory management fault.
  */
void MemManage_Handler(void)
{
 800077c:	b480      	push	{r7}
 800077e:	af00      	add	r7, sp, #0
  /* USER CODE BEGIN MemoryManagement_IRQn 0 */

  /* USER CODE END MemoryManagement_IRQn 0 */
  while (1)
 8000780:	e7fe      	b.n	8000780 <MemManage_Handler+0x4>

08000782 <BusFault_Handler>:

/**
  * @brief This function handles Pre-fetch fault, memory access fault.
  */
void BusFault_Handler(void)
{
 8000782:	b480      	push	{r7}
 8000784:	af00      	add	r7, sp, #0
  /* USER CODE BEGIN BusFault_IRQn 0 */

  /* USER CODE END BusFault_IRQn 0 */
  while (1)
 8000786:	e7fe      	b.n	8000786 <BusFault_Handler+0x4>

08000788 <UsageFault_Handler>:

/**
  * @brief This function handles Undefined instruction or illegal state.
  */
void UsageFault_Handler(void)
{
 8000788:	b480      	push	{r7}
 800078a:	af00      	add	r7, sp, #0
  /* USER CODE BEGIN UsageFault_IRQn 0 */

  /* USER CODE END UsageFault_IRQn 0 */
  while (1)
 800078c:	e7fe      	b.n	800078c <UsageFault_Handler+0x4>

0800078e <SVC_Handler>:

/**
  * @brief This function handles System service call via SWI instruction.
  */
void SVC_Handler(void)
{
 800078e:	b480      	push	{r7}
 8000790:	af00      	add	r7, sp, #0

  /* USER CODE END SVCall_IRQn 0 */
  /* USER CODE BEGIN SVCall_IRQn 1 */

  /* USER CODE END SVCall_IRQn 1 */
}
 8000792:	bf00      	nop
 8000794:	46bd      	mov	sp, r7
 8000796:	f85d 7b04 	ldr.w	r7, [sp], #4
 800079a:	4770      	bx	lr

0800079c <DebugMon_Handler>:

/**
  * @brief This function handles Debug monitor.
  */
void DebugMon_Handler(void)
{
 800079c:	b480      	push	{r7}
 800079e:	af00      	add	r7, sp, #0

  /* USER CODE END DebugMonitor_IRQn 0 */
  /* USER CODE BEGIN DebugMonitor_IRQn 1 */

  /* USER CODE END DebugMonitor_IRQn 1 */
}
 80007a0:	bf00      	nop
 80007a2:	46bd      	mov	sp, r7
 80007a4:	f85d 7b04 	ldr.w	r7, [sp], #4
 80007a8:	4770      	bx	lr

080007aa <PendSV_Handler>:

/**
  * @brief This function handles Pendable request for system service.
  */
void PendSV_Handler(void)
{
 80007aa:	b480      	push	{r7}
 80007ac:	af00      	add	r7, sp, #0

  /* USER CODE END PendSV_IRQn 0 */
  /* USER CODE BEGIN PendSV_IRQn 1 */

  /* USER CODE END PendSV_IRQn 1 */
}
 80007ae:	bf00      	nop
 80007b0:	46bd      	mov	sp, r7
 80007b2:	f85d 7b04 	ldr.w	r7, [sp], #4
 80007b6:	4770      	bx	lr

080007b8 <SysTick_Handler>:

/**
  * @brief This function handles System tick timer.
  */
void SysTick_Handler(void)
{
 80007b8:	b580      	push	{r7, lr}
 80007ba:	af00      	add	r7, sp, #0
  /* USER CODE BEGIN SysTick_IRQn 0 */

  /* USER CODE END SysTick_IRQn 0 */
  HAL_IncTick();
 80007bc:	f000 f890 	bl	80008e0 <HAL_IncTick>
  /* USER CODE BEGIN SysTick_IRQn 1 */

  /* USER CODE END SysTick_IRQn 1 */
}
 80007c0:	bf00      	nop
 80007c2:	bd80      	pop	{r7, pc}

080007c4 <SystemInit>:
  *         configuration.
  * @param  None
  * @retval None
  */
void SystemInit(void)
{
 80007c4:	b480      	push	{r7}
 80007c6:	af00      	add	r7, sp, #0
  /* FPU settings ------------------------------------------------------------*/
  #if (__FPU_PRESENT == 1) && (__FPU_USED == 1)
    SCB->CPACR |= ((3UL << 10*2)|(3UL << 11*2));  /* set CP10 and CP11 Full Access */
 80007c8:	4b06      	ldr	r3, [pc, #24]	; (80007e4 <SystemInit+0x20>)
 80007ca:	f8d3 3088 	ldr.w	r3, [r3, #136]	; 0x88
 80007ce:	4a05      	ldr	r2, [pc, #20]	; (80007e4 <SystemInit+0x20>)
 80007d0:	f443 0370 	orr.w	r3, r3, #15728640	; 0xf00000
 80007d4:	f8c2 3088 	str.w	r3, [r2, #136]	; 0x88

  /* Configure the Vector Table location -------------------------------------*/
#if defined(USER_VECT_TAB_ADDRESS)
  SCB->VTOR = VECT_TAB_BASE_ADDRESS | VECT_TAB_OFFSET; /* Vector Table Relocation in Internal SRAM */
#endif /* USER_VECT_TAB_ADDRESS */
}
 80007d8:	bf00      	nop
 80007da:	46bd      	mov	sp, r7
 80007dc:	f85d 7b04 	ldr.w	r7, [sp], #4
 80007e0:	4770      	bx	lr
 80007e2:	bf00      	nop
 80007e4:	e000ed00 	.word	0xe000ed00

080007e8 <Reset_Handler>:

    .section  .text.Reset_Handler
  .weak  Reset_Handler
  .type  Reset_Handler, %function
Reset_Handler:  
  ldr   sp, =_estack     /* set stack pointer */
 80007e8:	f8df d034 	ldr.w	sp, [pc, #52]	; 8000820 <LoopFillZerobss+0x12>

/* Copy the data segment initializers from flash to SRAM */  
  ldr r0, =_sdata
 80007ec:	480d      	ldr	r0, [pc, #52]	; (8000824 <LoopFillZerobss+0x16>)
  ldr r1, =_edata
 80007ee:	490e      	ldr	r1, [pc, #56]	; (8000828 <LoopFillZerobss+0x1a>)
  ldr r2, =_sidata
 80007f0:	4a0e      	ldr	r2, [pc, #56]	; (800082c <LoopFillZerobss+0x1e>)
  movs r3, #0
 80007f2:	2300      	movs	r3, #0
  b LoopCopyDataInit
 80007f4:	e002      	b.n	80007fc <LoopCopyDataInit>

080007f6 <CopyDataInit>:

CopyDataInit:
  ldr r4, [r2, r3]
 80007f6:	58d4      	ldr	r4, [r2, r3]
  str r4, [r0, r3]
 80007f8:	50c4      	str	r4, [r0, r3]
  adds r3, r3, #4
 80007fa:	3304      	adds	r3, #4

080007fc <LoopCopyDataInit>:

LoopCopyDataInit:
  adds r4, r0, r3
 80007fc:	18c4      	adds	r4, r0, r3
  cmp r4, r1
 80007fe:	428c      	cmp	r4, r1
  bcc CopyDataInit
 8000800:	d3f9      	bcc.n	80007f6 <CopyDataInit>
  
/* Zero fill the bss segment. */
  ldr r2, =_sbss
 8000802:	4a0b      	ldr	r2, [pc, #44]	; (8000830 <LoopFillZerobss+0x22>)
  ldr r4, =_ebss
 8000804:	4c0b      	ldr	r4, [pc, #44]	; (8000834 <LoopFillZerobss+0x26>)
  movs r3, #0
 8000806:	2300      	movs	r3, #0
  b LoopFillZerobss
 8000808:	e001      	b.n	800080e <LoopFillZerobss>

0800080a <FillZerobss>:

FillZerobss:
  str  r3, [r2]
 800080a:	6013      	str	r3, [r2, #0]
  adds r2, r2, #4
 800080c:	3204      	adds	r2, #4

0800080e <LoopFillZerobss>:

LoopFillZerobss:
  cmp r2, r4
 800080e:	42a2      	cmp	r2, r4
  bcc FillZerobss
 8000810:	d3fb      	bcc.n	800080a <FillZerobss>

/* Call the clock system intitialization function.*/
  bl  SystemInit   
 8000812:	f7ff ffd7 	bl	80007c4 <SystemInit>
/* Call static constructors */
    bl __libc_init_array
 8000816:	f001 fa8f 	bl	8001d38 <__libc_init_array>
/* Call the application's entry point.*/
  bl  main
 800081a:	f7ff fe59 	bl	80004d0 <main>
  bx  lr    
 800081e:	4770      	bx	lr
  ldr   sp, =_estack     /* set stack pointer */
 8000820:	20020000 	.word	0x20020000
  ldr r0, =_sdata
 8000824:	20000000 	.word	0x20000000
  ldr r1, =_edata
 8000828:	20000010 	.word	0x20000010
  ldr r2, =_sidata
 800082c:	08001ddc 	.word	0x08001ddc
  ldr r2, =_sbss
 8000830:	20000010 	.word	0x20000010
  ldr r4, =_ebss
 8000834:	20000074 	.word	0x20000074

08000838 <ADC_IRQHandler>:
 * @retval None       
*/
    .section  .text.Default_Handler,"ax",%progbits
Default_Handler:
Infinite_Loop:
  b  Infinite_Loop
 8000838:	e7fe      	b.n	8000838 <ADC_IRQHandler>
	...

0800083c <HAL_Init>:
  *         need to ensure that the SysTick time base is always set to 1 millisecond
  *         to have correct HAL operation.
  * @retval HAL status
  */
HAL_StatusTypeDef HAL_Init(void)
{
 800083c:	b580      	push	{r7, lr}
 800083e:	af00      	add	r7, sp, #0
  /* Configure Flash prefetch, Instruction cache, Data cache */ 
#if (INSTRUCTION_CACHE_ENABLE != 0U)
  __HAL_FLASH_INSTRUCTION_CACHE_ENABLE();
 8000840:	4b0e      	ldr	r3, [pc, #56]	; (800087c <HAL_Init+0x40>)
 8000842:	681b      	ldr	r3, [r3, #0]
 8000844:	4a0d      	ldr	r2, [pc, #52]	; (800087c <HAL_Init+0x40>)
 8000846:	f443 7300 	orr.w	r3, r3, #512	; 0x200
 800084a:	6013      	str	r3, [r2, #0]
#endif /* INSTRUCTION_CACHE_ENABLE */

#if (DATA_CACHE_ENABLE != 0U)
  __HAL_FLASH_DATA_CACHE_ENABLE();
 800084c:	4b0b      	ldr	r3, [pc, #44]	; (800087c <HAL_Init+0x40>)
 800084e:	681b      	ldr	r3, [r3, #0]
 8000850:	4a0a      	ldr	r2, [pc, #40]	; (800087c <HAL_Init+0x40>)
 8000852:	f443 6380 	orr.w	r3, r3, #1024	; 0x400
 8000856:	6013      	str	r3, [r2, #0]
#endif /* DATA_CACHE_ENABLE */

#if (PREFETCH_ENABLE != 0U)
  __HAL_FLASH_PREFETCH_BUFFER_ENABLE();
 8000858:	4b08      	ldr	r3, [pc, #32]	; (800087c <HAL_Init+0x40>)
 800085a:	681b      	ldr	r3, [r3, #0]
 800085c:	4a07      	ldr	r2, [pc, #28]	; (800087c <HAL_Init+0x40>)
 800085e:	f443 7380 	orr.w	r3, r3, #256	; 0x100
 8000862:	6013      	str	r3, [r2, #0]
#endif /* PREFETCH_ENABLE */

  /* Set Interrupt Group Priority */
  HAL_NVIC_SetPriorityGrouping(NVIC_PRIORITYGROUP_4);
 8000864:	2003      	movs	r0, #3
 8000866:	f000 f90d 	bl	8000a84 <HAL_NVIC_SetPriorityGrouping>

  /* Use systick as time base source and configure 1ms tick (default clock after Reset is HSI) */
  HAL_InitTick(TICK_INT_PRIORITY);
 800086a:	2000      	movs	r0, #0
 800086c:	f000 f808 	bl	8000880 <HAL_InitTick>

  /* Init the low level hardware */
  HAL_MspInit();
 8000870:	f7ff ff0e 	bl	8000690 <HAL_MspInit>

  /* Return function status */
  return HAL_OK;
 8000874:	2300      	movs	r3, #0
}
 8000876:	4618      	mov	r0, r3
 8000878:	bd80      	pop	{r7, pc}
 800087a:	bf00      	nop
 800087c:	40023c00 	.word	0x40023c00

08000880 <HAL_InitTick>:
  *       implementation  in user file.
  * @param TickPriority Tick interrupt priority.
  * @retval HAL status
  */
__weak HAL_StatusTypeDef HAL_InitTick(uint32_t TickPriority)
{
 8000880:	b580      	push	{r7, lr}
 8000882:	b082      	sub	sp, #8
 8000884:	af00      	add	r7, sp, #0
 8000886:	6078      	str	r0, [r7, #4]
  /* Configure the SysTick to have interrupt in 1ms time basis*/
  if (HAL_SYSTICK_Config(SystemCoreClock / (1000U / uwTickFreq)) > 0U)
 8000888:	4b12      	ldr	r3, [pc, #72]	; (80008d4 <HAL_InitTick+0x54>)
 800088a:	681a      	ldr	r2, [r3, #0]
 800088c:	4b12      	ldr	r3, [pc, #72]	; (80008d8 <HAL_InitTick+0x58>)
 800088e:	781b      	ldrb	r3, [r3, #0]
 8000890:	4619      	mov	r1, r3
 8000892:	f44f 737a 	mov.w	r3, #1000	; 0x3e8
 8000896:	fbb3 f3f1 	udiv	r3, r3, r1
 800089a:	fbb2 f3f3 	udiv	r3, r2, r3
 800089e:	4618      	mov	r0, r3
 80008a0:	f000 f917 	bl	8000ad2 <HAL_SYSTICK_Config>
 80008a4:	4603      	mov	r3, r0
 80008a6:	2b00      	cmp	r3, #0
 80008a8:	d001      	beq.n	80008ae <HAL_InitTick+0x2e>
  {
    return HAL_ERROR;
 80008aa:	2301      	movs	r3, #1
 80008ac:	e00e      	b.n	80008cc <HAL_InitTick+0x4c>
  }

  /* Configure the SysTick IRQ priority */
  if (TickPriority < (1UL << __NVIC_PRIO_BITS))
 80008ae:	687b      	ldr	r3, [r7, #4]
 80008b0:	2b0f      	cmp	r3, #15
 80008b2:	d80a      	bhi.n	80008ca <HAL_InitTick+0x4a>
  {
    HAL_NVIC_SetPriority(SysTick_IRQn, TickPriority, 0U);
 80008b4:	2200      	movs	r2, #0
 80008b6:	6879      	ldr	r1, [r7, #4]
 80008b8:	f04f 30ff 	mov.w	r0, #4294967295
 80008bc:	f000 f8ed 	bl	8000a9a <HAL_NVIC_SetPriority>
    uwTickPrio = TickPriority;
 80008c0:	4a06      	ldr	r2, [pc, #24]	; (80008dc <HAL_InitTick+0x5c>)
 80008c2:	687b      	ldr	r3, [r7, #4]
 80008c4:	6013      	str	r3, [r2, #0]
  {
    return HAL_ERROR;
  }

  /* Return function status */
  return HAL_OK;
 80008c6:	2300      	movs	r3, #0
 80008c8:	e000      	b.n	80008cc <HAL_InitTick+0x4c>
    return HAL_ERROR;
 80008ca:	2301      	movs	r3, #1
}
 80008cc:	4618      	mov	r0, r3
 80008ce:	3708      	adds	r7, #8
 80008d0:	46bd      	mov	sp, r7
 80008d2:	bd80      	pop	{r7, pc}
 80008d4:	20000004 	.word	0x20000004
 80008d8:	2000000c 	.word	0x2000000c
 80008dc:	20000008 	.word	0x20000008

080008e0 <HAL_IncTick>:
 * @note This function is declared as __weak to be overwritten in case of other 
  *      implementations in user file.
  * @retval None
  */
__weak void HAL_IncTick(void)
{
 80008e0:	b480      	push	{r7}
 80008e2:	af00      	add	r7, sp, #0
  uwTick += uwTickFreq;
 80008e4:	4b06      	ldr	r3, [pc, #24]	; (8000900 <HAL_IncTick+0x20>)
 80008e6:	781b      	ldrb	r3, [r3, #0]
 80008e8:	461a      	mov	r2, r3
 80008ea:	4b06      	ldr	r3, [pc, #24]	; (8000904 <HAL_IncTick+0x24>)
 80008ec:	681b      	ldr	r3, [r3, #0]
 80008ee:	4413      	add	r3, r2
 80008f0:	4a04      	ldr	r2, [pc, #16]	; (8000904 <HAL_IncTick+0x24>)
 80008f2:	6013      	str	r3, [r2, #0]
}
 80008f4:	bf00      	nop
 80008f6:	46bd      	mov	sp, r7
 80008f8:	f85d 7b04 	ldr.w	r7, [sp], #4
 80008fc:	4770      	bx	lr
 80008fe:	bf00      	nop
 8000900:	2000000c 	.word	0x2000000c
 8000904:	20000070 	.word	0x20000070

08000908 <HAL_GetTick>:
  * @note This function is declared as __weak to be overwritten in case of other 
  *       implementations in user file.
  * @retval tick value
  */
__weak uint32_t HAL_GetTick(void)
{
 8000908:	b480      	push	{r7}
 800090a:	af00      	add	r7, sp, #0
  return uwTick;
 800090c:	4b03      	ldr	r3, [pc, #12]	; (800091c <HAL_GetTick+0x14>)
 800090e:	681b      	ldr	r3, [r3, #0]
}
 8000910:	4618      	mov	r0, r3
 8000912:	46bd      	mov	sp, r7
 8000914:	f85d 7b04 	ldr.w	r7, [sp], #4
 8000918:	4770      	bx	lr
 800091a:	bf00      	nop
 800091c:	20000070 	.word	0x20000070

08000920 <__NVIC_SetPriorityGrouping>:
           In case of a conflict between priority grouping and available
           priority bits (__NVIC_PRIO_BITS), the smallest possible priority group is set.
  \param [in]      PriorityGroup  Priority grouping field.
 */
__STATIC_INLINE void __NVIC_SetPriorityGrouping(uint32_t PriorityGroup)
{
 8000920:	b480      	push	{r7}
 8000922:	b085      	sub	sp, #20
 8000924:	af00      	add	r7, sp, #0
 8000926:	6078      	str	r0, [r7, #4]
  uint32_t reg_value;
  uint32_t PriorityGroupTmp = (PriorityGroup & (uint32_t)0x07UL);             /* only values 0..7 are used          */
 8000928:	687b      	ldr	r3, [r7, #4]
 800092a:	f003 0307 	and.w	r3, r3, #7
 800092e:	60fb      	str	r3, [r7, #12]

  reg_value  =  SCB->AIRCR;                                                   /* read old register configuration    */
 8000930:	4b0c      	ldr	r3, [pc, #48]	; (8000964 <__NVIC_SetPriorityGrouping+0x44>)
 8000932:	68db      	ldr	r3, [r3, #12]
 8000934:	60bb      	str	r3, [r7, #8]
  reg_value &= ~((uint32_t)(SCB_AIRCR_VECTKEY_Msk | SCB_AIRCR_PRIGROUP_Msk)); /* clear bits to change               */
 8000936:	68ba      	ldr	r2, [r7, #8]
 8000938:	f64f 03ff 	movw	r3, #63743	; 0xf8ff
 800093c:	4013      	ands	r3, r2
 800093e:	60bb      	str	r3, [r7, #8]
  reg_value  =  (reg_value                                   |
                ((uint32_t)0x5FAUL << SCB_AIRCR_VECTKEY_Pos) |
                (PriorityGroupTmp << SCB_AIRCR_PRIGROUP_Pos)  );              /* Insert write key and priority group */
 8000940:	68fb      	ldr	r3, [r7, #12]
 8000942:	021a      	lsls	r2, r3, #8
                ((uint32_t)0x5FAUL << SCB_AIRCR_VECTKEY_Pos) |
 8000944:	68bb      	ldr	r3, [r7, #8]
 8000946:	4313      	orrs	r3, r2
  reg_value  =  (reg_value                                   |
 8000948:	f043 63bf 	orr.w	r3, r3, #100139008	; 0x5f80000
 800094c:	f443 3300 	orr.w	r3, r3, #131072	; 0x20000
 8000950:	60bb      	str	r3, [r7, #8]
  SCB->AIRCR =  reg_value;
 8000952:	4a04      	ldr	r2, [pc, #16]	; (8000964 <__NVIC_SetPriorityGrouping+0x44>)
 8000954:	68bb      	ldr	r3, [r7, #8]
 8000956:	60d3      	str	r3, [r2, #12]
}
 8000958:	bf00      	nop
 800095a:	3714      	adds	r7, #20
 800095c:	46bd      	mov	sp, r7
 800095e:	f85d 7b04 	ldr.w	r7, [sp], #4
 8000962:	4770      	bx	lr
 8000964:	e000ed00 	.word	0xe000ed00

08000968 <__NVIC_GetPriorityGrouping>:
  \brief   Get Priority Grouping
  \details Reads the priority grouping field from the NVIC Interrupt Controller.
  \return                Priority grouping field (SCB->AIRCR [10:8] PRIGROUP field).
 */
__STATIC_INLINE uint32_t __NVIC_GetPriorityGrouping(void)
{
 8000968:	b480      	push	{r7}
 800096a:	af00      	add	r7, sp, #0
  return ((uint32_t)((SCB->AIRCR & SCB_AIRCR_PRIGROUP_Msk) >> SCB_AIRCR_PRIGROUP_Pos));
 800096c:	4b04      	ldr	r3, [pc, #16]	; (8000980 <__NVIC_GetPriorityGrouping+0x18>)
 800096e:	68db      	ldr	r3, [r3, #12]
 8000970:	0a1b      	lsrs	r3, r3, #8
 8000972:	f003 0307 	and.w	r3, r3, #7
}
 8000976:	4618      	mov	r0, r3
 8000978:	46bd      	mov	sp, r7
 800097a:	f85d 7b04 	ldr.w	r7, [sp], #4
 800097e:	4770      	bx	lr
 8000980:	e000ed00 	.word	0xe000ed00

08000984 <__NVIC_SetPriority>:
  \param [in]      IRQn  Interrupt number.
  \param [in]  priority  Priority to set.
  \note    The priority cannot be set for every processor exception.
 */
__STATIC_INLINE void __NVIC_SetPriority(IRQn_Type IRQn, uint32_t priority)
{
 8000984:	b480      	push	{r7}
 8000986:	b083      	sub	sp, #12
 8000988:	af00      	add	r7, sp, #0
 800098a:	4603      	mov	r3, r0
 800098c:	6039      	str	r1, [r7, #0]
 800098e:	71fb      	strb	r3, [r7, #7]
  if ((int32_t)(IRQn) >= 0)
 8000990:	f997 3007 	ldrsb.w	r3, [r7, #7]
 8000994:	2b00      	cmp	r3, #0
 8000996:	db0a      	blt.n	80009ae <__NVIC_SetPriority+0x2a>
  {
    NVIC->IP[((uint32_t)IRQn)]               = (uint8_t)((priority << (8U - __NVIC_PRIO_BITS)) & (uint32_t)0xFFUL);
 8000998:	683b      	ldr	r3, [r7, #0]
 800099a:	b2da      	uxtb	r2, r3
 800099c:	490c      	ldr	r1, [pc, #48]	; (80009d0 <__NVIC_SetPriority+0x4c>)
 800099e:	f997 3007 	ldrsb.w	r3, [r7, #7]
 80009a2:	0112      	lsls	r2, r2, #4
 80009a4:	b2d2      	uxtb	r2, r2
 80009a6:	440b      	add	r3, r1
 80009a8:	f883 2300 	strb.w	r2, [r3, #768]	; 0x300
  }
  else
  {
    SCB->SHP[(((uint32_t)IRQn) & 0xFUL)-4UL] = (uint8_t)((priority << (8U - __NVIC_PRIO_BITS)) & (uint32_t)0xFFUL);
  }
}
 80009ac:	e00a      	b.n	80009c4 <__NVIC_SetPriority+0x40>
    SCB->SHP[(((uint32_t)IRQn) & 0xFUL)-4UL] = (uint8_t)((priority << (8U - __NVIC_PRIO_BITS)) & (uint32_t)0xFFUL);
 80009ae:	683b      	ldr	r3, [r7, #0]
 80009b0:	b2da      	uxtb	r2, r3
 80009b2:	4908      	ldr	r1, [pc, #32]	; (80009d4 <__NVIC_SetPriority+0x50>)
 80009b4:	79fb      	ldrb	r3, [r7, #7]
 80009b6:	f003 030f 	and.w	r3, r3, #15
 80009ba:	3b04      	subs	r3, #4
 80009bc:	0112      	lsls	r2, r2, #4
 80009be:	b2d2      	uxtb	r2, r2
 80009c0:	440b      	add	r3, r1
 80009c2:	761a      	strb	r2, [r3, #24]
}
 80009c4:	bf00      	nop
 80009c6:	370c      	adds	r7, #12
 80009c8:	46bd      	mov	sp, r7
 80009ca:	f85d 7b04 	ldr.w	r7, [sp], #4
 80009ce:	4770      	bx	lr
 80009d0:	e000e100 	.word	0xe000e100
 80009d4:	e000ed00 	.word	0xe000ed00

080009d8 <NVIC_EncodePriority>:
  \param [in]   PreemptPriority  Preemptive priority value (starting from 0).
  \param [in]       SubPriority  Subpriority value (starting from 0).
  \return                        Encoded priority. Value can be used in the function \ref NVIC_SetPriority().
 */
__STATIC_INLINE uint32_t NVIC_EncodePriority (uint32_t PriorityGroup, uint32_t PreemptPriority, uint32_t SubPriority)
{
 80009d8:	b480      	push	{r7}
 80009da:	b089      	sub	sp, #36	; 0x24
 80009dc:	af00      	add	r7, sp, #0
 80009de:	60f8      	str	r0, [r7, #12]
 80009e0:	60b9      	str	r1, [r7, #8]
 80009e2:	607a      	str	r2, [r7, #4]
  uint32_t PriorityGroupTmp = (PriorityGroup & (uint32_t)0x07UL);   /* only values 0..7 are used          */
 80009e4:	68fb      	ldr	r3, [r7, #12]
 80009e6:	f003 0307 	and.w	r3, r3, #7
 80009ea:	61fb      	str	r3, [r7, #28]
  uint32_t PreemptPriorityBits;
  uint32_t SubPriorityBits;

  PreemptPriorityBits = ((7UL - PriorityGroupTmp) > (uint32_t)(__NVIC_PRIO_BITS)) ? (uint32_t)(__NVIC_PRIO_BITS) : (uint32_t)(7UL - PriorityGroupTmp);
 80009ec:	69fb      	ldr	r3, [r7, #28]
 80009ee:	f1c3 0307 	rsb	r3, r3, #7
 80009f2:	2b04      	cmp	r3, #4
 80009f4:	bf28      	it	cs
 80009f6:	2304      	movcs	r3, #4
 80009f8:	61bb      	str	r3, [r7, #24]
  SubPriorityBits     = ((PriorityGroupTmp + (uint32_t)(__NVIC_PRIO_BITS)) < (uint32_t)7UL) ? (uint32_t)0UL : (uint32_t)((PriorityGroupTmp - 7UL) + (uint32_t)(__NVIC_PRIO_BITS));
 80009fa:	69fb      	ldr	r3, [r7, #28]
 80009fc:	3304      	adds	r3, #4
 80009fe:	2b06      	cmp	r3, #6
 8000a00:	d902      	bls.n	8000a08 <NVIC_EncodePriority+0x30>
 8000a02:	69fb      	ldr	r3, [r7, #28]
 8000a04:	3b03      	subs	r3, #3
 8000a06:	e000      	b.n	8000a0a <NVIC_EncodePriority+0x32>
 8000a08:	2300      	movs	r3, #0
 8000a0a:	617b      	str	r3, [r7, #20]

  return (
           ((PreemptPriority & (uint32_t)((1UL << (PreemptPriorityBits)) - 1UL)) << SubPriorityBits) |
 8000a0c:	f04f 32ff 	mov.w	r2, #4294967295
 8000a10:	69bb      	ldr	r3, [r7, #24]
 8000a12:	fa02 f303 	lsl.w	r3, r2, r3
 8000a16:	43da      	mvns	r2, r3
 8000a18:	68bb      	ldr	r3, [r7, #8]
 8000a1a:	401a      	ands	r2, r3
 8000a1c:	697b      	ldr	r3, [r7, #20]
 8000a1e:	409a      	lsls	r2, r3
           ((SubPriority     & (uint32_t)((1UL << (SubPriorityBits    )) - 1UL)))
 8000a20:	f04f 31ff 	mov.w	r1, #4294967295
 8000a24:	697b      	ldr	r3, [r7, #20]
 8000a26:	fa01 f303 	lsl.w	r3, r1, r3
 8000a2a:	43d9      	mvns	r1, r3
 8000a2c:	687b      	ldr	r3, [r7, #4]
 8000a2e:	400b      	ands	r3, r1
           ((PreemptPriority & (uint32_t)((1UL << (PreemptPriorityBits)) - 1UL)) << SubPriorityBits) |
 8000a30:	4313      	orrs	r3, r2
         );
}
 8000a32:	4618      	mov	r0, r3
 8000a34:	3724      	adds	r7, #36	; 0x24
 8000a36:	46bd      	mov	sp, r7
 8000a38:	f85d 7b04 	ldr.w	r7, [sp], #4
 8000a3c:	4770      	bx	lr
	...

08000a40 <SysTick_Config>:
  \note    When the variable <b>__Vendor_SysTickConfig</b> is set to 1, then the
           function <b>SysTick_Config</b> is not included. In this case, the file <b><i>device</i>.h</b>
           must contain a vendor-specific implementation of this function.
 */
__STATIC_INLINE uint32_t SysTick_Config(uint32_t ticks)
{
 8000a40:	b580      	push	{r7, lr}
 8000a42:	b082      	sub	sp, #8
 8000a44:	af00      	add	r7, sp, #0
 8000a46:	6078      	str	r0, [r7, #4]
  if ((ticks - 1UL) > SysTick_LOAD_RELOAD_Msk)
 8000a48:	687b      	ldr	r3, [r7, #4]
 8000a4a:	3b01      	subs	r3, #1
 8000a4c:	f1b3 7f80 	cmp.w	r3, #16777216	; 0x1000000
 8000a50:	d301      	bcc.n	8000a56 <SysTick_Config+0x16>
  {
    return (1UL);                                                   /* Reload value impossible */
 8000a52:	2301      	movs	r3, #1
 8000a54:	e00f      	b.n	8000a76 <SysTick_Config+0x36>
  }

  SysTick->LOAD  = (uint32_t)(ticks - 1UL);                         /* set reload register */
 8000a56:	4a0a      	ldr	r2, [pc, #40]	; (8000a80 <SysTick_Config+0x40>)
 8000a58:	687b      	ldr	r3, [r7, #4]
 8000a5a:	3b01      	subs	r3, #1
 8000a5c:	6053      	str	r3, [r2, #4]
  NVIC_SetPriority (SysTick_IRQn, (1UL << __NVIC_PRIO_BITS) - 1UL); /* set Priority for Systick Interrupt */
 8000a5e:	210f      	movs	r1, #15
 8000a60:	f04f 30ff 	mov.w	r0, #4294967295
 8000a64:	f7ff ff8e 	bl	8000984 <__NVIC_SetPriority>
  SysTick->VAL   = 0UL;                                             /* Load the SysTick Counter Value */
 8000a68:	4b05      	ldr	r3, [pc, #20]	; (8000a80 <SysTick_Config+0x40>)
 8000a6a:	2200      	movs	r2, #0
 8000a6c:	609a      	str	r2, [r3, #8]
  SysTick->CTRL  = SysTick_CTRL_CLKSOURCE_Msk |
 8000a6e:	4b04      	ldr	r3, [pc, #16]	; (8000a80 <SysTick_Config+0x40>)
 8000a70:	2207      	movs	r2, #7
 8000a72:	601a      	str	r2, [r3, #0]
                   SysTick_CTRL_TICKINT_Msk   |
                   SysTick_CTRL_ENABLE_Msk;                         /* Enable SysTick IRQ and SysTick Timer */
  return (0UL);                                                     /* Function successful */
 8000a74:	2300      	movs	r3, #0
}
 8000a76:	4618      	mov	r0, r3
 8000a78:	3708      	adds	r7, #8
 8000a7a:	46bd      	mov	sp, r7
 8000a7c:	bd80      	pop	{r7, pc}
 8000a7e:	bf00      	nop
 8000a80:	e000e010 	.word	0xe000e010

08000a84 <HAL_NVIC_SetPriorityGrouping>:
  * @note   When the NVIC_PriorityGroup_0 is selected, IRQ preemption is no more possible. 
  *         The pending IRQ priority will be managed only by the subpriority. 
  * @retval None
  */
void HAL_NVIC_SetPriorityGrouping(uint32_t PriorityGroup)
{
 8000a84:	b580      	push	{r7, lr}
 8000a86:	b082      	sub	sp, #8
 8000a88:	af00      	add	r7, sp, #0
 8000a8a:	6078      	str	r0, [r7, #4]
  /* Check the parameters */
  assert_param(IS_NVIC_PRIORITY_GROUP(PriorityGroup));
  
  /* Set the PRIGROUP[10:8] bits according to the PriorityGroup parameter value */
  NVIC_SetPriorityGrouping(PriorityGroup);
 8000a8c:	6878      	ldr	r0, [r7, #4]
 8000a8e:	f7ff ff47 	bl	8000920 <__NVIC_SetPriorityGrouping>
}
 8000a92:	bf00      	nop
 8000a94:	3708      	adds	r7, #8
 8000a96:	46bd      	mov	sp, r7
 8000a98:	bd80      	pop	{r7, pc}

08000a9a <HAL_NVIC_SetPriority>:
  *         This parameter can be a value between 0 and 15
  *         A lower priority value indicates a higher priority.          
  * @retval None
  */
void HAL_NVIC_SetPriority(IRQn_Type IRQn, uint32_t PreemptPriority, uint32_t SubPriority)
{ 
 8000a9a:	b580      	push	{r7, lr}
 8000a9c:	b086      	sub	sp, #24
 8000a9e:	af00      	add	r7, sp, #0
 8000aa0:	4603      	mov	r3, r0
 8000aa2:	60b9      	str	r1, [r7, #8]
 8000aa4:	607a      	str	r2, [r7, #4]
 8000aa6:	73fb      	strb	r3, [r7, #15]
  uint32_t prioritygroup = 0x00U;
 8000aa8:	2300      	movs	r3, #0
 8000aaa:	617b      	str	r3, [r7, #20]
  
  /* Check the parameters */
  assert_param(IS_NVIC_SUB_PRIORITY(SubPriority));
  assert_param(IS_NVIC_PREEMPTION_PRIORITY(PreemptPriority));
  
  prioritygroup = NVIC_GetPriorityGrouping();
 8000aac:	f7ff ff5c 	bl	8000968 <__NVIC_GetPriorityGrouping>
 8000ab0:	6178      	str	r0, [r7, #20]
  
  NVIC_SetPriority(IRQn, NVIC_EncodePriority(prioritygroup, PreemptPriority, SubPriority));
 8000ab2:	687a      	ldr	r2, [r7, #4]
 8000ab4:	68b9      	ldr	r1, [r7, #8]
 8000ab6:	6978      	ldr	r0, [r7, #20]
 8000ab8:	f7ff ff8e 	bl	80009d8 <NVIC_EncodePriority>
 8000abc:	4602      	mov	r2, r0
 8000abe:	f997 300f 	ldrsb.w	r3, [r7, #15]
 8000ac2:	4611      	mov	r1, r2
 8000ac4:	4618      	mov	r0, r3
 8000ac6:	f7ff ff5d 	bl	8000984 <__NVIC_SetPriority>
}
 8000aca:	bf00      	nop
 8000acc:	3718      	adds	r7, #24
 8000ace:	46bd      	mov	sp, r7
 8000ad0:	bd80      	pop	{r7, pc}

08000ad2 <HAL_SYSTICK_Config>:
  * @param  TicksNumb Specifies the ticks Number of ticks between two interrupts.
  * @retval status:  - 0  Function succeeded.
  *                  - 1  Function failed.
  */
uint32_t HAL_SYSTICK_Config(uint32_t TicksNumb)
{
 8000ad2:	b580      	push	{r7, lr}
 8000ad4:	b082      	sub	sp, #8
 8000ad6:	af00      	add	r7, sp, #0
 8000ad8:	6078      	str	r0, [r7, #4]
   return SysTick_Config(TicksNumb);
 8000ada:	6878      	ldr	r0, [r7, #4]
 8000adc:	f7ff ffb0 	bl	8000a40 <SysTick_Config>
 8000ae0:	4603      	mov	r3, r0
}
 8000ae2:	4618      	mov	r0, r3
 8000ae4:	3708      	adds	r7, #8
 8000ae6:	46bd      	mov	sp, r7
 8000ae8:	bd80      	pop	{r7, pc}
	...

08000aec <HAL_GPIO_Init>:
  * @param  GPIO_Init pointer to a GPIO_InitTypeDef structure that contains
  *         the configuration information for the specified GPIO peripheral.
  * @retval None
  */
void HAL_GPIO_Init(GPIO_TypeDef  *GPIOx, GPIO_InitTypeDef *GPIO_Init)
{
 8000aec:	b480      	push	{r7}
 8000aee:	b089      	sub	sp, #36	; 0x24
 8000af0:	af00      	add	r7, sp, #0
 8000af2:	6078      	str	r0, [r7, #4]
 8000af4:	6039      	str	r1, [r7, #0]
  uint32_t position;
  uint32_t ioposition = 0x00U;
 8000af6:	2300      	movs	r3, #0
 8000af8:	617b      	str	r3, [r7, #20]
  uint32_t iocurrent = 0x00U;
 8000afa:	2300      	movs	r3, #0
 8000afc:	613b      	str	r3, [r7, #16]
  uint32_t temp = 0x00U;
 8000afe:	2300      	movs	r3, #0
 8000b00:	61bb      	str	r3, [r7, #24]
  assert_param(IS_GPIO_ALL_INSTANCE(GPIOx));
  assert_param(IS_GPIO_PIN(GPIO_Init->Pin));
  assert_param(IS_GPIO_MODE(GPIO_Init->Mode));

  /* Configure the port pins */
  for(position = 0U; position < GPIO_NUMBER; position++)
 8000b02:	2300      	movs	r3, #0
 8000b04:	61fb      	str	r3, [r7, #28]
 8000b06:	e16b      	b.n	8000de0 <HAL_GPIO_Init+0x2f4>
  {
    /* Get the IO position */
    ioposition = 0x01U << position;
 8000b08:	2201      	movs	r2, #1
 8000b0a:	69fb      	ldr	r3, [r7, #28]
 8000b0c:	fa02 f303 	lsl.w	r3, r2, r3
 8000b10:	617b      	str	r3, [r7, #20]
    /* Get the current IO position */
    iocurrent = (uint32_t)(GPIO_Init->Pin) & ioposition;
 8000b12:	683b      	ldr	r3, [r7, #0]
 8000b14:	681b      	ldr	r3, [r3, #0]
 8000b16:	697a      	ldr	r2, [r7, #20]
 8000b18:	4013      	ands	r3, r2
 8000b1a:	613b      	str	r3, [r7, #16]

    if(iocurrent == ioposition)
 8000b1c:	693a      	ldr	r2, [r7, #16]
 8000b1e:	697b      	ldr	r3, [r7, #20]
 8000b20:	429a      	cmp	r2, r3
 8000b22:	f040 815a 	bne.w	8000dda <HAL_GPIO_Init+0x2ee>
    {
      /*--------------------- GPIO Mode Configuration ------------------------*/
      /* In case of Output or Alternate function mode selection */
      if(((GPIO_Init->Mode & GPIO_MODE) == MODE_OUTPUT) || \
 8000b26:	683b      	ldr	r3, [r7, #0]
 8000b28:	685b      	ldr	r3, [r3, #4]
 8000b2a:	f003 0303 	and.w	r3, r3, #3
 8000b2e:	2b01      	cmp	r3, #1
 8000b30:	d005      	beq.n	8000b3e <HAL_GPIO_Init+0x52>
          (GPIO_Init->Mode & GPIO_MODE) == MODE_AF)
 8000b32:	683b      	ldr	r3, [r7, #0]
 8000b34:	685b      	ldr	r3, [r3, #4]
 8000b36:	f003 0303 	and.w	r3, r3, #3
      if(((GPIO_Init->Mode & GPIO_MODE) == MODE_OUTPUT) || \
 8000b3a:	2b02      	cmp	r3, #2
 8000b3c:	d130      	bne.n	8000ba0 <HAL_GPIO_Init+0xb4>
      {
        /* Check the Speed parameter */
        assert_param(IS_GPIO_SPEED(GPIO_Init->Speed));
        /* Configure the IO Speed */
        temp = GPIOx->OSPEEDR; 
 8000b3e:	687b      	ldr	r3, [r7, #4]
 8000b40:	689b      	ldr	r3, [r3, #8]
 8000b42:	61bb      	str	r3, [r7, #24]
        temp &= ~(GPIO_OSPEEDER_OSPEEDR0 << (position * 2U));
 8000b44:	69fb      	ldr	r3, [r7, #28]
 8000b46:	005b      	lsls	r3, r3, #1
 8000b48:	2203      	movs	r2, #3
 8000b4a:	fa02 f303 	lsl.w	r3, r2, r3
 8000b4e:	43db      	mvns	r3, r3
 8000b50:	69ba      	ldr	r2, [r7, #24]
 8000b52:	4013      	ands	r3, r2
 8000b54:	61bb      	str	r3, [r7, #24]
        temp |= (GPIO_Init->Speed << (position * 2U));
 8000b56:	683b      	ldr	r3, [r7, #0]
 8000b58:	68da      	ldr	r2, [r3, #12]
 8000b5a:	69fb      	ldr	r3, [r7, #28]
 8000b5c:	005b      	lsls	r3, r3, #1
 8000b5e:	fa02 f303 	lsl.w	r3, r2, r3
 8000b62:	69ba      	ldr	r2, [r7, #24]
 8000b64:	4313      	orrs	r3, r2
 8000b66:	61bb      	str	r3, [r7, #24]
        GPIOx->OSPEEDR = temp;
 8000b68:	687b      	ldr	r3, [r7, #4]
 8000b6a:	69ba      	ldr	r2, [r7, #24]
 8000b6c:	609a      	str	r2, [r3, #8]

        /* Configure the IO Output Type */
        temp = GPIOx->OTYPER;
 8000b6e:	687b      	ldr	r3, [r7, #4]
 8000b70:	685b      	ldr	r3, [r3, #4]
 8000b72:	61bb      	str	r3, [r7, #24]
        temp &= ~(GPIO_OTYPER_OT_0 << position) ;
 8000b74:	2201      	movs	r2, #1
 8000b76:	69fb      	ldr	r3, [r7, #28]
 8000b78:	fa02 f303 	lsl.w	r3, r2, r3
 8000b7c:	43db      	mvns	r3, r3
 8000b7e:	69ba      	ldr	r2, [r7, #24]
 8000b80:	4013      	ands	r3, r2
 8000b82:	61bb      	str	r3, [r7, #24]
        temp |= (((GPIO_Init->Mode & OUTPUT_TYPE) >> OUTPUT_TYPE_Pos) << position);
 8000b84:	683b      	ldr	r3, [r7, #0]
 8000b86:	685b      	ldr	r3, [r3, #4]
 8000b88:	091b      	lsrs	r3, r3, #4
 8000b8a:	f003 0201 	and.w	r2, r3, #1
 8000b8e:	69fb      	ldr	r3, [r7, #28]
 8000b90:	fa02 f303 	lsl.w	r3, r2, r3
 8000b94:	69ba      	ldr	r2, [r7, #24]
 8000b96:	4313      	orrs	r3, r2
 8000b98:	61bb      	str	r3, [r7, #24]
        GPIOx->OTYPER = temp;
 8000b9a:	687b      	ldr	r3, [r7, #4]
 8000b9c:	69ba      	ldr	r2, [r7, #24]
 8000b9e:	605a      	str	r2, [r3, #4]
       }

      if((GPIO_Init->Mode & GPIO_MODE) != MODE_ANALOG)
 8000ba0:	683b      	ldr	r3, [r7, #0]
 8000ba2:	685b      	ldr	r3, [r3, #4]
 8000ba4:	f003 0303 	and.w	r3, r3, #3
 8000ba8:	2b03      	cmp	r3, #3
 8000baa:	d017      	beq.n	8000bdc <HAL_GPIO_Init+0xf0>
      {
        /* Check the parameters */
        assert_param(IS_GPIO_PULL(GPIO_Init->Pull));
        
        /* Activate the Pull-up or Pull down resistor for the current IO */
        temp = GPIOx->PUPDR;
 8000bac:	687b      	ldr	r3, [r7, #4]
 8000bae:	68db      	ldr	r3, [r3, #12]
 8000bb0:	61bb      	str	r3, [r7, #24]
        temp &= ~(GPIO_PUPDR_PUPDR0 << (position * 2U));
 8000bb2:	69fb      	ldr	r3, [r7, #28]
 8000bb4:	005b      	lsls	r3, r3, #1
 8000bb6:	2203      	movs	r2, #3
 8000bb8:	fa02 f303 	lsl.w	r3, r2, r3
 8000bbc:	43db      	mvns	r3, r3
 8000bbe:	69ba      	ldr	r2, [r7, #24]
 8000bc0:	4013      	ands	r3, r2
 8000bc2:	61bb      	str	r3, [r7, #24]
        temp |= ((GPIO_Init->Pull) << (position * 2U));
 8000bc4:	683b      	ldr	r3, [r7, #0]
 8000bc6:	689a      	ldr	r2, [r3, #8]
 8000bc8:	69fb      	ldr	r3, [r7, #28]
 8000bca:	005b      	lsls	r3, r3, #1
 8000bcc:	fa02 f303 	lsl.w	r3, r2, r3
 8000bd0:	69ba      	ldr	r2, [r7, #24]
 8000bd2:	4313      	orrs	r3, r2
 8000bd4:	61bb      	str	r3, [r7, #24]
        GPIOx->PUPDR = temp;
 8000bd6:	687b      	ldr	r3, [r7, #4]
 8000bd8:	69ba      	ldr	r2, [r7, #24]
 8000bda:	60da      	str	r2, [r3, #12]
      }

      /* In case of Alternate function mode selection */
      if((GPIO_Init->Mode & GPIO_MODE) == MODE_AF)
 8000bdc:	683b      	ldr	r3, [r7, #0]
 8000bde:	685b      	ldr	r3, [r3, #4]
 8000be0:	f003 0303 	and.w	r3, r3, #3
 8000be4:	2b02      	cmp	r3, #2
 8000be6:	d123      	bne.n	8000c30 <HAL_GPIO_Init+0x144>
      {
        /* Check the Alternate function parameter */
        assert_param(IS_GPIO_AF(GPIO_Init->Alternate));
        /* Configure Alternate function mapped with the current IO */
        temp = GPIOx->AFR[position >> 3U];
 8000be8:	69fb      	ldr	r3, [r7, #28]
 8000bea:	08da      	lsrs	r2, r3, #3
 8000bec:	687b      	ldr	r3, [r7, #4]
 8000bee:	3208      	adds	r2, #8
 8000bf0:	f853 3022 	ldr.w	r3, [r3, r2, lsl #2]
 8000bf4:	61bb      	str	r3, [r7, #24]
        temp &= ~(0xFU << ((uint32_t)(position & 0x07U) * 4U)) ;
 8000bf6:	69fb      	ldr	r3, [r7, #28]
 8000bf8:	f003 0307 	and.w	r3, r3, #7
 8000bfc:	009b      	lsls	r3, r3, #2
 8000bfe:	220f      	movs	r2, #15
 8000c00:	fa02 f303 	lsl.w	r3, r2, r3
 8000c04:	43db      	mvns	r3, r3
 8000c06:	69ba      	ldr	r2, [r7, #24]
 8000c08:	4013      	ands	r3, r2
 8000c0a:	61bb      	str	r3, [r7, #24]
        temp |= ((uint32_t)(GPIO_Init->Alternate) << (((uint32_t)position & 0x07U) * 4U));
 8000c0c:	683b      	ldr	r3, [r7, #0]
 8000c0e:	691a      	ldr	r2, [r3, #16]
 8000c10:	69fb      	ldr	r3, [r7, #28]
 8000c12:	f003 0307 	and.w	r3, r3, #7
 8000c16:	009b      	lsls	r3, r3, #2
 8000c18:	fa02 f303 	lsl.w	r3, r2, r3
 8000c1c:	69ba      	ldr	r2, [r7, #24]
 8000c1e:	4313      	orrs	r3, r2
 8000c20:	61bb      	str	r3, [r7, #24]
        GPIOx->AFR[position >> 3U] = temp;
 8000c22:	69fb      	ldr	r3, [r7, #28]
 8000c24:	08da      	lsrs	r2, r3, #3
 8000c26:	687b      	ldr	r3, [r7, #4]
 8000c28:	3208      	adds	r2, #8
 8000c2a:	69b9      	ldr	r1, [r7, #24]
 8000c2c:	f843 1022 	str.w	r1, [r3, r2, lsl #2]
      }

      /* Configure IO Direction mode (Input, Output, Alternate or Analog) */
      temp = GPIOx->MODER;
 8000c30:	687b      	ldr	r3, [r7, #4]
 8000c32:	681b      	ldr	r3, [r3, #0]
 8000c34:	61bb      	str	r3, [r7, #24]
      temp &= ~(GPIO_MODER_MODER0 << (position * 2U));
 8000c36:	69fb      	ldr	r3, [r7, #28]
 8000c38:	005b      	lsls	r3, r3, #1
 8000c3a:	2203      	movs	r2, #3
 8000c3c:	fa02 f303 	lsl.w	r3, r2, r3
 8000c40:	43db      	mvns	r3, r3
 8000c42:	69ba      	ldr	r2, [r7, #24]
 8000c44:	4013      	ands	r3, r2
 8000c46:	61bb      	str	r3, [r7, #24]
      temp |= ((GPIO_Init->Mode & GPIO_MODE) << (position * 2U));
 8000c48:	683b      	ldr	r3, [r7, #0]
 8000c4a:	685b      	ldr	r3, [r3, #4]
 8000c4c:	f003 0203 	and.w	r2, r3, #3
 8000c50:	69fb      	ldr	r3, [r7, #28]
 8000c52:	005b      	lsls	r3, r3, #1
 8000c54:	fa02 f303 	lsl.w	r3, r2, r3
 8000c58:	69ba      	ldr	r2, [r7, #24]
 8000c5a:	4313      	orrs	r3, r2
 8000c5c:	61bb      	str	r3, [r7, #24]
      GPIOx->MODER = temp;
 8000c5e:	687b      	ldr	r3, [r7, #4]
 8000c60:	69ba      	ldr	r2, [r7, #24]
 8000c62:	601a      	str	r2, [r3, #0]

      /*--------------------- EXTI Mode Configuration ------------------------*/
      /* Configure the External Interrupt or event for the current IO */
      if((GPIO_Init->Mode & EXTI_MODE) != 0x00U)
 8000c64:	683b      	ldr	r3, [r7, #0]
 8000c66:	685b      	ldr	r3, [r3, #4]
 8000c68:	f403 3340 	and.w	r3, r3, #196608	; 0x30000
 8000c6c:	2b00      	cmp	r3, #0
 8000c6e:	f000 80b4 	beq.w	8000dda <HAL_GPIO_Init+0x2ee>
      {
        /* Enable SYSCFG Clock */
        __HAL_RCC_SYSCFG_CLK_ENABLE();
 8000c72:	2300      	movs	r3, #0
 8000c74:	60fb      	str	r3, [r7, #12]
 8000c76:	4b60      	ldr	r3, [pc, #384]	; (8000df8 <HAL_GPIO_Init+0x30c>)
 8000c78:	6c5b      	ldr	r3, [r3, #68]	; 0x44
 8000c7a:	4a5f      	ldr	r2, [pc, #380]	; (8000df8 <HAL_GPIO_Init+0x30c>)
 8000c7c:	f443 4380 	orr.w	r3, r3, #16384	; 0x4000
 8000c80:	6453      	str	r3, [r2, #68]	; 0x44
 8000c82:	4b5d      	ldr	r3, [pc, #372]	; (8000df8 <HAL_GPIO_Init+0x30c>)
 8000c84:	6c5b      	ldr	r3, [r3, #68]	; 0x44
 8000c86:	f403 4380 	and.w	r3, r3, #16384	; 0x4000
 8000c8a:	60fb      	str	r3, [r7, #12]
 8000c8c:	68fb      	ldr	r3, [r7, #12]

        temp = SYSCFG->EXTICR[position >> 2U];
 8000c8e:	4a5b      	ldr	r2, [pc, #364]	; (8000dfc <HAL_GPIO_Init+0x310>)
 8000c90:	69fb      	ldr	r3, [r7, #28]
 8000c92:	089b      	lsrs	r3, r3, #2
 8000c94:	3302      	adds	r3, #2
 8000c96:	f852 3023 	ldr.w	r3, [r2, r3, lsl #2]
 8000c9a:	61bb      	str	r3, [r7, #24]
        temp &= ~(0x0FU << (4U * (position & 0x03U)));
 8000c9c:	69fb      	ldr	r3, [r7, #28]
 8000c9e:	f003 0303 	and.w	r3, r3, #3
 8000ca2:	009b      	lsls	r3, r3, #2
 8000ca4:	220f      	movs	r2, #15
 8000ca6:	fa02 f303 	lsl.w	r3, r2, r3
 8000caa:	43db      	mvns	r3, r3
 8000cac:	69ba      	ldr	r2, [r7, #24]
 8000cae:	4013      	ands	r3, r2
 8000cb0:	61bb      	str	r3, [r7, #24]
        temp |= ((uint32_t)(GPIO_GET_INDEX(GPIOx)) << (4U * (position & 0x03U)));
 8000cb2:	687b      	ldr	r3, [r7, #4]
 8000cb4:	4a52      	ldr	r2, [pc, #328]	; (8000e00 <HAL_GPIO_Init+0x314>)
 8000cb6:	4293      	cmp	r3, r2
 8000cb8:	d02b      	beq.n	8000d12 <HAL_GPIO_Init+0x226>
 8000cba:	687b      	ldr	r3, [r7, #4]
 8000cbc:	4a51      	ldr	r2, [pc, #324]	; (8000e04 <HAL_GPIO_Init+0x318>)
 8000cbe:	4293      	cmp	r3, r2
 8000cc0:	d025      	beq.n	8000d0e <HAL_GPIO_Init+0x222>
 8000cc2:	687b      	ldr	r3, [r7, #4]
 8000cc4:	4a50      	ldr	r2, [pc, #320]	; (8000e08 <HAL_GPIO_Init+0x31c>)
 8000cc6:	4293      	cmp	r3, r2
 8000cc8:	d01f      	beq.n	8000d0a <HAL_GPIO_Init+0x21e>
 8000cca:	687b      	ldr	r3, [r7, #4]
 8000ccc:	4a4f      	ldr	r2, [pc, #316]	; (8000e0c <HAL_GPIO_Init+0x320>)
 8000cce:	4293      	cmp	r3, r2
 8000cd0:	d019      	beq.n	8000d06 <HAL_GPIO_Init+0x21a>
 8000cd2:	687b      	ldr	r3, [r7, #4]
 8000cd4:	4a4e      	ldr	r2, [pc, #312]	; (8000e10 <HAL_GPIO_Init+0x324>)
 8000cd6:	4293      	cmp	r3, r2
 8000cd8:	d013      	beq.n	8000d02 <HAL_GPIO_Init+0x216>
 8000cda:	687b      	ldr	r3, [r7, #4]
 8000cdc:	4a4d      	ldr	r2, [pc, #308]	; (8000e14 <HAL_GPIO_Init+0x328>)
 8000cde:	4293      	cmp	r3, r2
 8000ce0:	d00d      	beq.n	8000cfe <HAL_GPIO_Init+0x212>
 8000ce2:	687b      	ldr	r3, [r7, #4]
 8000ce4:	4a4c      	ldr	r2, [pc, #304]	; (8000e18 <HAL_GPIO_Init+0x32c>)
 8000ce6:	4293      	cmp	r3, r2
 8000ce8:	d007      	beq.n	8000cfa <HAL_GPIO_Init+0x20e>
 8000cea:	687b      	ldr	r3, [r7, #4]
 8000cec:	4a4b      	ldr	r2, [pc, #300]	; (8000e1c <HAL_GPIO_Init+0x330>)
 8000cee:	4293      	cmp	r3, r2
 8000cf0:	d101      	bne.n	8000cf6 <HAL_GPIO_Init+0x20a>
 8000cf2:	2307      	movs	r3, #7
 8000cf4:	e00e      	b.n	8000d14 <HAL_GPIO_Init+0x228>
 8000cf6:	2308      	movs	r3, #8
 8000cf8:	e00c      	b.n	8000d14 <HAL_GPIO_Init+0x228>
 8000cfa:	2306      	movs	r3, #6
 8000cfc:	e00a      	b.n	8000d14 <HAL_GPIO_Init+0x228>
 8000cfe:	2305      	movs	r3, #5
 8000d00:	e008      	b.n	8000d14 <HAL_GPIO_Init+0x228>
 8000d02:	2304      	movs	r3, #4
 8000d04:	e006      	b.n	8000d14 <HAL_GPIO_Init+0x228>
 8000d06:	2303      	movs	r3, #3
 8000d08:	e004      	b.n	8000d14 <HAL_GPIO_Init+0x228>
 8000d0a:	2302      	movs	r3, #2
 8000d0c:	e002      	b.n	8000d14 <HAL_GPIO_Init+0x228>
 8000d0e:	2301      	movs	r3, #1
 8000d10:	e000      	b.n	8000d14 <HAL_GPIO_Init+0x228>
 8000d12:	2300      	movs	r3, #0
 8000d14:	69fa      	ldr	r2, [r7, #28]
 8000d16:	f002 0203 	and.w	r2, r2, #3
 8000d1a:	0092      	lsls	r2, r2, #2
 8000d1c:	4093      	lsls	r3, r2
 8000d1e:	69ba      	ldr	r2, [r7, #24]
 8000d20:	4313      	orrs	r3, r2
 8000d22:	61bb      	str	r3, [r7, #24]
        SYSCFG->EXTICR[position >> 2U] = temp;
 8000d24:	4935      	ldr	r1, [pc, #212]	; (8000dfc <HAL_GPIO_Init+0x310>)
 8000d26:	69fb      	ldr	r3, [r7, #28]
 8000d28:	089b      	lsrs	r3, r3, #2
 8000d2a:	3302      	adds	r3, #2
 8000d2c:	69ba      	ldr	r2, [r7, #24]
 8000d2e:	f841 2023 	str.w	r2, [r1, r3, lsl #2]

        /* Clear EXTI line configuration */
        temp = EXTI->IMR;
 8000d32:	4b3b      	ldr	r3, [pc, #236]	; (8000e20 <HAL_GPIO_Init+0x334>)
 8000d34:	681b      	ldr	r3, [r3, #0]
 8000d36:	61bb      	str	r3, [r7, #24]
        temp &= ~((uint32_t)iocurrent);
 8000d38:	693b      	ldr	r3, [r7, #16]
 8000d3a:	43db      	mvns	r3, r3
 8000d3c:	69ba      	ldr	r2, [r7, #24]
 8000d3e:	4013      	ands	r3, r2
 8000d40:	61bb      	str	r3, [r7, #24]
        if((GPIO_Init->Mode & EXTI_IT) != 0x00U)
 8000d42:	683b      	ldr	r3, [r7, #0]
 8000d44:	685b      	ldr	r3, [r3, #4]
 8000d46:	f403 3380 	and.w	r3, r3, #65536	; 0x10000
 8000d4a:	2b00      	cmp	r3, #0
 8000d4c:	d003      	beq.n	8000d56 <HAL_GPIO_Init+0x26a>
        {
          temp |= iocurrent;
 8000d4e:	69ba      	ldr	r2, [r7, #24]
 8000d50:	693b      	ldr	r3, [r7, #16]
 8000d52:	4313      	orrs	r3, r2
 8000d54:	61bb      	str	r3, [r7, #24]
        }
        EXTI->IMR = temp;
 8000d56:	4a32      	ldr	r2, [pc, #200]	; (8000e20 <HAL_GPIO_Init+0x334>)
 8000d58:	69bb      	ldr	r3, [r7, #24]
 8000d5a:	6013      	str	r3, [r2, #0]

        temp = EXTI->EMR;
 8000d5c:	4b30      	ldr	r3, [pc, #192]	; (8000e20 <HAL_GPIO_Init+0x334>)
 8000d5e:	685b      	ldr	r3, [r3, #4]
 8000d60:	61bb      	str	r3, [r7, #24]
        temp &= ~((uint32_t)iocurrent);
 8000d62:	693b      	ldr	r3, [r7, #16]
 8000d64:	43db      	mvns	r3, r3
 8000d66:	69ba      	ldr	r2, [r7, #24]
 8000d68:	4013      	ands	r3, r2
 8000d6a:	61bb      	str	r3, [r7, #24]
        if((GPIO_Init->Mode & EXTI_EVT) != 0x00U)
 8000d6c:	683b      	ldr	r3, [r7, #0]
 8000d6e:	685b      	ldr	r3, [r3, #4]
 8000d70:	f403 3300 	and.w	r3, r3, #131072	; 0x20000
 8000d74:	2b00      	cmp	r3, #0
 8000d76:	d003      	beq.n	8000d80 <HAL_GPIO_Init+0x294>
        {
          temp |= iocurrent;
 8000d78:	69ba      	ldr	r2, [r7, #24]
 8000d7a:	693b      	ldr	r3, [r7, #16]
 8000d7c:	4313      	orrs	r3, r2
 8000d7e:	61bb      	str	r3, [r7, #24]
        }
        EXTI->EMR = temp;
 8000d80:	4a27      	ldr	r2, [pc, #156]	; (8000e20 <HAL_GPIO_Init+0x334>)
 8000d82:	69bb      	ldr	r3, [r7, #24]
 8000d84:	6053      	str	r3, [r2, #4]

        /* Clear Rising Falling edge configuration */
        temp = EXTI->RTSR;
 8000d86:	4b26      	ldr	r3, [pc, #152]	; (8000e20 <HAL_GPIO_Init+0x334>)
 8000d88:	689b      	ldr	r3, [r3, #8]
 8000d8a:	61bb      	str	r3, [r7, #24]
        temp &= ~((uint32_t)iocurrent);
 8000d8c:	693b      	ldr	r3, [r7, #16]
 8000d8e:	43db      	mvns	r3, r3
 8000d90:	69ba      	ldr	r2, [r7, #24]
 8000d92:	4013      	ands	r3, r2
 8000d94:	61bb      	str	r3, [r7, #24]
        if((GPIO_Init->Mode & TRIGGER_RISING) != 0x00U)
 8000d96:	683b      	ldr	r3, [r7, #0]
 8000d98:	685b      	ldr	r3, [r3, #4]
 8000d9a:	f403 1380 	and.w	r3, r3, #1048576	; 0x100000
 8000d9e:	2b00      	cmp	r3, #0
 8000da0:	d003      	beq.n	8000daa <HAL_GPIO_Init+0x2be>
        {
          temp |= iocurrent;
 8000da2:	69ba      	ldr	r2, [r7, #24]
 8000da4:	693b      	ldr	r3, [r7, #16]
 8000da6:	4313      	orrs	r3, r2
 8000da8:	61bb      	str	r3, [r7, #24]
        }
        EXTI->RTSR = temp;
 8000daa:	4a1d      	ldr	r2, [pc, #116]	; (8000e20 <HAL_GPIO_Init+0x334>)
 8000dac:	69bb      	ldr	r3, [r7, #24]
 8000dae:	6093      	str	r3, [r2, #8]

        temp = EXTI->FTSR;
 8000db0:	4b1b      	ldr	r3, [pc, #108]	; (8000e20 <HAL_GPIO_Init+0x334>)
 8000db2:	68db      	ldr	r3, [r3, #12]
 8000db4:	61bb      	str	r3, [r7, #24]
        temp &= ~((uint32_t)iocurrent);
 8000db6:	693b      	ldr	r3, [r7, #16]
 8000db8:	43db      	mvns	r3, r3
 8000dba:	69ba      	ldr	r2, [r7, #24]
 8000dbc:	4013      	ands	r3, r2
 8000dbe:	61bb      	str	r3, [r7, #24]
        if((GPIO_Init->Mode & TRIGGER_FALLING) != 0x00U)
 8000dc0:	683b      	ldr	r3, [r7, #0]
 8000dc2:	685b      	ldr	r3, [r3, #4]
 8000dc4:	f403 1300 	and.w	r3, r3, #2097152	; 0x200000
 8000dc8:	2b00      	cmp	r3, #0
 8000dca:	d003      	beq.n	8000dd4 <HAL_GPIO_Init+0x2e8>
        {
          temp |= iocurrent;
 8000dcc:	69ba      	ldr	r2, [r7, #24]
 8000dce:	693b      	ldr	r3, [r7, #16]
 8000dd0:	4313      	orrs	r3, r2
 8000dd2:	61bb      	str	r3, [r7, #24]
        }
        EXTI->FTSR = temp;
 8000dd4:	4a12      	ldr	r2, [pc, #72]	; (8000e20 <HAL_GPIO_Init+0x334>)
 8000dd6:	69bb      	ldr	r3, [r7, #24]
 8000dd8:	60d3      	str	r3, [r2, #12]
  for(position = 0U; position < GPIO_NUMBER; position++)
 8000dda:	69fb      	ldr	r3, [r7, #28]
 8000ddc:	3301      	adds	r3, #1
 8000dde:	61fb      	str	r3, [r7, #28]
 8000de0:	69fb      	ldr	r3, [r7, #28]
 8000de2:	2b0f      	cmp	r3, #15
 8000de4:	f67f ae90 	bls.w	8000b08 <HAL_GPIO_Init+0x1c>
      }
    }
  }
}
 8000de8:	bf00      	nop
 8000dea:	bf00      	nop
 8000dec:	3724      	adds	r7, #36	; 0x24
 8000dee:	46bd      	mov	sp, r7
 8000df0:	f85d 7b04 	ldr.w	r7, [sp], #4
 8000df4:	4770      	bx	lr
 8000df6:	bf00      	nop
 8000df8:	40023800 	.word	0x40023800
 8000dfc:	40013800 	.word	0x40013800
 8000e00:	40020000 	.word	0x40020000
 8000e04:	40020400 	.word	0x40020400
 8000e08:	40020800 	.word	0x40020800
 8000e0c:	40020c00 	.word	0x40020c00
 8000e10:	40021000 	.word	0x40021000
 8000e14:	40021400 	.word	0x40021400
 8000e18:	40021800 	.word	0x40021800
 8000e1c:	40021c00 	.word	0x40021c00
 8000e20:	40013c00 	.word	0x40013c00

08000e24 <HAL_RCC_OscConfig>:
  *         supported by this API. User should request a transition to HSE Off
  *         first and then HSE On or HSE Bypass.
  * @retval HAL status
  */
__weak HAL_StatusTypeDef HAL_RCC_OscConfig(RCC_OscInitTypeDef  *RCC_OscInitStruct)
{
 8000e24:	b580      	push	{r7, lr}
 8000e26:	b086      	sub	sp, #24
 8000e28:	af00      	add	r7, sp, #0
 8000e2a:	6078      	str	r0, [r7, #4]
  uint32_t tickstart, pll_config;

  /* Check Null pointer */
  if(RCC_OscInitStruct == NULL)
 8000e2c:	687b      	ldr	r3, [r7, #4]
 8000e2e:	2b00      	cmp	r3, #0
 8000e30:	d101      	bne.n	8000e36 <HAL_RCC_OscConfig+0x12>
  {
    return HAL_ERROR;
 8000e32:	2301      	movs	r3, #1
 8000e34:	e264      	b.n	8001300 <HAL_RCC_OscConfig+0x4dc>
  }

  /* Check the parameters */
  assert_param(IS_RCC_OSCILLATORTYPE(RCC_OscInitStruct->OscillatorType));
  /*------------------------------- HSE Configuration ------------------------*/
  if(((RCC_OscInitStruct->OscillatorType) & RCC_OSCILLATORTYPE_HSE) == RCC_OSCILLATORTYPE_HSE)
 8000e36:	687b      	ldr	r3, [r7, #4]
 8000e38:	681b      	ldr	r3, [r3, #0]
 8000e3a:	f003 0301 	and.w	r3, r3, #1
 8000e3e:	2b00      	cmp	r3, #0
 8000e40:	d075      	beq.n	8000f2e <HAL_RCC_OscConfig+0x10a>
  {
    /* Check the parameters */
    assert_param(IS_RCC_HSE(RCC_OscInitStruct->HSEState));
    /* When the HSE is used as system clock or clock source for PLL in these cases HSE will not disabled */
    if((__HAL_RCC_GET_SYSCLK_SOURCE() == RCC_CFGR_SWS_HSE) ||\
 8000e42:	4ba3      	ldr	r3, [pc, #652]	; (80010d0 <HAL_RCC_OscConfig+0x2ac>)
 8000e44:	689b      	ldr	r3, [r3, #8]
 8000e46:	f003 030c 	and.w	r3, r3, #12
 8000e4a:	2b04      	cmp	r3, #4
 8000e4c:	d00c      	beq.n	8000e68 <HAL_RCC_OscConfig+0x44>
      ((__HAL_RCC_GET_SYSCLK_SOURCE() == RCC_CFGR_SWS_PLL) && ((RCC->PLLCFGR & RCC_PLLCFGR_PLLSRC) == RCC_PLLCFGR_PLLSRC_HSE)))
 8000e4e:	4ba0      	ldr	r3, [pc, #640]	; (80010d0 <HAL_RCC_OscConfig+0x2ac>)
 8000e50:	689b      	ldr	r3, [r3, #8]
 8000e52:	f003 030c 	and.w	r3, r3, #12
    if((__HAL_RCC_GET_SYSCLK_SOURCE() == RCC_CFGR_SWS_HSE) ||\
 8000e56:	2b08      	cmp	r3, #8
 8000e58:	d112      	bne.n	8000e80 <HAL_RCC_OscConfig+0x5c>
      ((__HAL_RCC_GET_SYSCLK_SOURCE() == RCC_CFGR_SWS_PLL) && ((RCC->PLLCFGR & RCC_PLLCFGR_PLLSRC) == RCC_PLLCFGR_PLLSRC_HSE)))
 8000e5a:	4b9d      	ldr	r3, [pc, #628]	; (80010d0 <HAL_RCC_OscConfig+0x2ac>)
 8000e5c:	685b      	ldr	r3, [r3, #4]
 8000e5e:	f403 0380 	and.w	r3, r3, #4194304	; 0x400000
 8000e62:	f5b3 0f80 	cmp.w	r3, #4194304	; 0x400000
 8000e66:	d10b      	bne.n	8000e80 <HAL_RCC_OscConfig+0x5c>
    {
      if((__HAL_RCC_GET_FLAG(RCC_FLAG_HSERDY) != RESET) && (RCC_OscInitStruct->HSEState == RCC_HSE_OFF))
 8000e68:	4b99      	ldr	r3, [pc, #612]	; (80010d0 <HAL_RCC_OscConfig+0x2ac>)
 8000e6a:	681b      	ldr	r3, [r3, #0]
 8000e6c:	f403 3300 	and.w	r3, r3, #131072	; 0x20000
 8000e70:	2b00      	cmp	r3, #0
 8000e72:	d05b      	beq.n	8000f2c <HAL_RCC_OscConfig+0x108>
 8000e74:	687b      	ldr	r3, [r7, #4]
 8000e76:	685b      	ldr	r3, [r3, #4]
 8000e78:	2b00      	cmp	r3, #0
 8000e7a:	d157      	bne.n	8000f2c <HAL_RCC_OscConfig+0x108>
      {
        return HAL_ERROR;
 8000e7c:	2301      	movs	r3, #1
 8000e7e:	e23f      	b.n	8001300 <HAL_RCC_OscConfig+0x4dc>
      }
    }
    else
    {
      /* Set the new HSE configuration ---------------------------------------*/
      __HAL_RCC_HSE_CONFIG(RCC_OscInitStruct->HSEState);
 8000e80:	687b      	ldr	r3, [r7, #4]
 8000e82:	685b      	ldr	r3, [r3, #4]
 8000e84:	f5b3 3f80 	cmp.w	r3, #65536	; 0x10000
 8000e88:	d106      	bne.n	8000e98 <HAL_RCC_OscConfig+0x74>
 8000e8a:	4b91      	ldr	r3, [pc, #580]	; (80010d0 <HAL_RCC_OscConfig+0x2ac>)
 8000e8c:	681b      	ldr	r3, [r3, #0]
 8000e8e:	4a90      	ldr	r2, [pc, #576]	; (80010d0 <HAL_RCC_OscConfig+0x2ac>)
 8000e90:	f443 3380 	orr.w	r3, r3, #65536	; 0x10000
 8000e94:	6013      	str	r3, [r2, #0]
 8000e96:	e01d      	b.n	8000ed4 <HAL_RCC_OscConfig+0xb0>
 8000e98:	687b      	ldr	r3, [r7, #4]
 8000e9a:	685b      	ldr	r3, [r3, #4]
 8000e9c:	f5b3 2fa0 	cmp.w	r3, #327680	; 0x50000
 8000ea0:	d10c      	bne.n	8000ebc <HAL_RCC_OscConfig+0x98>
 8000ea2:	4b8b      	ldr	r3, [pc, #556]	; (80010d0 <HAL_RCC_OscConfig+0x2ac>)
 8000ea4:	681b      	ldr	r3, [r3, #0]
 8000ea6:	4a8a      	ldr	r2, [pc, #552]	; (80010d0 <HAL_RCC_OscConfig+0x2ac>)
 8000ea8:	f443 2380 	orr.w	r3, r3, #262144	; 0x40000
 8000eac:	6013      	str	r3, [r2, #0]
 8000eae:	4b88      	ldr	r3, [pc, #544]	; (80010d0 <HAL_RCC_OscConfig+0x2ac>)
 8000eb0:	681b      	ldr	r3, [r3, #0]
 8000eb2:	4a87      	ldr	r2, [pc, #540]	; (80010d0 <HAL_RCC_OscConfig+0x2ac>)
 8000eb4:	f443 3380 	orr.w	r3, r3, #65536	; 0x10000
 8000eb8:	6013      	str	r3, [r2, #0]
 8000eba:	e00b      	b.n	8000ed4 <HAL_RCC_OscConfig+0xb0>
 8000ebc:	4b84      	ldr	r3, [pc, #528]	; (80010d0 <HAL_RCC_OscConfig+0x2ac>)
 8000ebe:	681b      	ldr	r3, [r3, #0]
 8000ec0:	4a83      	ldr	r2, [pc, #524]	; (80010d0 <HAL_RCC_OscConfig+0x2ac>)
 8000ec2:	f423 3380 	bic.w	r3, r3, #65536	; 0x10000
 8000ec6:	6013      	str	r3, [r2, #0]
 8000ec8:	4b81      	ldr	r3, [pc, #516]	; (80010d0 <HAL_RCC_OscConfig+0x2ac>)
 8000eca:	681b      	ldr	r3, [r3, #0]
 8000ecc:	4a80      	ldr	r2, [pc, #512]	; (80010d0 <HAL_RCC_OscConfig+0x2ac>)
 8000ece:	f423 2380 	bic.w	r3, r3, #262144	; 0x40000
 8000ed2:	6013      	str	r3, [r2, #0]

      /* Check the HSE State */
      if((RCC_OscInitStruct->HSEState) != RCC_HSE_OFF)
 8000ed4:	687b      	ldr	r3, [r7, #4]
 8000ed6:	685b      	ldr	r3, [r3, #4]
 8000ed8:	2b00      	cmp	r3, #0
 8000eda:	d013      	beq.n	8000f04 <HAL_RCC_OscConfig+0xe0>
      {
        /* Get Start Tick */
        tickstart = HAL_GetTick();
 8000edc:	f7ff fd14 	bl	8000908 <HAL_GetTick>
 8000ee0:	6138      	str	r0, [r7, #16]

        /* Wait till HSE is ready */
        while(__HAL_RCC_GET_FLAG(RCC_FLAG_HSERDY) == RESET)
 8000ee2:	e008      	b.n	8000ef6 <HAL_RCC_OscConfig+0xd2>
        {
          if((HAL_GetTick() - tickstart ) > HSE_TIMEOUT_VALUE)
 8000ee4:	f7ff fd10 	bl	8000908 <HAL_GetTick>
 8000ee8:	4602      	mov	r2, r0
 8000eea:	693b      	ldr	r3, [r7, #16]
 8000eec:	1ad3      	subs	r3, r2, r3
 8000eee:	2b64      	cmp	r3, #100	; 0x64
 8000ef0:	d901      	bls.n	8000ef6 <HAL_RCC_OscConfig+0xd2>
          {
            return HAL_TIMEOUT;
 8000ef2:	2303      	movs	r3, #3
 8000ef4:	e204      	b.n	8001300 <HAL_RCC_OscConfig+0x4dc>
        while(__HAL_RCC_GET_FLAG(RCC_FLAG_HSERDY) == RESET)
 8000ef6:	4b76      	ldr	r3, [pc, #472]	; (80010d0 <HAL_RCC_OscConfig+0x2ac>)
 8000ef8:	681b      	ldr	r3, [r3, #0]
 8000efa:	f403 3300 	and.w	r3, r3, #131072	; 0x20000
 8000efe:	2b00      	cmp	r3, #0
 8000f00:	d0f0      	beq.n	8000ee4 <HAL_RCC_OscConfig+0xc0>
 8000f02:	e014      	b.n	8000f2e <HAL_RCC_OscConfig+0x10a>
        }
      }
      else
      {
        /* Get Start Tick */
        tickstart = HAL_GetTick();
 8000f04:	f7ff fd00 	bl	8000908 <HAL_GetTick>
 8000f08:	6138      	str	r0, [r7, #16]

        /* Wait till HSE is bypassed or disabled */
        while(__HAL_RCC_GET_FLAG(RCC_FLAG_HSERDY) != RESET)
 8000f0a:	e008      	b.n	8000f1e <HAL_RCC_OscConfig+0xfa>
        {
          if((HAL_GetTick() - tickstart ) > HSE_TIMEOUT_VALUE)
 8000f0c:	f7ff fcfc 	bl	8000908 <HAL_GetTick>
 8000f10:	4602      	mov	r2, r0
 8000f12:	693b      	ldr	r3, [r7, #16]
 8000f14:	1ad3      	subs	r3, r2, r3
 8000f16:	2b64      	cmp	r3, #100	; 0x64
 8000f18:	d901      	bls.n	8000f1e <HAL_RCC_OscConfig+0xfa>
          {
            return HAL_TIMEOUT;
 8000f1a:	2303      	movs	r3, #3
 8000f1c:	e1f0      	b.n	8001300 <HAL_RCC_OscConfig+0x4dc>
        while(__HAL_RCC_GET_FLAG(RCC_FLAG_HSERDY) != RESET)
 8000f1e:	4b6c      	ldr	r3, [pc, #432]	; (80010d0 <HAL_RCC_OscConfig+0x2ac>)
 8000f20:	681b      	ldr	r3, [r3, #0]
 8000f22:	f403 3300 	and.w	r3, r3, #131072	; 0x20000
 8000f26:	2b00      	cmp	r3, #0
 8000f28:	d1f0      	bne.n	8000f0c <HAL_RCC_OscConfig+0xe8>
 8000f2a:	e000      	b.n	8000f2e <HAL_RCC_OscConfig+0x10a>
      if((__HAL_RCC_GET_FLAG(RCC_FLAG_HSERDY) != RESET) && (RCC_OscInitStruct->HSEState == RCC_HSE_OFF))
 8000f2c:	bf00      	nop
        }
      }
    }
  }
  /*----------------------------- HSI Configuration --------------------------*/
  if(((RCC_OscInitStruct->OscillatorType) & RCC_OSCILLATORTYPE_HSI) == RCC_OSCILLATORTYPE_HSI)
 8000f2e:	687b      	ldr	r3, [r7, #4]
 8000f30:	681b      	ldr	r3, [r3, #0]
 8000f32:	f003 0302 	and.w	r3, r3, #2
 8000f36:	2b00      	cmp	r3, #0
 8000f38:	d063      	beq.n	8001002 <HAL_RCC_OscConfig+0x1de>
    /* Check the parameters */
    assert_param(IS_RCC_HSI(RCC_OscInitStruct->HSIState));
    assert_param(IS_RCC_CALIBRATION_VALUE(RCC_OscInitStruct->HSICalibrationValue));

    /* Check if HSI is used as system clock or as PLL source when PLL is selected as system clock */
    if((__HAL_RCC_GET_SYSCLK_SOURCE() == RCC_CFGR_SWS_HSI) ||\
 8000f3a:	4b65      	ldr	r3, [pc, #404]	; (80010d0 <HAL_RCC_OscConfig+0x2ac>)
 8000f3c:	689b      	ldr	r3, [r3, #8]
 8000f3e:	f003 030c 	and.w	r3, r3, #12
 8000f42:	2b00      	cmp	r3, #0
 8000f44:	d00b      	beq.n	8000f5e <HAL_RCC_OscConfig+0x13a>
      ((__HAL_RCC_GET_SYSCLK_SOURCE() == RCC_CFGR_SWS_PLL) && ((RCC->PLLCFGR & RCC_PLLCFGR_PLLSRC) == RCC_PLLCFGR_PLLSRC_HSI)))
 8000f46:	4b62      	ldr	r3, [pc, #392]	; (80010d0 <HAL_RCC_OscConfig+0x2ac>)
 8000f48:	689b      	ldr	r3, [r3, #8]
 8000f4a:	f003 030c 	and.w	r3, r3, #12
    if((__HAL_RCC_GET_SYSCLK_SOURCE() == RCC_CFGR_SWS_HSI) ||\
 8000f4e:	2b08      	cmp	r3, #8
 8000f50:	d11c      	bne.n	8000f8c <HAL_RCC_OscConfig+0x168>
      ((__HAL_RCC_GET_SYSCLK_SOURCE() == RCC_CFGR_SWS_PLL) && ((RCC->PLLCFGR & RCC_PLLCFGR_PLLSRC) == RCC_PLLCFGR_PLLSRC_HSI)))
 8000f52:	4b5f      	ldr	r3, [pc, #380]	; (80010d0 <HAL_RCC_OscConfig+0x2ac>)
 8000f54:	685b      	ldr	r3, [r3, #4]
 8000f56:	f403 0380 	and.w	r3, r3, #4194304	; 0x400000
 8000f5a:	2b00      	cmp	r3, #0
 8000f5c:	d116      	bne.n	8000f8c <HAL_RCC_OscConfig+0x168>
    {
      /* When HSI is used as system clock it will not disabled */
      if((__HAL_RCC_GET_FLAG(RCC_FLAG_HSIRDY) != RESET) && (RCC_OscInitStruct->HSIState != RCC_HSI_ON))
 8000f5e:	4b5c      	ldr	r3, [pc, #368]	; (80010d0 <HAL_RCC_OscConfig+0x2ac>)
 8000f60:	681b      	ldr	r3, [r3, #0]
 8000f62:	f003 0302 	and.w	r3, r3, #2
 8000f66:	2b00      	cmp	r3, #0
 8000f68:	d005      	beq.n	8000f76 <HAL_RCC_OscConfig+0x152>
 8000f6a:	687b      	ldr	r3, [r7, #4]
 8000f6c:	68db      	ldr	r3, [r3, #12]
 8000f6e:	2b01      	cmp	r3, #1
 8000f70:	d001      	beq.n	8000f76 <HAL_RCC_OscConfig+0x152>
      {
        return HAL_ERROR;
 8000f72:	2301      	movs	r3, #1
 8000f74:	e1c4      	b.n	8001300 <HAL_RCC_OscConfig+0x4dc>
      }
      /* Otherwise, just the calibration is allowed */
      else
      {
        /* Adjusts the Internal High Speed oscillator (HSI) calibration value.*/
        __HAL_RCC_HSI_CALIBRATIONVALUE_ADJUST(RCC_OscInitStruct->HSICalibrationValue);
 8000f76:	4b56      	ldr	r3, [pc, #344]	; (80010d0 <HAL_RCC_OscConfig+0x2ac>)
 8000f78:	681b      	ldr	r3, [r3, #0]
 8000f7a:	f023 02f8 	bic.w	r2, r3, #248	; 0xf8
 8000f7e:	687b      	ldr	r3, [r7, #4]
 8000f80:	691b      	ldr	r3, [r3, #16]
 8000f82:	00db      	lsls	r3, r3, #3
 8000f84:	4952      	ldr	r1, [pc, #328]	; (80010d0 <HAL_RCC_OscConfig+0x2ac>)
 8000f86:	4313      	orrs	r3, r2
 8000f88:	600b      	str	r3, [r1, #0]
      if((__HAL_RCC_GET_FLAG(RCC_FLAG_HSIRDY) != RESET) && (RCC_OscInitStruct->HSIState != RCC_HSI_ON))
 8000f8a:	e03a      	b.n	8001002 <HAL_RCC_OscConfig+0x1de>
      }
    }
    else
    {
      /* Check the HSI State */
      if((RCC_OscInitStruct->HSIState)!= RCC_HSI_OFF)
 8000f8c:	687b      	ldr	r3, [r7, #4]
 8000f8e:	68db      	ldr	r3, [r3, #12]
 8000f90:	2b00      	cmp	r3, #0
 8000f92:	d020      	beq.n	8000fd6 <HAL_RCC_OscConfig+0x1b2>
      {
        /* Enable the Internal High Speed oscillator (HSI). */
        __HAL_RCC_HSI_ENABLE();
 8000f94:	4b4f      	ldr	r3, [pc, #316]	; (80010d4 <HAL_RCC_OscConfig+0x2b0>)
 8000f96:	2201      	movs	r2, #1
 8000f98:	601a      	str	r2, [r3, #0]

        /* Get Start Tick*/
        tickstart = HAL_GetTick();
 8000f9a:	f7ff fcb5 	bl	8000908 <HAL_GetTick>
 8000f9e:	6138      	str	r0, [r7, #16]

        /* Wait till HSI is ready */
        while(__HAL_RCC_GET_FLAG(RCC_FLAG_HSIRDY) == RESET)
 8000fa0:	e008      	b.n	8000fb4 <HAL_RCC_OscConfig+0x190>
        {
          if((HAL_GetTick() - tickstart ) > HSI_TIMEOUT_VALUE)
 8000fa2:	f7ff fcb1 	bl	8000908 <HAL_GetTick>
 8000fa6:	4602      	mov	r2, r0
 8000fa8:	693b      	ldr	r3, [r7, #16]
 8000faa:	1ad3      	subs	r3, r2, r3
 8000fac:	2b02      	cmp	r3, #2
 8000fae:	d901      	bls.n	8000fb4 <HAL_RCC_OscConfig+0x190>
          {
            return HAL_TIMEOUT;
 8000fb0:	2303      	movs	r3, #3
 8000fb2:	e1a5      	b.n	8001300 <HAL_RCC_OscConfig+0x4dc>
        while(__HAL_RCC_GET_FLAG(RCC_FLAG_HSIRDY) == RESET)
 8000fb4:	4b46      	ldr	r3, [pc, #280]	; (80010d0 <HAL_RCC_OscConfig+0x2ac>)
 8000fb6:	681b      	ldr	r3, [r3, #0]
 8000fb8:	f003 0302 	and.w	r3, r3, #2
 8000fbc:	2b00      	cmp	r3, #0
 8000fbe:	d0f0      	beq.n	8000fa2 <HAL_RCC_OscConfig+0x17e>
          }
        }

        /* Adjusts the Internal High Speed oscillator (HSI) calibration value. */
        __HAL_RCC_HSI_CALIBRATIONVALUE_ADJUST(RCC_OscInitStruct->HSICalibrationValue);
 8000fc0:	4b43      	ldr	r3, [pc, #268]	; (80010d0 <HAL_RCC_OscConfig+0x2ac>)
 8000fc2:	681b      	ldr	r3, [r3, #0]
 8000fc4:	f023 02f8 	bic.w	r2, r3, #248	; 0xf8
 8000fc8:	687b      	ldr	r3, [r7, #4]
 8000fca:	691b      	ldr	r3, [r3, #16]
 8000fcc:	00db      	lsls	r3, r3, #3
 8000fce:	4940      	ldr	r1, [pc, #256]	; (80010d0 <HAL_RCC_OscConfig+0x2ac>)
 8000fd0:	4313      	orrs	r3, r2
 8000fd2:	600b      	str	r3, [r1, #0]
 8000fd4:	e015      	b.n	8001002 <HAL_RCC_OscConfig+0x1de>
      }
      else
      {
        /* Disable the Internal High Speed oscillator (HSI). */
        __HAL_RCC_HSI_DISABLE();
 8000fd6:	4b3f      	ldr	r3, [pc, #252]	; (80010d4 <HAL_RCC_OscConfig+0x2b0>)
 8000fd8:	2200      	movs	r2, #0
 8000fda:	601a      	str	r2, [r3, #0]

        /* Get Start Tick*/
        tickstart = HAL_GetTick();
 8000fdc:	f7ff fc94 	bl	8000908 <HAL_GetTick>
 8000fe0:	6138      	str	r0, [r7, #16]

        /* Wait till HSI is ready */
        while(__HAL_RCC_GET_FLAG(RCC_FLAG_HSIRDY) != RESET)
 8000fe2:	e008      	b.n	8000ff6 <HAL_RCC_OscConfig+0x1d2>
        {
          if((HAL_GetTick() - tickstart ) > HSI_TIMEOUT_VALUE)
 8000fe4:	f7ff fc90 	bl	8000908 <HAL_GetTick>
 8000fe8:	4602      	mov	r2, r0
 8000fea:	693b      	ldr	r3, [r7, #16]
 8000fec:	1ad3      	subs	r3, r2, r3
 8000fee:	2b02      	cmp	r3, #2
 8000ff0:	d901      	bls.n	8000ff6 <HAL_RCC_OscConfig+0x1d2>
          {
            return HAL_TIMEOUT;
 8000ff2:	2303      	movs	r3, #3
 8000ff4:	e184      	b.n	8001300 <HAL_RCC_OscConfig+0x4dc>
        while(__HAL_RCC_GET_FLAG(RCC_FLAG_HSIRDY) != RESET)
 8000ff6:	4b36      	ldr	r3, [pc, #216]	; (80010d0 <HAL_RCC_OscConfig+0x2ac>)
 8000ff8:	681b      	ldr	r3, [r3, #0]
 8000ffa:	f003 0302 	and.w	r3, r3, #2
 8000ffe:	2b00      	cmp	r3, #0
 8001000:	d1f0      	bne.n	8000fe4 <HAL_RCC_OscConfig+0x1c0>
        }
      }
    }
  }
  /*------------------------------ LSI Configuration -------------------------*/
  if(((RCC_OscInitStruct->OscillatorType) & RCC_OSCILLATORTYPE_LSI) == RCC_OSCILLATORTYPE_LSI)
 8001002:	687b      	ldr	r3, [r7, #4]
 8001004:	681b      	ldr	r3, [r3, #0]
 8001006:	f003 0308 	and.w	r3, r3, #8
 800100a:	2b00      	cmp	r3, #0
 800100c:	d030      	beq.n	8001070 <HAL_RCC_OscConfig+0x24c>
  {
    /* Check the parameters */
    assert_param(IS_RCC_LSI(RCC_OscInitStruct->LSIState));

    /* Check the LSI State */
    if((RCC_OscInitStruct->LSIState)!= RCC_LSI_OFF)
 800100e:	687b      	ldr	r3, [r7, #4]
 8001010:	695b      	ldr	r3, [r3, #20]
 8001012:	2b00      	cmp	r3, #0
 8001014:	d016      	beq.n	8001044 <HAL_RCC_OscConfig+0x220>
    {
      /* Enable the Internal Low Speed oscillator (LSI). */
      __HAL_RCC_LSI_ENABLE();
 8001016:	4b30      	ldr	r3, [pc, #192]	; (80010d8 <HAL_RCC_OscConfig+0x2b4>)
 8001018:	2201      	movs	r2, #1
 800101a:	601a      	str	r2, [r3, #0]

      /* Get Start Tick*/
      tickstart = HAL_GetTick();
 800101c:	f7ff fc74 	bl	8000908 <HAL_GetTick>
 8001020:	6138      	str	r0, [r7, #16]

      /* Wait till LSI is ready */
      while(__HAL_RCC_GET_FLAG(RCC_FLAG_LSIRDY) == RESET)
 8001022:	e008      	b.n	8001036 <HAL_RCC_OscConfig+0x212>
      {
        if((HAL_GetTick() - tickstart ) > LSI_TIMEOUT_VALUE)
 8001024:	f7ff fc70 	bl	8000908 <HAL_GetTick>
 8001028:	4602      	mov	r2, r0
 800102a:	693b      	ldr	r3, [r7, #16]
 800102c:	1ad3      	subs	r3, r2, r3
 800102e:	2b02      	cmp	r3, #2
 8001030:	d901      	bls.n	8001036 <HAL_RCC_OscConfig+0x212>
        {
          return HAL_TIMEOUT;
 8001032:	2303      	movs	r3, #3
 8001034:	e164      	b.n	8001300 <HAL_RCC_OscConfig+0x4dc>
      while(__HAL_RCC_GET_FLAG(RCC_FLAG_LSIRDY) == RESET)
 8001036:	4b26      	ldr	r3, [pc, #152]	; (80010d0 <HAL_RCC_OscConfig+0x2ac>)
 8001038:	6f5b      	ldr	r3, [r3, #116]	; 0x74
 800103a:	f003 0302 	and.w	r3, r3, #2
 800103e:	2b00      	cmp	r3, #0
 8001040:	d0f0      	beq.n	8001024 <HAL_RCC_OscConfig+0x200>
 8001042:	e015      	b.n	8001070 <HAL_RCC_OscConfig+0x24c>
      }
    }
    else
    {
      /* Disable the Internal Low Speed oscillator (LSI). */
      __HAL_RCC_LSI_DISABLE();
 8001044:	4b24      	ldr	r3, [pc, #144]	; (80010d8 <HAL_RCC_OscConfig+0x2b4>)
 8001046:	2200      	movs	r2, #0
 8001048:	601a      	str	r2, [r3, #0]

      /* Get Start Tick */
      tickstart = HAL_GetTick();
 800104a:	f7ff fc5d 	bl	8000908 <HAL_GetTick>
 800104e:	6138      	str	r0, [r7, #16]

      /* Wait till LSI is ready */
      while(__HAL_RCC_GET_FLAG(RCC_FLAG_LSIRDY) != RESET)
 8001050:	e008      	b.n	8001064 <HAL_RCC_OscConfig+0x240>
      {
        if((HAL_GetTick() - tickstart ) > LSI_TIMEOUT_VALUE)
 8001052:	f7ff fc59 	bl	8000908 <HAL_GetTick>
 8001056:	4602      	mov	r2, r0
 8001058:	693b      	ldr	r3, [r7, #16]
 800105a:	1ad3      	subs	r3, r2, r3
 800105c:	2b02      	cmp	r3, #2
 800105e:	d901      	bls.n	8001064 <HAL_RCC_OscConfig+0x240>
        {
          return HAL_TIMEOUT;
 8001060:	2303      	movs	r3, #3
 8001062:	e14d      	b.n	8001300 <HAL_RCC_OscConfig+0x4dc>
      while(__HAL_RCC_GET_FLAG(RCC_FLAG_LSIRDY) != RESET)
 8001064:	4b1a      	ldr	r3, [pc, #104]	; (80010d0 <HAL_RCC_OscConfig+0x2ac>)
 8001066:	6f5b      	ldr	r3, [r3, #116]	; 0x74
 8001068:	f003 0302 	and.w	r3, r3, #2
 800106c:	2b00      	cmp	r3, #0
 800106e:	d1f0      	bne.n	8001052 <HAL_RCC_OscConfig+0x22e>
        }
      }
    }
  }
  /*------------------------------ LSE Configuration -------------------------*/
  if(((RCC_OscInitStruct->OscillatorType) & RCC_OSCILLATORTYPE_LSE) == RCC_OSCILLATORTYPE_LSE)
 8001070:	687b      	ldr	r3, [r7, #4]
 8001072:	681b      	ldr	r3, [r3, #0]
 8001074:	f003 0304 	and.w	r3, r3, #4
 8001078:	2b00      	cmp	r3, #0
 800107a:	f000 80a0 	beq.w	80011be <HAL_RCC_OscConfig+0x39a>
  {
    FlagStatus       pwrclkchanged = RESET;
 800107e:	2300      	movs	r3, #0
 8001080:	75fb      	strb	r3, [r7, #23]
    /* Check the parameters */
    assert_param(IS_RCC_LSE(RCC_OscInitStruct->LSEState));

    /* Update LSE configuration in Backup Domain control register    */
    /* Requires to enable write access to Backup Domain of necessary */
    if(__HAL_RCC_PWR_IS_CLK_DISABLED())
 8001082:	4b13      	ldr	r3, [pc, #76]	; (80010d0 <HAL_RCC_OscConfig+0x2ac>)
 8001084:	6c1b      	ldr	r3, [r3, #64]	; 0x40
 8001086:	f003 5380 	and.w	r3, r3, #268435456	; 0x10000000
 800108a:	2b00      	cmp	r3, #0
 800108c:	d10f      	bne.n	80010ae <HAL_RCC_OscConfig+0x28a>
    {
      __HAL_RCC_PWR_CLK_ENABLE();
 800108e:	2300      	movs	r3, #0
 8001090:	60bb      	str	r3, [r7, #8]
 8001092:	4b0f      	ldr	r3, [pc, #60]	; (80010d0 <HAL_RCC_OscConfig+0x2ac>)
 8001094:	6c1b      	ldr	r3, [r3, #64]	; 0x40
 8001096:	4a0e      	ldr	r2, [pc, #56]	; (80010d0 <HAL_RCC_OscConfig+0x2ac>)
 8001098:	f043 5380 	orr.w	r3, r3, #268435456	; 0x10000000
 800109c:	6413      	str	r3, [r2, #64]	; 0x40
 800109e:	4b0c      	ldr	r3, [pc, #48]	; (80010d0 <HAL_RCC_OscConfig+0x2ac>)
 80010a0:	6c1b      	ldr	r3, [r3, #64]	; 0x40
 80010a2:	f003 5380 	and.w	r3, r3, #268435456	; 0x10000000
 80010a6:	60bb      	str	r3, [r7, #8]
 80010a8:	68bb      	ldr	r3, [r7, #8]
      pwrclkchanged = SET;
 80010aa:	2301      	movs	r3, #1
 80010ac:	75fb      	strb	r3, [r7, #23]
    }

    if(HAL_IS_BIT_CLR(PWR->CR, PWR_CR_DBP))
 80010ae:	4b0b      	ldr	r3, [pc, #44]	; (80010dc <HAL_RCC_OscConfig+0x2b8>)
 80010b0:	681b      	ldr	r3, [r3, #0]
 80010b2:	f403 7380 	and.w	r3, r3, #256	; 0x100
 80010b6:	2b00      	cmp	r3, #0
 80010b8:	d121      	bne.n	80010fe <HAL_RCC_OscConfig+0x2da>
    {
      /* Enable write access to Backup domain */
      SET_BIT(PWR->CR, PWR_CR_DBP);
 80010ba:	4b08      	ldr	r3, [pc, #32]	; (80010dc <HAL_RCC_OscConfig+0x2b8>)
 80010bc:	681b      	ldr	r3, [r3, #0]
 80010be:	4a07      	ldr	r2, [pc, #28]	; (80010dc <HAL_RCC_OscConfig+0x2b8>)
 80010c0:	f443 7380 	orr.w	r3, r3, #256	; 0x100
 80010c4:	6013      	str	r3, [r2, #0]

      /* Wait for Backup domain Write protection disable */
      tickstart = HAL_GetTick();
 80010c6:	f7ff fc1f 	bl	8000908 <HAL_GetTick>
 80010ca:	6138      	str	r0, [r7, #16]

      while(HAL_IS_BIT_CLR(PWR->CR, PWR_CR_DBP))
 80010cc:	e011      	b.n	80010f2 <HAL_RCC_OscConfig+0x2ce>
 80010ce:	bf00      	nop
 80010d0:	40023800 	.word	0x40023800
 80010d4:	42470000 	.word	0x42470000
 80010d8:	42470e80 	.word	0x42470e80
 80010dc:	40007000 	.word	0x40007000
      {
        if((HAL_GetTick() - tickstart) > RCC_DBP_TIMEOUT_VALUE)
 80010e0:	f7ff fc12 	bl	8000908 <HAL_GetTick>
 80010e4:	4602      	mov	r2, r0
 80010e6:	693b      	ldr	r3, [r7, #16]
 80010e8:	1ad3      	subs	r3, r2, r3
 80010ea:	2b02      	cmp	r3, #2
 80010ec:	d901      	bls.n	80010f2 <HAL_RCC_OscConfig+0x2ce>
        {
          return HAL_TIMEOUT;
 80010ee:	2303      	movs	r3, #3
 80010f0:	e106      	b.n	8001300 <HAL_RCC_OscConfig+0x4dc>
      while(HAL_IS_BIT_CLR(PWR->CR, PWR_CR_DBP))
 80010f2:	4b85      	ldr	r3, [pc, #532]	; (8001308 <HAL_RCC_OscConfig+0x4e4>)
 80010f4:	681b      	ldr	r3, [r3, #0]
 80010f6:	f403 7380 	and.w	r3, r3, #256	; 0x100
 80010fa:	2b00      	cmp	r3, #0
 80010fc:	d0f0      	beq.n	80010e0 <HAL_RCC_OscConfig+0x2bc>
        }
      }
    }

    /* Set the new LSE configuration -----------------------------------------*/
    __HAL_RCC_LSE_CONFIG(RCC_OscInitStruct->LSEState);
 80010fe:	687b      	ldr	r3, [r7, #4]
 8001100:	689b      	ldr	r3, [r3, #8]
 8001102:	2b01      	cmp	r3, #1
 8001104:	d106      	bne.n	8001114 <HAL_RCC_OscConfig+0x2f0>
 8001106:	4b81      	ldr	r3, [pc, #516]	; (800130c <HAL_RCC_OscConfig+0x4e8>)
 8001108:	6f1b      	ldr	r3, [r3, #112]	; 0x70
 800110a:	4a80      	ldr	r2, [pc, #512]	; (800130c <HAL_RCC_OscConfig+0x4e8>)
 800110c:	f043 0301 	orr.w	r3, r3, #1
 8001110:	6713      	str	r3, [r2, #112]	; 0x70
 8001112:	e01c      	b.n	800114e <HAL_RCC_OscConfig+0x32a>
 8001114:	687b      	ldr	r3, [r7, #4]
 8001116:	689b      	ldr	r3, [r3, #8]
 8001118:	2b05      	cmp	r3, #5
 800111a:	d10c      	bne.n	8001136 <HAL_RCC_OscConfig+0x312>
 800111c:	4b7b      	ldr	r3, [pc, #492]	; (800130c <HAL_RCC_OscConfig+0x4e8>)
 800111e:	6f1b      	ldr	r3, [r3, #112]	; 0x70
 8001120:	4a7a      	ldr	r2, [pc, #488]	; (800130c <HAL_RCC_OscConfig+0x4e8>)
 8001122:	f043 0304 	orr.w	r3, r3, #4
 8001126:	6713      	str	r3, [r2, #112]	; 0x70
 8001128:	4b78      	ldr	r3, [pc, #480]	; (800130c <HAL_RCC_OscConfig+0x4e8>)
 800112a:	6f1b      	ldr	r3, [r3, #112]	; 0x70
 800112c:	4a77      	ldr	r2, [pc, #476]	; (800130c <HAL_RCC_OscConfig+0x4e8>)
 800112e:	f043 0301 	orr.w	r3, r3, #1
 8001132:	6713      	str	r3, [r2, #112]	; 0x70
 8001134:	e00b      	b.n	800114e <HAL_RCC_OscConfig+0x32a>
 8001136:	4b75      	ldr	r3, [pc, #468]	; (800130c <HAL_RCC_OscConfig+0x4e8>)
 8001138:	6f1b      	ldr	r3, [r3, #112]	; 0x70
 800113a:	4a74      	ldr	r2, [pc, #464]	; (800130c <HAL_RCC_OscConfig+0x4e8>)
 800113c:	f023 0301 	bic.w	r3, r3, #1
 8001140:	6713      	str	r3, [r2, #112]	; 0x70
 8001142:	4b72      	ldr	r3, [pc, #456]	; (800130c <HAL_RCC_OscConfig+0x4e8>)
 8001144:	6f1b      	ldr	r3, [r3, #112]	; 0x70
 8001146:	4a71      	ldr	r2, [pc, #452]	; (800130c <HAL_RCC_OscConfig+0x4e8>)
 8001148:	f023 0304 	bic.w	r3, r3, #4
 800114c:	6713      	str	r3, [r2, #112]	; 0x70
    /* Check the LSE State */
    if((RCC_OscInitStruct->LSEState) != RCC_LSE_OFF)
 800114e:	687b      	ldr	r3, [r7, #4]
 8001150:	689b      	ldr	r3, [r3, #8]
 8001152:	2b00      	cmp	r3, #0
 8001154:	d015      	beq.n	8001182 <HAL_RCC_OscConfig+0x35e>
    {
      /* Get Start Tick*/
      tickstart = HAL_GetTick();
 8001156:	f7ff fbd7 	bl	8000908 <HAL_GetTick>
 800115a:	6138      	str	r0, [r7, #16]

      /* Wait till LSE is ready */
      while(__HAL_RCC_GET_FLAG(RCC_FLAG_LSERDY) == RESET)
 800115c:	e00a      	b.n	8001174 <HAL_RCC_OscConfig+0x350>
      {
        if((HAL_GetTick() - tickstart ) > RCC_LSE_TIMEOUT_VALUE)
 800115e:	f7ff fbd3 	bl	8000908 <HAL_GetTick>
 8001162:	4602      	mov	r2, r0
 8001164:	693b      	ldr	r3, [r7, #16]
 8001166:	1ad3      	subs	r3, r2, r3
 8001168:	f241 3288 	movw	r2, #5000	; 0x1388
 800116c:	4293      	cmp	r3, r2
 800116e:	d901      	bls.n	8001174 <HAL_RCC_OscConfig+0x350>
        {
          return HAL_TIMEOUT;
 8001170:	2303      	movs	r3, #3
 8001172:	e0c5      	b.n	8001300 <HAL_RCC_OscConfig+0x4dc>
      while(__HAL_RCC_GET_FLAG(RCC_FLAG_LSERDY) == RESET)
 8001174:	4b65      	ldr	r3, [pc, #404]	; (800130c <HAL_RCC_OscConfig+0x4e8>)
 8001176:	6f1b      	ldr	r3, [r3, #112]	; 0x70
 8001178:	f003 0302 	and.w	r3, r3, #2
 800117c:	2b00      	cmp	r3, #0
 800117e:	d0ee      	beq.n	800115e <HAL_RCC_OscConfig+0x33a>
 8001180:	e014      	b.n	80011ac <HAL_RCC_OscConfig+0x388>
      }
    }
    else
    {
      /* Get Start Tick */
      tickstart = HAL_GetTick();
 8001182:	f7ff fbc1 	bl	8000908 <HAL_GetTick>
 8001186:	6138      	str	r0, [r7, #16]

      /* Wait till LSE is ready */
      while(__HAL_RCC_GET_FLAG(RCC_FLAG_LSERDY) != RESET)
 8001188:	e00a      	b.n	80011a0 <HAL_RCC_OscConfig+0x37c>
      {
        if((HAL_GetTick() - tickstart ) > RCC_LSE_TIMEOUT_VALUE)
 800118a:	f7ff fbbd 	bl	8000908 <HAL_GetTick>
 800118e:	4602      	mov	r2, r0
 8001190:	693b      	ldr	r3, [r7, #16]
 8001192:	1ad3      	subs	r3, r2, r3
 8001194:	f241 3288 	movw	r2, #5000	; 0x1388
 8001198:	4293      	cmp	r3, r2
 800119a:	d901      	bls.n	80011a0 <HAL_RCC_OscConfig+0x37c>
        {
          return HAL_TIMEOUT;
 800119c:	2303      	movs	r3, #3
 800119e:	e0af      	b.n	8001300 <HAL_RCC_OscConfig+0x4dc>
      while(__HAL_RCC_GET_FLAG(RCC_FLAG_LSERDY) != RESET)
 80011a0:	4b5a      	ldr	r3, [pc, #360]	; (800130c <HAL_RCC_OscConfig+0x4e8>)
 80011a2:	6f1b      	ldr	r3, [r3, #112]	; 0x70
 80011a4:	f003 0302 	and.w	r3, r3, #2
 80011a8:	2b00      	cmp	r3, #0
 80011aa:	d1ee      	bne.n	800118a <HAL_RCC_OscConfig+0x366>
        }
      }
    }

    /* Restore clock configuration if changed */
    if(pwrclkchanged == SET)
 80011ac:	7dfb      	ldrb	r3, [r7, #23]
 80011ae:	2b01      	cmp	r3, #1
 80011b0:	d105      	bne.n	80011be <HAL_RCC_OscConfig+0x39a>
    {
      __HAL_RCC_PWR_CLK_DISABLE();
 80011b2:	4b56      	ldr	r3, [pc, #344]	; (800130c <HAL_RCC_OscConfig+0x4e8>)
 80011b4:	6c1b      	ldr	r3, [r3, #64]	; 0x40
 80011b6:	4a55      	ldr	r2, [pc, #340]	; (800130c <HAL_RCC_OscConfig+0x4e8>)
 80011b8:	f023 5380 	bic.w	r3, r3, #268435456	; 0x10000000
 80011bc:	6413      	str	r3, [r2, #64]	; 0x40
    }
  }
  /*-------------------------------- PLL Configuration -----------------------*/
  /* Check the parameters */
  assert_param(IS_RCC_PLL(RCC_OscInitStruct->PLL.PLLState));
  if ((RCC_OscInitStruct->PLL.PLLState) != RCC_PLL_NONE)
 80011be:	687b      	ldr	r3, [r7, #4]
 80011c0:	699b      	ldr	r3, [r3, #24]
 80011c2:	2b00      	cmp	r3, #0
 80011c4:	f000 809b 	beq.w	80012fe <HAL_RCC_OscConfig+0x4da>
  {
    /* Check if the PLL is used as system clock or not */
    if(__HAL_RCC_GET_SYSCLK_SOURCE() != RCC_CFGR_SWS_PLL)
 80011c8:	4b50      	ldr	r3, [pc, #320]	; (800130c <HAL_RCC_OscConfig+0x4e8>)
 80011ca:	689b      	ldr	r3, [r3, #8]
 80011cc:	f003 030c 	and.w	r3, r3, #12
 80011d0:	2b08      	cmp	r3, #8
 80011d2:	d05c      	beq.n	800128e <HAL_RCC_OscConfig+0x46a>
    {
      if((RCC_OscInitStruct->PLL.PLLState) == RCC_PLL_ON)
 80011d4:	687b      	ldr	r3, [r7, #4]
 80011d6:	699b      	ldr	r3, [r3, #24]
 80011d8:	2b02      	cmp	r3, #2
 80011da:	d141      	bne.n	8001260 <HAL_RCC_OscConfig+0x43c>
        assert_param(IS_RCC_PLLN_VALUE(RCC_OscInitStruct->PLL.PLLN));
        assert_param(IS_RCC_PLLP_VALUE(RCC_OscInitStruct->PLL.PLLP));
        assert_param(IS_RCC_PLLQ_VALUE(RCC_OscInitStruct->PLL.PLLQ));

        /* Disable the main PLL. */
        __HAL_RCC_PLL_DISABLE();
 80011dc:	4b4c      	ldr	r3, [pc, #304]	; (8001310 <HAL_RCC_OscConfig+0x4ec>)
 80011de:	2200      	movs	r2, #0
 80011e0:	601a      	str	r2, [r3, #0]

        /* Get Start Tick */
        tickstart = HAL_GetTick();
 80011e2:	f7ff fb91 	bl	8000908 <HAL_GetTick>
 80011e6:	6138      	str	r0, [r7, #16]

        /* Wait till PLL is ready */
        while(__HAL_RCC_GET_FLAG(RCC_FLAG_PLLRDY) != RESET)
 80011e8:	e008      	b.n	80011fc <HAL_RCC_OscConfig+0x3d8>
        {
          if((HAL_GetTick() - tickstart ) > PLL_TIMEOUT_VALUE)
 80011ea:	f7ff fb8d 	bl	8000908 <HAL_GetTick>
 80011ee:	4602      	mov	r2, r0
 80011f0:	693b      	ldr	r3, [r7, #16]
 80011f2:	1ad3      	subs	r3, r2, r3
 80011f4:	2b02      	cmp	r3, #2
 80011f6:	d901      	bls.n	80011fc <HAL_RCC_OscConfig+0x3d8>
          {
            return HAL_TIMEOUT;
 80011f8:	2303      	movs	r3, #3
 80011fa:	e081      	b.n	8001300 <HAL_RCC_OscConfig+0x4dc>
        while(__HAL_RCC_GET_FLAG(RCC_FLAG_PLLRDY) != RESET)
 80011fc:	4b43      	ldr	r3, [pc, #268]	; (800130c <HAL_RCC_OscConfig+0x4e8>)
 80011fe:	681b      	ldr	r3, [r3, #0]
 8001200:	f003 7300 	and.w	r3, r3, #33554432	; 0x2000000
 8001204:	2b00      	cmp	r3, #0
 8001206:	d1f0      	bne.n	80011ea <HAL_RCC_OscConfig+0x3c6>
          }
        }

        /* Configure the main PLL clock source, multiplication and division factors. */
        WRITE_REG(RCC->PLLCFGR, (RCC_OscInitStruct->PLL.PLLSource                                            | \
 8001208:	687b      	ldr	r3, [r7, #4]
 800120a:	69da      	ldr	r2, [r3, #28]
 800120c:	687b      	ldr	r3, [r7, #4]
 800120e:	6a1b      	ldr	r3, [r3, #32]
 8001210:	431a      	orrs	r2, r3
 8001212:	687b      	ldr	r3, [r7, #4]
 8001214:	6a5b      	ldr	r3, [r3, #36]	; 0x24
 8001216:	019b      	lsls	r3, r3, #6
 8001218:	431a      	orrs	r2, r3
 800121a:	687b      	ldr	r3, [r7, #4]
 800121c:	6a9b      	ldr	r3, [r3, #40]	; 0x28
 800121e:	085b      	lsrs	r3, r3, #1
 8001220:	3b01      	subs	r3, #1
 8001222:	041b      	lsls	r3, r3, #16
 8001224:	431a      	orrs	r2, r3
 8001226:	687b      	ldr	r3, [r7, #4]
 8001228:	6adb      	ldr	r3, [r3, #44]	; 0x2c
 800122a:	061b      	lsls	r3, r3, #24
 800122c:	4937      	ldr	r1, [pc, #220]	; (800130c <HAL_RCC_OscConfig+0x4e8>)
 800122e:	4313      	orrs	r3, r2
 8001230:	604b      	str	r3, [r1, #4]
                                 RCC_OscInitStruct->PLL.PLLM                                                 | \
                                 (RCC_OscInitStruct->PLL.PLLN << RCC_PLLCFGR_PLLN_Pos)             | \
                                 (((RCC_OscInitStruct->PLL.PLLP >> 1U) - 1U) << RCC_PLLCFGR_PLLP_Pos) | \
                                 (RCC_OscInitStruct->PLL.PLLQ << RCC_PLLCFGR_PLLQ_Pos)));
        /* Enable the main PLL. */
        __HAL_RCC_PLL_ENABLE();
 8001232:	4b37      	ldr	r3, [pc, #220]	; (8001310 <HAL_RCC_OscConfig+0x4ec>)
 8001234:	2201      	movs	r2, #1
 8001236:	601a      	str	r2, [r3, #0]

        /* Get Start Tick */
        tickstart = HAL_GetTick();
 8001238:	f7ff fb66 	bl	8000908 <HAL_GetTick>
 800123c:	6138      	str	r0, [r7, #16]

        /* Wait till PLL is ready */
        while(__HAL_RCC_GET_FLAG(RCC_FLAG_PLLRDY) == RESET)
 800123e:	e008      	b.n	8001252 <HAL_RCC_OscConfig+0x42e>
        {
          if((HAL_GetTick() - tickstart ) > PLL_TIMEOUT_VALUE)
 8001240:	f7ff fb62 	bl	8000908 <HAL_GetTick>
 8001244:	4602      	mov	r2, r0
 8001246:	693b      	ldr	r3, [r7, #16]
 8001248:	1ad3      	subs	r3, r2, r3
 800124a:	2b02      	cmp	r3, #2
 800124c:	d901      	bls.n	8001252 <HAL_RCC_OscConfig+0x42e>
          {
            return HAL_TIMEOUT;
 800124e:	2303      	movs	r3, #3
 8001250:	e056      	b.n	8001300 <HAL_RCC_OscConfig+0x4dc>
        while(__HAL_RCC_GET_FLAG(RCC_FLAG_PLLRDY) == RESET)
 8001252:	4b2e      	ldr	r3, [pc, #184]	; (800130c <HAL_RCC_OscConfig+0x4e8>)
 8001254:	681b      	ldr	r3, [r3, #0]
 8001256:	f003 7300 	and.w	r3, r3, #33554432	; 0x2000000
 800125a:	2b00      	cmp	r3, #0
 800125c:	d0f0      	beq.n	8001240 <HAL_RCC_OscConfig+0x41c>
 800125e:	e04e      	b.n	80012fe <HAL_RCC_OscConfig+0x4da>
        }
      }
      else
      {
        /* Disable the main PLL. */
        __HAL_RCC_PLL_DISABLE();
 8001260:	4b2b      	ldr	r3, [pc, #172]	; (8001310 <HAL_RCC_OscConfig+0x4ec>)
 8001262:	2200      	movs	r2, #0
 8001264:	601a      	str	r2, [r3, #0]

        /* Get Start Tick */
        tickstart = HAL_GetTick();
 8001266:	f7ff fb4f 	bl	8000908 <HAL_GetTick>
 800126a:	6138      	str	r0, [r7, #16]

        /* Wait till PLL is ready */
        while(__HAL_RCC_GET_FLAG(RCC_FLAG_PLLRDY) != RESET)
 800126c:	e008      	b.n	8001280 <HAL_RCC_OscConfig+0x45c>
        {
          if((HAL_GetTick() - tickstart ) > PLL_TIMEOUT_VALUE)
 800126e:	f7ff fb4b 	bl	8000908 <HAL_GetTick>
 8001272:	4602      	mov	r2, r0
 8001274:	693b      	ldr	r3, [r7, #16]
 8001276:	1ad3      	subs	r3, r2, r3
 8001278:	2b02      	cmp	r3, #2
 800127a:	d901      	bls.n	8001280 <HAL_RCC_OscConfig+0x45c>
          {
            return HAL_TIMEOUT;
 800127c:	2303      	movs	r3, #3
 800127e:	e03f      	b.n	8001300 <HAL_RCC_OscConfig+0x4dc>
        while(__HAL_RCC_GET_FLAG(RCC_FLAG_PLLRDY) != RESET)
 8001280:	4b22      	ldr	r3, [pc, #136]	; (800130c <HAL_RCC_OscConfig+0x4e8>)
 8001282:	681b      	ldr	r3, [r3, #0]
 8001284:	f003 7300 	and.w	r3, r3, #33554432	; 0x2000000
 8001288:	2b00      	cmp	r3, #0
 800128a:	d1f0      	bne.n	800126e <HAL_RCC_OscConfig+0x44a>
 800128c:	e037      	b.n	80012fe <HAL_RCC_OscConfig+0x4da>
      }
    }
    else
    {
      /* Check if there is a request to disable the PLL used as System clock source */
      if((RCC_OscInitStruct->PLL.PLLState) == RCC_PLL_OFF)
 800128e:	687b      	ldr	r3, [r7, #4]
 8001290:	699b      	ldr	r3, [r3, #24]
 8001292:	2b01      	cmp	r3, #1
 8001294:	d101      	bne.n	800129a <HAL_RCC_OscConfig+0x476>
      {
        return HAL_ERROR;
 8001296:	2301      	movs	r3, #1
 8001298:	e032      	b.n	8001300 <HAL_RCC_OscConfig+0x4dc>
      }
      else
      {
        /* Do not return HAL_ERROR if request repeats the current configuration */
        pll_config = RCC->PLLCFGR;
 800129a:	4b1c      	ldr	r3, [pc, #112]	; (800130c <HAL_RCC_OscConfig+0x4e8>)
 800129c:	685b      	ldr	r3, [r3, #4]
 800129e:	60fb      	str	r3, [r7, #12]
            (READ_BIT(pll_config, RCC_PLLCFGR_PLLN) != (RCC_OscInitStruct->PLL.PLLN) << RCC_PLLCFGR_PLLN_Pos) ||
            (READ_BIT(pll_config, RCC_PLLCFGR_PLLP) != (((RCC_OscInitStruct->PLL.PLLP >> 1U) - 1U)) << RCC_PLLCFGR_PLLP_Pos) ||
            (READ_BIT(pll_config, RCC_PLLCFGR_PLLQ) != (RCC_OscInitStruct->PLL.PLLQ << RCC_PLLCFGR_PLLQ_Pos)) ||
            (READ_BIT(pll_config, RCC_PLLCFGR_PLLR) != (RCC_OscInitStruct->PLL.PLLR << RCC_PLLCFGR_PLLR_Pos)))
#else
        if (((RCC_OscInitStruct->PLL.PLLState) == RCC_PLL_OFF) ||
 80012a0:	687b      	ldr	r3, [r7, #4]
 80012a2:	699b      	ldr	r3, [r3, #24]
 80012a4:	2b01      	cmp	r3, #1
 80012a6:	d028      	beq.n	80012fa <HAL_RCC_OscConfig+0x4d6>
            (READ_BIT(pll_config, RCC_PLLCFGR_PLLSRC) != RCC_OscInitStruct->PLL.PLLSource) ||
 80012a8:	68fb      	ldr	r3, [r7, #12]
 80012aa:	f403 0280 	and.w	r2, r3, #4194304	; 0x400000
 80012ae:	687b      	ldr	r3, [r7, #4]
 80012b0:	69db      	ldr	r3, [r3, #28]
        if (((RCC_OscInitStruct->PLL.PLLState) == RCC_PLL_OFF) ||
 80012b2:	429a      	cmp	r2, r3
 80012b4:	d121      	bne.n	80012fa <HAL_RCC_OscConfig+0x4d6>
            (READ_BIT(pll_config, RCC_PLLCFGR_PLLM) != (RCC_OscInitStruct->PLL.PLLM) << RCC_PLLCFGR_PLLM_Pos) ||
 80012b6:	68fb      	ldr	r3, [r7, #12]
 80012b8:	f003 023f 	and.w	r2, r3, #63	; 0x3f
 80012bc:	687b      	ldr	r3, [r7, #4]
 80012be:	6a1b      	ldr	r3, [r3, #32]
            (READ_BIT(pll_config, RCC_PLLCFGR_PLLSRC) != RCC_OscInitStruct->PLL.PLLSource) ||
 80012c0:	429a      	cmp	r2, r3
 80012c2:	d11a      	bne.n	80012fa <HAL_RCC_OscConfig+0x4d6>
            (READ_BIT(pll_config, RCC_PLLCFGR_PLLN) != (RCC_OscInitStruct->PLL.PLLN) << RCC_PLLCFGR_PLLN_Pos) ||
 80012c4:	68fa      	ldr	r2, [r7, #12]
 80012c6:	f647 73c0 	movw	r3, #32704	; 0x7fc0
 80012ca:	4013      	ands	r3, r2
 80012cc:	687a      	ldr	r2, [r7, #4]
 80012ce:	6a52      	ldr	r2, [r2, #36]	; 0x24
 80012d0:	0192      	lsls	r2, r2, #6
            (READ_BIT(pll_config, RCC_PLLCFGR_PLLM) != (RCC_OscInitStruct->PLL.PLLM) << RCC_PLLCFGR_PLLM_Pos) ||
 80012d2:	4293      	cmp	r3, r2
 80012d4:	d111      	bne.n	80012fa <HAL_RCC_OscConfig+0x4d6>
            (READ_BIT(pll_config, RCC_PLLCFGR_PLLP) != (((RCC_OscInitStruct->PLL.PLLP >> 1U) - 1U)) << RCC_PLLCFGR_PLLP_Pos) ||
 80012d6:	68fb      	ldr	r3, [r7, #12]
 80012d8:	f403 3240 	and.w	r2, r3, #196608	; 0x30000
 80012dc:	687b      	ldr	r3, [r7, #4]
 80012de:	6a9b      	ldr	r3, [r3, #40]	; 0x28
 80012e0:	085b      	lsrs	r3, r3, #1
 80012e2:	3b01      	subs	r3, #1
 80012e4:	041b      	lsls	r3, r3, #16
            (READ_BIT(pll_config, RCC_PLLCFGR_PLLN) != (RCC_OscInitStruct->PLL.PLLN) << RCC_PLLCFGR_PLLN_Pos) ||
 80012e6:	429a      	cmp	r2, r3
 80012e8:	d107      	bne.n	80012fa <HAL_RCC_OscConfig+0x4d6>
            (READ_BIT(pll_config, RCC_PLLCFGR_PLLQ) != (RCC_OscInitStruct->PLL.PLLQ << RCC_PLLCFGR_PLLQ_Pos)))
 80012ea:	68fb      	ldr	r3, [r7, #12]
 80012ec:	f003 6270 	and.w	r2, r3, #251658240	; 0xf000000
 80012f0:	687b      	ldr	r3, [r7, #4]
 80012f2:	6adb      	ldr	r3, [r3, #44]	; 0x2c
 80012f4:	061b      	lsls	r3, r3, #24
            (READ_BIT(pll_config, RCC_PLLCFGR_PLLP) != (((RCC_OscInitStruct->PLL.PLLP >> 1U) - 1U)) << RCC_PLLCFGR_PLLP_Pos) ||
 80012f6:	429a      	cmp	r2, r3
 80012f8:	d001      	beq.n	80012fe <HAL_RCC_OscConfig+0x4da>
#endif
        {
          return HAL_ERROR;
 80012fa:	2301      	movs	r3, #1
 80012fc:	e000      	b.n	8001300 <HAL_RCC_OscConfig+0x4dc>
        }
      }
    }
  }
  return HAL_OK;
 80012fe:	2300      	movs	r3, #0
}
 8001300:	4618      	mov	r0, r3
 8001302:	3718      	adds	r7, #24
 8001304:	46bd      	mov	sp, r7
 8001306:	bd80      	pop	{r7, pc}
 8001308:	40007000 	.word	0x40007000
 800130c:	40023800 	.word	0x40023800
 8001310:	42470060 	.word	0x42470060

08001314 <HAL_RCC_ClockConfig>:
  *         HPRE[3:0] bits to ensure that HCLK not exceed the maximum allowed frequency
  *         (for more details refer to section above "Initialization/de-initialization functions")
  * @retval None
  */
HAL_StatusTypeDef HAL_RCC_ClockConfig(RCC_ClkInitTypeDef  *RCC_ClkInitStruct, uint32_t FLatency)
{
 8001314:	b580      	push	{r7, lr}
 8001316:	b084      	sub	sp, #16
 8001318:	af00      	add	r7, sp, #0
 800131a:	6078      	str	r0, [r7, #4]
 800131c:	6039      	str	r1, [r7, #0]
  uint32_t tickstart;

  /* Check Null pointer */
  if(RCC_ClkInitStruct == NULL)
 800131e:	687b      	ldr	r3, [r7, #4]
 8001320:	2b00      	cmp	r3, #0
 8001322:	d101      	bne.n	8001328 <HAL_RCC_ClockConfig+0x14>
  {
    return HAL_ERROR;
 8001324:	2301      	movs	r3, #1
 8001326:	e0cc      	b.n	80014c2 <HAL_RCC_ClockConfig+0x1ae>
  /* To correctly read data from FLASH memory, the number of wait states (LATENCY)
    must be correctly programmed according to the frequency of the CPU clock
    (HCLK) and the supply voltage of the device. */

  /* Increasing the number of wait states because of higher CPU frequency */
  if(FLatency > __HAL_FLASH_GET_LATENCY())
 8001328:	4b68      	ldr	r3, [pc, #416]	; (80014cc <HAL_RCC_ClockConfig+0x1b8>)
 800132a:	681b      	ldr	r3, [r3, #0]
 800132c:	f003 0307 	and.w	r3, r3, #7
 8001330:	683a      	ldr	r2, [r7, #0]
 8001332:	429a      	cmp	r2, r3
 8001334:	d90c      	bls.n	8001350 <HAL_RCC_ClockConfig+0x3c>
  {
    /* Program the new number of wait states to the LATENCY bits in the FLASH_ACR register */
    __HAL_FLASH_SET_LATENCY(FLatency);
 8001336:	4b65      	ldr	r3, [pc, #404]	; (80014cc <HAL_RCC_ClockConfig+0x1b8>)
 8001338:	683a      	ldr	r2, [r7, #0]
 800133a:	b2d2      	uxtb	r2, r2
 800133c:	701a      	strb	r2, [r3, #0]

    /* Check that the new number of wait states is taken into account to access the Flash
    memory by reading the FLASH_ACR register */
    if(__HAL_FLASH_GET_LATENCY() != FLatency)
 800133e:	4b63      	ldr	r3, [pc, #396]	; (80014cc <HAL_RCC_ClockConfig+0x1b8>)
 8001340:	681b      	ldr	r3, [r3, #0]
 8001342:	f003 0307 	and.w	r3, r3, #7
 8001346:	683a      	ldr	r2, [r7, #0]
 8001348:	429a      	cmp	r2, r3
 800134a:	d001      	beq.n	8001350 <HAL_RCC_ClockConfig+0x3c>
    {
      return HAL_ERROR;
 800134c:	2301      	movs	r3, #1
 800134e:	e0b8      	b.n	80014c2 <HAL_RCC_ClockConfig+0x1ae>
    }
  }

  /*-------------------------- HCLK Configuration --------------------------*/
  if(((RCC_ClkInitStruct->ClockType) & RCC_CLOCKTYPE_HCLK) == RCC_CLOCKTYPE_HCLK)
 8001350:	687b      	ldr	r3, [r7, #4]
 8001352:	681b      	ldr	r3, [r3, #0]
 8001354:	f003 0302 	and.w	r3, r3, #2
 8001358:	2b00      	cmp	r3, #0
 800135a:	d020      	beq.n	800139e <HAL_RCC_ClockConfig+0x8a>
  {
    /* Set the highest APBx dividers in order to ensure that we do not go through
       a non-spec phase whatever we decrease or increase HCLK. */
    if(((RCC_ClkInitStruct->ClockType) & RCC_CLOCKTYPE_PCLK1) == RCC_CLOCKTYPE_PCLK1)
 800135c:	687b      	ldr	r3, [r7, #4]
 800135e:	681b      	ldr	r3, [r3, #0]
 8001360:	f003 0304 	and.w	r3, r3, #4
 8001364:	2b00      	cmp	r3, #0
 8001366:	d005      	beq.n	8001374 <HAL_RCC_ClockConfig+0x60>
    {
      MODIFY_REG(RCC->CFGR, RCC_CFGR_PPRE1, RCC_HCLK_DIV16);
 8001368:	4b59      	ldr	r3, [pc, #356]	; (80014d0 <HAL_RCC_ClockConfig+0x1bc>)
 800136a:	689b      	ldr	r3, [r3, #8]
 800136c:	4a58      	ldr	r2, [pc, #352]	; (80014d0 <HAL_RCC_ClockConfig+0x1bc>)
 800136e:	f443 53e0 	orr.w	r3, r3, #7168	; 0x1c00
 8001372:	6093      	str	r3, [r2, #8]
    }

    if(((RCC_ClkInitStruct->ClockType) & RCC_CLOCKTYPE_PCLK2) == RCC_CLOCKTYPE_PCLK2)
 8001374:	687b      	ldr	r3, [r7, #4]
 8001376:	681b      	ldr	r3, [r3, #0]
 8001378:	f003 0308 	and.w	r3, r3, #8
 800137c:	2b00      	cmp	r3, #0
 800137e:	d005      	beq.n	800138c <HAL_RCC_ClockConfig+0x78>
    {
      MODIFY_REG(RCC->CFGR, RCC_CFGR_PPRE2, (RCC_HCLK_DIV16 << 3));
 8001380:	4b53      	ldr	r3, [pc, #332]	; (80014d0 <HAL_RCC_ClockConfig+0x1bc>)
 8001382:	689b      	ldr	r3, [r3, #8]
 8001384:	4a52      	ldr	r2, [pc, #328]	; (80014d0 <HAL_RCC_ClockConfig+0x1bc>)
 8001386:	f443 4360 	orr.w	r3, r3, #57344	; 0xe000
 800138a:	6093      	str	r3, [r2, #8]
    }

    assert_param(IS_RCC_HCLK(RCC_ClkInitStruct->AHBCLKDivider));
    MODIFY_REG(RCC->CFGR, RCC_CFGR_HPRE, RCC_ClkInitStruct->AHBCLKDivider);
 800138c:	4b50      	ldr	r3, [pc, #320]	; (80014d0 <HAL_RCC_ClockConfig+0x1bc>)
 800138e:	689b      	ldr	r3, [r3, #8]
 8001390:	f023 02f0 	bic.w	r2, r3, #240	; 0xf0
 8001394:	687b      	ldr	r3, [r7, #4]
 8001396:	689b      	ldr	r3, [r3, #8]
 8001398:	494d      	ldr	r1, [pc, #308]	; (80014d0 <HAL_RCC_ClockConfig+0x1bc>)
 800139a:	4313      	orrs	r3, r2
 800139c:	608b      	str	r3, [r1, #8]
  }

  /*------------------------- SYSCLK Configuration ---------------------------*/
  if(((RCC_ClkInitStruct->ClockType) & RCC_CLOCKTYPE_SYSCLK) == RCC_CLOCKTYPE_SYSCLK)
 800139e:	687b      	ldr	r3, [r7, #4]
 80013a0:	681b      	ldr	r3, [r3, #0]
 80013a2:	f003 0301 	and.w	r3, r3, #1
 80013a6:	2b00      	cmp	r3, #0
 80013a8:	d044      	beq.n	8001434 <HAL_RCC_ClockConfig+0x120>
  {
    assert_param(IS_RCC_SYSCLKSOURCE(RCC_ClkInitStruct->SYSCLKSource));

    /* HSE is selected as System Clock Source */
    if(RCC_ClkInitStruct->SYSCLKSource == RCC_SYSCLKSOURCE_HSE)
 80013aa:	687b      	ldr	r3, [r7, #4]
 80013ac:	685b      	ldr	r3, [r3, #4]
 80013ae:	2b01      	cmp	r3, #1
 80013b0:	d107      	bne.n	80013c2 <HAL_RCC_ClockConfig+0xae>
    {
      /* Check the HSE ready flag */
      if(__HAL_RCC_GET_FLAG(RCC_FLAG_HSERDY) == RESET)
 80013b2:	4b47      	ldr	r3, [pc, #284]	; (80014d0 <HAL_RCC_ClockConfig+0x1bc>)
 80013b4:	681b      	ldr	r3, [r3, #0]
 80013b6:	f403 3300 	and.w	r3, r3, #131072	; 0x20000
 80013ba:	2b00      	cmp	r3, #0
 80013bc:	d119      	bne.n	80013f2 <HAL_RCC_ClockConfig+0xde>
      {
        return HAL_ERROR;
 80013be:	2301      	movs	r3, #1
 80013c0:	e07f      	b.n	80014c2 <HAL_RCC_ClockConfig+0x1ae>
      }
    }
    /* PLL is selected as System Clock Source */
    else if((RCC_ClkInitStruct->SYSCLKSource == RCC_SYSCLKSOURCE_PLLCLK)   ||
 80013c2:	687b      	ldr	r3, [r7, #4]
 80013c4:	685b      	ldr	r3, [r3, #4]
 80013c6:	2b02      	cmp	r3, #2
 80013c8:	d003      	beq.n	80013d2 <HAL_RCC_ClockConfig+0xbe>
            (RCC_ClkInitStruct->SYSCLKSource == RCC_SYSCLKSOURCE_PLLRCLK))
 80013ca:	687b      	ldr	r3, [r7, #4]
 80013cc:	685b      	ldr	r3, [r3, #4]
    else if((RCC_ClkInitStruct->SYSCLKSource == RCC_SYSCLKSOURCE_PLLCLK)   ||
 80013ce:	2b03      	cmp	r3, #3
 80013d0:	d107      	bne.n	80013e2 <HAL_RCC_ClockConfig+0xce>
    {
      /* Check the PLL ready flag */
      if(__HAL_RCC_GET_FLAG(RCC_FLAG_PLLRDY) == RESET)
 80013d2:	4b3f      	ldr	r3, [pc, #252]	; (80014d0 <HAL_RCC_ClockConfig+0x1bc>)
 80013d4:	681b      	ldr	r3, [r3, #0]
 80013d6:	f003 7300 	and.w	r3, r3, #33554432	; 0x2000000
 80013da:	2b00      	cmp	r3, #0
 80013dc:	d109      	bne.n	80013f2 <HAL_RCC_ClockConfig+0xde>
      {
        return HAL_ERROR;
 80013de:	2301      	movs	r3, #1
 80013e0:	e06f      	b.n	80014c2 <HAL_RCC_ClockConfig+0x1ae>
    }
    /* HSI is selected as System Clock Source */
    else
    {
      /* Check the HSI ready flag */
      if(__HAL_RCC_GET_FLAG(RCC_FLAG_HSIRDY) == RESET)
 80013e2:	4b3b      	ldr	r3, [pc, #236]	; (80014d0 <HAL_RCC_ClockConfig+0x1bc>)
 80013e4:	681b      	ldr	r3, [r3, #0]
 80013e6:	f003 0302 	and.w	r3, r3, #2
 80013ea:	2b00      	cmp	r3, #0
 80013ec:	d101      	bne.n	80013f2 <HAL_RCC_ClockConfig+0xde>
      {
        return HAL_ERROR;
 80013ee:	2301      	movs	r3, #1
 80013f0:	e067      	b.n	80014c2 <HAL_RCC_ClockConfig+0x1ae>
      }
    }

    __HAL_RCC_SYSCLK_CONFIG(RCC_ClkInitStruct->SYSCLKSource);
 80013f2:	4b37      	ldr	r3, [pc, #220]	; (80014d0 <HAL_RCC_ClockConfig+0x1bc>)
 80013f4:	689b      	ldr	r3, [r3, #8]
 80013f6:	f023 0203 	bic.w	r2, r3, #3
 80013fa:	687b      	ldr	r3, [r7, #4]
 80013fc:	685b      	ldr	r3, [r3, #4]
 80013fe:	4934      	ldr	r1, [pc, #208]	; (80014d0 <HAL_RCC_ClockConfig+0x1bc>)
 8001400:	4313      	orrs	r3, r2
 8001402:	608b      	str	r3, [r1, #8]

    /* Get Start Tick */
    tickstart = HAL_GetTick();
 8001404:	f7ff fa80 	bl	8000908 <HAL_GetTick>
 8001408:	60f8      	str	r0, [r7, #12]

    while (__HAL_RCC_GET_SYSCLK_SOURCE() != (RCC_ClkInitStruct->SYSCLKSource << RCC_CFGR_SWS_Pos))
 800140a:	e00a      	b.n	8001422 <HAL_RCC_ClockConfig+0x10e>
    {
      if ((HAL_GetTick() - tickstart) > CLOCKSWITCH_TIMEOUT_VALUE)
 800140c:	f7ff fa7c 	bl	8000908 <HAL_GetTick>
 8001410:	4602      	mov	r2, r0
 8001412:	68fb      	ldr	r3, [r7, #12]
 8001414:	1ad3      	subs	r3, r2, r3
 8001416:	f241 3288 	movw	r2, #5000	; 0x1388
 800141a:	4293      	cmp	r3, r2
 800141c:	d901      	bls.n	8001422 <HAL_RCC_ClockConfig+0x10e>
      {
        return HAL_TIMEOUT;
 800141e:	2303      	movs	r3, #3
 8001420:	e04f      	b.n	80014c2 <HAL_RCC_ClockConfig+0x1ae>
    while (__HAL_RCC_GET_SYSCLK_SOURCE() != (RCC_ClkInitStruct->SYSCLKSource << RCC_CFGR_SWS_Pos))
 8001422:	4b2b      	ldr	r3, [pc, #172]	; (80014d0 <HAL_RCC_ClockConfig+0x1bc>)
 8001424:	689b      	ldr	r3, [r3, #8]
 8001426:	f003 020c 	and.w	r2, r3, #12
 800142a:	687b      	ldr	r3, [r7, #4]
 800142c:	685b      	ldr	r3, [r3, #4]
 800142e:	009b      	lsls	r3, r3, #2
 8001430:	429a      	cmp	r2, r3
 8001432:	d1eb      	bne.n	800140c <HAL_RCC_ClockConfig+0xf8>
      }
    }
  }

  /* Decreasing the number of wait states because of lower CPU frequency */
  if(FLatency < __HAL_FLASH_GET_LATENCY())
 8001434:	4b25      	ldr	r3, [pc, #148]	; (80014cc <HAL_RCC_ClockConfig+0x1b8>)
 8001436:	681b      	ldr	r3, [r3, #0]
 8001438:	f003 0307 	and.w	r3, r3, #7
 800143c:	683a      	ldr	r2, [r7, #0]
 800143e:	429a      	cmp	r2, r3
 8001440:	d20c      	bcs.n	800145c <HAL_RCC_ClockConfig+0x148>
  {
     /* Program the new number of wait states to the LATENCY bits in the FLASH_ACR register */
    __HAL_FLASH_SET_LATENCY(FLatency);
 8001442:	4b22      	ldr	r3, [pc, #136]	; (80014cc <HAL_RCC_ClockConfig+0x1b8>)
 8001444:	683a      	ldr	r2, [r7, #0]
 8001446:	b2d2      	uxtb	r2, r2
 8001448:	701a      	strb	r2, [r3, #0]

    /* Check that the new number of wait states is taken into account to access the Flash
    memory by reading the FLASH_ACR register */
    if(__HAL_FLASH_GET_LATENCY() != FLatency)
 800144a:	4b20      	ldr	r3, [pc, #128]	; (80014cc <HAL_RCC_ClockConfig+0x1b8>)
 800144c:	681b      	ldr	r3, [r3, #0]
 800144e:	f003 0307 	and.w	r3, r3, #7
 8001452:	683a      	ldr	r2, [r7, #0]
 8001454:	429a      	cmp	r2, r3
 8001456:	d001      	beq.n	800145c <HAL_RCC_ClockConfig+0x148>
    {
      return HAL_ERROR;
 8001458:	2301      	movs	r3, #1
 800145a:	e032      	b.n	80014c2 <HAL_RCC_ClockConfig+0x1ae>
    }
  }

  /*-------------------------- PCLK1 Configuration ---------------------------*/
  if(((RCC_ClkInitStruct->ClockType) & RCC_CLOCKTYPE_PCLK1) == RCC_CLOCKTYPE_PCLK1)
 800145c:	687b      	ldr	r3, [r7, #4]
 800145e:	681b      	ldr	r3, [r3, #0]
 8001460:	f003 0304 	and.w	r3, r3, #4
 8001464:	2b00      	cmp	r3, #0
 8001466:	d008      	beq.n	800147a <HAL_RCC_ClockConfig+0x166>
  {
    assert_param(IS_RCC_PCLK(RCC_ClkInitStruct->APB1CLKDivider));
    MODIFY_REG(RCC->CFGR, RCC_CFGR_PPRE1, RCC_ClkInitStruct->APB1CLKDivider);
 8001468:	4b19      	ldr	r3, [pc, #100]	; (80014d0 <HAL_RCC_ClockConfig+0x1bc>)
 800146a:	689b      	ldr	r3, [r3, #8]
 800146c:	f423 52e0 	bic.w	r2, r3, #7168	; 0x1c00
 8001470:	687b      	ldr	r3, [r7, #4]
 8001472:	68db      	ldr	r3, [r3, #12]
 8001474:	4916      	ldr	r1, [pc, #88]	; (80014d0 <HAL_RCC_ClockConfig+0x1bc>)
 8001476:	4313      	orrs	r3, r2
 8001478:	608b      	str	r3, [r1, #8]
  }

  /*-------------------------- PCLK2 Configuration ---------------------------*/
  if(((RCC_ClkInitStruct->ClockType) & RCC_CLOCKTYPE_PCLK2) == RCC_CLOCKTYPE_PCLK2)
 800147a:	687b      	ldr	r3, [r7, #4]
 800147c:	681b      	ldr	r3, [r3, #0]
 800147e:	f003 0308 	and.w	r3, r3, #8
 8001482:	2b00      	cmp	r3, #0
 8001484:	d009      	beq.n	800149a <HAL_RCC_ClockConfig+0x186>
  {
    assert_param(IS_RCC_PCLK(RCC_ClkInitStruct->APB2CLKDivider));
    MODIFY_REG(RCC->CFGR, RCC_CFGR_PPRE2, ((RCC_ClkInitStruct->APB2CLKDivider) << 3U));
 8001486:	4b12      	ldr	r3, [pc, #72]	; (80014d0 <HAL_RCC_ClockConfig+0x1bc>)
 8001488:	689b      	ldr	r3, [r3, #8]
 800148a:	f423 4260 	bic.w	r2, r3, #57344	; 0xe000
 800148e:	687b      	ldr	r3, [r7, #4]
 8001490:	691b      	ldr	r3, [r3, #16]
 8001492:	00db      	lsls	r3, r3, #3
 8001494:	490e      	ldr	r1, [pc, #56]	; (80014d0 <HAL_RCC_ClockConfig+0x1bc>)
 8001496:	4313      	orrs	r3, r2
 8001498:	608b      	str	r3, [r1, #8]
  }

  /* Update the SystemCoreClock global variable */
  SystemCoreClock = HAL_RCC_GetSysClockFreq() >> AHBPrescTable[(RCC->CFGR & RCC_CFGR_HPRE)>> RCC_CFGR_HPRE_Pos];
 800149a:	f000 f821 	bl	80014e0 <HAL_RCC_GetSysClockFreq>
 800149e:	4602      	mov	r2, r0
 80014a0:	4b0b      	ldr	r3, [pc, #44]	; (80014d0 <HAL_RCC_ClockConfig+0x1bc>)
 80014a2:	689b      	ldr	r3, [r3, #8]
 80014a4:	091b      	lsrs	r3, r3, #4
 80014a6:	f003 030f 	and.w	r3, r3, #15
 80014aa:	490a      	ldr	r1, [pc, #40]	; (80014d4 <HAL_RCC_ClockConfig+0x1c0>)
 80014ac:	5ccb      	ldrb	r3, [r1, r3]
 80014ae:	fa22 f303 	lsr.w	r3, r2, r3
 80014b2:	4a09      	ldr	r2, [pc, #36]	; (80014d8 <HAL_RCC_ClockConfig+0x1c4>)
 80014b4:	6013      	str	r3, [r2, #0]

  /* Configure the source of time base considering new system clocks settings */
  HAL_InitTick (uwTickPrio);
 80014b6:	4b09      	ldr	r3, [pc, #36]	; (80014dc <HAL_RCC_ClockConfig+0x1c8>)
 80014b8:	681b      	ldr	r3, [r3, #0]
 80014ba:	4618      	mov	r0, r3
 80014bc:	f7ff f9e0 	bl	8000880 <HAL_InitTick>

  return HAL_OK;
 80014c0:	2300      	movs	r3, #0
}
 80014c2:	4618      	mov	r0, r3
 80014c4:	3710      	adds	r7, #16
 80014c6:	46bd      	mov	sp, r7
 80014c8:	bd80      	pop	{r7, pc}
 80014ca:	bf00      	nop
 80014cc:	40023c00 	.word	0x40023c00
 80014d0:	40023800 	.word	0x40023800
 80014d4:	08001db4 	.word	0x08001db4
 80014d8:	20000004 	.word	0x20000004
 80014dc:	20000008 	.word	0x20000008

080014e0 <HAL_RCC_GetSysClockFreq>:
  *
  *
  * @retval SYSCLK frequency
  */
__weak uint32_t HAL_RCC_GetSysClockFreq(void)
{
 80014e0:	e92d 43b0 	stmdb	sp!, {r4, r5, r7, r8, r9, lr}
 80014e4:	b084      	sub	sp, #16
 80014e6:	af00      	add	r7, sp, #0
  uint32_t pllm = 0U, pllvco = 0U, pllp = 0U;
 80014e8:	2300      	movs	r3, #0
 80014ea:	607b      	str	r3, [r7, #4]
 80014ec:	2300      	movs	r3, #0
 80014ee:	60fb      	str	r3, [r7, #12]
 80014f0:	2300      	movs	r3, #0
 80014f2:	603b      	str	r3, [r7, #0]
  uint32_t sysclockfreq = 0U;
 80014f4:	2300      	movs	r3, #0
 80014f6:	60bb      	str	r3, [r7, #8]

  /* Get SYSCLK source -------------------------------------------------------*/
  switch (RCC->CFGR & RCC_CFGR_SWS)
 80014f8:	4b67      	ldr	r3, [pc, #412]	; (8001698 <HAL_RCC_GetSysClockFreq+0x1b8>)
 80014fa:	689b      	ldr	r3, [r3, #8]
 80014fc:	f003 030c 	and.w	r3, r3, #12
 8001500:	2b08      	cmp	r3, #8
 8001502:	d00d      	beq.n	8001520 <HAL_RCC_GetSysClockFreq+0x40>
 8001504:	2b08      	cmp	r3, #8
 8001506:	f200 80bd 	bhi.w	8001684 <HAL_RCC_GetSysClockFreq+0x1a4>
 800150a:	2b00      	cmp	r3, #0
 800150c:	d002      	beq.n	8001514 <HAL_RCC_GetSysClockFreq+0x34>
 800150e:	2b04      	cmp	r3, #4
 8001510:	d003      	beq.n	800151a <HAL_RCC_GetSysClockFreq+0x3a>
 8001512:	e0b7      	b.n	8001684 <HAL_RCC_GetSysClockFreq+0x1a4>
  {
    case RCC_CFGR_SWS_HSI:  /* HSI used as system clock source */
    {
      sysclockfreq = HSI_VALUE;
 8001514:	4b61      	ldr	r3, [pc, #388]	; (800169c <HAL_RCC_GetSysClockFreq+0x1bc>)
 8001516:	60bb      	str	r3, [r7, #8]
       break;
 8001518:	e0b7      	b.n	800168a <HAL_RCC_GetSysClockFreq+0x1aa>
    }
    case RCC_CFGR_SWS_HSE:  /* HSE used as system clock  source */
    {
      sysclockfreq = HSE_VALUE;
 800151a:	4b61      	ldr	r3, [pc, #388]	; (80016a0 <HAL_RCC_GetSysClockFreq+0x1c0>)
 800151c:	60bb      	str	r3, [r7, #8]
      break;
 800151e:	e0b4      	b.n	800168a <HAL_RCC_GetSysClockFreq+0x1aa>
    }
    case RCC_CFGR_SWS_PLL:  /* PLL used as system clock  source */
    {
      /* PLL_VCO = (HSE_VALUE or HSI_VALUE / PLLM) * PLLN
      SYSCLK = PLL_VCO / PLLP */
      pllm = RCC->PLLCFGR & RCC_PLLCFGR_PLLM;
 8001520:	4b5d      	ldr	r3, [pc, #372]	; (8001698 <HAL_RCC_GetSysClockFreq+0x1b8>)
 8001522:	685b      	ldr	r3, [r3, #4]
 8001524:	f003 033f 	and.w	r3, r3, #63	; 0x3f
 8001528:	607b      	str	r3, [r7, #4]
      if(__HAL_RCC_GET_PLL_OSCSOURCE() != RCC_PLLSOURCE_HSI)
 800152a:	4b5b      	ldr	r3, [pc, #364]	; (8001698 <HAL_RCC_GetSysClockFreq+0x1b8>)
 800152c:	685b      	ldr	r3, [r3, #4]
 800152e:	f403 0380 	and.w	r3, r3, #4194304	; 0x400000
 8001532:	2b00      	cmp	r3, #0
 8001534:	d04d      	beq.n	80015d2 <HAL_RCC_GetSysClockFreq+0xf2>
      {
        /* HSE used as PLL clock source */
        pllvco = (uint32_t) ((((uint64_t) HSE_VALUE * ((uint64_t) ((RCC->PLLCFGR & RCC_PLLCFGR_PLLN) >> RCC_PLLCFGR_PLLN_Pos)))) / (uint64_t)pllm);
 8001536:	4b58      	ldr	r3, [pc, #352]	; (8001698 <HAL_RCC_GetSysClockFreq+0x1b8>)
 8001538:	685b      	ldr	r3, [r3, #4]
 800153a:	099b      	lsrs	r3, r3, #6
 800153c:	461a      	mov	r2, r3
 800153e:	f04f 0300 	mov.w	r3, #0
 8001542:	f240 10ff 	movw	r0, #511	; 0x1ff
 8001546:	f04f 0100 	mov.w	r1, #0
 800154a:	ea02 0800 	and.w	r8, r2, r0
 800154e:	ea03 0901 	and.w	r9, r3, r1
 8001552:	4640      	mov	r0, r8
 8001554:	4649      	mov	r1, r9
 8001556:	f04f 0200 	mov.w	r2, #0
 800155a:	f04f 0300 	mov.w	r3, #0
 800155e:	014b      	lsls	r3, r1, #5
 8001560:	ea43 63d0 	orr.w	r3, r3, r0, lsr #27
 8001564:	0142      	lsls	r2, r0, #5
 8001566:	4610      	mov	r0, r2
 8001568:	4619      	mov	r1, r3
 800156a:	ebb0 0008 	subs.w	r0, r0, r8
 800156e:	eb61 0109 	sbc.w	r1, r1, r9
 8001572:	f04f 0200 	mov.w	r2, #0
 8001576:	f04f 0300 	mov.w	r3, #0
 800157a:	018b      	lsls	r3, r1, #6
 800157c:	ea43 6390 	orr.w	r3, r3, r0, lsr #26
 8001580:	0182      	lsls	r2, r0, #6
 8001582:	1a12      	subs	r2, r2, r0
 8001584:	eb63 0301 	sbc.w	r3, r3, r1
 8001588:	f04f 0000 	mov.w	r0, #0
 800158c:	f04f 0100 	mov.w	r1, #0
 8001590:	00d9      	lsls	r1, r3, #3
 8001592:	ea41 7152 	orr.w	r1, r1, r2, lsr #29
 8001596:	00d0      	lsls	r0, r2, #3
 8001598:	4602      	mov	r2, r0
 800159a:	460b      	mov	r3, r1
 800159c:	eb12 0208 	adds.w	r2, r2, r8
 80015a0:	eb43 0309 	adc.w	r3, r3, r9
 80015a4:	f04f 0000 	mov.w	r0, #0
 80015a8:	f04f 0100 	mov.w	r1, #0
 80015ac:	0259      	lsls	r1, r3, #9
 80015ae:	ea41 51d2 	orr.w	r1, r1, r2, lsr #23
 80015b2:	0250      	lsls	r0, r2, #9
 80015b4:	4602      	mov	r2, r0
 80015b6:	460b      	mov	r3, r1
 80015b8:	4610      	mov	r0, r2
 80015ba:	4619      	mov	r1, r3
 80015bc:	687b      	ldr	r3, [r7, #4]
 80015be:	461a      	mov	r2, r3
 80015c0:	f04f 0300 	mov.w	r3, #0
 80015c4:	f7fe fe08 	bl	80001d8 <__aeabi_uldivmod>
 80015c8:	4602      	mov	r2, r0
 80015ca:	460b      	mov	r3, r1
 80015cc:	4613      	mov	r3, r2
 80015ce:	60fb      	str	r3, [r7, #12]
 80015d0:	e04a      	b.n	8001668 <HAL_RCC_GetSysClockFreq+0x188>
      }
      else
      {
        /* HSI used as PLL clock source */
        pllvco = (uint32_t) ((((uint64_t) HSI_VALUE * ((uint64_t) ((RCC->PLLCFGR & RCC_PLLCFGR_PLLN) >> RCC_PLLCFGR_PLLN_Pos)))) / (uint64_t)pllm);
 80015d2:	4b31      	ldr	r3, [pc, #196]	; (8001698 <HAL_RCC_GetSysClockFreq+0x1b8>)
 80015d4:	685b      	ldr	r3, [r3, #4]
 80015d6:	099b      	lsrs	r3, r3, #6
 80015d8:	461a      	mov	r2, r3
 80015da:	f04f 0300 	mov.w	r3, #0
 80015de:	f240 10ff 	movw	r0, #511	; 0x1ff
 80015e2:	f04f 0100 	mov.w	r1, #0
 80015e6:	ea02 0400 	and.w	r4, r2, r0
 80015ea:	ea03 0501 	and.w	r5, r3, r1
 80015ee:	4620      	mov	r0, r4
 80015f0:	4629      	mov	r1, r5
 80015f2:	f04f 0200 	mov.w	r2, #0
 80015f6:	f04f 0300 	mov.w	r3, #0
 80015fa:	014b      	lsls	r3, r1, #5
 80015fc:	ea43 63d0 	orr.w	r3, r3, r0, lsr #27
 8001600:	0142      	lsls	r2, r0, #5
 8001602:	4610      	mov	r0, r2
 8001604:	4619      	mov	r1, r3
 8001606:	1b00      	subs	r0, r0, r4
 8001608:	eb61 0105 	sbc.w	r1, r1, r5
 800160c:	f04f 0200 	mov.w	r2, #0
 8001610:	f04f 0300 	mov.w	r3, #0
 8001614:	018b      	lsls	r3, r1, #6
 8001616:	ea43 6390 	orr.w	r3, r3, r0, lsr #26
 800161a:	0182      	lsls	r2, r0, #6
 800161c:	1a12      	subs	r2, r2, r0
 800161e:	eb63 0301 	sbc.w	r3, r3, r1
 8001622:	f04f 0000 	mov.w	r0, #0
 8001626:	f04f 0100 	mov.w	r1, #0
 800162a:	00d9      	lsls	r1, r3, #3
 800162c:	ea41 7152 	orr.w	r1, r1, r2, lsr #29
 8001630:	00d0      	lsls	r0, r2, #3
 8001632:	4602      	mov	r2, r0
 8001634:	460b      	mov	r3, r1
 8001636:	1912      	adds	r2, r2, r4
 8001638:	eb45 0303 	adc.w	r3, r5, r3
 800163c:	f04f 0000 	mov.w	r0, #0
 8001640:	f04f 0100 	mov.w	r1, #0
 8001644:	0299      	lsls	r1, r3, #10
 8001646:	ea41 5192 	orr.w	r1, r1, r2, lsr #22
 800164a:	0290      	lsls	r0, r2, #10
 800164c:	4602      	mov	r2, r0
 800164e:	460b      	mov	r3, r1
 8001650:	4610      	mov	r0, r2
 8001652:	4619      	mov	r1, r3
 8001654:	687b      	ldr	r3, [r7, #4]
 8001656:	461a      	mov	r2, r3
 8001658:	f04f 0300 	mov.w	r3, #0
 800165c:	f7fe fdbc 	bl	80001d8 <__aeabi_uldivmod>
 8001660:	4602      	mov	r2, r0
 8001662:	460b      	mov	r3, r1
 8001664:	4613      	mov	r3, r2
 8001666:	60fb      	str	r3, [r7, #12]
      }
      pllp = ((((RCC->PLLCFGR & RCC_PLLCFGR_PLLP) >> RCC_PLLCFGR_PLLP_Pos) + 1U) *2U);
 8001668:	4b0b      	ldr	r3, [pc, #44]	; (8001698 <HAL_RCC_GetSysClockFreq+0x1b8>)
 800166a:	685b      	ldr	r3, [r3, #4]
 800166c:	0c1b      	lsrs	r3, r3, #16
 800166e:	f003 0303 	and.w	r3, r3, #3
 8001672:	3301      	adds	r3, #1
 8001674:	005b      	lsls	r3, r3, #1
 8001676:	603b      	str	r3, [r7, #0]

      sysclockfreq = pllvco/pllp;
 8001678:	68fa      	ldr	r2, [r7, #12]
 800167a:	683b      	ldr	r3, [r7, #0]
 800167c:	fbb2 f3f3 	udiv	r3, r2, r3
 8001680:	60bb      	str	r3, [r7, #8]
      break;
 8001682:	e002      	b.n	800168a <HAL_RCC_GetSysClockFreq+0x1aa>
    }
    default:
    {
      sysclockfreq = HSI_VALUE;
 8001684:	4b05      	ldr	r3, [pc, #20]	; (800169c <HAL_RCC_GetSysClockFreq+0x1bc>)
 8001686:	60bb      	str	r3, [r7, #8]
      break;
 8001688:	bf00      	nop
    }
  }
  return sysclockfreq;
 800168a:	68bb      	ldr	r3, [r7, #8]
}
 800168c:	4618      	mov	r0, r3
 800168e:	3710      	adds	r7, #16
 8001690:	46bd      	mov	sp, r7
 8001692:	e8bd 83b0 	ldmia.w	sp!, {r4, r5, r7, r8, r9, pc}
 8001696:	bf00      	nop
 8001698:	40023800 	.word	0x40023800
 800169c:	00f42400 	.word	0x00f42400
 80016a0:	007a1200 	.word	0x007a1200

080016a4 <HAL_RCC_GetHCLKFreq>:
  * @note   The SystemCoreClock CMSIS variable is used to store System Clock Frequency
  *         and updated within this function
  * @retval HCLK frequency
  */
uint32_t HAL_RCC_GetHCLKFreq(void)
{
 80016a4:	b480      	push	{r7}
 80016a6:	af00      	add	r7, sp, #0
  return SystemCoreClock;
 80016a8:	4b03      	ldr	r3, [pc, #12]	; (80016b8 <HAL_RCC_GetHCLKFreq+0x14>)
 80016aa:	681b      	ldr	r3, [r3, #0]
}
 80016ac:	4618      	mov	r0, r3
 80016ae:	46bd      	mov	sp, r7
 80016b0:	f85d 7b04 	ldr.w	r7, [sp], #4
 80016b4:	4770      	bx	lr
 80016b6:	bf00      	nop
 80016b8:	20000004 	.word	0x20000004

080016bc <HAL_RCC_GetPCLK1Freq>:
  * @note   Each time PCLK1 changes, this function must be called to update the
  *         right PCLK1 value. Otherwise, any configuration based on this function will be incorrect.
  * @retval PCLK1 frequency
  */
uint32_t HAL_RCC_GetPCLK1Freq(void)
{
 80016bc:	b580      	push	{r7, lr}
 80016be:	af00      	add	r7, sp, #0
  /* Get HCLK source and Compute PCLK1 frequency ---------------------------*/
  return (HAL_RCC_GetHCLKFreq() >> APBPrescTable[(RCC->CFGR & RCC_CFGR_PPRE1)>> RCC_CFGR_PPRE1_Pos]);
 80016c0:	f7ff fff0 	bl	80016a4 <HAL_RCC_GetHCLKFreq>
 80016c4:	4602      	mov	r2, r0
 80016c6:	4b05      	ldr	r3, [pc, #20]	; (80016dc <HAL_RCC_GetPCLK1Freq+0x20>)
 80016c8:	689b      	ldr	r3, [r3, #8]
 80016ca:	0a9b      	lsrs	r3, r3, #10
 80016cc:	f003 0307 	and.w	r3, r3, #7
 80016d0:	4903      	ldr	r1, [pc, #12]	; (80016e0 <HAL_RCC_GetPCLK1Freq+0x24>)
 80016d2:	5ccb      	ldrb	r3, [r1, r3]
 80016d4:	fa22 f303 	lsr.w	r3, r2, r3
}
 80016d8:	4618      	mov	r0, r3
 80016da:	bd80      	pop	{r7, pc}
 80016dc:	40023800 	.word	0x40023800
 80016e0:	08001dc4 	.word	0x08001dc4

080016e4 <HAL_RCC_GetPCLK2Freq>:
  * @note   Each time PCLK2 changes, this function must be called to update the
  *         right PCLK2 value. Otherwise, any configuration based on this function will be incorrect.
  * @retval PCLK2 frequency
  */
uint32_t HAL_RCC_GetPCLK2Freq(void)
{
 80016e4:	b580      	push	{r7, lr}
 80016e6:	af00      	add	r7, sp, #0
  /* Get HCLK source and Compute PCLK2 frequency ---------------------------*/
  return (HAL_RCC_GetHCLKFreq()>> APBPrescTable[(RCC->CFGR & RCC_CFGR_PPRE2)>> RCC_CFGR_PPRE2_Pos]);
 80016e8:	f7ff ffdc 	bl	80016a4 <HAL_RCC_GetHCLKFreq>
 80016ec:	4602      	mov	r2, r0
 80016ee:	4b05      	ldr	r3, [pc, #20]	; (8001704 <HAL_RCC_GetPCLK2Freq+0x20>)
 80016f0:	689b      	ldr	r3, [r3, #8]
 80016f2:	0b5b      	lsrs	r3, r3, #13
 80016f4:	f003 0307 	and.w	r3, r3, #7
 80016f8:	4903      	ldr	r1, [pc, #12]	; (8001708 <HAL_RCC_GetPCLK2Freq+0x24>)
 80016fa:	5ccb      	ldrb	r3, [r1, r3]
 80016fc:	fa22 f303 	lsr.w	r3, r2, r3
}
 8001700:	4618      	mov	r0, r3
 8001702:	bd80      	pop	{r7, pc}
 8001704:	40023800 	.word	0x40023800
 8001708:	08001dc4 	.word	0x08001dc4

0800170c <HAL_UART_Init>:
  * @param  huart  Pointer to a UART_HandleTypeDef structure that contains
  *                the configuration information for the specified UART module.
  * @retval HAL status
  */
HAL_StatusTypeDef HAL_UART_Init(UART_HandleTypeDef *huart)
{
 800170c:	b580      	push	{r7, lr}
 800170e:	b082      	sub	sp, #8
 8001710:	af00      	add	r7, sp, #0
 8001712:	6078      	str	r0, [r7, #4]
  /* Check the UART handle allocation */
  if (huart == NULL)
 8001714:	687b      	ldr	r3, [r7, #4]
 8001716:	2b00      	cmp	r3, #0
 8001718:	d101      	bne.n	800171e <HAL_UART_Init+0x12>
  {
    return HAL_ERROR;
 800171a:	2301      	movs	r3, #1
 800171c:	e03f      	b.n	800179e <HAL_UART_Init+0x92>
    assert_param(IS_UART_INSTANCE(huart->Instance));
  }
  assert_param(IS_UART_WORD_LENGTH(huart->Init.WordLength));
  assert_param(IS_UART_OVERSAMPLING(huart->Init.OverSampling));

  if (huart->gState == HAL_UART_STATE_RESET)
 800171e:	687b      	ldr	r3, [r7, #4]
 8001720:	f893 303d 	ldrb.w	r3, [r3, #61]	; 0x3d
 8001724:	b2db      	uxtb	r3, r3
 8001726:	2b00      	cmp	r3, #0
 8001728:	d106      	bne.n	8001738 <HAL_UART_Init+0x2c>
  {
    /* Allocate lock resource and initialize it */
    huart->Lock = HAL_UNLOCKED;
 800172a:	687b      	ldr	r3, [r7, #4]
 800172c:	2200      	movs	r2, #0
 800172e:	f883 203c 	strb.w	r2, [r3, #60]	; 0x3c

    /* Init the low level hardware */
    huart->MspInitCallback(huart);
#else
    /* Init the low level hardware : GPIO, CLOCK */
    HAL_UART_MspInit(huart);
 8001732:	6878      	ldr	r0, [r7, #4]
 8001734:	f7fe ffd4 	bl	80006e0 <HAL_UART_MspInit>
#endif /* (USE_HAL_UART_REGISTER_CALLBACKS) */
  }

  huart->gState = HAL_UART_STATE_BUSY;
 8001738:	687b      	ldr	r3, [r7, #4]
 800173a:	2224      	movs	r2, #36	; 0x24
 800173c:	f883 203d 	strb.w	r2, [r3, #61]	; 0x3d

  /* Disable the peripheral */
  __HAL_UART_DISABLE(huart);
 8001740:	687b      	ldr	r3, [r7, #4]
 8001742:	681b      	ldr	r3, [r3, #0]
 8001744:	68da      	ldr	r2, [r3, #12]
 8001746:	687b      	ldr	r3, [r7, #4]
 8001748:	681b      	ldr	r3, [r3, #0]
 800174a:	f422 5200 	bic.w	r2, r2, #8192	; 0x2000
 800174e:	60da      	str	r2, [r3, #12]

  /* Set the UART Communication parameters */
  UART_SetConfig(huart);
 8001750:	6878      	ldr	r0, [r7, #4]
 8001752:	f000 f929 	bl	80019a8 <UART_SetConfig>

  /* In asynchronous mode, the following bits must be kept cleared:
     - LINEN and CLKEN bits in the USART_CR2 register,
     - SCEN, HDSEL and IREN  bits in the USART_CR3 register.*/
  CLEAR_BIT(huart->Instance->CR2, (USART_CR2_LINEN | USART_CR2_CLKEN));
 8001756:	687b      	ldr	r3, [r7, #4]
 8001758:	681b      	ldr	r3, [r3, #0]
 800175a:	691a      	ldr	r2, [r3, #16]
 800175c:	687b      	ldr	r3, [r7, #4]
 800175e:	681b      	ldr	r3, [r3, #0]
 8001760:	f422 4290 	bic.w	r2, r2, #18432	; 0x4800
 8001764:	611a      	str	r2, [r3, #16]
  CLEAR_BIT(huart->Instance->CR3, (USART_CR3_SCEN | USART_CR3_HDSEL | USART_CR3_IREN));
 8001766:	687b      	ldr	r3, [r7, #4]
 8001768:	681b      	ldr	r3, [r3, #0]
 800176a:	695a      	ldr	r2, [r3, #20]
 800176c:	687b      	ldr	r3, [r7, #4]
 800176e:	681b      	ldr	r3, [r3, #0]
 8001770:	f022 022a 	bic.w	r2, r2, #42	; 0x2a
 8001774:	615a      	str	r2, [r3, #20]

  /* Enable the peripheral */
  __HAL_UART_ENABLE(huart);
 8001776:	687b      	ldr	r3, [r7, #4]
 8001778:	681b      	ldr	r3, [r3, #0]
 800177a:	68da      	ldr	r2, [r3, #12]
 800177c:	687b      	ldr	r3, [r7, #4]
 800177e:	681b      	ldr	r3, [r3, #0]
 8001780:	f442 5200 	orr.w	r2, r2, #8192	; 0x2000
 8001784:	60da      	str	r2, [r3, #12]

  /* Initialize the UART state */
  huart->ErrorCode = HAL_UART_ERROR_NONE;
 8001786:	687b      	ldr	r3, [r7, #4]
 8001788:	2200      	movs	r2, #0
 800178a:	641a      	str	r2, [r3, #64]	; 0x40
  huart->gState = HAL_UART_STATE_READY;
 800178c:	687b      	ldr	r3, [r7, #4]
 800178e:	2220      	movs	r2, #32
 8001790:	f883 203d 	strb.w	r2, [r3, #61]	; 0x3d
  huart->RxState = HAL_UART_STATE_READY;
 8001794:	687b      	ldr	r3, [r7, #4]
 8001796:	2220      	movs	r2, #32
 8001798:	f883 203e 	strb.w	r2, [r3, #62]	; 0x3e

  return HAL_OK;
 800179c:	2300      	movs	r3, #0
}
 800179e:	4618      	mov	r0, r3
 80017a0:	3708      	adds	r7, #8
 80017a2:	46bd      	mov	sp, r7
 80017a4:	bd80      	pop	{r7, pc}

080017a6 <HAL_UART_Transmit>:
  * @param  Size  Amount of data elements (u8 or u16) to be sent
  * @param  Timeout Timeout duration
  * @retval HAL status
  */
HAL_StatusTypeDef HAL_UART_Transmit(UART_HandleTypeDef *huart, uint8_t *pData, uint16_t Size, uint32_t Timeout)
{
 80017a6:	b580      	push	{r7, lr}
 80017a8:	b08a      	sub	sp, #40	; 0x28
 80017aa:	af02      	add	r7, sp, #8
 80017ac:	60f8      	str	r0, [r7, #12]
 80017ae:	60b9      	str	r1, [r7, #8]
 80017b0:	603b      	str	r3, [r7, #0]
 80017b2:	4613      	mov	r3, r2
 80017b4:	80fb      	strh	r3, [r7, #6]
  uint8_t  *pdata8bits;
  uint16_t *pdata16bits;
  uint32_t tickstart = 0U;
 80017b6:	2300      	movs	r3, #0
 80017b8:	617b      	str	r3, [r7, #20]

  /* Check that a Tx process is not already ongoing */
  if (huart->gState == HAL_UART_STATE_READY)
 80017ba:	68fb      	ldr	r3, [r7, #12]
 80017bc:	f893 303d 	ldrb.w	r3, [r3, #61]	; 0x3d
 80017c0:	b2db      	uxtb	r3, r3
 80017c2:	2b20      	cmp	r3, #32
 80017c4:	d17c      	bne.n	80018c0 <HAL_UART_Transmit+0x11a>
  {
    if ((pData == NULL) || (Size == 0U))
 80017c6:	68bb      	ldr	r3, [r7, #8]
 80017c8:	2b00      	cmp	r3, #0
 80017ca:	d002      	beq.n	80017d2 <HAL_UART_Transmit+0x2c>
 80017cc:	88fb      	ldrh	r3, [r7, #6]
 80017ce:	2b00      	cmp	r3, #0
 80017d0:	d101      	bne.n	80017d6 <HAL_UART_Transmit+0x30>
    {
      return  HAL_ERROR;
 80017d2:	2301      	movs	r3, #1
 80017d4:	e075      	b.n	80018c2 <HAL_UART_Transmit+0x11c>
    }

    /* Process Locked */
    __HAL_LOCK(huart);
 80017d6:	68fb      	ldr	r3, [r7, #12]
 80017d8:	f893 303c 	ldrb.w	r3, [r3, #60]	; 0x3c
 80017dc:	2b01      	cmp	r3, #1
 80017de:	d101      	bne.n	80017e4 <HAL_UART_Transmit+0x3e>
 80017e0:	2302      	movs	r3, #2
 80017e2:	e06e      	b.n	80018c2 <HAL_UART_Transmit+0x11c>
 80017e4:	68fb      	ldr	r3, [r7, #12]
 80017e6:	2201      	movs	r2, #1
 80017e8:	f883 203c 	strb.w	r2, [r3, #60]	; 0x3c

    huart->ErrorCode = HAL_UART_ERROR_NONE;
 80017ec:	68fb      	ldr	r3, [r7, #12]
 80017ee:	2200      	movs	r2, #0
 80017f0:	641a      	str	r2, [r3, #64]	; 0x40
    huart->gState = HAL_UART_STATE_BUSY_TX;
 80017f2:	68fb      	ldr	r3, [r7, #12]
 80017f4:	2221      	movs	r2, #33	; 0x21
 80017f6:	f883 203d 	strb.w	r2, [r3, #61]	; 0x3d

    /* Init tickstart for timeout management */
    tickstart = HAL_GetTick();
 80017fa:	f7ff f885 	bl	8000908 <HAL_GetTick>
 80017fe:	6178      	str	r0, [r7, #20]

    huart->TxXferSize = Size;
 8001800:	68fb      	ldr	r3, [r7, #12]
 8001802:	88fa      	ldrh	r2, [r7, #6]
 8001804:	849a      	strh	r2, [r3, #36]	; 0x24
    huart->TxXferCount = Size;
 8001806:	68fb      	ldr	r3, [r7, #12]
 8001808:	88fa      	ldrh	r2, [r7, #6]
 800180a:	84da      	strh	r2, [r3, #38]	; 0x26

    /* In case of 9bits/No Parity transfer, pData needs to be handled as a uint16_t pointer */
    if ((huart->Init.WordLength == UART_WORDLENGTH_9B) && (huart->Init.Parity == UART_PARITY_NONE))
 800180c:	68fb      	ldr	r3, [r7, #12]
 800180e:	689b      	ldr	r3, [r3, #8]
 8001810:	f5b3 5f80 	cmp.w	r3, #4096	; 0x1000
 8001814:	d108      	bne.n	8001828 <HAL_UART_Transmit+0x82>
 8001816:	68fb      	ldr	r3, [r7, #12]
 8001818:	691b      	ldr	r3, [r3, #16]
 800181a:	2b00      	cmp	r3, #0
 800181c:	d104      	bne.n	8001828 <HAL_UART_Transmit+0x82>
    {
      pdata8bits  = NULL;
 800181e:	2300      	movs	r3, #0
 8001820:	61fb      	str	r3, [r7, #28]
      pdata16bits = (uint16_t *) pData;
 8001822:	68bb      	ldr	r3, [r7, #8]
 8001824:	61bb      	str	r3, [r7, #24]
 8001826:	e003      	b.n	8001830 <HAL_UART_Transmit+0x8a>
    }
    else
    {
      pdata8bits  = pData;
 8001828:	68bb      	ldr	r3, [r7, #8]
 800182a:	61fb      	str	r3, [r7, #28]
      pdata16bits = NULL;
 800182c:	2300      	movs	r3, #0
 800182e:	61bb      	str	r3, [r7, #24]
    }

    /* Process Unlocked */
    __HAL_UNLOCK(huart);
 8001830:	68fb      	ldr	r3, [r7, #12]
 8001832:	2200      	movs	r2, #0
 8001834:	f883 203c 	strb.w	r2, [r3, #60]	; 0x3c

    while (huart->TxXferCount > 0U)
 8001838:	e02a      	b.n	8001890 <HAL_UART_Transmit+0xea>
    {
      if (UART_WaitOnFlagUntilTimeout(huart, UART_FLAG_TXE, RESET, tickstart, Timeout) != HAL_OK)
 800183a:	683b      	ldr	r3, [r7, #0]
 800183c:	9300      	str	r3, [sp, #0]
 800183e:	697b      	ldr	r3, [r7, #20]
 8001840:	2200      	movs	r2, #0
 8001842:	2180      	movs	r1, #128	; 0x80
 8001844:	68f8      	ldr	r0, [r7, #12]
 8001846:	f000 f840 	bl	80018ca <UART_WaitOnFlagUntilTimeout>
 800184a:	4603      	mov	r3, r0
 800184c:	2b00      	cmp	r3, #0
 800184e:	d001      	beq.n	8001854 <HAL_UART_Transmit+0xae>
      {
        return HAL_TIMEOUT;
 8001850:	2303      	movs	r3, #3
 8001852:	e036      	b.n	80018c2 <HAL_UART_Transmit+0x11c>
      }
      if (pdata8bits == NULL)
 8001854:	69fb      	ldr	r3, [r7, #28]
 8001856:	2b00      	cmp	r3, #0
 8001858:	d10b      	bne.n	8001872 <HAL_UART_Transmit+0xcc>
      {
        huart->Instance->DR = (uint16_t)(*pdata16bits & 0x01FFU);
 800185a:	69bb      	ldr	r3, [r7, #24]
 800185c:	881b      	ldrh	r3, [r3, #0]
 800185e:	461a      	mov	r2, r3
 8001860:	68fb      	ldr	r3, [r7, #12]
 8001862:	681b      	ldr	r3, [r3, #0]
 8001864:	f3c2 0208 	ubfx	r2, r2, #0, #9
 8001868:	605a      	str	r2, [r3, #4]
        pdata16bits++;
 800186a:	69bb      	ldr	r3, [r7, #24]
 800186c:	3302      	adds	r3, #2
 800186e:	61bb      	str	r3, [r7, #24]
 8001870:	e007      	b.n	8001882 <HAL_UART_Transmit+0xdc>
      }
      else
      {
        huart->Instance->DR = (uint8_t)(*pdata8bits & 0xFFU);
 8001872:	69fb      	ldr	r3, [r7, #28]
 8001874:	781a      	ldrb	r2, [r3, #0]
 8001876:	68fb      	ldr	r3, [r7, #12]
 8001878:	681b      	ldr	r3, [r3, #0]
 800187a:	605a      	str	r2, [r3, #4]
        pdata8bits++;
 800187c:	69fb      	ldr	r3, [r7, #28]
 800187e:	3301      	adds	r3, #1
 8001880:	61fb      	str	r3, [r7, #28]
      }
      huart->TxXferCount--;
 8001882:	68fb      	ldr	r3, [r7, #12]
 8001884:	8cdb      	ldrh	r3, [r3, #38]	; 0x26
 8001886:	b29b      	uxth	r3, r3
 8001888:	3b01      	subs	r3, #1
 800188a:	b29a      	uxth	r2, r3
 800188c:	68fb      	ldr	r3, [r7, #12]
 800188e:	84da      	strh	r2, [r3, #38]	; 0x26
    while (huart->TxXferCount > 0U)
 8001890:	68fb      	ldr	r3, [r7, #12]
 8001892:	8cdb      	ldrh	r3, [r3, #38]	; 0x26
 8001894:	b29b      	uxth	r3, r3
 8001896:	2b00      	cmp	r3, #0
 8001898:	d1cf      	bne.n	800183a <HAL_UART_Transmit+0x94>
    }

    if (UART_WaitOnFlagUntilTimeout(huart, UART_FLAG_TC, RESET, tickstart, Timeout) != HAL_OK)
 800189a:	683b      	ldr	r3, [r7, #0]
 800189c:	9300      	str	r3, [sp, #0]
 800189e:	697b      	ldr	r3, [r7, #20]
 80018a0:	2200      	movs	r2, #0
 80018a2:	2140      	movs	r1, #64	; 0x40
 80018a4:	68f8      	ldr	r0, [r7, #12]
 80018a6:	f000 f810 	bl	80018ca <UART_WaitOnFlagUntilTimeout>
 80018aa:	4603      	mov	r3, r0
 80018ac:	2b00      	cmp	r3, #0
 80018ae:	d001      	beq.n	80018b4 <HAL_UART_Transmit+0x10e>
    {
      return HAL_TIMEOUT;
 80018b0:	2303      	movs	r3, #3
 80018b2:	e006      	b.n	80018c2 <HAL_UART_Transmit+0x11c>
    }

    /* At end of Tx process, restore huart->gState to Ready */
    huart->gState = HAL_UART_STATE_READY;
 80018b4:	68fb      	ldr	r3, [r7, #12]
 80018b6:	2220      	movs	r2, #32
 80018b8:	f883 203d 	strb.w	r2, [r3, #61]	; 0x3d

    return HAL_OK;
 80018bc:	2300      	movs	r3, #0
 80018be:	e000      	b.n	80018c2 <HAL_UART_Transmit+0x11c>
  }
  else
  {
    return HAL_BUSY;
 80018c0:	2302      	movs	r3, #2
  }
}
 80018c2:	4618      	mov	r0, r3
 80018c4:	3720      	adds	r7, #32
 80018c6:	46bd      	mov	sp, r7
 80018c8:	bd80      	pop	{r7, pc}

080018ca <UART_WaitOnFlagUntilTimeout>:
  * @param  Timeout Timeout duration
  * @retval HAL status
  */
static HAL_StatusTypeDef UART_WaitOnFlagUntilTimeout(UART_HandleTypeDef *huart, uint32_t Flag, FlagStatus Status,
                                                     uint32_t Tickstart, uint32_t Timeout)
{
 80018ca:	b580      	push	{r7, lr}
 80018cc:	b090      	sub	sp, #64	; 0x40
 80018ce:	af00      	add	r7, sp, #0
 80018d0:	60f8      	str	r0, [r7, #12]
 80018d2:	60b9      	str	r1, [r7, #8]
 80018d4:	603b      	str	r3, [r7, #0]
 80018d6:	4613      	mov	r3, r2
 80018d8:	71fb      	strb	r3, [r7, #7]
  /* Wait until flag is set */
  while ((__HAL_UART_GET_FLAG(huart, Flag) ? SET : RESET) == Status)
 80018da:	e050      	b.n	800197e <UART_WaitOnFlagUntilTimeout+0xb4>
  {
    /* Check for the Timeout */
    if (Timeout != HAL_MAX_DELAY)
 80018dc:	6cbb      	ldr	r3, [r7, #72]	; 0x48
 80018de:	f1b3 3fff 	cmp.w	r3, #4294967295
 80018e2:	d04c      	beq.n	800197e <UART_WaitOnFlagUntilTimeout+0xb4>
    {
      if ((Timeout == 0U) || ((HAL_GetTick() - Tickstart) > Timeout))
 80018e4:	6cbb      	ldr	r3, [r7, #72]	; 0x48
 80018e6:	2b00      	cmp	r3, #0
 80018e8:	d007      	beq.n	80018fa <UART_WaitOnFlagUntilTimeout+0x30>
 80018ea:	f7ff f80d 	bl	8000908 <HAL_GetTick>
 80018ee:	4602      	mov	r2, r0
 80018f0:	683b      	ldr	r3, [r7, #0]
 80018f2:	1ad3      	subs	r3, r2, r3
 80018f4:	6cba      	ldr	r2, [r7, #72]	; 0x48
 80018f6:	429a      	cmp	r2, r3
 80018f8:	d241      	bcs.n	800197e <UART_WaitOnFlagUntilTimeout+0xb4>
      {
        /* Disable TXE, RXNE, PE and ERR (Frame error, noise error, overrun error) interrupts for the interrupt process */
        ATOMIC_CLEAR_BIT(huart->Instance->CR1, (USART_CR1_RXNEIE | USART_CR1_PEIE | USART_CR1_TXEIE));
 80018fa:	68fb      	ldr	r3, [r7, #12]
 80018fc:	681b      	ldr	r3, [r3, #0]
 80018fe:	330c      	adds	r3, #12
 8001900:	62bb      	str	r3, [r7, #40]	; 0x28
 */
__STATIC_FORCEINLINE uint32_t __LDREXW(volatile uint32_t *addr)
{
    uint32_t result;

   __ASM volatile ("ldrex %0, %1" : "=r" (result) : "Q" (*addr) );
 8001902:	6abb      	ldr	r3, [r7, #40]	; 0x28
 8001904:	e853 3f00 	ldrex	r3, [r3]
 8001908:	627b      	str	r3, [r7, #36]	; 0x24
   return(result);
 800190a:	6a7b      	ldr	r3, [r7, #36]	; 0x24
 800190c:	f423 73d0 	bic.w	r3, r3, #416	; 0x1a0
 8001910:	63fb      	str	r3, [r7, #60]	; 0x3c
 8001912:	68fb      	ldr	r3, [r7, #12]
 8001914:	681b      	ldr	r3, [r3, #0]
 8001916:	330c      	adds	r3, #12
 8001918:	6bfa      	ldr	r2, [r7, #60]	; 0x3c
 800191a:	637a      	str	r2, [r7, #52]	; 0x34
 800191c:	633b      	str	r3, [r7, #48]	; 0x30
 */
__STATIC_FORCEINLINE uint32_t __STREXW(uint32_t value, volatile uint32_t *addr)
{
   uint32_t result;

   __ASM volatile ("strex %0, %2, %1" : "=&r" (result), "=Q" (*addr) : "r" (value) );
 800191e:	6b39      	ldr	r1, [r7, #48]	; 0x30
 8001920:	6b7a      	ldr	r2, [r7, #52]	; 0x34
 8001922:	e841 2300 	strex	r3, r2, [r1]
 8001926:	62fb      	str	r3, [r7, #44]	; 0x2c
   return(result);
 8001928:	6afb      	ldr	r3, [r7, #44]	; 0x2c
 800192a:	2b00      	cmp	r3, #0
 800192c:	d1e5      	bne.n	80018fa <UART_WaitOnFlagUntilTimeout+0x30>
        ATOMIC_CLEAR_BIT(huart->Instance->CR3, USART_CR3_EIE);
 800192e:	68fb      	ldr	r3, [r7, #12]
 8001930:	681b      	ldr	r3, [r3, #0]
 8001932:	3314      	adds	r3, #20
 8001934:	617b      	str	r3, [r7, #20]
   __ASM volatile ("ldrex %0, %1" : "=r" (result) : "Q" (*addr) );
 8001936:	697b      	ldr	r3, [r7, #20]
 8001938:	e853 3f00 	ldrex	r3, [r3]
 800193c:	613b      	str	r3, [r7, #16]
   return(result);
 800193e:	693b      	ldr	r3, [r7, #16]
 8001940:	f023 0301 	bic.w	r3, r3, #1
 8001944:	63bb      	str	r3, [r7, #56]	; 0x38
 8001946:	68fb      	ldr	r3, [r7, #12]
 8001948:	681b      	ldr	r3, [r3, #0]
 800194a:	3314      	adds	r3, #20
 800194c:	6bba      	ldr	r2, [r7, #56]	; 0x38
 800194e:	623a      	str	r2, [r7, #32]
 8001950:	61fb      	str	r3, [r7, #28]
   __ASM volatile ("strex %0, %2, %1" : "=&r" (result), "=Q" (*addr) : "r" (value) );
 8001952:	69f9      	ldr	r1, [r7, #28]
 8001954:	6a3a      	ldr	r2, [r7, #32]
 8001956:	e841 2300 	strex	r3, r2, [r1]
 800195a:	61bb      	str	r3, [r7, #24]
   return(result);
 800195c:	69bb      	ldr	r3, [r7, #24]
 800195e:	2b00      	cmp	r3, #0
 8001960:	d1e5      	bne.n	800192e <UART_WaitOnFlagUntilTimeout+0x64>

        huart->gState  = HAL_UART_STATE_READY;
 8001962:	68fb      	ldr	r3, [r7, #12]
 8001964:	2220      	movs	r2, #32
 8001966:	f883 203d 	strb.w	r2, [r3, #61]	; 0x3d
        huart->RxState = HAL_UART_STATE_READY;
 800196a:	68fb      	ldr	r3, [r7, #12]
 800196c:	2220      	movs	r2, #32
 800196e:	f883 203e 	strb.w	r2, [r3, #62]	; 0x3e

        /* Process Unlocked */
        __HAL_UNLOCK(huart);
 8001972:	68fb      	ldr	r3, [r7, #12]
 8001974:	2200      	movs	r2, #0
 8001976:	f883 203c 	strb.w	r2, [r3, #60]	; 0x3c

        return HAL_TIMEOUT;
 800197a:	2303      	movs	r3, #3
 800197c:	e00f      	b.n	800199e <UART_WaitOnFlagUntilTimeout+0xd4>
  while ((__HAL_UART_GET_FLAG(huart, Flag) ? SET : RESET) == Status)
 800197e:	68fb      	ldr	r3, [r7, #12]
 8001980:	681b      	ldr	r3, [r3, #0]
 8001982:	681a      	ldr	r2, [r3, #0]
 8001984:	68bb      	ldr	r3, [r7, #8]
 8001986:	4013      	ands	r3, r2
 8001988:	68ba      	ldr	r2, [r7, #8]
 800198a:	429a      	cmp	r2, r3
 800198c:	bf0c      	ite	eq
 800198e:	2301      	moveq	r3, #1
 8001990:	2300      	movne	r3, #0
 8001992:	b2db      	uxtb	r3, r3
 8001994:	461a      	mov	r2, r3
 8001996:	79fb      	ldrb	r3, [r7, #7]
 8001998:	429a      	cmp	r2, r3
 800199a:	d09f      	beq.n	80018dc <UART_WaitOnFlagUntilTimeout+0x12>
      }
    }
  }
  return HAL_OK;
 800199c:	2300      	movs	r3, #0
}
 800199e:	4618      	mov	r0, r3
 80019a0:	3740      	adds	r7, #64	; 0x40
 80019a2:	46bd      	mov	sp, r7
 80019a4:	bd80      	pop	{r7, pc}
	...

080019a8 <UART_SetConfig>:
  * @param  huart  Pointer to a UART_HandleTypeDef structure that contains
  *                the configuration information for the specified UART module.
  * @retval None
  */
static void UART_SetConfig(UART_HandleTypeDef *huart)
{
 80019a8:	e92d 4ff0 	stmdb	sp!, {r4, r5, r6, r7, r8, r9, sl, fp, lr}
 80019ac:	b09f      	sub	sp, #124	; 0x7c
 80019ae:	af00      	add	r7, sp, #0
 80019b0:	66f8      	str	r0, [r7, #108]	; 0x6c
  assert_param(IS_UART_MODE(huart->Init.Mode));

  /*-------------------------- USART CR2 Configuration -----------------------*/
  /* Configure the UART Stop Bits: Set STOP[13:12] bits
     according to huart->Init.StopBits value */
  MODIFY_REG(huart->Instance->CR2, USART_CR2_STOP, huart->Init.StopBits);
 80019b2:	6efb      	ldr	r3, [r7, #108]	; 0x6c
 80019b4:	681b      	ldr	r3, [r3, #0]
 80019b6:	691b      	ldr	r3, [r3, #16]
 80019b8:	f423 5040 	bic.w	r0, r3, #12288	; 0x3000
 80019bc:	6efb      	ldr	r3, [r7, #108]	; 0x6c
 80019be:	68d9      	ldr	r1, [r3, #12]
 80019c0:	6efb      	ldr	r3, [r7, #108]	; 0x6c
 80019c2:	681a      	ldr	r2, [r3, #0]
 80019c4:	ea40 0301 	orr.w	r3, r0, r1
 80019c8:	6113      	str	r3, [r2, #16]
     Set the M bits according to huart->Init.WordLength value
     Set PCE and PS bits according to huart->Init.Parity value
     Set TE and RE bits according to huart->Init.Mode value
     Set OVER8 bit according to huart->Init.OverSampling value */

  tmpreg = (uint32_t)huart->Init.WordLength | huart->Init.Parity | huart->Init.Mode | huart->Init.OverSampling;
 80019ca:	6efb      	ldr	r3, [r7, #108]	; 0x6c
 80019cc:	689a      	ldr	r2, [r3, #8]
 80019ce:	6efb      	ldr	r3, [r7, #108]	; 0x6c
 80019d0:	691b      	ldr	r3, [r3, #16]
 80019d2:	431a      	orrs	r2, r3
 80019d4:	6efb      	ldr	r3, [r7, #108]	; 0x6c
 80019d6:	695b      	ldr	r3, [r3, #20]
 80019d8:	431a      	orrs	r2, r3
 80019da:	6efb      	ldr	r3, [r7, #108]	; 0x6c
 80019dc:	69db      	ldr	r3, [r3, #28]
 80019de:	4313      	orrs	r3, r2
 80019e0:	673b      	str	r3, [r7, #112]	; 0x70
  MODIFY_REG(huart->Instance->CR1,
 80019e2:	6efb      	ldr	r3, [r7, #108]	; 0x6c
 80019e4:	681b      	ldr	r3, [r3, #0]
 80019e6:	68db      	ldr	r3, [r3, #12]
 80019e8:	f423 4116 	bic.w	r1, r3, #38400	; 0x9600
 80019ec:	f021 010c 	bic.w	r1, r1, #12
 80019f0:	6efb      	ldr	r3, [r7, #108]	; 0x6c
 80019f2:	681a      	ldr	r2, [r3, #0]
 80019f4:	6f3b      	ldr	r3, [r7, #112]	; 0x70
 80019f6:	430b      	orrs	r3, r1
 80019f8:	60d3      	str	r3, [r2, #12]
             (uint32_t)(USART_CR1_M | USART_CR1_PCE | USART_CR1_PS | USART_CR1_TE | USART_CR1_RE | USART_CR1_OVER8),
             tmpreg);

  /*-------------------------- USART CR3 Configuration -----------------------*/
  /* Configure the UART HFC: Set CTSE and RTSE bits according to huart->Init.HwFlowCtl value */
  MODIFY_REG(huart->Instance->CR3, (USART_CR3_RTSE | USART_CR3_CTSE), huart->Init.HwFlowCtl);
 80019fa:	6efb      	ldr	r3, [r7, #108]	; 0x6c
 80019fc:	681b      	ldr	r3, [r3, #0]
 80019fe:	695b      	ldr	r3, [r3, #20]
 8001a00:	f423 7040 	bic.w	r0, r3, #768	; 0x300
 8001a04:	6efb      	ldr	r3, [r7, #108]	; 0x6c
 8001a06:	6999      	ldr	r1, [r3, #24]
 8001a08:	6efb      	ldr	r3, [r7, #108]	; 0x6c
 8001a0a:	681a      	ldr	r2, [r3, #0]
 8001a0c:	ea40 0301 	orr.w	r3, r0, r1
 8001a10:	6153      	str	r3, [r2, #20]
    if ((huart->Instance == USART1) || (huart->Instance == USART6) || (huart->Instance == UART9) || (huart->Instance == UART10))
    {
      pclk = HAL_RCC_GetPCLK2Freq();
    }
#elif defined(USART6)
    if ((huart->Instance == USART1) || (huart->Instance == USART6))
 8001a12:	6efb      	ldr	r3, [r7, #108]	; 0x6c
 8001a14:	681a      	ldr	r2, [r3, #0]
 8001a16:	4bc5      	ldr	r3, [pc, #788]	; (8001d2c <UART_SetConfig+0x384>)
 8001a18:	429a      	cmp	r2, r3
 8001a1a:	d004      	beq.n	8001a26 <UART_SetConfig+0x7e>
 8001a1c:	6efb      	ldr	r3, [r7, #108]	; 0x6c
 8001a1e:	681a      	ldr	r2, [r3, #0]
 8001a20:	4bc3      	ldr	r3, [pc, #780]	; (8001d30 <UART_SetConfig+0x388>)
 8001a22:	429a      	cmp	r2, r3
 8001a24:	d103      	bne.n	8001a2e <UART_SetConfig+0x86>
    {
      pclk = HAL_RCC_GetPCLK2Freq();
 8001a26:	f7ff fe5d 	bl	80016e4 <HAL_RCC_GetPCLK2Freq>
 8001a2a:	6778      	str	r0, [r7, #116]	; 0x74
 8001a2c:	e002      	b.n	8001a34 <UART_SetConfig+0x8c>
      pclk = HAL_RCC_GetPCLK2Freq();
    }
#endif /* USART6 */
    else
    {
      pclk = HAL_RCC_GetPCLK1Freq();
 8001a2e:	f7ff fe45 	bl	80016bc <HAL_RCC_GetPCLK1Freq>
 8001a32:	6778      	str	r0, [r7, #116]	; 0x74
    }
  /*-------------------------- USART BRR Configuration ---------------------*/
  if (huart->Init.OverSampling == UART_OVERSAMPLING_8)
 8001a34:	6efb      	ldr	r3, [r7, #108]	; 0x6c
 8001a36:	69db      	ldr	r3, [r3, #28]
 8001a38:	f5b3 4f00 	cmp.w	r3, #32768	; 0x8000
 8001a3c:	f040 80b6 	bne.w	8001bac <UART_SetConfig+0x204>
  {
    huart->Instance->BRR = UART_BRR_SAMPLING8(pclk, huart->Init.BaudRate);
 8001a40:	6f7b      	ldr	r3, [r7, #116]	; 0x74
 8001a42:	461c      	mov	r4, r3
 8001a44:	f04f 0500 	mov.w	r5, #0
 8001a48:	4622      	mov	r2, r4
 8001a4a:	462b      	mov	r3, r5
 8001a4c:	1891      	adds	r1, r2, r2
 8001a4e:	6439      	str	r1, [r7, #64]	; 0x40
 8001a50:	415b      	adcs	r3, r3
 8001a52:	647b      	str	r3, [r7, #68]	; 0x44
 8001a54:	e9d7 2310 	ldrd	r2, r3, [r7, #64]	; 0x40
 8001a58:	1912      	adds	r2, r2, r4
 8001a5a:	eb45 0303 	adc.w	r3, r5, r3
 8001a5e:	f04f 0000 	mov.w	r0, #0
 8001a62:	f04f 0100 	mov.w	r1, #0
 8001a66:	00d9      	lsls	r1, r3, #3
 8001a68:	ea41 7152 	orr.w	r1, r1, r2, lsr #29
 8001a6c:	00d0      	lsls	r0, r2, #3
 8001a6e:	4602      	mov	r2, r0
 8001a70:	460b      	mov	r3, r1
 8001a72:	1911      	adds	r1, r2, r4
 8001a74:	6639      	str	r1, [r7, #96]	; 0x60
 8001a76:	416b      	adcs	r3, r5
 8001a78:	667b      	str	r3, [r7, #100]	; 0x64
 8001a7a:	6efb      	ldr	r3, [r7, #108]	; 0x6c
 8001a7c:	685b      	ldr	r3, [r3, #4]
 8001a7e:	461a      	mov	r2, r3
 8001a80:	f04f 0300 	mov.w	r3, #0
 8001a84:	1891      	adds	r1, r2, r2
 8001a86:	63b9      	str	r1, [r7, #56]	; 0x38
 8001a88:	415b      	adcs	r3, r3
 8001a8a:	63fb      	str	r3, [r7, #60]	; 0x3c
 8001a8c:	e9d7 230e 	ldrd	r2, r3, [r7, #56]	; 0x38
 8001a90:	e9d7 0118 	ldrd	r0, r1, [r7, #96]	; 0x60
 8001a94:	f7fe fba0 	bl	80001d8 <__aeabi_uldivmod>
 8001a98:	4602      	mov	r2, r0
 8001a9a:	460b      	mov	r3, r1
 8001a9c:	4ba5      	ldr	r3, [pc, #660]	; (8001d34 <UART_SetConfig+0x38c>)
 8001a9e:	fba3 2302 	umull	r2, r3, r3, r2
 8001aa2:	095b      	lsrs	r3, r3, #5
 8001aa4:	011e      	lsls	r6, r3, #4
 8001aa6:	6f7b      	ldr	r3, [r7, #116]	; 0x74
 8001aa8:	461c      	mov	r4, r3
 8001aaa:	f04f 0500 	mov.w	r5, #0
 8001aae:	4622      	mov	r2, r4
 8001ab0:	462b      	mov	r3, r5
 8001ab2:	1891      	adds	r1, r2, r2
 8001ab4:	6339      	str	r1, [r7, #48]	; 0x30
 8001ab6:	415b      	adcs	r3, r3
 8001ab8:	637b      	str	r3, [r7, #52]	; 0x34
 8001aba:	e9d7 230c 	ldrd	r2, r3, [r7, #48]	; 0x30
 8001abe:	1912      	adds	r2, r2, r4
 8001ac0:	eb45 0303 	adc.w	r3, r5, r3
 8001ac4:	f04f 0000 	mov.w	r0, #0
 8001ac8:	f04f 0100 	mov.w	r1, #0
 8001acc:	00d9      	lsls	r1, r3, #3
 8001ace:	ea41 7152 	orr.w	r1, r1, r2, lsr #29
 8001ad2:	00d0      	lsls	r0, r2, #3
 8001ad4:	4602      	mov	r2, r0
 8001ad6:	460b      	mov	r3, r1
 8001ad8:	1911      	adds	r1, r2, r4
 8001ada:	65b9      	str	r1, [r7, #88]	; 0x58
 8001adc:	416b      	adcs	r3, r5
 8001ade:	65fb      	str	r3, [r7, #92]	; 0x5c
 8001ae0:	6efb      	ldr	r3, [r7, #108]	; 0x6c
 8001ae2:	685b      	ldr	r3, [r3, #4]
 8001ae4:	461a      	mov	r2, r3
 8001ae6:	f04f 0300 	mov.w	r3, #0
 8001aea:	1891      	adds	r1, r2, r2
 8001aec:	62b9      	str	r1, [r7, #40]	; 0x28
 8001aee:	415b      	adcs	r3, r3
 8001af0:	62fb      	str	r3, [r7, #44]	; 0x2c
 8001af2:	e9d7 230a 	ldrd	r2, r3, [r7, #40]	; 0x28
 8001af6:	e9d7 0116 	ldrd	r0, r1, [r7, #88]	; 0x58
 8001afa:	f7fe fb6d 	bl	80001d8 <__aeabi_uldivmod>
 8001afe:	4602      	mov	r2, r0
 8001b00:	460b      	mov	r3, r1
 8001b02:	4b8c      	ldr	r3, [pc, #560]	; (8001d34 <UART_SetConfig+0x38c>)
 8001b04:	fba3 1302 	umull	r1, r3, r3, r2
 8001b08:	095b      	lsrs	r3, r3, #5
 8001b0a:	2164      	movs	r1, #100	; 0x64
 8001b0c:	fb01 f303 	mul.w	r3, r1, r3
 8001b10:	1ad3      	subs	r3, r2, r3
 8001b12:	00db      	lsls	r3, r3, #3
 8001b14:	3332      	adds	r3, #50	; 0x32
 8001b16:	4a87      	ldr	r2, [pc, #540]	; (8001d34 <UART_SetConfig+0x38c>)
 8001b18:	fba2 2303 	umull	r2, r3, r2, r3
 8001b1c:	095b      	lsrs	r3, r3, #5
 8001b1e:	005b      	lsls	r3, r3, #1
 8001b20:	f403 73f8 	and.w	r3, r3, #496	; 0x1f0
 8001b24:	441e      	add	r6, r3
 8001b26:	6f7b      	ldr	r3, [r7, #116]	; 0x74
 8001b28:	4618      	mov	r0, r3
 8001b2a:	f04f 0100 	mov.w	r1, #0
 8001b2e:	4602      	mov	r2, r0
 8001b30:	460b      	mov	r3, r1
 8001b32:	1894      	adds	r4, r2, r2
 8001b34:	623c      	str	r4, [r7, #32]
 8001b36:	415b      	adcs	r3, r3
 8001b38:	627b      	str	r3, [r7, #36]	; 0x24
 8001b3a:	e9d7 2308 	ldrd	r2, r3, [r7, #32]
 8001b3e:	1812      	adds	r2, r2, r0
 8001b40:	eb41 0303 	adc.w	r3, r1, r3
 8001b44:	f04f 0400 	mov.w	r4, #0
 8001b48:	f04f 0500 	mov.w	r5, #0
 8001b4c:	00dd      	lsls	r5, r3, #3
 8001b4e:	ea45 7552 	orr.w	r5, r5, r2, lsr #29
 8001b52:	00d4      	lsls	r4, r2, #3
 8001b54:	4622      	mov	r2, r4
 8001b56:	462b      	mov	r3, r5
 8001b58:	1814      	adds	r4, r2, r0
 8001b5a:	653c      	str	r4, [r7, #80]	; 0x50
 8001b5c:	414b      	adcs	r3, r1
 8001b5e:	657b      	str	r3, [r7, #84]	; 0x54
 8001b60:	6efb      	ldr	r3, [r7, #108]	; 0x6c
 8001b62:	685b      	ldr	r3, [r3, #4]
 8001b64:	461a      	mov	r2, r3
 8001b66:	f04f 0300 	mov.w	r3, #0
 8001b6a:	1891      	adds	r1, r2, r2
 8001b6c:	61b9      	str	r1, [r7, #24]
 8001b6e:	415b      	adcs	r3, r3
 8001b70:	61fb      	str	r3, [r7, #28]
 8001b72:	e9d7 2306 	ldrd	r2, r3, [r7, #24]
 8001b76:	e9d7 0114 	ldrd	r0, r1, [r7, #80]	; 0x50
 8001b7a:	f7fe fb2d 	bl	80001d8 <__aeabi_uldivmod>
 8001b7e:	4602      	mov	r2, r0
 8001b80:	460b      	mov	r3, r1
 8001b82:	4b6c      	ldr	r3, [pc, #432]	; (8001d34 <UART_SetConfig+0x38c>)
 8001b84:	fba3 1302 	umull	r1, r3, r3, r2
 8001b88:	095b      	lsrs	r3, r3, #5
 8001b8a:	2164      	movs	r1, #100	; 0x64
 8001b8c:	fb01 f303 	mul.w	r3, r1, r3
 8001b90:	1ad3      	subs	r3, r2, r3
 8001b92:	00db      	lsls	r3, r3, #3
 8001b94:	3332      	adds	r3, #50	; 0x32
 8001b96:	4a67      	ldr	r2, [pc, #412]	; (8001d34 <UART_SetConfig+0x38c>)
 8001b98:	fba2 2303 	umull	r2, r3, r2, r3
 8001b9c:	095b      	lsrs	r3, r3, #5
 8001b9e:	f003 0207 	and.w	r2, r3, #7
 8001ba2:	6efb      	ldr	r3, [r7, #108]	; 0x6c
 8001ba4:	681b      	ldr	r3, [r3, #0]
 8001ba6:	4432      	add	r2, r6
 8001ba8:	609a      	str	r2, [r3, #8]
  }
  else
  {
    huart->Instance->BRR = UART_BRR_SAMPLING16(pclk, huart->Init.BaudRate);
  }
}
 8001baa:	e0b9      	b.n	8001d20 <UART_SetConfig+0x378>
    huart->Instance->BRR = UART_BRR_SAMPLING16(pclk, huart->Init.BaudRate);
 8001bac:	6f7b      	ldr	r3, [r7, #116]	; 0x74
 8001bae:	461c      	mov	r4, r3
 8001bb0:	f04f 0500 	mov.w	r5, #0
 8001bb4:	4622      	mov	r2, r4
 8001bb6:	462b      	mov	r3, r5
 8001bb8:	1891      	adds	r1, r2, r2
 8001bba:	6139      	str	r1, [r7, #16]
 8001bbc:	415b      	adcs	r3, r3
 8001bbe:	617b      	str	r3, [r7, #20]
 8001bc0:	e9d7 2304 	ldrd	r2, r3, [r7, #16]
 8001bc4:	1912      	adds	r2, r2, r4
 8001bc6:	eb45 0303 	adc.w	r3, r5, r3
 8001bca:	f04f 0000 	mov.w	r0, #0
 8001bce:	f04f 0100 	mov.w	r1, #0
 8001bd2:	00d9      	lsls	r1, r3, #3
 8001bd4:	ea41 7152 	orr.w	r1, r1, r2, lsr #29
 8001bd8:	00d0      	lsls	r0, r2, #3
 8001bda:	4602      	mov	r2, r0
 8001bdc:	460b      	mov	r3, r1
 8001bde:	eb12 0804 	adds.w	r8, r2, r4
 8001be2:	eb43 0905 	adc.w	r9, r3, r5
 8001be6:	6efb      	ldr	r3, [r7, #108]	; 0x6c
 8001be8:	685b      	ldr	r3, [r3, #4]
 8001bea:	4618      	mov	r0, r3
 8001bec:	f04f 0100 	mov.w	r1, #0
 8001bf0:	f04f 0200 	mov.w	r2, #0
 8001bf4:	f04f 0300 	mov.w	r3, #0
 8001bf8:	008b      	lsls	r3, r1, #2
 8001bfa:	ea43 7390 	orr.w	r3, r3, r0, lsr #30
 8001bfe:	0082      	lsls	r2, r0, #2
 8001c00:	4640      	mov	r0, r8
 8001c02:	4649      	mov	r1, r9
 8001c04:	f7fe fae8 	bl	80001d8 <__aeabi_uldivmod>
 8001c08:	4602      	mov	r2, r0
 8001c0a:	460b      	mov	r3, r1
 8001c0c:	4b49      	ldr	r3, [pc, #292]	; (8001d34 <UART_SetConfig+0x38c>)
 8001c0e:	fba3 2302 	umull	r2, r3, r3, r2
 8001c12:	095b      	lsrs	r3, r3, #5
 8001c14:	011e      	lsls	r6, r3, #4
 8001c16:	6f7b      	ldr	r3, [r7, #116]	; 0x74
 8001c18:	4618      	mov	r0, r3
 8001c1a:	f04f 0100 	mov.w	r1, #0
 8001c1e:	4602      	mov	r2, r0
 8001c20:	460b      	mov	r3, r1
 8001c22:	1894      	adds	r4, r2, r2
 8001c24:	60bc      	str	r4, [r7, #8]
 8001c26:	415b      	adcs	r3, r3
 8001c28:	60fb      	str	r3, [r7, #12]
 8001c2a:	e9d7 2302 	ldrd	r2, r3, [r7, #8]
 8001c2e:	1812      	adds	r2, r2, r0
 8001c30:	eb41 0303 	adc.w	r3, r1, r3
 8001c34:	f04f 0400 	mov.w	r4, #0
 8001c38:	f04f 0500 	mov.w	r5, #0
 8001c3c:	00dd      	lsls	r5, r3, #3
 8001c3e:	ea45 7552 	orr.w	r5, r5, r2, lsr #29
 8001c42:	00d4      	lsls	r4, r2, #3
 8001c44:	4622      	mov	r2, r4
 8001c46:	462b      	mov	r3, r5
 8001c48:	1814      	adds	r4, r2, r0
 8001c4a:	64bc      	str	r4, [r7, #72]	; 0x48
 8001c4c:	414b      	adcs	r3, r1
 8001c4e:	64fb      	str	r3, [r7, #76]	; 0x4c
 8001c50:	6efb      	ldr	r3, [r7, #108]	; 0x6c
 8001c52:	685b      	ldr	r3, [r3, #4]
 8001c54:	4618      	mov	r0, r3
 8001c56:	f04f 0100 	mov.w	r1, #0
 8001c5a:	f04f 0200 	mov.w	r2, #0
 8001c5e:	f04f 0300 	mov.w	r3, #0
 8001c62:	008b      	lsls	r3, r1, #2
 8001c64:	ea43 7390 	orr.w	r3, r3, r0, lsr #30
 8001c68:	0082      	lsls	r2, r0, #2
 8001c6a:	e9d7 0112 	ldrd	r0, r1, [r7, #72]	; 0x48
 8001c6e:	f7fe fab3 	bl	80001d8 <__aeabi_uldivmod>
 8001c72:	4602      	mov	r2, r0
 8001c74:	460b      	mov	r3, r1
 8001c76:	4b2f      	ldr	r3, [pc, #188]	; (8001d34 <UART_SetConfig+0x38c>)
 8001c78:	fba3 1302 	umull	r1, r3, r3, r2
 8001c7c:	095b      	lsrs	r3, r3, #5
 8001c7e:	2164      	movs	r1, #100	; 0x64
 8001c80:	fb01 f303 	mul.w	r3, r1, r3
 8001c84:	1ad3      	subs	r3, r2, r3
 8001c86:	011b      	lsls	r3, r3, #4
 8001c88:	3332      	adds	r3, #50	; 0x32
 8001c8a:	4a2a      	ldr	r2, [pc, #168]	; (8001d34 <UART_SetConfig+0x38c>)
 8001c8c:	fba2 2303 	umull	r2, r3, r2, r3
 8001c90:	095b      	lsrs	r3, r3, #5
 8001c92:	f003 03f0 	and.w	r3, r3, #240	; 0xf0
 8001c96:	441e      	add	r6, r3
 8001c98:	6f7b      	ldr	r3, [r7, #116]	; 0x74
 8001c9a:	4618      	mov	r0, r3
 8001c9c:	f04f 0100 	mov.w	r1, #0
 8001ca0:	4602      	mov	r2, r0
 8001ca2:	460b      	mov	r3, r1
 8001ca4:	1894      	adds	r4, r2, r2
 8001ca6:	603c      	str	r4, [r7, #0]
 8001ca8:	415b      	adcs	r3, r3
 8001caa:	607b      	str	r3, [r7, #4]
 8001cac:	e9d7 2300 	ldrd	r2, r3, [r7]
 8001cb0:	1812      	adds	r2, r2, r0
 8001cb2:	eb41 0303 	adc.w	r3, r1, r3
 8001cb6:	f04f 0400 	mov.w	r4, #0
 8001cba:	f04f 0500 	mov.w	r5, #0
 8001cbe:	00dd      	lsls	r5, r3, #3
 8001cc0:	ea45 7552 	orr.w	r5, r5, r2, lsr #29
 8001cc4:	00d4      	lsls	r4, r2, #3
 8001cc6:	4622      	mov	r2, r4
 8001cc8:	462b      	mov	r3, r5
 8001cca:	eb12 0a00 	adds.w	sl, r2, r0
 8001cce:	eb43 0b01 	adc.w	fp, r3, r1
 8001cd2:	6efb      	ldr	r3, [r7, #108]	; 0x6c
 8001cd4:	685b      	ldr	r3, [r3, #4]
 8001cd6:	4618      	mov	r0, r3
 8001cd8:	f04f 0100 	mov.w	r1, #0
 8001cdc:	f04f 0200 	mov.w	r2, #0
 8001ce0:	f04f 0300 	mov.w	r3, #0
 8001ce4:	008b      	lsls	r3, r1, #2
 8001ce6:	ea43 7390 	orr.w	r3, r3, r0, lsr #30
 8001cea:	0082      	lsls	r2, r0, #2
 8001cec:	4650      	mov	r0, sl
 8001cee:	4659      	mov	r1, fp
 8001cf0:	f7fe fa72 	bl	80001d8 <__aeabi_uldivmod>
 8001cf4:	4602      	mov	r2, r0
 8001cf6:	460b      	mov	r3, r1
 8001cf8:	4b0e      	ldr	r3, [pc, #56]	; (8001d34 <UART_SetConfig+0x38c>)
 8001cfa:	fba3 1302 	umull	r1, r3, r3, r2
 8001cfe:	095b      	lsrs	r3, r3, #5
 8001d00:	2164      	movs	r1, #100	; 0x64
 8001d02:	fb01 f303 	mul.w	r3, r1, r3
 8001d06:	1ad3      	subs	r3, r2, r3
 8001d08:	011b      	lsls	r3, r3, #4
 8001d0a:	3332      	adds	r3, #50	; 0x32
 8001d0c:	4a09      	ldr	r2, [pc, #36]	; (8001d34 <UART_SetConfig+0x38c>)
 8001d0e:	fba2 2303 	umull	r2, r3, r2, r3
 8001d12:	095b      	lsrs	r3, r3, #5
 8001d14:	f003 020f 	and.w	r2, r3, #15
 8001d18:	6efb      	ldr	r3, [r7, #108]	; 0x6c
 8001d1a:	681b      	ldr	r3, [r3, #0]
 8001d1c:	4432      	add	r2, r6
 8001d1e:	609a      	str	r2, [r3, #8]
}
 8001d20:	bf00      	nop
 8001d22:	377c      	adds	r7, #124	; 0x7c
 8001d24:	46bd      	mov	sp, r7
 8001d26:	e8bd 8ff0 	ldmia.w	sp!, {r4, r5, r6, r7, r8, r9, sl, fp, pc}
 8001d2a:	bf00      	nop
 8001d2c:	40011000 	.word	0x40011000
 8001d30:	40011400 	.word	0x40011400
 8001d34:	51eb851f 	.word	0x51eb851f

08001d38 <__libc_init_array>:
 8001d38:	b570      	push	{r4, r5, r6, lr}
 8001d3a:	4d0d      	ldr	r5, [pc, #52]	; (8001d70 <__libc_init_array+0x38>)
 8001d3c:	4c0d      	ldr	r4, [pc, #52]	; (8001d74 <__libc_init_array+0x3c>)
 8001d3e:	1b64      	subs	r4, r4, r5
 8001d40:	10a4      	asrs	r4, r4, #2
 8001d42:	2600      	movs	r6, #0
 8001d44:	42a6      	cmp	r6, r4
 8001d46:	d109      	bne.n	8001d5c <__libc_init_array+0x24>
 8001d48:	4d0b      	ldr	r5, [pc, #44]	; (8001d78 <__libc_init_array+0x40>)
 8001d4a:	4c0c      	ldr	r4, [pc, #48]	; (8001d7c <__libc_init_array+0x44>)
 8001d4c:	f000 f820 	bl	8001d90 <_init>
 8001d50:	1b64      	subs	r4, r4, r5
 8001d52:	10a4      	asrs	r4, r4, #2
 8001d54:	2600      	movs	r6, #0
 8001d56:	42a6      	cmp	r6, r4
 8001d58:	d105      	bne.n	8001d66 <__libc_init_array+0x2e>
 8001d5a:	bd70      	pop	{r4, r5, r6, pc}
 8001d5c:	f855 3b04 	ldr.w	r3, [r5], #4
 8001d60:	4798      	blx	r3
 8001d62:	3601      	adds	r6, #1
 8001d64:	e7ee      	b.n	8001d44 <__libc_init_array+0xc>
 8001d66:	f855 3b04 	ldr.w	r3, [r5], #4
 8001d6a:	4798      	blx	r3
 8001d6c:	3601      	adds	r6, #1
 8001d6e:	e7f2      	b.n	8001d56 <__libc_init_array+0x1e>
 8001d70:	08001dd4 	.word	0x08001dd4
 8001d74:	08001dd4 	.word	0x08001dd4
 8001d78:	08001dd4 	.word	0x08001dd4
 8001d7c:	08001dd8 	.word	0x08001dd8

08001d80 <memset>:
 8001d80:	4402      	add	r2, r0
 8001d82:	4603      	mov	r3, r0
 8001d84:	4293      	cmp	r3, r2
 8001d86:	d100      	bne.n	8001d8a <memset+0xa>
 8001d88:	4770      	bx	lr
 8001d8a:	f803 1b01 	strb.w	r1, [r3], #1
 8001d8e:	e7f9      	b.n	8001d84 <memset+0x4>

08001d90 <_init>:
 8001d90:	b5f8      	push	{r3, r4, r5, r6, r7, lr}
 8001d92:	bf00      	nop
 8001d94:	bcf8      	pop	{r3, r4, r5, r6, r7}
 8001d96:	bc08      	pop	{r3}
 8001d98:	469e      	mov	lr, r3
 8001d9a:	4770      	bx	lr

08001d9c <_fini>:
 8001d9c:	b5f8      	push	{r3, r4, r5, r6, r7, lr}
 8001d9e:	bf00      	nop
 8001da0:	bcf8      	pop	{r3, r4, r5, r6, r7}
 8001da2:	bc08      	pop	{r3}
 8001da4:	469e      	mov	lr, r3
 8001da6:	4770      	bx	lr
