
Multiple ADC.elf:     file format elf32-littlearm

Sections:
Idx Name          Size      VMA       LMA       File off  Algn
  0 .isr_vector   00000188  08000000  08000000  00010000  2**0
                  CONTENTS, ALLOC, LOAD, READONLY, DATA
  1 .text         0000264c  08000188  08000188  00010188  2**3
                  CONTENTS, ALLOC, LOAD, READONLY, CODE
  2 .rodata       00000010  080027d4  080027d4  000127d4  2**2
                  CONTENTS, ALLOC, LOAD, READONLY, DATA
  3 .ARM.extab    00000000  080027e4  080027e4  00020010  2**0
                  CONTENTS
  4 .ARM          00000008  080027e4  080027e4  000127e4  2**2
                  CONTENTS, ALLOC, LOAD, READONLY, DATA
  5 .preinit_array 00000000  080027ec  080027ec  00020010  2**0
                  CONTENTS, ALLOC, LOAD, DATA
  6 .init_array   00000004  080027ec  080027ec  000127ec  2**2
                  CONTENTS, ALLOC, LOAD, DATA
  7 .fini_array   00000004  080027f0  080027f0  000127f0  2**2
                  CONTENTS, ALLOC, LOAD, DATA
  8 .data         00000010  20000000  080027f4  00020000  2**2
                  CONTENTS, ALLOC, LOAD, DATA
  9 .bss          00000070  20000010  08002804  00020010  2**2
                  ALLOC
 10 ._user_heap_stack 00000600  20000080  08002804  00020080  2**0
                  ALLOC
 11 .ARM.attributes 00000030  00000000  00000000  00020010  2**0
                  CONTENTS, READONLY
 12 .debug_info   000055cb  00000000  00000000  00020040  2**0
                  CONTENTS, READONLY, DEBUGGING, OCTETS
 13 .debug_abbrev 000011b5  00000000  00000000  0002560b  2**0
                  CONTENTS, READONLY, DEBUGGING, OCTETS
 14 .debug_aranges 000004f0  00000000  00000000  000267c0  2**3
                  CONTENTS, READONLY, DEBUGGING, OCTETS
 15 .debug_ranges 00000458  00000000  00000000  00026cb0  2**3
                  CONTENTS, READONLY, DEBUGGING, OCTETS
 16 .debug_macro  000201a3  00000000  00000000  00027108  2**0
                  CONTENTS, READONLY, DEBUGGING, OCTETS
 17 .debug_line   00005ef3  00000000  00000000  000472ab  2**0
                  CONTENTS, READONLY, DEBUGGING, OCTETS
 18 .debug_str    000c88ae  00000000  00000000  0004d19e  2**0
                  CONTENTS, READONLY, DEBUGGING, OCTETS
 19 .comment      00000053  00000000  00000000  00115a4c  2**0
                  CONTENTS, READONLY
 20 .debug_frame  0000139c  00000000  00000000  00115aa0  2**2
                  CONTENTS, READONLY, DEBUGGING, OCTETS

Disassembly of section .text:

08000188 <__do_global_dtors_aux>:
 8000188:	b510      	push	{r4, lr}
 800018a:	4c05      	ldr	r4, [pc, #20]	; (80001a0 <__do_global_dtors_aux+0x18>)
 800018c:	7823      	ldrb	r3, [r4, #0]
 800018e:	b933      	cbnz	r3, 800019e <__do_global_dtors_aux+0x16>
 8000190:	4b04      	ldr	r3, [pc, #16]	; (80001a4 <__do_global_dtors_aux+0x1c>)
 8000192:	b113      	cbz	r3, 800019a <__do_global_dtors_aux+0x12>
 8000194:	4804      	ldr	r0, [pc, #16]	; (80001a8 <__do_global_dtors_aux+0x20>)
 8000196:	f3af 8000 	nop.w
 800019a:	2301      	movs	r3, #1
 800019c:	7023      	strb	r3, [r4, #0]
 800019e:	bd10      	pop	{r4, pc}
 80001a0:	20000010 	.word	0x20000010
 80001a4:	00000000 	.word	0x00000000
 80001a8:	080027bc 	.word	0x080027bc

080001ac <frame_dummy>:
 80001ac:	b508      	push	{r3, lr}
 80001ae:	4b03      	ldr	r3, [pc, #12]	; (80001bc <frame_dummy+0x10>)
 80001b0:	b11b      	cbz	r3, 80001ba <frame_dummy+0xe>
 80001b2:	4903      	ldr	r1, [pc, #12]	; (80001c0 <frame_dummy+0x14>)
 80001b4:	4803      	ldr	r0, [pc, #12]	; (80001c4 <frame_dummy+0x18>)
 80001b6:	f3af 8000 	nop.w
 80001ba:	bd08      	pop	{r3, pc}
 80001bc:	00000000 	.word	0x00000000
 80001c0:	20000014 	.word	0x20000014
 80001c4:	080027bc 	.word	0x080027bc

080001c8 <__aeabi_drsub>:
 80001c8:	f081 4100 	eor.w	r1, r1, #2147483648	; 0x80000000
 80001cc:	e002      	b.n	80001d4 <__adddf3>
 80001ce:	bf00      	nop

080001d0 <__aeabi_dsub>:
 80001d0:	f083 4300 	eor.w	r3, r3, #2147483648	; 0x80000000

080001d4 <__adddf3>:
 80001d4:	b530      	push	{r4, r5, lr}
 80001d6:	ea4f 0441 	mov.w	r4, r1, lsl #1
 80001da:	ea4f 0543 	mov.w	r5, r3, lsl #1
 80001de:	ea94 0f05 	teq	r4, r5
 80001e2:	bf08      	it	eq
 80001e4:	ea90 0f02 	teqeq	r0, r2
 80001e8:	bf1f      	itttt	ne
 80001ea:	ea54 0c00 	orrsne.w	ip, r4, r0
 80001ee:	ea55 0c02 	orrsne.w	ip, r5, r2
 80001f2:	ea7f 5c64 	mvnsne.w	ip, r4, asr #21
 80001f6:	ea7f 5c65 	mvnsne.w	ip, r5, asr #21
 80001fa:	f000 80e2 	beq.w	80003c2 <__adddf3+0x1ee>
 80001fe:	ea4f 5454 	mov.w	r4, r4, lsr #21
 8000202:	ebd4 5555 	rsbs	r5, r4, r5, lsr #21
 8000206:	bfb8      	it	lt
 8000208:	426d      	neglt	r5, r5
 800020a:	dd0c      	ble.n	8000226 <__adddf3+0x52>
 800020c:	442c      	add	r4, r5
 800020e:	ea80 0202 	eor.w	r2, r0, r2
 8000212:	ea81 0303 	eor.w	r3, r1, r3
 8000216:	ea82 0000 	eor.w	r0, r2, r0
 800021a:	ea83 0101 	eor.w	r1, r3, r1
 800021e:	ea80 0202 	eor.w	r2, r0, r2
 8000222:	ea81 0303 	eor.w	r3, r1, r3
 8000226:	2d36      	cmp	r5, #54	; 0x36
 8000228:	bf88      	it	hi
 800022a:	bd30      	pophi	{r4, r5, pc}
 800022c:	f011 4f00 	tst.w	r1, #2147483648	; 0x80000000
 8000230:	ea4f 3101 	mov.w	r1, r1, lsl #12
 8000234:	f44f 1c80 	mov.w	ip, #1048576	; 0x100000
 8000238:	ea4c 3111 	orr.w	r1, ip, r1, lsr #12
 800023c:	d002      	beq.n	8000244 <__adddf3+0x70>
 800023e:	4240      	negs	r0, r0
 8000240:	eb61 0141 	sbc.w	r1, r1, r1, lsl #1
 8000244:	f013 4f00 	tst.w	r3, #2147483648	; 0x80000000
 8000248:	ea4f 3303 	mov.w	r3, r3, lsl #12
 800024c:	ea4c 3313 	orr.w	r3, ip, r3, lsr #12
 8000250:	d002      	beq.n	8000258 <__adddf3+0x84>
 8000252:	4252      	negs	r2, r2
 8000254:	eb63 0343 	sbc.w	r3, r3, r3, lsl #1
 8000258:	ea94 0f05 	teq	r4, r5
 800025c:	f000 80a7 	beq.w	80003ae <__adddf3+0x1da>
 8000260:	f1a4 0401 	sub.w	r4, r4, #1
 8000264:	f1d5 0e20 	rsbs	lr, r5, #32
 8000268:	db0d      	blt.n	8000286 <__adddf3+0xb2>
 800026a:	fa02 fc0e 	lsl.w	ip, r2, lr
 800026e:	fa22 f205 	lsr.w	r2, r2, r5
 8000272:	1880      	adds	r0, r0, r2
 8000274:	f141 0100 	adc.w	r1, r1, #0
 8000278:	fa03 f20e 	lsl.w	r2, r3, lr
 800027c:	1880      	adds	r0, r0, r2
 800027e:	fa43 f305 	asr.w	r3, r3, r5
 8000282:	4159      	adcs	r1, r3
 8000284:	e00e      	b.n	80002a4 <__adddf3+0xd0>
 8000286:	f1a5 0520 	sub.w	r5, r5, #32
 800028a:	f10e 0e20 	add.w	lr, lr, #32
 800028e:	2a01      	cmp	r2, #1
 8000290:	fa03 fc0e 	lsl.w	ip, r3, lr
 8000294:	bf28      	it	cs
 8000296:	f04c 0c02 	orrcs.w	ip, ip, #2
 800029a:	fa43 f305 	asr.w	r3, r3, r5
 800029e:	18c0      	adds	r0, r0, r3
 80002a0:	eb51 71e3 	adcs.w	r1, r1, r3, asr #31
 80002a4:	f001 4500 	and.w	r5, r1, #2147483648	; 0x80000000
 80002a8:	d507      	bpl.n	80002ba <__adddf3+0xe6>
 80002aa:	f04f 0e00 	mov.w	lr, #0
 80002ae:	f1dc 0c00 	rsbs	ip, ip, #0
 80002b2:	eb7e 0000 	sbcs.w	r0, lr, r0
 80002b6:	eb6e 0101 	sbc.w	r1, lr, r1
 80002ba:	f5b1 1f80 	cmp.w	r1, #1048576	; 0x100000
 80002be:	d31b      	bcc.n	80002f8 <__adddf3+0x124>
 80002c0:	f5b1 1f00 	cmp.w	r1, #2097152	; 0x200000
 80002c4:	d30c      	bcc.n	80002e0 <__adddf3+0x10c>
 80002c6:	0849      	lsrs	r1, r1, #1
 80002c8:	ea5f 0030 	movs.w	r0, r0, rrx
 80002cc:	ea4f 0c3c 	mov.w	ip, ip, rrx
 80002d0:	f104 0401 	add.w	r4, r4, #1
 80002d4:	ea4f 5244 	mov.w	r2, r4, lsl #21
 80002d8:	f512 0f80 	cmn.w	r2, #4194304	; 0x400000
 80002dc:	f080 809a 	bcs.w	8000414 <__adddf3+0x240>
 80002e0:	f1bc 4f00 	cmp.w	ip, #2147483648	; 0x80000000
 80002e4:	bf08      	it	eq
 80002e6:	ea5f 0c50 	movseq.w	ip, r0, lsr #1
 80002ea:	f150 0000 	adcs.w	r0, r0, #0
 80002ee:	eb41 5104 	adc.w	r1, r1, r4, lsl #20
 80002f2:	ea41 0105 	orr.w	r1, r1, r5
 80002f6:	bd30      	pop	{r4, r5, pc}
 80002f8:	ea5f 0c4c 	movs.w	ip, ip, lsl #1
 80002fc:	4140      	adcs	r0, r0
 80002fe:	eb41 0101 	adc.w	r1, r1, r1
 8000302:	3c01      	subs	r4, #1
 8000304:	bf28      	it	cs
 8000306:	f5b1 1f80 	cmpcs.w	r1, #1048576	; 0x100000
 800030a:	d2e9      	bcs.n	80002e0 <__adddf3+0x10c>
 800030c:	f091 0f00 	teq	r1, #0
 8000310:	bf04      	itt	eq
 8000312:	4601      	moveq	r1, r0
 8000314:	2000      	moveq	r0, #0
 8000316:	fab1 f381 	clz	r3, r1
 800031a:	bf08      	it	eq
 800031c:	3320      	addeq	r3, #32
 800031e:	f1a3 030b 	sub.w	r3, r3, #11
 8000322:	f1b3 0220 	subs.w	r2, r3, #32
 8000326:	da0c      	bge.n	8000342 <__adddf3+0x16e>
 8000328:	320c      	adds	r2, #12
 800032a:	dd08      	ble.n	800033e <__adddf3+0x16a>
 800032c:	f102 0c14 	add.w	ip, r2, #20
 8000330:	f1c2 020c 	rsb	r2, r2, #12
 8000334:	fa01 f00c 	lsl.w	r0, r1, ip
 8000338:	fa21 f102 	lsr.w	r1, r1, r2
 800033c:	e00c      	b.n	8000358 <__adddf3+0x184>
 800033e:	f102 0214 	add.w	r2, r2, #20
 8000342:	bfd8      	it	le
 8000344:	f1c2 0c20 	rsble	ip, r2, #32
 8000348:	fa01 f102 	lsl.w	r1, r1, r2
 800034c:	fa20 fc0c 	lsr.w	ip, r0, ip
 8000350:	bfdc      	itt	le
 8000352:	ea41 010c 	orrle.w	r1, r1, ip
 8000356:	4090      	lslle	r0, r2
 8000358:	1ae4      	subs	r4, r4, r3
 800035a:	bfa2      	ittt	ge
 800035c:	eb01 5104 	addge.w	r1, r1, r4, lsl #20
 8000360:	4329      	orrge	r1, r5
 8000362:	bd30      	popge	{r4, r5, pc}
 8000364:	ea6f 0404 	mvn.w	r4, r4
 8000368:	3c1f      	subs	r4, #31
 800036a:	da1c      	bge.n	80003a6 <__adddf3+0x1d2>
 800036c:	340c      	adds	r4, #12
 800036e:	dc0e      	bgt.n	800038e <__adddf3+0x1ba>
 8000370:	f104 0414 	add.w	r4, r4, #20
 8000374:	f1c4 0220 	rsb	r2, r4, #32
 8000378:	fa20 f004 	lsr.w	r0, r0, r4
 800037c:	fa01 f302 	lsl.w	r3, r1, r2
 8000380:	ea40 0003 	orr.w	r0, r0, r3
 8000384:	fa21 f304 	lsr.w	r3, r1, r4
 8000388:	ea45 0103 	orr.w	r1, r5, r3
 800038c:	bd30      	pop	{r4, r5, pc}
 800038e:	f1c4 040c 	rsb	r4, r4, #12
 8000392:	f1c4 0220 	rsb	r2, r4, #32
 8000396:	fa20 f002 	lsr.w	r0, r0, r2
 800039a:	fa01 f304 	lsl.w	r3, r1, r4
 800039e:	ea40 0003 	orr.w	r0, r0, r3
 80003a2:	4629      	mov	r1, r5
 80003a4:	bd30      	pop	{r4, r5, pc}
 80003a6:	fa21 f004 	lsr.w	r0, r1, r4
 80003aa:	4629      	mov	r1, r5
 80003ac:	bd30      	pop	{r4, r5, pc}
 80003ae:	f094 0f00 	teq	r4, #0
 80003b2:	f483 1380 	eor.w	r3, r3, #1048576	; 0x100000
 80003b6:	bf06      	itte	eq
 80003b8:	f481 1180 	eoreq.w	r1, r1, #1048576	; 0x100000
 80003bc:	3401      	addeq	r4, #1
 80003be:	3d01      	subne	r5, #1
 80003c0:	e74e      	b.n	8000260 <__adddf3+0x8c>
 80003c2:	ea7f 5c64 	mvns.w	ip, r4, asr #21
 80003c6:	bf18      	it	ne
 80003c8:	ea7f 5c65 	mvnsne.w	ip, r5, asr #21
 80003cc:	d029      	beq.n	8000422 <__adddf3+0x24e>
 80003ce:	ea94 0f05 	teq	r4, r5
 80003d2:	bf08      	it	eq
 80003d4:	ea90 0f02 	teqeq	r0, r2
 80003d8:	d005      	beq.n	80003e6 <__adddf3+0x212>
 80003da:	ea54 0c00 	orrs.w	ip, r4, r0
 80003de:	bf04      	itt	eq
 80003e0:	4619      	moveq	r1, r3
 80003e2:	4610      	moveq	r0, r2
 80003e4:	bd30      	pop	{r4, r5, pc}
 80003e6:	ea91 0f03 	teq	r1, r3
 80003ea:	bf1e      	ittt	ne
 80003ec:	2100      	movne	r1, #0
 80003ee:	2000      	movne	r0, #0
 80003f0:	bd30      	popne	{r4, r5, pc}
 80003f2:	ea5f 5c54 	movs.w	ip, r4, lsr #21
 80003f6:	d105      	bne.n	8000404 <__adddf3+0x230>
 80003f8:	0040      	lsls	r0, r0, #1
 80003fa:	4149      	adcs	r1, r1
 80003fc:	bf28      	it	cs
 80003fe:	f041 4100 	orrcs.w	r1, r1, #2147483648	; 0x80000000
 8000402:	bd30      	pop	{r4, r5, pc}
 8000404:	f514 0480 	adds.w	r4, r4, #4194304	; 0x400000
 8000408:	bf3c      	itt	cc
 800040a:	f501 1180 	addcc.w	r1, r1, #1048576	; 0x100000
 800040e:	bd30      	popcc	{r4, r5, pc}
 8000410:	f001 4500 	and.w	r5, r1, #2147483648	; 0x80000000
 8000414:	f045 41fe 	orr.w	r1, r5, #2130706432	; 0x7f000000
 8000418:	f441 0170 	orr.w	r1, r1, #15728640	; 0xf00000
 800041c:	f04f 0000 	mov.w	r0, #0
 8000420:	bd30      	pop	{r4, r5, pc}
 8000422:	ea7f 5c64 	mvns.w	ip, r4, asr #21
 8000426:	bf1a      	itte	ne
 8000428:	4619      	movne	r1, r3
 800042a:	4610      	movne	r0, r2
 800042c:	ea7f 5c65 	mvnseq.w	ip, r5, asr #21
 8000430:	bf1c      	itt	ne
 8000432:	460b      	movne	r3, r1
 8000434:	4602      	movne	r2, r0
 8000436:	ea50 3401 	orrs.w	r4, r0, r1, lsl #12
 800043a:	bf06      	itte	eq
 800043c:	ea52 3503 	orrseq.w	r5, r2, r3, lsl #12
 8000440:	ea91 0f03 	teqeq	r1, r3
 8000444:	f441 2100 	orrne.w	r1, r1, #524288	; 0x80000
 8000448:	bd30      	pop	{r4, r5, pc}
 800044a:	bf00      	nop

0800044c <__aeabi_ui2d>:
 800044c:	f090 0f00 	teq	r0, #0
 8000450:	bf04      	itt	eq
 8000452:	2100      	moveq	r1, #0
 8000454:	4770      	bxeq	lr
 8000456:	b530      	push	{r4, r5, lr}
 8000458:	f44f 6480 	mov.w	r4, #1024	; 0x400
 800045c:	f104 0432 	add.w	r4, r4, #50	; 0x32
 8000460:	f04f 0500 	mov.w	r5, #0
 8000464:	f04f 0100 	mov.w	r1, #0
 8000468:	e750      	b.n	800030c <__adddf3+0x138>
 800046a:	bf00      	nop

0800046c <__aeabi_i2d>:
 800046c:	f090 0f00 	teq	r0, #0
 8000470:	bf04      	itt	eq
 8000472:	2100      	moveq	r1, #0
 8000474:	4770      	bxeq	lr
 8000476:	b530      	push	{r4, r5, lr}
 8000478:	f44f 6480 	mov.w	r4, #1024	; 0x400
 800047c:	f104 0432 	add.w	r4, r4, #50	; 0x32
 8000480:	f010 4500 	ands.w	r5, r0, #2147483648	; 0x80000000
 8000484:	bf48      	it	mi
 8000486:	4240      	negmi	r0, r0
 8000488:	f04f 0100 	mov.w	r1, #0
 800048c:	e73e      	b.n	800030c <__adddf3+0x138>
 800048e:	bf00      	nop

08000490 <__aeabi_f2d>:
 8000490:	0042      	lsls	r2, r0, #1
 8000492:	ea4f 01e2 	mov.w	r1, r2, asr #3
 8000496:	ea4f 0131 	mov.w	r1, r1, rrx
 800049a:	ea4f 7002 	mov.w	r0, r2, lsl #28
 800049e:	bf1f      	itttt	ne
 80004a0:	f012 437f 	andsne.w	r3, r2, #4278190080	; 0xff000000
 80004a4:	f093 4f7f 	teqne	r3, #4278190080	; 0xff000000
 80004a8:	f081 5160 	eorne.w	r1, r1, #939524096	; 0x38000000
 80004ac:	4770      	bxne	lr
 80004ae:	f032 427f 	bics.w	r2, r2, #4278190080	; 0xff000000
 80004b2:	bf08      	it	eq
 80004b4:	4770      	bxeq	lr
 80004b6:	f093 4f7f 	teq	r3, #4278190080	; 0xff000000
 80004ba:	bf04      	itt	eq
 80004bc:	f441 2100 	orreq.w	r1, r1, #524288	; 0x80000
 80004c0:	4770      	bxeq	lr
 80004c2:	b530      	push	{r4, r5, lr}
 80004c4:	f44f 7460 	mov.w	r4, #896	; 0x380
 80004c8:	f001 4500 	and.w	r5, r1, #2147483648	; 0x80000000
 80004cc:	f021 4100 	bic.w	r1, r1, #2147483648	; 0x80000000
 80004d0:	e71c      	b.n	800030c <__adddf3+0x138>
 80004d2:	bf00      	nop

080004d4 <__aeabi_ul2d>:
 80004d4:	ea50 0201 	orrs.w	r2, r0, r1
 80004d8:	bf08      	it	eq
 80004da:	4770      	bxeq	lr
 80004dc:	b530      	push	{r4, r5, lr}
 80004de:	f04f 0500 	mov.w	r5, #0
 80004e2:	e00a      	b.n	80004fa <__aeabi_l2d+0x16>

080004e4 <__aeabi_l2d>:
 80004e4:	ea50 0201 	orrs.w	r2, r0, r1
 80004e8:	bf08      	it	eq
 80004ea:	4770      	bxeq	lr
 80004ec:	b530      	push	{r4, r5, lr}
 80004ee:	f011 4500 	ands.w	r5, r1, #2147483648	; 0x80000000
 80004f2:	d502      	bpl.n	80004fa <__aeabi_l2d+0x16>
 80004f4:	4240      	negs	r0, r0
 80004f6:	eb61 0141 	sbc.w	r1, r1, r1, lsl #1
 80004fa:	f44f 6480 	mov.w	r4, #1024	; 0x400
 80004fe:	f104 0432 	add.w	r4, r4, #50	; 0x32
 8000502:	ea5f 5c91 	movs.w	ip, r1, lsr #22
 8000506:	f43f aed8 	beq.w	80002ba <__adddf3+0xe6>
 800050a:	f04f 0203 	mov.w	r2, #3
 800050e:	ea5f 0cdc 	movs.w	ip, ip, lsr #3
 8000512:	bf18      	it	ne
 8000514:	3203      	addne	r2, #3
 8000516:	ea5f 0cdc 	movs.w	ip, ip, lsr #3
 800051a:	bf18      	it	ne
 800051c:	3203      	addne	r2, #3
 800051e:	eb02 02dc 	add.w	r2, r2, ip, lsr #3
 8000522:	f1c2 0320 	rsb	r3, r2, #32
 8000526:	fa00 fc03 	lsl.w	ip, r0, r3
 800052a:	fa20 f002 	lsr.w	r0, r0, r2
 800052e:	fa01 fe03 	lsl.w	lr, r1, r3
 8000532:	ea40 000e 	orr.w	r0, r0, lr
 8000536:	fa21 f102 	lsr.w	r1, r1, r2
 800053a:	4414      	add	r4, r2
 800053c:	e6bd      	b.n	80002ba <__adddf3+0xe6>
 800053e:	bf00      	nop

08000540 <__aeabi_dmul>:
 8000540:	b570      	push	{r4, r5, r6, lr}
 8000542:	f04f 0cff 	mov.w	ip, #255	; 0xff
 8000546:	f44c 6ce0 	orr.w	ip, ip, #1792	; 0x700
 800054a:	ea1c 5411 	ands.w	r4, ip, r1, lsr #20
 800054e:	bf1d      	ittte	ne
 8000550:	ea1c 5513 	andsne.w	r5, ip, r3, lsr #20
 8000554:	ea94 0f0c 	teqne	r4, ip
 8000558:	ea95 0f0c 	teqne	r5, ip
 800055c:	f000 f8de 	bleq	800071c <__aeabi_dmul+0x1dc>
 8000560:	442c      	add	r4, r5
 8000562:	ea81 0603 	eor.w	r6, r1, r3
 8000566:	ea21 514c 	bic.w	r1, r1, ip, lsl #21
 800056a:	ea23 534c 	bic.w	r3, r3, ip, lsl #21
 800056e:	ea50 3501 	orrs.w	r5, r0, r1, lsl #12
 8000572:	bf18      	it	ne
 8000574:	ea52 3503 	orrsne.w	r5, r2, r3, lsl #12
 8000578:	f441 1180 	orr.w	r1, r1, #1048576	; 0x100000
 800057c:	f443 1380 	orr.w	r3, r3, #1048576	; 0x100000
 8000580:	d038      	beq.n	80005f4 <__aeabi_dmul+0xb4>
 8000582:	fba0 ce02 	umull	ip, lr, r0, r2
 8000586:	f04f 0500 	mov.w	r5, #0
 800058a:	fbe1 e502 	umlal	lr, r5, r1, r2
 800058e:	f006 4200 	and.w	r2, r6, #2147483648	; 0x80000000
 8000592:	fbe0 e503 	umlal	lr, r5, r0, r3
 8000596:	f04f 0600 	mov.w	r6, #0
 800059a:	fbe1 5603 	umlal	r5, r6, r1, r3
 800059e:	f09c 0f00 	teq	ip, #0
 80005a2:	bf18      	it	ne
 80005a4:	f04e 0e01 	orrne.w	lr, lr, #1
 80005a8:	f1a4 04ff 	sub.w	r4, r4, #255	; 0xff
 80005ac:	f5b6 7f00 	cmp.w	r6, #512	; 0x200
 80005b0:	f564 7440 	sbc.w	r4, r4, #768	; 0x300
 80005b4:	d204      	bcs.n	80005c0 <__aeabi_dmul+0x80>
 80005b6:	ea5f 0e4e 	movs.w	lr, lr, lsl #1
 80005ba:	416d      	adcs	r5, r5
 80005bc:	eb46 0606 	adc.w	r6, r6, r6
 80005c0:	ea42 21c6 	orr.w	r1, r2, r6, lsl #11
 80005c4:	ea41 5155 	orr.w	r1, r1, r5, lsr #21
 80005c8:	ea4f 20c5 	mov.w	r0, r5, lsl #11
 80005cc:	ea40 505e 	orr.w	r0, r0, lr, lsr #21
 80005d0:	ea4f 2ece 	mov.w	lr, lr, lsl #11
 80005d4:	f1b4 0cfd 	subs.w	ip, r4, #253	; 0xfd
 80005d8:	bf88      	it	hi
 80005da:	f5bc 6fe0 	cmphi.w	ip, #1792	; 0x700
 80005de:	d81e      	bhi.n	800061e <__aeabi_dmul+0xde>
 80005e0:	f1be 4f00 	cmp.w	lr, #2147483648	; 0x80000000
 80005e4:	bf08      	it	eq
 80005e6:	ea5f 0e50 	movseq.w	lr, r0, lsr #1
 80005ea:	f150 0000 	adcs.w	r0, r0, #0
 80005ee:	eb41 5104 	adc.w	r1, r1, r4, lsl #20
 80005f2:	bd70      	pop	{r4, r5, r6, pc}
 80005f4:	f006 4600 	and.w	r6, r6, #2147483648	; 0x80000000
 80005f8:	ea46 0101 	orr.w	r1, r6, r1
 80005fc:	ea40 0002 	orr.w	r0, r0, r2
 8000600:	ea81 0103 	eor.w	r1, r1, r3
 8000604:	ebb4 045c 	subs.w	r4, r4, ip, lsr #1
 8000608:	bfc2      	ittt	gt
 800060a:	ebd4 050c 	rsbsgt	r5, r4, ip
 800060e:	ea41 5104 	orrgt.w	r1, r1, r4, lsl #20
 8000612:	bd70      	popgt	{r4, r5, r6, pc}
 8000614:	f441 1180 	orr.w	r1, r1, #1048576	; 0x100000
 8000618:	f04f 0e00 	mov.w	lr, #0
 800061c:	3c01      	subs	r4, #1
 800061e:	f300 80ab 	bgt.w	8000778 <__aeabi_dmul+0x238>
 8000622:	f114 0f36 	cmn.w	r4, #54	; 0x36
 8000626:	bfde      	ittt	le
 8000628:	2000      	movle	r0, #0
 800062a:	f001 4100 	andle.w	r1, r1, #2147483648	; 0x80000000
 800062e:	bd70      	pople	{r4, r5, r6, pc}
 8000630:	f1c4 0400 	rsb	r4, r4, #0
 8000634:	3c20      	subs	r4, #32
 8000636:	da35      	bge.n	80006a4 <__aeabi_dmul+0x164>
 8000638:	340c      	adds	r4, #12
 800063a:	dc1b      	bgt.n	8000674 <__aeabi_dmul+0x134>
 800063c:	f104 0414 	add.w	r4, r4, #20
 8000640:	f1c4 0520 	rsb	r5, r4, #32
 8000644:	fa00 f305 	lsl.w	r3, r0, r5
 8000648:	fa20 f004 	lsr.w	r0, r0, r4
 800064c:	fa01 f205 	lsl.w	r2, r1, r5
 8000650:	ea40 0002 	orr.w	r0, r0, r2
 8000654:	f001 4200 	and.w	r2, r1, #2147483648	; 0x80000000
 8000658:	f021 4100 	bic.w	r1, r1, #2147483648	; 0x80000000
 800065c:	eb10 70d3 	adds.w	r0, r0, r3, lsr #31
 8000660:	fa21 f604 	lsr.w	r6, r1, r4
 8000664:	eb42 0106 	adc.w	r1, r2, r6
 8000668:	ea5e 0e43 	orrs.w	lr, lr, r3, lsl #1
 800066c:	bf08      	it	eq
 800066e:	ea20 70d3 	biceq.w	r0, r0, r3, lsr #31
 8000672:	bd70      	pop	{r4, r5, r6, pc}
 8000674:	f1c4 040c 	rsb	r4, r4, #12
 8000678:	f1c4 0520 	rsb	r5, r4, #32
 800067c:	fa00 f304 	lsl.w	r3, r0, r4
 8000680:	fa20 f005 	lsr.w	r0, r0, r5
 8000684:	fa01 f204 	lsl.w	r2, r1, r4
 8000688:	ea40 0002 	orr.w	r0, r0, r2
 800068c:	f001 4100 	and.w	r1, r1, #2147483648	; 0x80000000
 8000690:	eb10 70d3 	adds.w	r0, r0, r3, lsr #31
 8000694:	f141 0100 	adc.w	r1, r1, #0
 8000698:	ea5e 0e43 	orrs.w	lr, lr, r3, lsl #1
 800069c:	bf08      	it	eq
 800069e:	ea20 70d3 	biceq.w	r0, r0, r3, lsr #31
 80006a2:	bd70      	pop	{r4, r5, r6, pc}
 80006a4:	f1c4 0520 	rsb	r5, r4, #32
 80006a8:	fa00 f205 	lsl.w	r2, r0, r5
 80006ac:	ea4e 0e02 	orr.w	lr, lr, r2
 80006b0:	fa20 f304 	lsr.w	r3, r0, r4
 80006b4:	fa01 f205 	lsl.w	r2, r1, r5
 80006b8:	ea43 0302 	orr.w	r3, r3, r2
 80006bc:	fa21 f004 	lsr.w	r0, r1, r4
 80006c0:	f001 4100 	and.w	r1, r1, #2147483648	; 0x80000000
 80006c4:	fa21 f204 	lsr.w	r2, r1, r4
 80006c8:	ea20 0002 	bic.w	r0, r0, r2
 80006cc:	eb00 70d3 	add.w	r0, r0, r3, lsr #31
 80006d0:	ea5e 0e43 	orrs.w	lr, lr, r3, lsl #1
 80006d4:	bf08      	it	eq
 80006d6:	ea20 70d3 	biceq.w	r0, r0, r3, lsr #31
 80006da:	bd70      	pop	{r4, r5, r6, pc}
 80006dc:	f094 0f00 	teq	r4, #0
 80006e0:	d10f      	bne.n	8000702 <__aeabi_dmul+0x1c2>
 80006e2:	f001 4600 	and.w	r6, r1, #2147483648	; 0x80000000
 80006e6:	0040      	lsls	r0, r0, #1
 80006e8:	eb41 0101 	adc.w	r1, r1, r1
 80006ec:	f411 1f80 	tst.w	r1, #1048576	; 0x100000
 80006f0:	bf08      	it	eq
 80006f2:	3c01      	subeq	r4, #1
 80006f4:	d0f7      	beq.n	80006e6 <__aeabi_dmul+0x1a6>
 80006f6:	ea41 0106 	orr.w	r1, r1, r6
 80006fa:	f095 0f00 	teq	r5, #0
 80006fe:	bf18      	it	ne
 8000700:	4770      	bxne	lr
 8000702:	f003 4600 	and.w	r6, r3, #2147483648	; 0x80000000
 8000706:	0052      	lsls	r2, r2, #1
 8000708:	eb43 0303 	adc.w	r3, r3, r3
 800070c:	f413 1f80 	tst.w	r3, #1048576	; 0x100000
 8000710:	bf08      	it	eq
 8000712:	3d01      	subeq	r5, #1
 8000714:	d0f7      	beq.n	8000706 <__aeabi_dmul+0x1c6>
 8000716:	ea43 0306 	orr.w	r3, r3, r6
 800071a:	4770      	bx	lr
 800071c:	ea94 0f0c 	teq	r4, ip
 8000720:	ea0c 5513 	and.w	r5, ip, r3, lsr #20
 8000724:	bf18      	it	ne
 8000726:	ea95 0f0c 	teqne	r5, ip
 800072a:	d00c      	beq.n	8000746 <__aeabi_dmul+0x206>
 800072c:	ea50 0641 	orrs.w	r6, r0, r1, lsl #1
 8000730:	bf18      	it	ne
 8000732:	ea52 0643 	orrsne.w	r6, r2, r3, lsl #1
 8000736:	d1d1      	bne.n	80006dc <__aeabi_dmul+0x19c>
 8000738:	ea81 0103 	eor.w	r1, r1, r3
 800073c:	f001 4100 	and.w	r1, r1, #2147483648	; 0x80000000
 8000740:	f04f 0000 	mov.w	r0, #0
 8000744:	bd70      	pop	{r4, r5, r6, pc}
 8000746:	ea50 0641 	orrs.w	r6, r0, r1, lsl #1
 800074a:	bf06      	itte	eq
 800074c:	4610      	moveq	r0, r2
 800074e:	4619      	moveq	r1, r3
 8000750:	ea52 0643 	orrsne.w	r6, r2, r3, lsl #1
 8000754:	d019      	beq.n	800078a <__aeabi_dmul+0x24a>
 8000756:	ea94 0f0c 	teq	r4, ip
 800075a:	d102      	bne.n	8000762 <__aeabi_dmul+0x222>
 800075c:	ea50 3601 	orrs.w	r6, r0, r1, lsl #12
 8000760:	d113      	bne.n	800078a <__aeabi_dmul+0x24a>
 8000762:	ea95 0f0c 	teq	r5, ip
 8000766:	d105      	bne.n	8000774 <__aeabi_dmul+0x234>
 8000768:	ea52 3603 	orrs.w	r6, r2, r3, lsl #12
 800076c:	bf1c      	itt	ne
 800076e:	4610      	movne	r0, r2
 8000770:	4619      	movne	r1, r3
 8000772:	d10a      	bne.n	800078a <__aeabi_dmul+0x24a>
 8000774:	ea81 0103 	eor.w	r1, r1, r3
 8000778:	f001 4100 	and.w	r1, r1, #2147483648	; 0x80000000
 800077c:	f041 41fe 	orr.w	r1, r1, #2130706432	; 0x7f000000
 8000780:	f441 0170 	orr.w	r1, r1, #15728640	; 0xf00000
 8000784:	f04f 0000 	mov.w	r0, #0
 8000788:	bd70      	pop	{r4, r5, r6, pc}
 800078a:	f041 41fe 	orr.w	r1, r1, #2130706432	; 0x7f000000
 800078e:	f441 0178 	orr.w	r1, r1, #16252928	; 0xf80000
 8000792:	bd70      	pop	{r4, r5, r6, pc}

08000794 <__aeabi_ddiv>:
 8000794:	b570      	push	{r4, r5, r6, lr}
 8000796:	f04f 0cff 	mov.w	ip, #255	; 0xff
 800079a:	f44c 6ce0 	orr.w	ip, ip, #1792	; 0x700
 800079e:	ea1c 5411 	ands.w	r4, ip, r1, lsr #20
 80007a2:	bf1d      	ittte	ne
 80007a4:	ea1c 5513 	andsne.w	r5, ip, r3, lsr #20
 80007a8:	ea94 0f0c 	teqne	r4, ip
 80007ac:	ea95 0f0c 	teqne	r5, ip
 80007b0:	f000 f8a7 	bleq	8000902 <__aeabi_ddiv+0x16e>
 80007b4:	eba4 0405 	sub.w	r4, r4, r5
 80007b8:	ea81 0e03 	eor.w	lr, r1, r3
 80007bc:	ea52 3503 	orrs.w	r5, r2, r3, lsl #12
 80007c0:	ea4f 3101 	mov.w	r1, r1, lsl #12
 80007c4:	f000 8088 	beq.w	80008d8 <__aeabi_ddiv+0x144>
 80007c8:	ea4f 3303 	mov.w	r3, r3, lsl #12
 80007cc:	f04f 5580 	mov.w	r5, #268435456	; 0x10000000
 80007d0:	ea45 1313 	orr.w	r3, r5, r3, lsr #4
 80007d4:	ea43 6312 	orr.w	r3, r3, r2, lsr #24
 80007d8:	ea4f 2202 	mov.w	r2, r2, lsl #8
 80007dc:	ea45 1511 	orr.w	r5, r5, r1, lsr #4
 80007e0:	ea45 6510 	orr.w	r5, r5, r0, lsr #24
 80007e4:	ea4f 2600 	mov.w	r6, r0, lsl #8
 80007e8:	f00e 4100 	and.w	r1, lr, #2147483648	; 0x80000000
 80007ec:	429d      	cmp	r5, r3
 80007ee:	bf08      	it	eq
 80007f0:	4296      	cmpeq	r6, r2
 80007f2:	f144 04fd 	adc.w	r4, r4, #253	; 0xfd
 80007f6:	f504 7440 	add.w	r4, r4, #768	; 0x300
 80007fa:	d202      	bcs.n	8000802 <__aeabi_ddiv+0x6e>
 80007fc:	085b      	lsrs	r3, r3, #1
 80007fe:	ea4f 0232 	mov.w	r2, r2, rrx
 8000802:	1ab6      	subs	r6, r6, r2
 8000804:	eb65 0503 	sbc.w	r5, r5, r3
 8000808:	085b      	lsrs	r3, r3, #1
 800080a:	ea4f 0232 	mov.w	r2, r2, rrx
 800080e:	f44f 1080 	mov.w	r0, #1048576	; 0x100000
 8000812:	f44f 2c00 	mov.w	ip, #524288	; 0x80000
 8000816:	ebb6 0e02 	subs.w	lr, r6, r2
 800081a:	eb75 0e03 	sbcs.w	lr, r5, r3
 800081e:	bf22      	ittt	cs
 8000820:	1ab6      	subcs	r6, r6, r2
 8000822:	4675      	movcs	r5, lr
 8000824:	ea40 000c 	orrcs.w	r0, r0, ip
 8000828:	085b      	lsrs	r3, r3, #1
 800082a:	ea4f 0232 	mov.w	r2, r2, rrx
 800082e:	ebb6 0e02 	subs.w	lr, r6, r2
 8000832:	eb75 0e03 	sbcs.w	lr, r5, r3
 8000836:	bf22      	ittt	cs
 8000838:	1ab6      	subcs	r6, r6, r2
 800083a:	4675      	movcs	r5, lr
 800083c:	ea40 005c 	orrcs.w	r0, r0, ip, lsr #1
 8000840:	085b      	lsrs	r3, r3, #1
 8000842:	ea4f 0232 	mov.w	r2, r2, rrx
 8000846:	ebb6 0e02 	subs.w	lr, r6, r2
 800084a:	eb75 0e03 	sbcs.w	lr, r5, r3
 800084e:	bf22      	ittt	cs
 8000850:	1ab6      	subcs	r6, r6, r2
 8000852:	4675      	movcs	r5, lr
 8000854:	ea40 009c 	orrcs.w	r0, r0, ip, lsr #2
 8000858:	085b      	lsrs	r3, r3, #1
 800085a:	ea4f 0232 	mov.w	r2, r2, rrx
 800085e:	ebb6 0e02 	subs.w	lr, r6, r2
 8000862:	eb75 0e03 	sbcs.w	lr, r5, r3
 8000866:	bf22      	ittt	cs
 8000868:	1ab6      	subcs	r6, r6, r2
 800086a:	4675      	movcs	r5, lr
 800086c:	ea40 00dc 	orrcs.w	r0, r0, ip, lsr #3
 8000870:	ea55 0e06 	orrs.w	lr, r5, r6
 8000874:	d018      	beq.n	80008a8 <__aeabi_ddiv+0x114>
 8000876:	ea4f 1505 	mov.w	r5, r5, lsl #4
 800087a:	ea45 7516 	orr.w	r5, r5, r6, lsr #28
 800087e:	ea4f 1606 	mov.w	r6, r6, lsl #4
 8000882:	ea4f 03c3 	mov.w	r3, r3, lsl #3
 8000886:	ea43 7352 	orr.w	r3, r3, r2, lsr #29
 800088a:	ea4f 02c2 	mov.w	r2, r2, lsl #3
 800088e:	ea5f 1c1c 	movs.w	ip, ip, lsr #4
 8000892:	d1c0      	bne.n	8000816 <__aeabi_ddiv+0x82>
 8000894:	f411 1f80 	tst.w	r1, #1048576	; 0x100000
 8000898:	d10b      	bne.n	80008b2 <__aeabi_ddiv+0x11e>
 800089a:	ea41 0100 	orr.w	r1, r1, r0
 800089e:	f04f 0000 	mov.w	r0, #0
 80008a2:	f04f 4c00 	mov.w	ip, #2147483648	; 0x80000000
 80008a6:	e7b6      	b.n	8000816 <__aeabi_ddiv+0x82>
 80008a8:	f411 1f80 	tst.w	r1, #1048576	; 0x100000
 80008ac:	bf04      	itt	eq
 80008ae:	4301      	orreq	r1, r0
 80008b0:	2000      	moveq	r0, #0
 80008b2:	f1b4 0cfd 	subs.w	ip, r4, #253	; 0xfd
 80008b6:	bf88      	it	hi
 80008b8:	f5bc 6fe0 	cmphi.w	ip, #1792	; 0x700
 80008bc:	f63f aeaf 	bhi.w	800061e <__aeabi_dmul+0xde>
 80008c0:	ebb5 0c03 	subs.w	ip, r5, r3
 80008c4:	bf04      	itt	eq
 80008c6:	ebb6 0c02 	subseq.w	ip, r6, r2
 80008ca:	ea5f 0c50 	movseq.w	ip, r0, lsr #1
 80008ce:	f150 0000 	adcs.w	r0, r0, #0
 80008d2:	eb41 5104 	adc.w	r1, r1, r4, lsl #20
 80008d6:	bd70      	pop	{r4, r5, r6, pc}
 80008d8:	f00e 4e00 	and.w	lr, lr, #2147483648	; 0x80000000
 80008dc:	ea4e 3111 	orr.w	r1, lr, r1, lsr #12
 80008e0:	eb14 045c 	adds.w	r4, r4, ip, lsr #1
 80008e4:	bfc2      	ittt	gt
 80008e6:	ebd4 050c 	rsbsgt	r5, r4, ip
 80008ea:	ea41 5104 	orrgt.w	r1, r1, r4, lsl #20
 80008ee:	bd70      	popgt	{r4, r5, r6, pc}
 80008f0:	f441 1180 	orr.w	r1, r1, #1048576	; 0x100000
 80008f4:	f04f 0e00 	mov.w	lr, #0
 80008f8:	3c01      	subs	r4, #1
 80008fa:	e690      	b.n	800061e <__aeabi_dmul+0xde>
 80008fc:	ea45 0e06 	orr.w	lr, r5, r6
 8000900:	e68d      	b.n	800061e <__aeabi_dmul+0xde>
 8000902:	ea0c 5513 	and.w	r5, ip, r3, lsr #20
 8000906:	ea94 0f0c 	teq	r4, ip
 800090a:	bf08      	it	eq
 800090c:	ea95 0f0c 	teqeq	r5, ip
 8000910:	f43f af3b 	beq.w	800078a <__aeabi_dmul+0x24a>
 8000914:	ea94 0f0c 	teq	r4, ip
 8000918:	d10a      	bne.n	8000930 <__aeabi_ddiv+0x19c>
 800091a:	ea50 3401 	orrs.w	r4, r0, r1, lsl #12
 800091e:	f47f af34 	bne.w	800078a <__aeabi_dmul+0x24a>
 8000922:	ea95 0f0c 	teq	r5, ip
 8000926:	f47f af25 	bne.w	8000774 <__aeabi_dmul+0x234>
 800092a:	4610      	mov	r0, r2
 800092c:	4619      	mov	r1, r3
 800092e:	e72c      	b.n	800078a <__aeabi_dmul+0x24a>
 8000930:	ea95 0f0c 	teq	r5, ip
 8000934:	d106      	bne.n	8000944 <__aeabi_ddiv+0x1b0>
 8000936:	ea52 3503 	orrs.w	r5, r2, r3, lsl #12
 800093a:	f43f aefd 	beq.w	8000738 <__aeabi_dmul+0x1f8>
 800093e:	4610      	mov	r0, r2
 8000940:	4619      	mov	r1, r3
 8000942:	e722      	b.n	800078a <__aeabi_dmul+0x24a>
 8000944:	ea50 0641 	orrs.w	r6, r0, r1, lsl #1
 8000948:	bf18      	it	ne
 800094a:	ea52 0643 	orrsne.w	r6, r2, r3, lsl #1
 800094e:	f47f aec5 	bne.w	80006dc <__aeabi_dmul+0x19c>
 8000952:	ea50 0441 	orrs.w	r4, r0, r1, lsl #1
 8000956:	f47f af0d 	bne.w	8000774 <__aeabi_dmul+0x234>
 800095a:	ea52 0543 	orrs.w	r5, r2, r3, lsl #1
 800095e:	f47f aeeb 	bne.w	8000738 <__aeabi_dmul+0x1f8>
 8000962:	e712      	b.n	800078a <__aeabi_dmul+0x24a>

08000964 <__aeabi_d2f>:
 8000964:	ea4f 0241 	mov.w	r2, r1, lsl #1
 8000968:	f1b2 43e0 	subs.w	r3, r2, #1879048192	; 0x70000000
 800096c:	bf24      	itt	cs
 800096e:	f5b3 1c00 	subscs.w	ip, r3, #2097152	; 0x200000
 8000972:	f1dc 5cfe 	rsbscs	ip, ip, #532676608	; 0x1fc00000
 8000976:	d90d      	bls.n	8000994 <__aeabi_d2f+0x30>
 8000978:	f001 4c00 	and.w	ip, r1, #2147483648	; 0x80000000
 800097c:	ea4f 02c0 	mov.w	r2, r0, lsl #3
 8000980:	ea4c 7050 	orr.w	r0, ip, r0, lsr #29
 8000984:	f1b2 4f00 	cmp.w	r2, #2147483648	; 0x80000000
 8000988:	eb40 0083 	adc.w	r0, r0, r3, lsl #2
 800098c:	bf08      	it	eq
 800098e:	f020 0001 	biceq.w	r0, r0, #1
 8000992:	4770      	bx	lr
 8000994:	f011 4f80 	tst.w	r1, #1073741824	; 0x40000000
 8000998:	d121      	bne.n	80009de <__aeabi_d2f+0x7a>
 800099a:	f113 7238 	adds.w	r2, r3, #48234496	; 0x2e00000
 800099e:	bfbc      	itt	lt
 80009a0:	f001 4000 	andlt.w	r0, r1, #2147483648	; 0x80000000
 80009a4:	4770      	bxlt	lr
 80009a6:	f441 1180 	orr.w	r1, r1, #1048576	; 0x100000
 80009aa:	ea4f 5252 	mov.w	r2, r2, lsr #21
 80009ae:	f1c2 0218 	rsb	r2, r2, #24
 80009b2:	f1c2 0c20 	rsb	ip, r2, #32
 80009b6:	fa10 f30c 	lsls.w	r3, r0, ip
 80009ba:	fa20 f002 	lsr.w	r0, r0, r2
 80009be:	bf18      	it	ne
 80009c0:	f040 0001 	orrne.w	r0, r0, #1
 80009c4:	ea4f 23c1 	mov.w	r3, r1, lsl #11
 80009c8:	ea4f 23d3 	mov.w	r3, r3, lsr #11
 80009cc:	fa03 fc0c 	lsl.w	ip, r3, ip
 80009d0:	ea40 000c 	orr.w	r0, r0, ip
 80009d4:	fa23 f302 	lsr.w	r3, r3, r2
 80009d8:	ea4f 0343 	mov.w	r3, r3, lsl #1
 80009dc:	e7cc      	b.n	8000978 <__aeabi_d2f+0x14>
 80009de:	ea7f 5362 	mvns.w	r3, r2, asr #21
 80009e2:	d107      	bne.n	80009f4 <__aeabi_d2f+0x90>
 80009e4:	ea50 3301 	orrs.w	r3, r0, r1, lsl #12
 80009e8:	bf1e      	ittt	ne
 80009ea:	f04f 40fe 	movne.w	r0, #2130706432	; 0x7f000000
 80009ee:	f440 0040 	orrne.w	r0, r0, #12582912	; 0xc00000
 80009f2:	4770      	bxne	lr
 80009f4:	f001 4000 	and.w	r0, r1, #2147483648	; 0x80000000
 80009f8:	f040 40fe 	orr.w	r0, r0, #2130706432	; 0x7f000000
 80009fc:	f440 0000 	orr.w	r0, r0, #8388608	; 0x800000
 8000a00:	4770      	bx	lr
 8000a02:	bf00      	nop

08000a04 <__aeabi_uldivmod>:
 8000a04:	b953      	cbnz	r3, 8000a1c <__aeabi_uldivmod+0x18>
 8000a06:	b94a      	cbnz	r2, 8000a1c <__aeabi_uldivmod+0x18>
 8000a08:	2900      	cmp	r1, #0
 8000a0a:	bf08      	it	eq
 8000a0c:	2800      	cmpeq	r0, #0
 8000a0e:	bf1c      	itt	ne
 8000a10:	f04f 31ff 	movne.w	r1, #4294967295
 8000a14:	f04f 30ff 	movne.w	r0, #4294967295
 8000a18:	f000 b96e 	b.w	8000cf8 <__aeabi_idiv0>
 8000a1c:	f1ad 0c08 	sub.w	ip, sp, #8
 8000a20:	e96d ce04 	strd	ip, lr, [sp, #-16]!
 8000a24:	f000 f806 	bl	8000a34 <__udivmoddi4>
 8000a28:	f8dd e004 	ldr.w	lr, [sp, #4]
 8000a2c:	e9dd 2302 	ldrd	r2, r3, [sp, #8]
 8000a30:	b004      	add	sp, #16
 8000a32:	4770      	bx	lr

08000a34 <__udivmoddi4>:
 8000a34:	e92d 47f0 	stmdb	sp!, {r4, r5, r6, r7, r8, r9, sl, lr}
 8000a38:	9d08      	ldr	r5, [sp, #32]
 8000a3a:	4604      	mov	r4, r0
 8000a3c:	468c      	mov	ip, r1
 8000a3e:	2b00      	cmp	r3, #0
 8000a40:	f040 8083 	bne.w	8000b4a <__udivmoddi4+0x116>
 8000a44:	428a      	cmp	r2, r1
 8000a46:	4617      	mov	r7, r2
 8000a48:	d947      	bls.n	8000ada <__udivmoddi4+0xa6>
 8000a4a:	fab2 f282 	clz	r2, r2
 8000a4e:	b142      	cbz	r2, 8000a62 <__udivmoddi4+0x2e>
 8000a50:	f1c2 0020 	rsb	r0, r2, #32
 8000a54:	fa24 f000 	lsr.w	r0, r4, r0
 8000a58:	4091      	lsls	r1, r2
 8000a5a:	4097      	lsls	r7, r2
 8000a5c:	ea40 0c01 	orr.w	ip, r0, r1
 8000a60:	4094      	lsls	r4, r2
 8000a62:	ea4f 4817 	mov.w	r8, r7, lsr #16
 8000a66:	0c23      	lsrs	r3, r4, #16
 8000a68:	fbbc f6f8 	udiv	r6, ip, r8
 8000a6c:	fa1f fe87 	uxth.w	lr, r7
 8000a70:	fb08 c116 	mls	r1, r8, r6, ip
 8000a74:	ea43 4301 	orr.w	r3, r3, r1, lsl #16
 8000a78:	fb06 f10e 	mul.w	r1, r6, lr
 8000a7c:	4299      	cmp	r1, r3
 8000a7e:	d909      	bls.n	8000a94 <__udivmoddi4+0x60>
 8000a80:	18fb      	adds	r3, r7, r3
 8000a82:	f106 30ff 	add.w	r0, r6, #4294967295
 8000a86:	f080 8119 	bcs.w	8000cbc <__udivmoddi4+0x288>
 8000a8a:	4299      	cmp	r1, r3
 8000a8c:	f240 8116 	bls.w	8000cbc <__udivmoddi4+0x288>
 8000a90:	3e02      	subs	r6, #2
 8000a92:	443b      	add	r3, r7
 8000a94:	1a5b      	subs	r3, r3, r1
 8000a96:	b2a4      	uxth	r4, r4
 8000a98:	fbb3 f0f8 	udiv	r0, r3, r8
 8000a9c:	fb08 3310 	mls	r3, r8, r0, r3
 8000aa0:	ea44 4403 	orr.w	r4, r4, r3, lsl #16
 8000aa4:	fb00 fe0e 	mul.w	lr, r0, lr
 8000aa8:	45a6      	cmp	lr, r4
 8000aaa:	d909      	bls.n	8000ac0 <__udivmoddi4+0x8c>
 8000aac:	193c      	adds	r4, r7, r4
 8000aae:	f100 33ff 	add.w	r3, r0, #4294967295
 8000ab2:	f080 8105 	bcs.w	8000cc0 <__udivmoddi4+0x28c>
 8000ab6:	45a6      	cmp	lr, r4
 8000ab8:	f240 8102 	bls.w	8000cc0 <__udivmoddi4+0x28c>
 8000abc:	3802      	subs	r0, #2
 8000abe:	443c      	add	r4, r7
 8000ac0:	ea40 4006 	orr.w	r0, r0, r6, lsl #16
 8000ac4:	eba4 040e 	sub.w	r4, r4, lr
 8000ac8:	2600      	movs	r6, #0
 8000aca:	b11d      	cbz	r5, 8000ad4 <__udivmoddi4+0xa0>
 8000acc:	40d4      	lsrs	r4, r2
 8000ace:	2300      	movs	r3, #0
 8000ad0:	e9c5 4300 	strd	r4, r3, [r5]
 8000ad4:	4631      	mov	r1, r6
 8000ad6:	e8bd 87f0 	ldmia.w	sp!, {r4, r5, r6, r7, r8, r9, sl, pc}
 8000ada:	b902      	cbnz	r2, 8000ade <__udivmoddi4+0xaa>
 8000adc:	deff      	udf	#255	; 0xff
 8000ade:	fab2 f282 	clz	r2, r2
 8000ae2:	2a00      	cmp	r2, #0
 8000ae4:	d150      	bne.n	8000b88 <__udivmoddi4+0x154>
 8000ae6:	1bcb      	subs	r3, r1, r7
 8000ae8:	ea4f 4e17 	mov.w	lr, r7, lsr #16
 8000aec:	fa1f f887 	uxth.w	r8, r7
 8000af0:	2601      	movs	r6, #1
 8000af2:	fbb3 fcfe 	udiv	ip, r3, lr
 8000af6:	0c21      	lsrs	r1, r4, #16
 8000af8:	fb0e 331c 	mls	r3, lr, ip, r3
 8000afc:	ea41 4103 	orr.w	r1, r1, r3, lsl #16
 8000b00:	fb08 f30c 	mul.w	r3, r8, ip
 8000b04:	428b      	cmp	r3, r1
 8000b06:	d907      	bls.n	8000b18 <__udivmoddi4+0xe4>
 8000b08:	1879      	adds	r1, r7, r1
 8000b0a:	f10c 30ff 	add.w	r0, ip, #4294967295
 8000b0e:	d202      	bcs.n	8000b16 <__udivmoddi4+0xe2>
 8000b10:	428b      	cmp	r3, r1
 8000b12:	f200 80e9 	bhi.w	8000ce8 <__udivmoddi4+0x2b4>
 8000b16:	4684      	mov	ip, r0
 8000b18:	1ac9      	subs	r1, r1, r3
 8000b1a:	b2a3      	uxth	r3, r4
 8000b1c:	fbb1 f0fe 	udiv	r0, r1, lr
 8000b20:	fb0e 1110 	mls	r1, lr, r0, r1
 8000b24:	ea43 4401 	orr.w	r4, r3, r1, lsl #16
 8000b28:	fb08 f800 	mul.w	r8, r8, r0
 8000b2c:	45a0      	cmp	r8, r4
 8000b2e:	d907      	bls.n	8000b40 <__udivmoddi4+0x10c>
 8000b30:	193c      	adds	r4, r7, r4
 8000b32:	f100 33ff 	add.w	r3, r0, #4294967295
 8000b36:	d202      	bcs.n	8000b3e <__udivmoddi4+0x10a>
 8000b38:	45a0      	cmp	r8, r4
 8000b3a:	f200 80d9 	bhi.w	8000cf0 <__udivmoddi4+0x2bc>
 8000b3e:	4618      	mov	r0, r3
 8000b40:	eba4 0408 	sub.w	r4, r4, r8
 8000b44:	ea40 400c 	orr.w	r0, r0, ip, lsl #16
 8000b48:	e7bf      	b.n	8000aca <__udivmoddi4+0x96>
 8000b4a:	428b      	cmp	r3, r1
 8000b4c:	d909      	bls.n	8000b62 <__udivmoddi4+0x12e>
 8000b4e:	2d00      	cmp	r5, #0
 8000b50:	f000 80b1 	beq.w	8000cb6 <__udivmoddi4+0x282>
 8000b54:	2600      	movs	r6, #0
 8000b56:	e9c5 0100 	strd	r0, r1, [r5]
 8000b5a:	4630      	mov	r0, r6
 8000b5c:	4631      	mov	r1, r6
 8000b5e:	e8bd 87f0 	ldmia.w	sp!, {r4, r5, r6, r7, r8, r9, sl, pc}
 8000b62:	fab3 f683 	clz	r6, r3
 8000b66:	2e00      	cmp	r6, #0
 8000b68:	d14a      	bne.n	8000c00 <__udivmoddi4+0x1cc>
 8000b6a:	428b      	cmp	r3, r1
 8000b6c:	d302      	bcc.n	8000b74 <__udivmoddi4+0x140>
 8000b6e:	4282      	cmp	r2, r0
 8000b70:	f200 80b8 	bhi.w	8000ce4 <__udivmoddi4+0x2b0>
 8000b74:	1a84      	subs	r4, r0, r2
 8000b76:	eb61 0103 	sbc.w	r1, r1, r3
 8000b7a:	2001      	movs	r0, #1
 8000b7c:	468c      	mov	ip, r1
 8000b7e:	2d00      	cmp	r5, #0
 8000b80:	d0a8      	beq.n	8000ad4 <__udivmoddi4+0xa0>
 8000b82:	e9c5 4c00 	strd	r4, ip, [r5]
 8000b86:	e7a5      	b.n	8000ad4 <__udivmoddi4+0xa0>
 8000b88:	f1c2 0320 	rsb	r3, r2, #32
 8000b8c:	fa20 f603 	lsr.w	r6, r0, r3
 8000b90:	4097      	lsls	r7, r2
 8000b92:	fa01 f002 	lsl.w	r0, r1, r2
 8000b96:	ea4f 4e17 	mov.w	lr, r7, lsr #16
 8000b9a:	40d9      	lsrs	r1, r3
 8000b9c:	4330      	orrs	r0, r6
 8000b9e:	0c03      	lsrs	r3, r0, #16
 8000ba0:	fbb1 f6fe 	udiv	r6, r1, lr
 8000ba4:	fa1f f887 	uxth.w	r8, r7
 8000ba8:	fb0e 1116 	mls	r1, lr, r6, r1
 8000bac:	ea43 4301 	orr.w	r3, r3, r1, lsl #16
 8000bb0:	fb06 f108 	mul.w	r1, r6, r8
 8000bb4:	4299      	cmp	r1, r3
 8000bb6:	fa04 f402 	lsl.w	r4, r4, r2
 8000bba:	d909      	bls.n	8000bd0 <__udivmoddi4+0x19c>
 8000bbc:	18fb      	adds	r3, r7, r3
 8000bbe:	f106 3cff 	add.w	ip, r6, #4294967295
 8000bc2:	f080 808d 	bcs.w	8000ce0 <__udivmoddi4+0x2ac>
 8000bc6:	4299      	cmp	r1, r3
 8000bc8:	f240 808a 	bls.w	8000ce0 <__udivmoddi4+0x2ac>
 8000bcc:	3e02      	subs	r6, #2
 8000bce:	443b      	add	r3, r7
 8000bd0:	1a5b      	subs	r3, r3, r1
 8000bd2:	b281      	uxth	r1, r0
 8000bd4:	fbb3 f0fe 	udiv	r0, r3, lr
 8000bd8:	fb0e 3310 	mls	r3, lr, r0, r3
 8000bdc:	ea41 4103 	orr.w	r1, r1, r3, lsl #16
 8000be0:	fb00 f308 	mul.w	r3, r0, r8
 8000be4:	428b      	cmp	r3, r1
 8000be6:	d907      	bls.n	8000bf8 <__udivmoddi4+0x1c4>
 8000be8:	1879      	adds	r1, r7, r1
 8000bea:	f100 3cff 	add.w	ip, r0, #4294967295
 8000bee:	d273      	bcs.n	8000cd8 <__udivmoddi4+0x2a4>
 8000bf0:	428b      	cmp	r3, r1
 8000bf2:	d971      	bls.n	8000cd8 <__udivmoddi4+0x2a4>
 8000bf4:	3802      	subs	r0, #2
 8000bf6:	4439      	add	r1, r7
 8000bf8:	1acb      	subs	r3, r1, r3
 8000bfa:	ea40 4606 	orr.w	r6, r0, r6, lsl #16
 8000bfe:	e778      	b.n	8000af2 <__udivmoddi4+0xbe>
 8000c00:	f1c6 0c20 	rsb	ip, r6, #32
 8000c04:	fa03 f406 	lsl.w	r4, r3, r6
 8000c08:	fa22 f30c 	lsr.w	r3, r2, ip
 8000c0c:	431c      	orrs	r4, r3
 8000c0e:	fa20 f70c 	lsr.w	r7, r0, ip
 8000c12:	fa01 f306 	lsl.w	r3, r1, r6
 8000c16:	ea4f 4e14 	mov.w	lr, r4, lsr #16
 8000c1a:	fa21 f10c 	lsr.w	r1, r1, ip
 8000c1e:	431f      	orrs	r7, r3
 8000c20:	0c3b      	lsrs	r3, r7, #16
 8000c22:	fbb1 f9fe 	udiv	r9, r1, lr
 8000c26:	fa1f f884 	uxth.w	r8, r4
 8000c2a:	fb0e 1119 	mls	r1, lr, r9, r1
 8000c2e:	ea43 4101 	orr.w	r1, r3, r1, lsl #16
 8000c32:	fb09 fa08 	mul.w	sl, r9, r8
 8000c36:	458a      	cmp	sl, r1
 8000c38:	fa02 f206 	lsl.w	r2, r2, r6
 8000c3c:	fa00 f306 	lsl.w	r3, r0, r6
 8000c40:	d908      	bls.n	8000c54 <__udivmoddi4+0x220>
 8000c42:	1861      	adds	r1, r4, r1
 8000c44:	f109 30ff 	add.w	r0, r9, #4294967295
 8000c48:	d248      	bcs.n	8000cdc <__udivmoddi4+0x2a8>
 8000c4a:	458a      	cmp	sl, r1
 8000c4c:	d946      	bls.n	8000cdc <__udivmoddi4+0x2a8>
 8000c4e:	f1a9 0902 	sub.w	r9, r9, #2
 8000c52:	4421      	add	r1, r4
 8000c54:	eba1 010a 	sub.w	r1, r1, sl
 8000c58:	b2bf      	uxth	r7, r7
 8000c5a:	fbb1 f0fe 	udiv	r0, r1, lr
 8000c5e:	fb0e 1110 	mls	r1, lr, r0, r1
 8000c62:	ea47 4701 	orr.w	r7, r7, r1, lsl #16
 8000c66:	fb00 f808 	mul.w	r8, r0, r8
 8000c6a:	45b8      	cmp	r8, r7
 8000c6c:	d907      	bls.n	8000c7e <__udivmoddi4+0x24a>
 8000c6e:	19e7      	adds	r7, r4, r7
 8000c70:	f100 31ff 	add.w	r1, r0, #4294967295
 8000c74:	d22e      	bcs.n	8000cd4 <__udivmoddi4+0x2a0>
 8000c76:	45b8      	cmp	r8, r7
 8000c78:	d92c      	bls.n	8000cd4 <__udivmoddi4+0x2a0>
 8000c7a:	3802      	subs	r0, #2
 8000c7c:	4427      	add	r7, r4
 8000c7e:	ea40 4009 	orr.w	r0, r0, r9, lsl #16
 8000c82:	eba7 0708 	sub.w	r7, r7, r8
 8000c86:	fba0 8902 	umull	r8, r9, r0, r2
 8000c8a:	454f      	cmp	r7, r9
 8000c8c:	46c6      	mov	lr, r8
 8000c8e:	4649      	mov	r1, r9
 8000c90:	d31a      	bcc.n	8000cc8 <__udivmoddi4+0x294>
 8000c92:	d017      	beq.n	8000cc4 <__udivmoddi4+0x290>
 8000c94:	b15d      	cbz	r5, 8000cae <__udivmoddi4+0x27a>
 8000c96:	ebb3 020e 	subs.w	r2, r3, lr
 8000c9a:	eb67 0701 	sbc.w	r7, r7, r1
 8000c9e:	fa07 fc0c 	lsl.w	ip, r7, ip
 8000ca2:	40f2      	lsrs	r2, r6
 8000ca4:	ea4c 0202 	orr.w	r2, ip, r2
 8000ca8:	40f7      	lsrs	r7, r6
 8000caa:	e9c5 2700 	strd	r2, r7, [r5]
 8000cae:	2600      	movs	r6, #0
 8000cb0:	4631      	mov	r1, r6
 8000cb2:	e8bd 87f0 	ldmia.w	sp!, {r4, r5, r6, r7, r8, r9, sl, pc}
 8000cb6:	462e      	mov	r6, r5
 8000cb8:	4628      	mov	r0, r5
 8000cba:	e70b      	b.n	8000ad4 <__udivmoddi4+0xa0>
 8000cbc:	4606      	mov	r6, r0
 8000cbe:	e6e9      	b.n	8000a94 <__udivmoddi4+0x60>
 8000cc0:	4618      	mov	r0, r3
 8000cc2:	e6fd      	b.n	8000ac0 <__udivmoddi4+0x8c>
 8000cc4:	4543      	cmp	r3, r8
 8000cc6:	d2e5      	bcs.n	8000c94 <__udivmoddi4+0x260>
 8000cc8:	ebb8 0e02 	subs.w	lr, r8, r2
 8000ccc:	eb69 0104 	sbc.w	r1, r9, r4
 8000cd0:	3801      	subs	r0, #1
 8000cd2:	e7df      	b.n	8000c94 <__udivmoddi4+0x260>
 8000cd4:	4608      	mov	r0, r1
 8000cd6:	e7d2      	b.n	8000c7e <__udivmoddi4+0x24a>
 8000cd8:	4660      	mov	r0, ip
 8000cda:	e78d      	b.n	8000bf8 <__udivmoddi4+0x1c4>
 8000cdc:	4681      	mov	r9, r0
 8000cde:	e7b9      	b.n	8000c54 <__udivmoddi4+0x220>
 8000ce0:	4666      	mov	r6, ip
 8000ce2:	e775      	b.n	8000bd0 <__udivmoddi4+0x19c>
 8000ce4:	4630      	mov	r0, r6
 8000ce6:	e74a      	b.n	8000b7e <__udivmoddi4+0x14a>
 8000ce8:	f1ac 0c02 	sub.w	ip, ip, #2
 8000cec:	4439      	add	r1, r7
 8000cee:	e713      	b.n	8000b18 <__udivmoddi4+0xe4>
 8000cf0:	3802      	subs	r0, #2
 8000cf2:	443c      	add	r4, r7
 8000cf4:	e724      	b.n	8000b40 <__udivmoddi4+0x10c>
 8000cf6:	bf00      	nop

08000cf8 <__aeabi_idiv0>:
 8000cf8:	4770      	bx	lr
 8000cfa:	bf00      	nop
 8000cfc:	0000      	movs	r0, r0
	...

08000d00 <main>:
/**
  * @brief  The application entry point.
  * @retval int
  */
int main(void)
{
 8000d00:	b580      	push	{r7, lr}
 8000d02:	af00      	add	r7, sp, #0
  /* USER CODE END 1 */

  /* MCU Configuration--------------------------------------------------------*/

  /* Reset of all peripherals, Initializes the Flash interface and the Systick. */
  HAL_Init();
 8000d04:	f000 fa2e 	bl	8001164 <HAL_Init>
  /* USER CODE BEGIN Init */

  /* USER CODE END Init */

  /* Configure the system clock */
  SystemClock_Config();
 8000d08:	f000 f862 	bl	8000dd0 <SystemClock_Config>
  /* USER CODE BEGIN SysInit */

  /* USER CODE END SysInit */

  /* Initialize all configured peripherals */
  MX_GPIO_Init();
 8000d0c:	f000 f92a 	bl	8000f64 <MX_GPIO_Init>
  MX_ADC1_Init();
 8000d10:	f000 f8c8 	bl	8000ea4 <MX_ADC1_Init>

  /* Infinite loop */
  /* USER CODE BEGIN WHILE */
  while (1)
  {
	  HAL_ADC_Start(&hadc1);
 8000d14:	4828      	ldr	r0, [pc, #160]	; (8000db8 <main+0xb8>)
 8000d16:	f000 fadb 	bl	80012d0 <HAL_ADC_Start>
	  HAL_ADC_PollForConversion(&hadc1, 100);
 8000d1a:	2164      	movs	r1, #100	; 0x64
 8000d1c:	4826      	ldr	r0, [pc, #152]	; (8000db8 <main+0xb8>)
 8000d1e:	f000 fba9 	bl	8001474 <HAL_ADC_PollForConversion>
	  adc1 = HAL_ADC_GetValue(&hadc1);
 8000d22:	4825      	ldr	r0, [pc, #148]	; (8000db8 <main+0xb8>)
 8000d24:	f000 fc31 	bl	800158a <HAL_ADC_GetValue>
 8000d28:	4603      	mov	r3, r0
 8000d2a:	b29a      	uxth	r2, r3
 8000d2c:	4b23      	ldr	r3, [pc, #140]	; (8000dbc <main+0xbc>)
 8000d2e:	801a      	strh	r2, [r3, #0]

	  HAL_ADC_PollForConversion(&hadc1, 100);
 8000d30:	2164      	movs	r1, #100	; 0x64
 8000d32:	4821      	ldr	r0, [pc, #132]	; (8000db8 <main+0xb8>)
 8000d34:	f000 fb9e 	bl	8001474 <HAL_ADC_PollForConversion>
	  adc2 = HAL_ADC_GetValue(&hadc1);
 8000d38:	481f      	ldr	r0, [pc, #124]	; (8000db8 <main+0xb8>)
 8000d3a:	f000 fc26 	bl	800158a <HAL_ADC_GetValue>
 8000d3e:	4603      	mov	r3, r0
 8000d40:	b29a      	uxth	r2, r3
 8000d42:	4b1f      	ldr	r3, [pc, #124]	; (8000dc0 <main+0xc0>)
 8000d44:	801a      	strh	r2, [r3, #0]

	  ambientTemp = ((adc2*stepsize)-0.76)/0.0025 + 25;
 8000d46:	4b1e      	ldr	r3, [pc, #120]	; (8000dc0 <main+0xc0>)
 8000d48:	881b      	ldrh	r3, [r3, #0]
 8000d4a:	ee07 3a90 	vmov	s15, r3
 8000d4e:	eeb8 7ae7 	vcvt.f32.s32	s14, s15
 8000d52:	4b1c      	ldr	r3, [pc, #112]	; (8000dc4 <main+0xc4>)
 8000d54:	edd3 7a00 	vldr	s15, [r3]
 8000d58:	ee67 7a27 	vmul.f32	s15, s14, s15
 8000d5c:	ee17 0a90 	vmov	r0, s15
 8000d60:	f7ff fb96 	bl	8000490 <__aeabi_f2d>
 8000d64:	a310      	add	r3, pc, #64	; (adr r3, 8000da8 <main+0xa8>)
 8000d66:	e9d3 2300 	ldrd	r2, r3, [r3]
 8000d6a:	f7ff fa31 	bl	80001d0 <__aeabi_dsub>
 8000d6e:	4602      	mov	r2, r0
 8000d70:	460b      	mov	r3, r1
 8000d72:	4610      	mov	r0, r2
 8000d74:	4619      	mov	r1, r3
 8000d76:	a30e      	add	r3, pc, #56	; (adr r3, 8000db0 <main+0xb0>)
 8000d78:	e9d3 2300 	ldrd	r2, r3, [r3]
 8000d7c:	f7ff fd0a 	bl	8000794 <__aeabi_ddiv>
 8000d80:	4602      	mov	r2, r0
 8000d82:	460b      	mov	r3, r1
 8000d84:	4610      	mov	r0, r2
 8000d86:	4619      	mov	r1, r3
 8000d88:	f04f 0200 	mov.w	r2, #0
 8000d8c:	4b0e      	ldr	r3, [pc, #56]	; (8000dc8 <main+0xc8>)
 8000d8e:	f7ff fa21 	bl	80001d4 <__adddf3>
 8000d92:	4602      	mov	r2, r0
 8000d94:	460b      	mov	r3, r1
 8000d96:	4610      	mov	r0, r2
 8000d98:	4619      	mov	r1, r3
 8000d9a:	f7ff fde3 	bl	8000964 <__aeabi_d2f>
 8000d9e:	4603      	mov	r3, r0
 8000da0:	4a0a      	ldr	r2, [pc, #40]	; (8000dcc <main+0xcc>)
 8000da2:	6013      	str	r3, [r2, #0]
	  HAL_ADC_Start(&hadc1);
 8000da4:	e7b6      	b.n	8000d14 <main+0x14>
 8000da6:	bf00      	nop
 8000da8:	851eb852 	.word	0x851eb852
 8000dac:	3fe851eb 	.word	0x3fe851eb
 8000db0:	47ae147b 	.word	0x47ae147b
 8000db4:	3f647ae1 	.word	0x3f647ae1
 8000db8:	20000030 	.word	0x20000030
 8000dbc:	20000078 	.word	0x20000078
 8000dc0:	2000007a 	.word	0x2000007a
 8000dc4:	20000000 	.word	0x20000000
 8000dc8:	40390000 	.word	0x40390000
 8000dcc:	2000002c 	.word	0x2000002c

08000dd0 <SystemClock_Config>:
/**
  * @brief System Clock Configuration
  * @retval None
  */
void SystemClock_Config(void)
{
 8000dd0:	b580      	push	{r7, lr}
 8000dd2:	b094      	sub	sp, #80	; 0x50
 8000dd4:	af00      	add	r7, sp, #0
  RCC_OscInitTypeDef RCC_OscInitStruct = {0};
 8000dd6:	f107 0320 	add.w	r3, r7, #32
 8000dda:	2230      	movs	r2, #48	; 0x30
 8000ddc:	2100      	movs	r1, #0
 8000dde:	4618      	mov	r0, r3
 8000de0:	f001 fce4 	bl	80027ac <memset>
  RCC_ClkInitTypeDef RCC_ClkInitStruct = {0};
 8000de4:	f107 030c 	add.w	r3, r7, #12
 8000de8:	2200      	movs	r2, #0
 8000dea:	601a      	str	r2, [r3, #0]
 8000dec:	605a      	str	r2, [r3, #4]
 8000dee:	609a      	str	r2, [r3, #8]
 8000df0:	60da      	str	r2, [r3, #12]
 8000df2:	611a      	str	r2, [r3, #16]

  /** Configure the main internal regulator output voltage
  */
  __HAL_RCC_PWR_CLK_ENABLE();
 8000df4:	2300      	movs	r3, #0
 8000df6:	60bb      	str	r3, [r7, #8]
 8000df8:	4b28      	ldr	r3, [pc, #160]	; (8000e9c <SystemClock_Config+0xcc>)
 8000dfa:	6c1b      	ldr	r3, [r3, #64]	; 0x40
 8000dfc:	4a27      	ldr	r2, [pc, #156]	; (8000e9c <SystemClock_Config+0xcc>)
 8000dfe:	f043 5380 	orr.w	r3, r3, #268435456	; 0x10000000
 8000e02:	6413      	str	r3, [r2, #64]	; 0x40
 8000e04:	4b25      	ldr	r3, [pc, #148]	; (8000e9c <SystemClock_Config+0xcc>)
 8000e06:	6c1b      	ldr	r3, [r3, #64]	; 0x40
 8000e08:	f003 5380 	and.w	r3, r3, #268435456	; 0x10000000
 8000e0c:	60bb      	str	r3, [r7, #8]
 8000e0e:	68bb      	ldr	r3, [r7, #8]
  __HAL_PWR_VOLTAGESCALING_CONFIG(PWR_REGULATOR_VOLTAGE_SCALE1);
 8000e10:	2300      	movs	r3, #0
 8000e12:	607b      	str	r3, [r7, #4]
 8000e14:	4b22      	ldr	r3, [pc, #136]	; (8000ea0 <SystemClock_Config+0xd0>)
 8000e16:	681b      	ldr	r3, [r3, #0]
 8000e18:	4a21      	ldr	r2, [pc, #132]	; (8000ea0 <SystemClock_Config+0xd0>)
 8000e1a:	f443 4380 	orr.w	r3, r3, #16384	; 0x4000
 8000e1e:	6013      	str	r3, [r2, #0]
 8000e20:	4b1f      	ldr	r3, [pc, #124]	; (8000ea0 <SystemClock_Config+0xd0>)
 8000e22:	681b      	ldr	r3, [r3, #0]
 8000e24:	f403 4380 	and.w	r3, r3, #16384	; 0x4000
 8000e28:	607b      	str	r3, [r7, #4]
 8000e2a:	687b      	ldr	r3, [r7, #4]
  /** Initializes the RCC Oscillators according to the specified parameters
  * in the RCC_OscInitTypeDef structure.
  */
  RCC_OscInitStruct.OscillatorType = RCC_OSCILLATORTYPE_HSE;
 8000e2c:	2301      	movs	r3, #1
 8000e2e:	623b      	str	r3, [r7, #32]
  RCC_OscInitStruct.HSEState = RCC_HSE_ON;
 8000e30:	f44f 3380 	mov.w	r3, #65536	; 0x10000
 8000e34:	627b      	str	r3, [r7, #36]	; 0x24
  RCC_OscInitStruct.PLL.PLLState = RCC_PLL_ON;
 8000e36:	2302      	movs	r3, #2
 8000e38:	63bb      	str	r3, [r7, #56]	; 0x38
  RCC_OscInitStruct.PLL.PLLSource = RCC_PLLSOURCE_HSE;
 8000e3a:	f44f 0380 	mov.w	r3, #4194304	; 0x400000
 8000e3e:	63fb      	str	r3, [r7, #60]	; 0x3c
  RCC_OscInitStruct.PLL.PLLM = 8;
 8000e40:	2308      	movs	r3, #8
 8000e42:	643b      	str	r3, [r7, #64]	; 0x40
  RCC_OscInitStruct.PLL.PLLN = 336;
 8000e44:	f44f 73a8 	mov.w	r3, #336	; 0x150
 8000e48:	647b      	str	r3, [r7, #68]	; 0x44
  RCC_OscInitStruct.PLL.PLLP = RCC_PLLP_DIV2;
 8000e4a:	2302      	movs	r3, #2
 8000e4c:	64bb      	str	r3, [r7, #72]	; 0x48
  RCC_OscInitStruct.PLL.PLLQ = 7;
 8000e4e:	2307      	movs	r3, #7
 8000e50:	64fb      	str	r3, [r7, #76]	; 0x4c
  if (HAL_RCC_OscConfig(&RCC_OscInitStruct) != HAL_OK)
 8000e52:	f107 0320 	add.w	r3, r7, #32
 8000e56:	4618      	mov	r0, r3
 8000e58:	f001 f844 	bl	8001ee4 <HAL_RCC_OscConfig>
 8000e5c:	4603      	mov	r3, r0
 8000e5e:	2b00      	cmp	r3, #0
 8000e60:	d001      	beq.n	8000e66 <SystemClock_Config+0x96>
  {
    Error_Handler();
 8000e62:	f000 f8a7 	bl	8000fb4 <Error_Handler>
  }
  /** Initializes the CPU, AHB and APB buses clocks
  */
  RCC_ClkInitStruct.ClockType = RCC_CLOCKTYPE_HCLK|RCC_CLOCKTYPE_SYSCLK
 8000e66:	230f      	movs	r3, #15
 8000e68:	60fb      	str	r3, [r7, #12]
                              |RCC_CLOCKTYPE_PCLK1|RCC_CLOCKTYPE_PCLK2;
  RCC_ClkInitStruct.SYSCLKSource = RCC_SYSCLKSOURCE_PLLCLK;
 8000e6a:	2302      	movs	r3, #2
 8000e6c:	613b      	str	r3, [r7, #16]
  RCC_ClkInitStruct.AHBCLKDivider = RCC_SYSCLK_DIV1;
 8000e6e:	2300      	movs	r3, #0
 8000e70:	617b      	str	r3, [r7, #20]
  RCC_ClkInitStruct.APB1CLKDivider = RCC_HCLK_DIV4;
 8000e72:	f44f 53a0 	mov.w	r3, #5120	; 0x1400
 8000e76:	61bb      	str	r3, [r7, #24]
  RCC_ClkInitStruct.APB2CLKDivider = RCC_HCLK_DIV2;
 8000e78:	f44f 5380 	mov.w	r3, #4096	; 0x1000
 8000e7c:	61fb      	str	r3, [r7, #28]

  if (HAL_RCC_ClockConfig(&RCC_ClkInitStruct, FLASH_LATENCY_5) != HAL_OK)
 8000e7e:	f107 030c 	add.w	r3, r7, #12
 8000e82:	2105      	movs	r1, #5
 8000e84:	4618      	mov	r0, r3
 8000e86:	f001 faa5 	bl	80023d4 <HAL_RCC_ClockConfig>
 8000e8a:	4603      	mov	r3, r0
 8000e8c:	2b00      	cmp	r3, #0
 8000e8e:	d001      	beq.n	8000e94 <SystemClock_Config+0xc4>
  {
    Error_Handler();
 8000e90:	f000 f890 	bl	8000fb4 <Error_Handler>
  }
}
 8000e94:	bf00      	nop
 8000e96:	3750      	adds	r7, #80	; 0x50
 8000e98:	46bd      	mov	sp, r7
 8000e9a:	bd80      	pop	{r7, pc}
 8000e9c:	40023800 	.word	0x40023800
 8000ea0:	40007000 	.word	0x40007000

08000ea4 <MX_ADC1_Init>:
  * @brief ADC1 Initialization Function
  * @param None
  * @retval None
  */
static void MX_ADC1_Init(void)
{
 8000ea4:	b580      	push	{r7, lr}
 8000ea6:	b084      	sub	sp, #16
 8000ea8:	af00      	add	r7, sp, #0

  /* USER CODE BEGIN ADC1_Init 0 */

  /* USER CODE END ADC1_Init 0 */

  ADC_ChannelConfTypeDef sConfig = {0};
 8000eaa:	463b      	mov	r3, r7
 8000eac:	2200      	movs	r2, #0
 8000eae:	601a      	str	r2, [r3, #0]
 8000eb0:	605a      	str	r2, [r3, #4]
 8000eb2:	609a      	str	r2, [r3, #8]
 8000eb4:	60da      	str	r2, [r3, #12]
  /* USER CODE BEGIN ADC1_Init 1 */

  /* USER CODE END ADC1_Init 1 */
  /** Configure the global features of the ADC (Clock, Resolution, Data Alignment and number of conversion)
  */
  hadc1.Instance = ADC1;
 8000eb6:	4b28      	ldr	r3, [pc, #160]	; (8000f58 <MX_ADC1_Init+0xb4>)
 8000eb8:	4a28      	ldr	r2, [pc, #160]	; (8000f5c <MX_ADC1_Init+0xb8>)
 8000eba:	601a      	str	r2, [r3, #0]
  hadc1.Init.ClockPrescaler = ADC_CLOCK_SYNC_PCLK_DIV4;
 8000ebc:	4b26      	ldr	r3, [pc, #152]	; (8000f58 <MX_ADC1_Init+0xb4>)
 8000ebe:	f44f 3280 	mov.w	r2, #65536	; 0x10000
 8000ec2:	605a      	str	r2, [r3, #4]
  hadc1.Init.Resolution = ADC_RESOLUTION_12B;
 8000ec4:	4b24      	ldr	r3, [pc, #144]	; (8000f58 <MX_ADC1_Init+0xb4>)
 8000ec6:	2200      	movs	r2, #0
 8000ec8:	609a      	str	r2, [r3, #8]
  hadc1.Init.ScanConvMode = ENABLE;
 8000eca:	4b23      	ldr	r3, [pc, #140]	; (8000f58 <MX_ADC1_Init+0xb4>)
 8000ecc:	2201      	movs	r2, #1
 8000ece:	611a      	str	r2, [r3, #16]
  hadc1.Init.ContinuousConvMode = ENABLE;
 8000ed0:	4b21      	ldr	r3, [pc, #132]	; (8000f58 <MX_ADC1_Init+0xb4>)
 8000ed2:	2201      	movs	r2, #1
 8000ed4:	761a      	strb	r2, [r3, #24]
  hadc1.Init.DiscontinuousConvMode = DISABLE;
 8000ed6:	4b20      	ldr	r3, [pc, #128]	; (8000f58 <MX_ADC1_Init+0xb4>)
 8000ed8:	2200      	movs	r2, #0
 8000eda:	f883 2020 	strb.w	r2, [r3, #32]
  hadc1.Init.ExternalTrigConvEdge = ADC_EXTERNALTRIGCONVEDGE_NONE;
 8000ede:	4b1e      	ldr	r3, [pc, #120]	; (8000f58 <MX_ADC1_Init+0xb4>)
 8000ee0:	2200      	movs	r2, #0
 8000ee2:	62da      	str	r2, [r3, #44]	; 0x2c
  hadc1.Init.ExternalTrigConv = ADC_SOFTWARE_START;
 8000ee4:	4b1c      	ldr	r3, [pc, #112]	; (8000f58 <MX_ADC1_Init+0xb4>)
 8000ee6:	4a1e      	ldr	r2, [pc, #120]	; (8000f60 <MX_ADC1_Init+0xbc>)
 8000ee8:	629a      	str	r2, [r3, #40]	; 0x28
  hadc1.Init.DataAlign = ADC_DATAALIGN_RIGHT;
 8000eea:	4b1b      	ldr	r3, [pc, #108]	; (8000f58 <MX_ADC1_Init+0xb4>)
 8000eec:	2200      	movs	r2, #0
 8000eee:	60da      	str	r2, [r3, #12]
  hadc1.Init.NbrOfConversion = 2;
 8000ef0:	4b19      	ldr	r3, [pc, #100]	; (8000f58 <MX_ADC1_Init+0xb4>)
 8000ef2:	2202      	movs	r2, #2
 8000ef4:	61da      	str	r2, [r3, #28]
  hadc1.Init.DMAContinuousRequests = DISABLE;
 8000ef6:	4b18      	ldr	r3, [pc, #96]	; (8000f58 <MX_ADC1_Init+0xb4>)
 8000ef8:	2200      	movs	r2, #0
 8000efa:	f883 2030 	strb.w	r2, [r3, #48]	; 0x30
  hadc1.Init.EOCSelection = ADC_EOC_SINGLE_CONV;
 8000efe:	4b16      	ldr	r3, [pc, #88]	; (8000f58 <MX_ADC1_Init+0xb4>)
 8000f00:	2201      	movs	r2, #1
 8000f02:	615a      	str	r2, [r3, #20]
  if (HAL_ADC_Init(&hadc1) != HAL_OK)
 8000f04:	4814      	ldr	r0, [pc, #80]	; (8000f58 <MX_ADC1_Init+0xb4>)
 8000f06:	f000 f99f 	bl	8001248 <HAL_ADC_Init>
 8000f0a:	4603      	mov	r3, r0
 8000f0c:	2b00      	cmp	r3, #0
 8000f0e:	d001      	beq.n	8000f14 <MX_ADC1_Init+0x70>
  {
    Error_Handler();
 8000f10:	f000 f850 	bl	8000fb4 <Error_Handler>
  }
  /** Configure for the selected ADC regular channel its corresponding rank in the sequencer and its sample time.
  */
  sConfig.Channel = ADC_CHANNEL_1;
 8000f14:	2301      	movs	r3, #1
 8000f16:	603b      	str	r3, [r7, #0]
  sConfig.Rank = 1;
 8000f18:	2301      	movs	r3, #1
 8000f1a:	607b      	str	r3, [r7, #4]
  sConfig.SamplingTime = ADC_SAMPLETIME_480CYCLES;
 8000f1c:	2307      	movs	r3, #7
 8000f1e:	60bb      	str	r3, [r7, #8]
  if (HAL_ADC_ConfigChannel(&hadc1, &sConfig) != HAL_OK)
 8000f20:	463b      	mov	r3, r7
 8000f22:	4619      	mov	r1, r3
 8000f24:	480c      	ldr	r0, [pc, #48]	; (8000f58 <MX_ADC1_Init+0xb4>)
 8000f26:	f000 fb3d 	bl	80015a4 <HAL_ADC_ConfigChannel>
 8000f2a:	4603      	mov	r3, r0
 8000f2c:	2b00      	cmp	r3, #0
 8000f2e:	d001      	beq.n	8000f34 <MX_ADC1_Init+0x90>
  {
    Error_Handler();
 8000f30:	f000 f840 	bl	8000fb4 <Error_Handler>
  }
  /** Configure for the selected ADC regular channel its corresponding rank in the sequencer and its sample time.
  */
  sConfig.Channel = ADC_CHANNEL_TEMPSENSOR;
 8000f34:	2310      	movs	r3, #16
 8000f36:	603b      	str	r3, [r7, #0]
  sConfig.Rank = 2;
 8000f38:	2302      	movs	r3, #2
 8000f3a:	607b      	str	r3, [r7, #4]
  if (HAL_ADC_ConfigChannel(&hadc1, &sConfig) != HAL_OK)
 8000f3c:	463b      	mov	r3, r7
 8000f3e:	4619      	mov	r1, r3
 8000f40:	4805      	ldr	r0, [pc, #20]	; (8000f58 <MX_ADC1_Init+0xb4>)
 8000f42:	f000 fb2f 	bl	80015a4 <HAL_ADC_ConfigChannel>
 8000f46:	4603      	mov	r3, r0
 8000f48:	2b00      	cmp	r3, #0
 8000f4a:	d001      	beq.n	8000f50 <MX_ADC1_Init+0xac>
  {
    Error_Handler();
 8000f4c:	f000 f832 	bl	8000fb4 <Error_Handler>
  }
  /* USER CODE BEGIN ADC1_Init 2 */

  /* USER CODE END ADC1_Init 2 */

}
 8000f50:	bf00      	nop
 8000f52:	3710      	adds	r7, #16
 8000f54:	46bd      	mov	sp, r7
 8000f56:	bd80      	pop	{r7, pc}
 8000f58:	20000030 	.word	0x20000030
 8000f5c:	40012000 	.word	0x40012000
 8000f60:	0f000001 	.word	0x0f000001

08000f64 <MX_GPIO_Init>:
  * @brief GPIO Initialization Function
  * @param None
  * @retval None
  */
static void MX_GPIO_Init(void)
{
 8000f64:	b480      	push	{r7}
 8000f66:	b083      	sub	sp, #12
 8000f68:	af00      	add	r7, sp, #0

  /* GPIO Ports Clock Enable */
  __HAL_RCC_GPIOH_CLK_ENABLE();
 8000f6a:	2300      	movs	r3, #0
 8000f6c:	607b      	str	r3, [r7, #4]
 8000f6e:	4b10      	ldr	r3, [pc, #64]	; (8000fb0 <MX_GPIO_Init+0x4c>)
 8000f70:	6b1b      	ldr	r3, [r3, #48]	; 0x30
 8000f72:	4a0f      	ldr	r2, [pc, #60]	; (8000fb0 <MX_GPIO_Init+0x4c>)
 8000f74:	f043 0380 	orr.w	r3, r3, #128	; 0x80
 8000f78:	6313      	str	r3, [r2, #48]	; 0x30
 8000f7a:	4b0d      	ldr	r3, [pc, #52]	; (8000fb0 <MX_GPIO_Init+0x4c>)
 8000f7c:	6b1b      	ldr	r3, [r3, #48]	; 0x30
 8000f7e:	f003 0380 	and.w	r3, r3, #128	; 0x80
 8000f82:	607b      	str	r3, [r7, #4]
 8000f84:	687b      	ldr	r3, [r7, #4]
  __HAL_RCC_GPIOA_CLK_ENABLE();
 8000f86:	2300      	movs	r3, #0
 8000f88:	603b      	str	r3, [r7, #0]
 8000f8a:	4b09      	ldr	r3, [pc, #36]	; (8000fb0 <MX_GPIO_Init+0x4c>)
 8000f8c:	6b1b      	ldr	r3, [r3, #48]	; 0x30
 8000f8e:	4a08      	ldr	r2, [pc, #32]	; (8000fb0 <MX_GPIO_Init+0x4c>)
 8000f90:	f043 0301 	orr.w	r3, r3, #1
 8000f94:	6313      	str	r3, [r2, #48]	; 0x30
 8000f96:	4b06      	ldr	r3, [pc, #24]	; (8000fb0 <MX_GPIO_Init+0x4c>)
 8000f98:	6b1b      	ldr	r3, [r3, #48]	; 0x30
 8000f9a:	f003 0301 	and.w	r3, r3, #1
 8000f9e:	603b      	str	r3, [r7, #0]
 8000fa0:	683b      	ldr	r3, [r7, #0]

}
 8000fa2:	bf00      	nop
 8000fa4:	370c      	adds	r7, #12
 8000fa6:	46bd      	mov	sp, r7
 8000fa8:	f85d 7b04 	ldr.w	r7, [sp], #4
 8000fac:	4770      	bx	lr
 8000fae:	bf00      	nop
 8000fb0:	40023800 	.word	0x40023800

08000fb4 <Error_Handler>:
/**
  * @brief  This function is executed in case of error occurrence.
  * @retval None
  */
void Error_Handler(void)
{
 8000fb4:	b480      	push	{r7}
 8000fb6:	af00      	add	r7, sp, #0
  \details Disables IRQ interrupts by setting the I-bit in the CPSR.
           Can only be executed in Privileged modes.
 */
__STATIC_FORCEINLINE void __disable_irq(void)
{
  __ASM volatile ("cpsid i" : : : "memory");
 8000fb8:	b672      	cpsid	i
}
 8000fba:	bf00      	nop
  /* USER CODE BEGIN Error_Handler_Debug */
  /* User can add his own implementation to report the HAL error return state */
  __disable_irq();
  while (1)
 8000fbc:	e7fe      	b.n	8000fbc <Error_Handler+0x8>
	...

08000fc0 <HAL_MspInit>:
/* USER CODE END 0 */
/**
  * Initializes the Global MSP.
  */
void HAL_MspInit(void)
{
 8000fc0:	b580      	push	{r7, lr}
 8000fc2:	b082      	sub	sp, #8
 8000fc4:	af00      	add	r7, sp, #0
  /* USER CODE BEGIN MspInit 0 */

  /* USER CODE END MspInit 0 */

  __HAL_RCC_SYSCFG_CLK_ENABLE();
 8000fc6:	2300      	movs	r3, #0
 8000fc8:	607b      	str	r3, [r7, #4]
 8000fca:	4b10      	ldr	r3, [pc, #64]	; (800100c <HAL_MspInit+0x4c>)
 8000fcc:	6c5b      	ldr	r3, [r3, #68]	; 0x44
 8000fce:	4a0f      	ldr	r2, [pc, #60]	; (800100c <HAL_MspInit+0x4c>)
 8000fd0:	f443 4380 	orr.w	r3, r3, #16384	; 0x4000
 8000fd4:	6453      	str	r3, [r2, #68]	; 0x44
 8000fd6:	4b0d      	ldr	r3, [pc, #52]	; (800100c <HAL_MspInit+0x4c>)
 8000fd8:	6c5b      	ldr	r3, [r3, #68]	; 0x44
 8000fda:	f403 4380 	and.w	r3, r3, #16384	; 0x4000
 8000fde:	607b      	str	r3, [r7, #4]
 8000fe0:	687b      	ldr	r3, [r7, #4]
  __HAL_RCC_PWR_CLK_ENABLE();
 8000fe2:	2300      	movs	r3, #0
 8000fe4:	603b      	str	r3, [r7, #0]
 8000fe6:	4b09      	ldr	r3, [pc, #36]	; (800100c <HAL_MspInit+0x4c>)
 8000fe8:	6c1b      	ldr	r3, [r3, #64]	; 0x40
 8000fea:	4a08      	ldr	r2, [pc, #32]	; (800100c <HAL_MspInit+0x4c>)
 8000fec:	f043 5380 	orr.w	r3, r3, #268435456	; 0x10000000
 8000ff0:	6413      	str	r3, [r2, #64]	; 0x40
 8000ff2:	4b06      	ldr	r3, [pc, #24]	; (800100c <HAL_MspInit+0x4c>)
 8000ff4:	6c1b      	ldr	r3, [r3, #64]	; 0x40
 8000ff6:	f003 5380 	and.w	r3, r3, #268435456	; 0x10000000
 8000ffa:	603b      	str	r3, [r7, #0]
 8000ffc:	683b      	ldr	r3, [r7, #0]

  HAL_NVIC_SetPriorityGrouping(NVIC_PRIORITYGROUP_0);
 8000ffe:	2007      	movs	r0, #7
 8001000:	f000 fda0 	bl	8001b44 <HAL_NVIC_SetPriorityGrouping>
  /* System interrupt init*/

  /* USER CODE BEGIN MspInit 1 */

  /* USER CODE END MspInit 1 */
}
 8001004:	bf00      	nop
 8001006:	3708      	adds	r7, #8
 8001008:	46bd      	mov	sp, r7
 800100a:	bd80      	pop	{r7, pc}
 800100c:	40023800 	.word	0x40023800

08001010 <HAL_ADC_MspInit>:
* This function configures the hardware resources used in this example
* @param hadc: ADC handle pointer
* @retval None
*/
void HAL_ADC_MspInit(ADC_HandleTypeDef* hadc)
{
 8001010:	b580      	push	{r7, lr}
 8001012:	b08a      	sub	sp, #40	; 0x28
 8001014:	af00      	add	r7, sp, #0
 8001016:	6078      	str	r0, [r7, #4]
  GPIO_InitTypeDef GPIO_InitStruct = {0};
 8001018:	f107 0314 	add.w	r3, r7, #20
 800101c:	2200      	movs	r2, #0
 800101e:	601a      	str	r2, [r3, #0]
 8001020:	605a      	str	r2, [r3, #4]
 8001022:	609a      	str	r2, [r3, #8]
 8001024:	60da      	str	r2, [r3, #12]
 8001026:	611a      	str	r2, [r3, #16]
  if(hadc->Instance==ADC1)
 8001028:	687b      	ldr	r3, [r7, #4]
 800102a:	681b      	ldr	r3, [r3, #0]
 800102c:	4a17      	ldr	r2, [pc, #92]	; (800108c <HAL_ADC_MspInit+0x7c>)
 800102e:	4293      	cmp	r3, r2
 8001030:	d127      	bne.n	8001082 <HAL_ADC_MspInit+0x72>
  {
  /* USER CODE BEGIN ADC1_MspInit 0 */

  /* USER CODE END ADC1_MspInit 0 */
    /* Peripheral clock enable */
    __HAL_RCC_ADC1_CLK_ENABLE();
 8001032:	2300      	movs	r3, #0
 8001034:	613b      	str	r3, [r7, #16]
 8001036:	4b16      	ldr	r3, [pc, #88]	; (8001090 <HAL_ADC_MspInit+0x80>)
 8001038:	6c5b      	ldr	r3, [r3, #68]	; 0x44
 800103a:	4a15      	ldr	r2, [pc, #84]	; (8001090 <HAL_ADC_MspInit+0x80>)
 800103c:	f443 7380 	orr.w	r3, r3, #256	; 0x100
 8001040:	6453      	str	r3, [r2, #68]	; 0x44
 8001042:	4b13      	ldr	r3, [pc, #76]	; (8001090 <HAL_ADC_MspInit+0x80>)
 8001044:	6c5b      	ldr	r3, [r3, #68]	; 0x44
 8001046:	f403 7380 	and.w	r3, r3, #256	; 0x100
 800104a:	613b      	str	r3, [r7, #16]
 800104c:	693b      	ldr	r3, [r7, #16]

    __HAL_RCC_GPIOA_CLK_ENABLE();
 800104e:	2300      	movs	r3, #0
 8001050:	60fb      	str	r3, [r7, #12]
 8001052:	4b0f      	ldr	r3, [pc, #60]	; (8001090 <HAL_ADC_MspInit+0x80>)
 8001054:	6b1b      	ldr	r3, [r3, #48]	; 0x30
 8001056:	4a0e      	ldr	r2, [pc, #56]	; (8001090 <HAL_ADC_MspInit+0x80>)
 8001058:	f043 0301 	orr.w	r3, r3, #1
 800105c:	6313      	str	r3, [r2, #48]	; 0x30
 800105e:	4b0c      	ldr	r3, [pc, #48]	; (8001090 <HAL_ADC_MspInit+0x80>)
 8001060:	6b1b      	ldr	r3, [r3, #48]	; 0x30
 8001062:	f003 0301 	and.w	r3, r3, #1
 8001066:	60fb      	str	r3, [r7, #12]
 8001068:	68fb      	ldr	r3, [r7, #12]
    /**ADC1 GPIO Configuration
    PA1     ------> ADC1_IN1
    */
    GPIO_InitStruct.Pin = GPIO_PIN_1;
 800106a:	2302      	movs	r3, #2
 800106c:	617b      	str	r3, [r7, #20]
    GPIO_InitStruct.Mode = GPIO_MODE_ANALOG;
 800106e:	2303      	movs	r3, #3
 8001070:	61bb      	str	r3, [r7, #24]
    GPIO_InitStruct.Pull = GPIO_NOPULL;
 8001072:	2300      	movs	r3, #0
 8001074:	61fb      	str	r3, [r7, #28]
    HAL_GPIO_Init(GPIOA, &GPIO_InitStruct);
 8001076:	f107 0314 	add.w	r3, r7, #20
 800107a:	4619      	mov	r1, r3
 800107c:	4805      	ldr	r0, [pc, #20]	; (8001094 <HAL_ADC_MspInit+0x84>)
 800107e:	f000 fd95 	bl	8001bac <HAL_GPIO_Init>
  /* USER CODE BEGIN ADC1_MspInit 1 */

  /* USER CODE END ADC1_MspInit 1 */
  }

}
 8001082:	bf00      	nop
 8001084:	3728      	adds	r7, #40	; 0x28
 8001086:	46bd      	mov	sp, r7
 8001088:	bd80      	pop	{r7, pc}
 800108a:	bf00      	nop
 800108c:	40012000 	.word	0x40012000
 8001090:	40023800 	.word	0x40023800
 8001094:	40020000 	.word	0x40020000

08001098 <NMI_Handler>:
/******************************************************************************/
/**
  * @brief This function handles Non maskable interrupt.
  */
void NMI_Handler(void)
{
 8001098:	b480      	push	{r7}
 800109a:	af00      	add	r7, sp, #0
  /* USER CODE BEGIN NonMaskableInt_IRQn 0 */

  /* USER CODE END NonMaskableInt_IRQn 0 */
  /* USER CODE BEGIN NonMaskableInt_IRQn 1 */
  while (1)
 800109c:	e7fe      	b.n	800109c <NMI_Handler+0x4>

0800109e <HardFault_Handler>:

/**
  * @brief This function handles Hard fault interrupt.
  */
void HardFault_Handler(void)
{
 800109e:	b480      	push	{r7}
 80010a0:	af00      	add	r7, sp, #0
  /* USER CODE BEGIN HardFault_IRQn 0 */

  /* USER CODE END HardFault_IRQn 0 */
  while (1)
 80010a2:	e7fe      	b.n	80010a2 <HardFault_Handler+0x4>

080010a4 <MemManage_Handler>:

/**
  * @brief This function handles Memory management fault.
  */
void MemManage_Handler(void)
{
 80010a4:	b480      	push	{r7}
 80010a6:	af00      	add	r7, sp, #0
  /* USER CODE BEGIN MemoryManagement_IRQn 0 */

  /* USER CODE END MemoryManagement_IRQn 0 */
  while (1)
 80010a8:	e7fe      	b.n	80010a8 <MemManage_Handler+0x4>

080010aa <BusFault_Handler>:

/**
  * @brief This function handles Pre-fetch fault, memory access fault.
  */
void BusFault_Handler(void)
{
 80010aa:	b480      	push	{r7}
 80010ac:	af00      	add	r7, sp, #0
  /* USER CODE BEGIN BusFault_IRQn 0 */

  /* USER CODE END BusFault_IRQn 0 */
  while (1)
 80010ae:	e7fe      	b.n	80010ae <BusFault_Handler+0x4>

080010b0 <UsageFault_Handler>:

/**
  * @brief This function handles Undefined instruction or illegal state.
  */
void UsageFault_Handler(void)
{
 80010b0:	b480      	push	{r7}
 80010b2:	af00      	add	r7, sp, #0
  /* USER CODE BEGIN UsageFault_IRQn 0 */

  /* USER CODE END UsageFault_IRQn 0 */
  while (1)
 80010b4:	e7fe      	b.n	80010b4 <UsageFault_Handler+0x4>

080010b6 <SVC_Handler>:

/**
  * @brief This function handles System service call via SWI instruction.
  */
void SVC_Handler(void)
{
 80010b6:	b480      	push	{r7}
 80010b8:	af00      	add	r7, sp, #0

  /* USER CODE END SVCall_IRQn 0 */
  /* USER CODE BEGIN SVCall_IRQn 1 */

  /* USER CODE END SVCall_IRQn 1 */
}
 80010ba:	bf00      	nop
 80010bc:	46bd      	mov	sp, r7
 80010be:	f85d 7b04 	ldr.w	r7, [sp], #4
 80010c2:	4770      	bx	lr

080010c4 <DebugMon_Handler>:

/**
  * @brief This function handles Debug monitor.
  */
void DebugMon_Handler(void)
{
 80010c4:	b480      	push	{r7}
 80010c6:	af00      	add	r7, sp, #0

  /* USER CODE END DebugMonitor_IRQn 0 */
  /* USER CODE BEGIN DebugMonitor_IRQn 1 */

  /* USER CODE END DebugMonitor_IRQn 1 */
}
 80010c8:	bf00      	nop
 80010ca:	46bd      	mov	sp, r7
 80010cc:	f85d 7b04 	ldr.w	r7, [sp], #4
 80010d0:	4770      	bx	lr

080010d2 <PendSV_Handler>:

/**
  * @brief This function handles Pendable request for system service.
  */
void PendSV_Handler(void)
{
 80010d2:	b480      	push	{r7}
 80010d4:	af00      	add	r7, sp, #0

  /* USER CODE END PendSV_IRQn 0 */
  /* USER CODE BEGIN PendSV_IRQn 1 */

  /* USER CODE END PendSV_IRQn 1 */
}
 80010d6:	bf00      	nop
 80010d8:	46bd      	mov	sp, r7
 80010da:	f85d 7b04 	ldr.w	r7, [sp], #4
 80010de:	4770      	bx	lr

080010e0 <SysTick_Handler>:

/**
  * @brief This function handles System tick timer.
  */
void SysTick_Handler(void)
{
 80010e0:	b580      	push	{r7, lr}
 80010e2:	af00      	add	r7, sp, #0
  /* USER CODE BEGIN SysTick_IRQn 0 */

  /* USER CODE END SysTick_IRQn 0 */
  HAL_IncTick();
 80010e4:	f000 f890 	bl	8001208 <HAL_IncTick>
  /* USER CODE BEGIN SysTick_IRQn 1 */

  /* USER CODE END SysTick_IRQn 1 */
}
 80010e8:	bf00      	nop
 80010ea:	bd80      	pop	{r7, pc}

080010ec <SystemInit>:
  *         configuration.
  * @param  None
  * @retval None
  */
void SystemInit(void)
{
 80010ec:	b480      	push	{r7}
 80010ee:	af00      	add	r7, sp, #0
  /* FPU settings ------------------------------------------------------------*/
  #if (__FPU_PRESENT == 1) && (__FPU_USED == 1)
    SCB->CPACR |= ((3UL << 10*2)|(3UL << 11*2));  /* set CP10 and CP11 Full Access */
 80010f0:	4b06      	ldr	r3, [pc, #24]	; (800110c <SystemInit+0x20>)
 80010f2:	f8d3 3088 	ldr.w	r3, [r3, #136]	; 0x88
 80010f6:	4a05      	ldr	r2, [pc, #20]	; (800110c <SystemInit+0x20>)
 80010f8:	f443 0370 	orr.w	r3, r3, #15728640	; 0xf00000
 80010fc:	f8c2 3088 	str.w	r3, [r2, #136]	; 0x88

  /* Configure the Vector Table location -------------------------------------*/
#if defined(USER_VECT_TAB_ADDRESS)
  SCB->VTOR = VECT_TAB_BASE_ADDRESS | VECT_TAB_OFFSET; /* Vector Table Relocation in Internal SRAM */
#endif /* USER_VECT_TAB_ADDRESS */
}
 8001100:	bf00      	nop
 8001102:	46bd      	mov	sp, r7
 8001104:	f85d 7b04 	ldr.w	r7, [sp], #4
 8001108:	4770      	bx	lr
 800110a:	bf00      	nop
 800110c:	e000ed00 	.word	0xe000ed00

08001110 <Reset_Handler>:

    .section  .text.Reset_Handler
  .weak  Reset_Handler
  .type  Reset_Handler, %function
Reset_Handler:  
  ldr   sp, =_estack     /* set stack pointer */
 8001110:	f8df d034 	ldr.w	sp, [pc, #52]	; 8001148 <LoopFillZerobss+0x12>

/* Copy the data segment initializers from flash to SRAM */  
  ldr r0, =_sdata
 8001114:	480d      	ldr	r0, [pc, #52]	; (800114c <LoopFillZerobss+0x16>)
  ldr r1, =_edata
 8001116:	490e      	ldr	r1, [pc, #56]	; (8001150 <LoopFillZerobss+0x1a>)
  ldr r2, =_sidata
 8001118:	4a0e      	ldr	r2, [pc, #56]	; (8001154 <LoopFillZerobss+0x1e>)
  movs r3, #0
 800111a:	2300      	movs	r3, #0
  b LoopCopyDataInit
 800111c:	e002      	b.n	8001124 <LoopCopyDataInit>

0800111e <CopyDataInit>:

CopyDataInit:
  ldr r4, [r2, r3]
 800111e:	58d4      	ldr	r4, [r2, r3]
  str r4, [r0, r3]
 8001120:	50c4      	str	r4, [r0, r3]
  adds r3, r3, #4
 8001122:	3304      	adds	r3, #4

08001124 <LoopCopyDataInit>:

LoopCopyDataInit:
  adds r4, r0, r3
 8001124:	18c4      	adds	r4, r0, r3
  cmp r4, r1
 8001126:	428c      	cmp	r4, r1
  bcc CopyDataInit
 8001128:	d3f9      	bcc.n	800111e <CopyDataInit>
  
/* Zero fill the bss segment. */
  ldr r2, =_sbss
 800112a:	4a0b      	ldr	r2, [pc, #44]	; (8001158 <LoopFillZerobss+0x22>)
  ldr r4, =_ebss
 800112c:	4c0b      	ldr	r4, [pc, #44]	; (800115c <LoopFillZerobss+0x26>)
  movs r3, #0
 800112e:	2300      	movs	r3, #0
  b LoopFillZerobss
 8001130:	e001      	b.n	8001136 <LoopFillZerobss>

08001132 <FillZerobss>:

FillZerobss:
  str  r3, [r2]
 8001132:	6013      	str	r3, [r2, #0]
  adds r2, r2, #4
 8001134:	3204      	adds	r2, #4

08001136 <LoopFillZerobss>:

LoopFillZerobss:
  cmp r2, r4
 8001136:	42a2      	cmp	r2, r4
  bcc FillZerobss
 8001138:	d3fb      	bcc.n	8001132 <FillZerobss>

/* Call the clock system intitialization function.*/
  bl  SystemInit   
 800113a:	f7ff ffd7 	bl	80010ec <SystemInit>
/* Call static constructors */
    bl __libc_init_array
 800113e:	f001 fb11 	bl	8002764 <__libc_init_array>
/* Call the application's entry point.*/
  bl  main
 8001142:	f7ff fddd 	bl	8000d00 <main>
  bx  lr    
 8001146:	4770      	bx	lr
  ldr   sp, =_estack     /* set stack pointer */
 8001148:	20020000 	.word	0x20020000
  ldr r0, =_sdata
 800114c:	20000000 	.word	0x20000000
  ldr r1, =_edata
 8001150:	20000010 	.word	0x20000010
  ldr r2, =_sidata
 8001154:	080027f4 	.word	0x080027f4
  ldr r2, =_sbss
 8001158:	20000010 	.word	0x20000010
  ldr r4, =_ebss
 800115c:	20000080 	.word	0x20000080

08001160 <ADC_IRQHandler>:
 * @retval None       
*/
    .section  .text.Default_Handler,"ax",%progbits
Default_Handler:
Infinite_Loop:
  b  Infinite_Loop
 8001160:	e7fe      	b.n	8001160 <ADC_IRQHandler>
	...

08001164 <HAL_Init>:
  *         need to ensure that the SysTick time base is always set to 1 millisecond
  *         to have correct HAL operation.
  * @retval HAL status
  */
HAL_StatusTypeDef HAL_Init(void)
{
 8001164:	b580      	push	{r7, lr}
 8001166:	af00      	add	r7, sp, #0
  /* Configure Flash prefetch, Instruction cache, Data cache */ 
#if (INSTRUCTION_CACHE_ENABLE != 0U)
  __HAL_FLASH_INSTRUCTION_CACHE_ENABLE();
 8001168:	4b0e      	ldr	r3, [pc, #56]	; (80011a4 <HAL_Init+0x40>)
 800116a:	681b      	ldr	r3, [r3, #0]
 800116c:	4a0d      	ldr	r2, [pc, #52]	; (80011a4 <HAL_Init+0x40>)
 800116e:	f443 7300 	orr.w	r3, r3, #512	; 0x200
 8001172:	6013      	str	r3, [r2, #0]
#endif /* INSTRUCTION_CACHE_ENABLE */

#if (DATA_CACHE_ENABLE != 0U)
  __HAL_FLASH_DATA_CACHE_ENABLE();
 8001174:	4b0b      	ldr	r3, [pc, #44]	; (80011a4 <HAL_Init+0x40>)
 8001176:	681b      	ldr	r3, [r3, #0]
 8001178:	4a0a      	ldr	r2, [pc, #40]	; (80011a4 <HAL_Init+0x40>)
 800117a:	f443 6380 	orr.w	r3, r3, #1024	; 0x400
 800117e:	6013      	str	r3, [r2, #0]
#endif /* DATA_CACHE_ENABLE */

#if (PREFETCH_ENABLE != 0U)
  __HAL_FLASH_PREFETCH_BUFFER_ENABLE();
 8001180:	4b08      	ldr	r3, [pc, #32]	; (80011a4 <HAL_Init+0x40>)
 8001182:	681b      	ldr	r3, [r3, #0]
 8001184:	4a07      	ldr	r2, [pc, #28]	; (80011a4 <HAL_Init+0x40>)
 8001186:	f443 7380 	orr.w	r3, r3, #256	; 0x100
 800118a:	6013      	str	r3, [r2, #0]
#endif /* PREFETCH_ENABLE */

  /* Set Interrupt Group Priority */
  HAL_NVIC_SetPriorityGrouping(NVIC_PRIORITYGROUP_4);
 800118c:	2003      	movs	r0, #3
 800118e:	f000 fcd9 	bl	8001b44 <HAL_NVIC_SetPriorityGrouping>

  /* Use systick as time base source and configure 1ms tick (default clock after Reset is HSI) */
  HAL_InitTick(TICK_INT_PRIORITY);
 8001192:	2000      	movs	r0, #0
 8001194:	f000 f808 	bl	80011a8 <HAL_InitTick>

  /* Init the low level hardware */
  HAL_MspInit();
 8001198:	f7ff ff12 	bl	8000fc0 <HAL_MspInit>

  /* Return function status */
  return HAL_OK;
 800119c:	2300      	movs	r3, #0
}
 800119e:	4618      	mov	r0, r3
 80011a0:	bd80      	pop	{r7, pc}
 80011a2:	bf00      	nop
 80011a4:	40023c00 	.word	0x40023c00

080011a8 <HAL_InitTick>:
  *       implementation  in user file.
  * @param TickPriority Tick interrupt priority.
  * @retval HAL status
  */
__weak HAL_StatusTypeDef HAL_InitTick(uint32_t TickPriority)
{
 80011a8:	b580      	push	{r7, lr}
 80011aa:	b082      	sub	sp, #8
 80011ac:	af00      	add	r7, sp, #0
 80011ae:	6078      	str	r0, [r7, #4]
  /* Configure the SysTick to have interrupt in 1ms time basis*/
  if (HAL_SYSTICK_Config(SystemCoreClock / (1000U / uwTickFreq)) > 0U)
 80011b0:	4b12      	ldr	r3, [pc, #72]	; (80011fc <HAL_InitTick+0x54>)
 80011b2:	681a      	ldr	r2, [r3, #0]
 80011b4:	4b12      	ldr	r3, [pc, #72]	; (8001200 <HAL_InitTick+0x58>)
 80011b6:	781b      	ldrb	r3, [r3, #0]
 80011b8:	4619      	mov	r1, r3
 80011ba:	f44f 737a 	mov.w	r3, #1000	; 0x3e8
 80011be:	fbb3 f3f1 	udiv	r3, r3, r1
 80011c2:	fbb2 f3f3 	udiv	r3, r2, r3
 80011c6:	4618      	mov	r0, r3
 80011c8:	f000 fce3 	bl	8001b92 <HAL_SYSTICK_Config>
 80011cc:	4603      	mov	r3, r0
 80011ce:	2b00      	cmp	r3, #0
 80011d0:	d001      	beq.n	80011d6 <HAL_InitTick+0x2e>
  {
    return HAL_ERROR;
 80011d2:	2301      	movs	r3, #1
 80011d4:	e00e      	b.n	80011f4 <HAL_InitTick+0x4c>
  }

  /* Configure the SysTick IRQ priority */
  if (TickPriority < (1UL << __NVIC_PRIO_BITS))
 80011d6:	687b      	ldr	r3, [r7, #4]
 80011d8:	2b0f      	cmp	r3, #15
 80011da:	d80a      	bhi.n	80011f2 <HAL_InitTick+0x4a>
  {
    HAL_NVIC_SetPriority(SysTick_IRQn, TickPriority, 0U);
 80011dc:	2200      	movs	r2, #0
 80011de:	6879      	ldr	r1, [r7, #4]
 80011e0:	f04f 30ff 	mov.w	r0, #4294967295
 80011e4:	f000 fcb9 	bl	8001b5a <HAL_NVIC_SetPriority>
    uwTickPrio = TickPriority;
 80011e8:	4a06      	ldr	r2, [pc, #24]	; (8001204 <HAL_InitTick+0x5c>)
 80011ea:	687b      	ldr	r3, [r7, #4]
 80011ec:	6013      	str	r3, [r2, #0]
  {
    return HAL_ERROR;
  }

  /* Return function status */
  return HAL_OK;
 80011ee:	2300      	movs	r3, #0
 80011f0:	e000      	b.n	80011f4 <HAL_InitTick+0x4c>
    return HAL_ERROR;
 80011f2:	2301      	movs	r3, #1
}
 80011f4:	4618      	mov	r0, r3
 80011f6:	3708      	adds	r7, #8
 80011f8:	46bd      	mov	sp, r7
 80011fa:	bd80      	pop	{r7, pc}
 80011fc:	20000004 	.word	0x20000004
 8001200:	2000000c 	.word	0x2000000c
 8001204:	20000008 	.word	0x20000008

08001208 <HAL_IncTick>:
 * @note This function is declared as __weak to be overwritten in case of other 
  *      implementations in user file.
  * @retval None
  */
__weak void HAL_IncTick(void)
{
 8001208:	b480      	push	{r7}
 800120a:	af00      	add	r7, sp, #0
  uwTick += uwTickFreq;
 800120c:	4b06      	ldr	r3, [pc, #24]	; (8001228 <HAL_IncTick+0x20>)
 800120e:	781b      	ldrb	r3, [r3, #0]
 8001210:	461a      	mov	r2, r3
 8001212:	4b06      	ldr	r3, [pc, #24]	; (800122c <HAL_IncTick+0x24>)
 8001214:	681b      	ldr	r3, [r3, #0]
 8001216:	4413      	add	r3, r2
 8001218:	4a04      	ldr	r2, [pc, #16]	; (800122c <HAL_IncTick+0x24>)
 800121a:	6013      	str	r3, [r2, #0]
}
 800121c:	bf00      	nop
 800121e:	46bd      	mov	sp, r7
 8001220:	f85d 7b04 	ldr.w	r7, [sp], #4
 8001224:	4770      	bx	lr
 8001226:	bf00      	nop
 8001228:	2000000c 	.word	0x2000000c
 800122c:	2000007c 	.word	0x2000007c

08001230 <HAL_GetTick>:
  * @note This function is declared as __weak to be overwritten in case of other 
  *       implementations in user file.
  * @retval tick value
  */
__weak uint32_t HAL_GetTick(void)
{
 8001230:	b480      	push	{r7}
 8001232:	af00      	add	r7, sp, #0
  return uwTick;
 8001234:	4b03      	ldr	r3, [pc, #12]	; (8001244 <HAL_GetTick+0x14>)
 8001236:	681b      	ldr	r3, [r3, #0]
}
 8001238:	4618      	mov	r0, r3
 800123a:	46bd      	mov	sp, r7
 800123c:	f85d 7b04 	ldr.w	r7, [sp], #4
 8001240:	4770      	bx	lr
 8001242:	bf00      	nop
 8001244:	2000007c 	.word	0x2000007c

08001248 <HAL_ADC_Init>:
  * @param  hadc pointer to a ADC_HandleTypeDef structure that contains
  *         the configuration information for the specified ADC.  
  * @retval HAL status
  */
HAL_StatusTypeDef HAL_ADC_Init(ADC_HandleTypeDef* hadc)
{
 8001248:	b580      	push	{r7, lr}
 800124a:	b084      	sub	sp, #16
 800124c:	af00      	add	r7, sp, #0
 800124e:	6078      	str	r0, [r7, #4]
  HAL_StatusTypeDef tmp_hal_status = HAL_OK;
 8001250:	2300      	movs	r3, #0
 8001252:	73fb      	strb	r3, [r7, #15]
  
  /* Check ADC handle */
  if(hadc == NULL)
 8001254:	687b      	ldr	r3, [r7, #4]
 8001256:	2b00      	cmp	r3, #0
 8001258:	d101      	bne.n	800125e <HAL_ADC_Init+0x16>
  {
    return HAL_ERROR;
 800125a:	2301      	movs	r3, #1
 800125c:	e033      	b.n	80012c6 <HAL_ADC_Init+0x7e>
  if(hadc->Init.ExternalTrigConv != ADC_SOFTWARE_START)
  {
    assert_param(IS_ADC_EXT_TRIG_EDGE(hadc->Init.ExternalTrigConvEdge));
  }
  
  if(hadc->State == HAL_ADC_STATE_RESET)
 800125e:	687b      	ldr	r3, [r7, #4]
 8001260:	6c1b      	ldr	r3, [r3, #64]	; 0x40
 8001262:	2b00      	cmp	r3, #0
 8001264:	d109      	bne.n	800127a <HAL_ADC_Init+0x32>

    /* Init the low level hardware */
    hadc->MspInitCallback(hadc);
#else
    /* Init the low level hardware */
    HAL_ADC_MspInit(hadc);
 8001266:	6878      	ldr	r0, [r7, #4]
 8001268:	f7ff fed2 	bl	8001010 <HAL_ADC_MspInit>
#endif /* USE_HAL_ADC_REGISTER_CALLBACKS */

    /* Initialize ADC error code */
    ADC_CLEAR_ERRORCODE(hadc);
 800126c:	687b      	ldr	r3, [r7, #4]
 800126e:	2200      	movs	r2, #0
 8001270:	645a      	str	r2, [r3, #68]	; 0x44
    
    /* Allocate lock resource and initialize it */
    hadc->Lock = HAL_UNLOCKED;
 8001272:	687b      	ldr	r3, [r7, #4]
 8001274:	2200      	movs	r2, #0
 8001276:	f883 203c 	strb.w	r2, [r3, #60]	; 0x3c
  }
  
  /* Configuration of ADC parameters if previous preliminary actions are      */ 
  /* correctly completed.                                                     */
  if (HAL_IS_BIT_CLR(hadc->State, HAL_ADC_STATE_ERROR_INTERNAL))
 800127a:	687b      	ldr	r3, [r7, #4]
 800127c:	6c1b      	ldr	r3, [r3, #64]	; 0x40
 800127e:	f003 0310 	and.w	r3, r3, #16
 8001282:	2b00      	cmp	r3, #0
 8001284:	d118      	bne.n	80012b8 <HAL_ADC_Init+0x70>
  {
    /* Set ADC state */
    ADC_STATE_CLR_SET(hadc->State,
 8001286:	687b      	ldr	r3, [r7, #4]
 8001288:	6c1b      	ldr	r3, [r3, #64]	; 0x40
 800128a:	f423 5388 	bic.w	r3, r3, #4352	; 0x1100
 800128e:	f023 0302 	bic.w	r3, r3, #2
 8001292:	f043 0202 	orr.w	r2, r3, #2
 8001296:	687b      	ldr	r3, [r7, #4]
 8001298:	641a      	str	r2, [r3, #64]	; 0x40
                      HAL_ADC_STATE_REG_BUSY | HAL_ADC_STATE_INJ_BUSY,
                      HAL_ADC_STATE_BUSY_INTERNAL);
    
    /* Set ADC parameters */
    ADC_Init(hadc);
 800129a:	6878      	ldr	r0, [r7, #4]
 800129c:	f000 faa4 	bl	80017e8 <ADC_Init>
    
    /* Set ADC error code to none */
    ADC_CLEAR_ERRORCODE(hadc);
 80012a0:	687b      	ldr	r3, [r7, #4]
 80012a2:	2200      	movs	r2, #0
 80012a4:	645a      	str	r2, [r3, #68]	; 0x44
    
    /* Set the ADC state */
    ADC_STATE_CLR_SET(hadc->State,
 80012a6:	687b      	ldr	r3, [r7, #4]
 80012a8:	6c1b      	ldr	r3, [r3, #64]	; 0x40
 80012aa:	f023 0303 	bic.w	r3, r3, #3
 80012ae:	f043 0201 	orr.w	r2, r3, #1
 80012b2:	687b      	ldr	r3, [r7, #4]
 80012b4:	641a      	str	r2, [r3, #64]	; 0x40
 80012b6:	e001      	b.n	80012bc <HAL_ADC_Init+0x74>
                      HAL_ADC_STATE_BUSY_INTERNAL,
                      HAL_ADC_STATE_READY);
  }
  else
  {
    tmp_hal_status = HAL_ERROR;
 80012b8:	2301      	movs	r3, #1
 80012ba:	73fb      	strb	r3, [r7, #15]
  }
  
  /* Release Lock */
  __HAL_UNLOCK(hadc);
 80012bc:	687b      	ldr	r3, [r7, #4]
 80012be:	2200      	movs	r2, #0
 80012c0:	f883 203c 	strb.w	r2, [r3, #60]	; 0x3c

  /* Return function status */
  return tmp_hal_status;
 80012c4:	7bfb      	ldrb	r3, [r7, #15]
}
 80012c6:	4618      	mov	r0, r3
 80012c8:	3710      	adds	r7, #16
 80012ca:	46bd      	mov	sp, r7
 80012cc:	bd80      	pop	{r7, pc}
	...

080012d0 <HAL_ADC_Start>:
  * @param  hadc pointer to a ADC_HandleTypeDef structure that contains
  *         the configuration information for the specified ADC.
  * @retval HAL status
  */
HAL_StatusTypeDef HAL_ADC_Start(ADC_HandleTypeDef* hadc)
{
 80012d0:	b480      	push	{r7}
 80012d2:	b085      	sub	sp, #20
 80012d4:	af00      	add	r7, sp, #0
 80012d6:	6078      	str	r0, [r7, #4]
  __IO uint32_t counter = 0U;
 80012d8:	2300      	movs	r3, #0
 80012da:	60bb      	str	r3, [r7, #8]
  /* Check the parameters */
  assert_param(IS_FUNCTIONAL_STATE(hadc->Init.ContinuousConvMode));
  assert_param(IS_ADC_EXT_TRIG_EDGE(hadc->Init.ExternalTrigConvEdge)); 
  
  /* Process locked */
  __HAL_LOCK(hadc);
 80012dc:	687b      	ldr	r3, [r7, #4]
 80012de:	f893 303c 	ldrb.w	r3, [r3, #60]	; 0x3c
 80012e2:	2b01      	cmp	r3, #1
 80012e4:	d101      	bne.n	80012ea <HAL_ADC_Start+0x1a>
 80012e6:	2302      	movs	r3, #2
 80012e8:	e0b2      	b.n	8001450 <HAL_ADC_Start+0x180>
 80012ea:	687b      	ldr	r3, [r7, #4]
 80012ec:	2201      	movs	r2, #1
 80012ee:	f883 203c 	strb.w	r2, [r3, #60]	; 0x3c
  
  /* Enable the ADC peripheral */
  /* Check if ADC peripheral is disabled in order to enable it and wait during 
  Tstab time the ADC's stabilization */
  if((hadc->Instance->CR2 & ADC_CR2_ADON) != ADC_CR2_ADON)
 80012f2:	687b      	ldr	r3, [r7, #4]
 80012f4:	681b      	ldr	r3, [r3, #0]
 80012f6:	689b      	ldr	r3, [r3, #8]
 80012f8:	f003 0301 	and.w	r3, r3, #1
 80012fc:	2b01      	cmp	r3, #1
 80012fe:	d018      	beq.n	8001332 <HAL_ADC_Start+0x62>
  {  
    /* Enable the Peripheral */
    __HAL_ADC_ENABLE(hadc);
 8001300:	687b      	ldr	r3, [r7, #4]
 8001302:	681b      	ldr	r3, [r3, #0]
 8001304:	689a      	ldr	r2, [r3, #8]
 8001306:	687b      	ldr	r3, [r7, #4]
 8001308:	681b      	ldr	r3, [r3, #0]
 800130a:	f042 0201 	orr.w	r2, r2, #1
 800130e:	609a      	str	r2, [r3, #8]
    
    /* Delay for ADC stabilization time */
    /* Compute number of CPU cycles to wait for */
    counter = (ADC_STAB_DELAY_US * (SystemCoreClock / 1000000U));
 8001310:	4b52      	ldr	r3, [pc, #328]	; (800145c <HAL_ADC_Start+0x18c>)
 8001312:	681b      	ldr	r3, [r3, #0]
 8001314:	4a52      	ldr	r2, [pc, #328]	; (8001460 <HAL_ADC_Start+0x190>)
 8001316:	fba2 2303 	umull	r2, r3, r2, r3
 800131a:	0c9a      	lsrs	r2, r3, #18
 800131c:	4613      	mov	r3, r2
 800131e:	005b      	lsls	r3, r3, #1
 8001320:	4413      	add	r3, r2
 8001322:	60bb      	str	r3, [r7, #8]
    while(counter != 0U)
 8001324:	e002      	b.n	800132c <HAL_ADC_Start+0x5c>
    {
      counter--;
 8001326:	68bb      	ldr	r3, [r7, #8]
 8001328:	3b01      	subs	r3, #1
 800132a:	60bb      	str	r3, [r7, #8]
    while(counter != 0U)
 800132c:	68bb      	ldr	r3, [r7, #8]
 800132e:	2b00      	cmp	r3, #0
 8001330:	d1f9      	bne.n	8001326 <HAL_ADC_Start+0x56>
    }
  }
  
  /* Start conversion if ADC is effectively enabled */
  if(HAL_IS_BIT_SET(hadc->Instance->CR2, ADC_CR2_ADON))
 8001332:	687b      	ldr	r3, [r7, #4]
 8001334:	681b      	ldr	r3, [r3, #0]
 8001336:	689b      	ldr	r3, [r3, #8]
 8001338:	f003 0301 	and.w	r3, r3, #1
 800133c:	2b01      	cmp	r3, #1
 800133e:	d17a      	bne.n	8001436 <HAL_ADC_Start+0x166>
  {
    /* Set ADC state                                                          */
    /* - Clear state bitfield related to regular group conversion results     */
    /* - Set state bitfield related to regular group operation                */
    ADC_STATE_CLR_SET(hadc->State,
 8001340:	687b      	ldr	r3, [r7, #4]
 8001342:	6c1b      	ldr	r3, [r3, #64]	; 0x40
 8001344:	f423 63e0 	bic.w	r3, r3, #1792	; 0x700
 8001348:	f023 0301 	bic.w	r3, r3, #1
 800134c:	f443 7280 	orr.w	r2, r3, #256	; 0x100
 8001350:	687b      	ldr	r3, [r7, #4]
 8001352:	641a      	str	r2, [r3, #64]	; 0x40
                      HAL_ADC_STATE_READY | HAL_ADC_STATE_REG_EOC | HAL_ADC_STATE_REG_OVR,
                      HAL_ADC_STATE_REG_BUSY);
    
    /* If conversions on group regular are also triggering group injected,    */
    /* update ADC state.                                                      */
    if (READ_BIT(hadc->Instance->CR1, ADC_CR1_JAUTO) != RESET)
 8001354:	687b      	ldr	r3, [r7, #4]
 8001356:	681b      	ldr	r3, [r3, #0]
 8001358:	685b      	ldr	r3, [r3, #4]
 800135a:	f403 6380 	and.w	r3, r3, #1024	; 0x400
 800135e:	2b00      	cmp	r3, #0
 8001360:	d007      	beq.n	8001372 <HAL_ADC_Start+0xa2>
    {
      ADC_STATE_CLR_SET(hadc->State, HAL_ADC_STATE_INJ_EOC, HAL_ADC_STATE_INJ_BUSY);  
 8001362:	687b      	ldr	r3, [r7, #4]
 8001364:	6c1b      	ldr	r3, [r3, #64]	; 0x40
 8001366:	f423 5340 	bic.w	r3, r3, #12288	; 0x3000
 800136a:	f443 5280 	orr.w	r2, r3, #4096	; 0x1000
 800136e:	687b      	ldr	r3, [r7, #4]
 8001370:	641a      	str	r2, [r3, #64]	; 0x40
    }
    
    /* State machine update: Check if an injected conversion is ongoing */
    if (HAL_IS_BIT_SET(hadc->State, HAL_ADC_STATE_INJ_BUSY))
 8001372:	687b      	ldr	r3, [r7, #4]
 8001374:	6c1b      	ldr	r3, [r3, #64]	; 0x40
 8001376:	f403 5380 	and.w	r3, r3, #4096	; 0x1000
 800137a:	f5b3 5f80 	cmp.w	r3, #4096	; 0x1000
 800137e:	d106      	bne.n	800138e <HAL_ADC_Start+0xbe>
    {
      /* Reset ADC error code fields related to conversions on group regular */
      CLEAR_BIT(hadc->ErrorCode, (HAL_ADC_ERROR_OVR | HAL_ADC_ERROR_DMA));         
 8001380:	687b      	ldr	r3, [r7, #4]
 8001382:	6c5b      	ldr	r3, [r3, #68]	; 0x44
 8001384:	f023 0206 	bic.w	r2, r3, #6
 8001388:	687b      	ldr	r3, [r7, #4]
 800138a:	645a      	str	r2, [r3, #68]	; 0x44
 800138c:	e002      	b.n	8001394 <HAL_ADC_Start+0xc4>
    }
    else
    {
      /* Reset ADC all error code fields */
      ADC_CLEAR_ERRORCODE(hadc);
 800138e:	687b      	ldr	r3, [r7, #4]
 8001390:	2200      	movs	r2, #0
 8001392:	645a      	str	r2, [r3, #68]	; 0x44
    } 

    /* Process unlocked */
    /* Unlock before starting ADC conversions: in case of potential           */
    /* interruption, to let the process to ADC IRQ Handler.                   */
    __HAL_UNLOCK(hadc);
 8001394:	687b      	ldr	r3, [r7, #4]
 8001396:	2200      	movs	r2, #0
 8001398:	f883 203c 	strb.w	r2, [r3, #60]	; 0x3c

    /* Pointer to the common control register to which is belonging hadc    */
    /* (Depending on STM32F4 product, there may be up to 3 ADCs and 1 common */
    /* control register)                                                    */
    tmpADC_Common = ADC_COMMON_REGISTER(hadc);
 800139c:	4b31      	ldr	r3, [pc, #196]	; (8001464 <HAL_ADC_Start+0x194>)
 800139e:	60fb      	str	r3, [r7, #12]

    /* Clear regular group conversion flag and overrun flag */
    /* (To ensure of no unknown state from potential previous ADC operations) */
    __HAL_ADC_CLEAR_FLAG(hadc, ADC_FLAG_EOC | ADC_FLAG_OVR);
 80013a0:	687b      	ldr	r3, [r7, #4]
 80013a2:	681b      	ldr	r3, [r3, #0]
 80013a4:	f06f 0222 	mvn.w	r2, #34	; 0x22
 80013a8:	601a      	str	r2, [r3, #0]
    
    /* Check if Multimode enabled */
    if(HAL_IS_BIT_CLR(tmpADC_Common->CCR, ADC_CCR_MULTI))
 80013aa:	68fb      	ldr	r3, [r7, #12]
 80013ac:	685b      	ldr	r3, [r3, #4]
 80013ae:	f003 031f 	and.w	r3, r3, #31
 80013b2:	2b00      	cmp	r3, #0
 80013b4:	d12a      	bne.n	800140c <HAL_ADC_Start+0x13c>
    {
#if defined(ADC2) && defined(ADC3)
      if((hadc->Instance == ADC1) || ((hadc->Instance == ADC2) && ((ADC->CCR & ADC_CCR_MULTI_Msk) < ADC_CCR_MULTI_0)) \
 80013b6:	687b      	ldr	r3, [r7, #4]
 80013b8:	681b      	ldr	r3, [r3, #0]
 80013ba:	4a2b      	ldr	r2, [pc, #172]	; (8001468 <HAL_ADC_Start+0x198>)
 80013bc:	4293      	cmp	r3, r2
 80013be:	d015      	beq.n	80013ec <HAL_ADC_Start+0x11c>
 80013c0:	687b      	ldr	r3, [r7, #4]
 80013c2:	681b      	ldr	r3, [r3, #0]
 80013c4:	4a29      	ldr	r2, [pc, #164]	; (800146c <HAL_ADC_Start+0x19c>)
 80013c6:	4293      	cmp	r3, r2
 80013c8:	d105      	bne.n	80013d6 <HAL_ADC_Start+0x106>
 80013ca:	4b26      	ldr	r3, [pc, #152]	; (8001464 <HAL_ADC_Start+0x194>)
 80013cc:	685b      	ldr	r3, [r3, #4]
 80013ce:	f003 031f 	and.w	r3, r3, #31
 80013d2:	2b00      	cmp	r3, #0
 80013d4:	d00a      	beq.n	80013ec <HAL_ADC_Start+0x11c>
                                  || ((hadc->Instance == ADC3) && ((ADC->CCR & ADC_CCR_MULTI_Msk) < ADC_CCR_MULTI_4)))
 80013d6:	687b      	ldr	r3, [r7, #4]
 80013d8:	681b      	ldr	r3, [r3, #0]
 80013da:	4a25      	ldr	r2, [pc, #148]	; (8001470 <HAL_ADC_Start+0x1a0>)
 80013dc:	4293      	cmp	r3, r2
 80013de:	d136      	bne.n	800144e <HAL_ADC_Start+0x17e>
 80013e0:	4b20      	ldr	r3, [pc, #128]	; (8001464 <HAL_ADC_Start+0x194>)
 80013e2:	685b      	ldr	r3, [r3, #4]
 80013e4:	f003 0310 	and.w	r3, r3, #16
 80013e8:	2b00      	cmp	r3, #0
 80013ea:	d130      	bne.n	800144e <HAL_ADC_Start+0x17e>
      {
#endif /* ADC2 || ADC3 */
        /* if no external trigger present enable software conversion of regular channels */
        if((hadc->Instance->CR2 & ADC_CR2_EXTEN) == RESET) 
 80013ec:	687b      	ldr	r3, [r7, #4]
 80013ee:	681b      	ldr	r3, [r3, #0]
 80013f0:	689b      	ldr	r3, [r3, #8]
 80013f2:	f003 5340 	and.w	r3, r3, #805306368	; 0x30000000
 80013f6:	2b00      	cmp	r3, #0
 80013f8:	d129      	bne.n	800144e <HAL_ADC_Start+0x17e>
        {
          /* Enable the selected ADC software conversion for regular group */
          hadc->Instance->CR2 |= (uint32_t)ADC_CR2_SWSTART;
 80013fa:	687b      	ldr	r3, [r7, #4]
 80013fc:	681b      	ldr	r3, [r3, #0]
 80013fe:	689a      	ldr	r2, [r3, #8]
 8001400:	687b      	ldr	r3, [r7, #4]
 8001402:	681b      	ldr	r3, [r3, #0]
 8001404:	f042 4280 	orr.w	r2, r2, #1073741824	; 0x40000000
 8001408:	609a      	str	r2, [r3, #8]
 800140a:	e020      	b.n	800144e <HAL_ADC_Start+0x17e>
#endif /* ADC2 || ADC3 */
    }
    else
    {
      /* if instance of handle correspond to ADC1 and  no external trigger present enable software conversion of regular channels */
      if((hadc->Instance == ADC1) && ((hadc->Instance->CR2 & ADC_CR2_EXTEN) == RESET))
 800140c:	687b      	ldr	r3, [r7, #4]
 800140e:	681b      	ldr	r3, [r3, #0]
 8001410:	4a15      	ldr	r2, [pc, #84]	; (8001468 <HAL_ADC_Start+0x198>)
 8001412:	4293      	cmp	r3, r2
 8001414:	d11b      	bne.n	800144e <HAL_ADC_Start+0x17e>
 8001416:	687b      	ldr	r3, [r7, #4]
 8001418:	681b      	ldr	r3, [r3, #0]
 800141a:	689b      	ldr	r3, [r3, #8]
 800141c:	f003 5340 	and.w	r3, r3, #805306368	; 0x30000000
 8001420:	2b00      	cmp	r3, #0
 8001422:	d114      	bne.n	800144e <HAL_ADC_Start+0x17e>
      {
        /* Enable the selected ADC software conversion for regular group */
          hadc->Instance->CR2 |= (uint32_t)ADC_CR2_SWSTART;
 8001424:	687b      	ldr	r3, [r7, #4]
 8001426:	681b      	ldr	r3, [r3, #0]
 8001428:	689a      	ldr	r2, [r3, #8]
 800142a:	687b      	ldr	r3, [r7, #4]
 800142c:	681b      	ldr	r3, [r3, #0]
 800142e:	f042 4280 	orr.w	r2, r2, #1073741824	; 0x40000000
 8001432:	609a      	str	r2, [r3, #8]
 8001434:	e00b      	b.n	800144e <HAL_ADC_Start+0x17e>
    }
  }
  else
  {
    /* Update ADC state machine to error */
    SET_BIT(hadc->State, HAL_ADC_STATE_ERROR_INTERNAL);
 8001436:	687b      	ldr	r3, [r7, #4]
 8001438:	6c1b      	ldr	r3, [r3, #64]	; 0x40
 800143a:	f043 0210 	orr.w	r2, r3, #16
 800143e:	687b      	ldr	r3, [r7, #4]
 8001440:	641a      	str	r2, [r3, #64]	; 0x40

    /* Set ADC error code to ADC IP internal error */
    SET_BIT(hadc->ErrorCode, HAL_ADC_ERROR_INTERNAL);
 8001442:	687b      	ldr	r3, [r7, #4]
 8001444:	6c5b      	ldr	r3, [r3, #68]	; 0x44
 8001446:	f043 0201 	orr.w	r2, r3, #1
 800144a:	687b      	ldr	r3, [r7, #4]
 800144c:	645a      	str	r2, [r3, #68]	; 0x44
  }
  
  /* Return function status */
  return HAL_OK;
 800144e:	2300      	movs	r3, #0
}
 8001450:	4618      	mov	r0, r3
 8001452:	3714      	adds	r7, #20
 8001454:	46bd      	mov	sp, r7
 8001456:	f85d 7b04 	ldr.w	r7, [sp], #4
 800145a:	4770      	bx	lr
 800145c:	20000004 	.word	0x20000004
 8001460:	431bde83 	.word	0x431bde83
 8001464:	40012300 	.word	0x40012300
 8001468:	40012000 	.word	0x40012000
 800146c:	40012100 	.word	0x40012100
 8001470:	40012200 	.word	0x40012200

08001474 <HAL_ADC_PollForConversion>:
  *         the configuration information for the specified ADC.
  * @param  Timeout Timeout value in millisecond.  
  * @retval HAL status
  */
HAL_StatusTypeDef HAL_ADC_PollForConversion(ADC_HandleTypeDef* hadc, uint32_t Timeout)
{
 8001474:	b580      	push	{r7, lr}
 8001476:	b084      	sub	sp, #16
 8001478:	af00      	add	r7, sp, #0
 800147a:	6078      	str	r0, [r7, #4]
 800147c:	6039      	str	r1, [r7, #0]
  uint32_t tickstart = 0U;
 800147e:	2300      	movs	r3, #0
 8001480:	60fb      	str	r3, [r7, #12]
  /* each conversion:                                                       */
  /* Particular case is ADC configured in DMA mode and ADC sequencer with   */
  /* several ranks and polling for end of each conversion.                  */
  /* For code simplicity sake, this particular case is generalized to       */
  /* ADC configured in DMA mode and polling for end of each conversion.     */
  if (HAL_IS_BIT_SET(hadc->Instance->CR2, ADC_CR2_EOCS) &&
 8001482:	687b      	ldr	r3, [r7, #4]
 8001484:	681b      	ldr	r3, [r3, #0]
 8001486:	689b      	ldr	r3, [r3, #8]
 8001488:	f403 6380 	and.w	r3, r3, #1024	; 0x400
 800148c:	f5b3 6f80 	cmp.w	r3, #1024	; 0x400
 8001490:	d113      	bne.n	80014ba <HAL_ADC_PollForConversion+0x46>
      HAL_IS_BIT_SET(hadc->Instance->CR2, ADC_CR2_DMA)    )
 8001492:	687b      	ldr	r3, [r7, #4]
 8001494:	681b      	ldr	r3, [r3, #0]
 8001496:	689b      	ldr	r3, [r3, #8]
 8001498:	f403 7380 	and.w	r3, r3, #256	; 0x100
  if (HAL_IS_BIT_SET(hadc->Instance->CR2, ADC_CR2_EOCS) &&
 800149c:	f5b3 7f80 	cmp.w	r3, #256	; 0x100
 80014a0:	d10b      	bne.n	80014ba <HAL_ADC_PollForConversion+0x46>
  {
    /* Update ADC state machine to error */
    SET_BIT(hadc->State, HAL_ADC_STATE_ERROR_CONFIG);
 80014a2:	687b      	ldr	r3, [r7, #4]
 80014a4:	6c1b      	ldr	r3, [r3, #64]	; 0x40
 80014a6:	f043 0220 	orr.w	r2, r3, #32
 80014aa:	687b      	ldr	r3, [r7, #4]
 80014ac:	641a      	str	r2, [r3, #64]	; 0x40
    
    /* Process unlocked */
    __HAL_UNLOCK(hadc);
 80014ae:	687b      	ldr	r3, [r7, #4]
 80014b0:	2200      	movs	r2, #0
 80014b2:	f883 203c 	strb.w	r2, [r3, #60]	; 0x3c
    
    return HAL_ERROR;
 80014b6:	2301      	movs	r3, #1
 80014b8:	e063      	b.n	8001582 <HAL_ADC_PollForConversion+0x10e>
  }

  /* Get tick */ 
  tickstart = HAL_GetTick();
 80014ba:	f7ff feb9 	bl	8001230 <HAL_GetTick>
 80014be:	60f8      	str	r0, [r7, #12]

  /* Check End of conversion flag */
  while(!(__HAL_ADC_GET_FLAG(hadc, ADC_FLAG_EOC)))
 80014c0:	e021      	b.n	8001506 <HAL_ADC_PollForConversion+0x92>
  {
    /* Check if timeout is disabled (set to infinite wait) */
    if(Timeout != HAL_MAX_DELAY)
 80014c2:	683b      	ldr	r3, [r7, #0]
 80014c4:	f1b3 3fff 	cmp.w	r3, #4294967295
 80014c8:	d01d      	beq.n	8001506 <HAL_ADC_PollForConversion+0x92>
    {
      if((Timeout == 0U) || ((HAL_GetTick() - tickstart ) > Timeout))
 80014ca:	683b      	ldr	r3, [r7, #0]
 80014cc:	2b00      	cmp	r3, #0
 80014ce:	d007      	beq.n	80014e0 <HAL_ADC_PollForConversion+0x6c>
 80014d0:	f7ff feae 	bl	8001230 <HAL_GetTick>
 80014d4:	4602      	mov	r2, r0
 80014d6:	68fb      	ldr	r3, [r7, #12]
 80014d8:	1ad3      	subs	r3, r2, r3
 80014da:	683a      	ldr	r2, [r7, #0]
 80014dc:	429a      	cmp	r2, r3
 80014de:	d212      	bcs.n	8001506 <HAL_ADC_PollForConversion+0x92>
      {
        /* New check to avoid false timeout detection in case of preemption */
        if(!(__HAL_ADC_GET_FLAG(hadc, ADC_FLAG_EOC)))
 80014e0:	687b      	ldr	r3, [r7, #4]
 80014e2:	681b      	ldr	r3, [r3, #0]
 80014e4:	681b      	ldr	r3, [r3, #0]
 80014e6:	f003 0302 	and.w	r3, r3, #2
 80014ea:	2b02      	cmp	r3, #2
 80014ec:	d00b      	beq.n	8001506 <HAL_ADC_PollForConversion+0x92>
        {
          /* Update ADC state machine to timeout */
          SET_BIT(hadc->State, HAL_ADC_STATE_TIMEOUT);
 80014ee:	687b      	ldr	r3, [r7, #4]
 80014f0:	6c1b      	ldr	r3, [r3, #64]	; 0x40
 80014f2:	f043 0204 	orr.w	r2, r3, #4
 80014f6:	687b      	ldr	r3, [r7, #4]
 80014f8:	641a      	str	r2, [r3, #64]	; 0x40
          
          /* Process unlocked */
          __HAL_UNLOCK(hadc);
 80014fa:	687b      	ldr	r3, [r7, #4]
 80014fc:	2200      	movs	r2, #0
 80014fe:	f883 203c 	strb.w	r2, [r3, #60]	; 0x3c
          
          return HAL_TIMEOUT;
 8001502:	2303      	movs	r3, #3
 8001504:	e03d      	b.n	8001582 <HAL_ADC_PollForConversion+0x10e>
  while(!(__HAL_ADC_GET_FLAG(hadc, ADC_FLAG_EOC)))
 8001506:	687b      	ldr	r3, [r7, #4]
 8001508:	681b      	ldr	r3, [r3, #0]
 800150a:	681b      	ldr	r3, [r3, #0]
 800150c:	f003 0302 	and.w	r3, r3, #2
 8001510:	2b02      	cmp	r3, #2
 8001512:	d1d6      	bne.n	80014c2 <HAL_ADC_PollForConversion+0x4e>
      }
    }
  }
  
  /* Clear regular group conversion flag */
  __HAL_ADC_CLEAR_FLAG(hadc, ADC_FLAG_STRT | ADC_FLAG_EOC);
 8001514:	687b      	ldr	r3, [r7, #4]
 8001516:	681b      	ldr	r3, [r3, #0]
 8001518:	f06f 0212 	mvn.w	r2, #18
 800151c:	601a      	str	r2, [r3, #0]
  
  /* Update ADC state machine */
  SET_BIT(hadc->State, HAL_ADC_STATE_REG_EOC);
 800151e:	687b      	ldr	r3, [r7, #4]
 8001520:	6c1b      	ldr	r3, [r3, #64]	; 0x40
 8001522:	f443 7200 	orr.w	r2, r3, #512	; 0x200
 8001526:	687b      	ldr	r3, [r7, #4]
 8001528:	641a      	str	r2, [r3, #64]	; 0x40
  /* by external trigger, continuous mode or scan sequence on going.          */
  /* Note: On STM32F4, there is no independent flag of end of sequence.       */
  /*       The test of scan sequence on going is done either with scan        */
  /*       sequence disabled or with end of conversion flag set to            */
  /*       of end of sequence.                                                */
  if(ADC_IS_SOFTWARE_START_REGULAR(hadc)                   &&
 800152a:	687b      	ldr	r3, [r7, #4]
 800152c:	681b      	ldr	r3, [r3, #0]
 800152e:	689b      	ldr	r3, [r3, #8]
 8001530:	f003 5340 	and.w	r3, r3, #805306368	; 0x30000000
 8001534:	2b00      	cmp	r3, #0
 8001536:	d123      	bne.n	8001580 <HAL_ADC_PollForConversion+0x10c>
     (hadc->Init.ContinuousConvMode == DISABLE)            &&
 8001538:	687b      	ldr	r3, [r7, #4]
 800153a:	7e1b      	ldrb	r3, [r3, #24]
  if(ADC_IS_SOFTWARE_START_REGULAR(hadc)                   &&
 800153c:	2b00      	cmp	r3, #0
 800153e:	d11f      	bne.n	8001580 <HAL_ADC_PollForConversion+0x10c>
     (HAL_IS_BIT_CLR(hadc->Instance->SQR1, ADC_SQR1_L) ||
 8001540:	687b      	ldr	r3, [r7, #4]
 8001542:	681b      	ldr	r3, [r3, #0]
 8001544:	6adb      	ldr	r3, [r3, #44]	; 0x2c
 8001546:	f403 0370 	and.w	r3, r3, #15728640	; 0xf00000
     (hadc->Init.ContinuousConvMode == DISABLE)            &&
 800154a:	2b00      	cmp	r3, #0
 800154c:	d006      	beq.n	800155c <HAL_ADC_PollForConversion+0xe8>
      HAL_IS_BIT_CLR(hadc->Instance->CR2, ADC_CR2_EOCS)  )   )
 800154e:	687b      	ldr	r3, [r7, #4]
 8001550:	681b      	ldr	r3, [r3, #0]
 8001552:	689b      	ldr	r3, [r3, #8]
 8001554:	f403 6380 	and.w	r3, r3, #1024	; 0x400
     (HAL_IS_BIT_CLR(hadc->Instance->SQR1, ADC_SQR1_L) ||
 8001558:	2b00      	cmp	r3, #0
 800155a:	d111      	bne.n	8001580 <HAL_ADC_PollForConversion+0x10c>
  {
    /* Set ADC state */
    CLEAR_BIT(hadc->State, HAL_ADC_STATE_REG_BUSY);   
 800155c:	687b      	ldr	r3, [r7, #4]
 800155e:	6c1b      	ldr	r3, [r3, #64]	; 0x40
 8001560:	f423 7280 	bic.w	r2, r3, #256	; 0x100
 8001564:	687b      	ldr	r3, [r7, #4]
 8001566:	641a      	str	r2, [r3, #64]	; 0x40
    
    if (HAL_IS_BIT_CLR(hadc->State, HAL_ADC_STATE_INJ_BUSY))
 8001568:	687b      	ldr	r3, [r7, #4]
 800156a:	6c1b      	ldr	r3, [r3, #64]	; 0x40
 800156c:	f403 5380 	and.w	r3, r3, #4096	; 0x1000
 8001570:	2b00      	cmp	r3, #0
 8001572:	d105      	bne.n	8001580 <HAL_ADC_PollForConversion+0x10c>
    { 
      SET_BIT(hadc->State, HAL_ADC_STATE_READY);
 8001574:	687b      	ldr	r3, [r7, #4]
 8001576:	6c1b      	ldr	r3, [r3, #64]	; 0x40
 8001578:	f043 0201 	orr.w	r2, r3, #1
 800157c:	687b      	ldr	r3, [r7, #4]
 800157e:	641a      	str	r2, [r3, #64]	; 0x40
    }
  }
  
  /* Return ADC state */
  return HAL_OK;
 8001580:	2300      	movs	r3, #0
}
 8001582:	4618      	mov	r0, r3
 8001584:	3710      	adds	r7, #16
 8001586:	46bd      	mov	sp, r7
 8001588:	bd80      	pop	{r7, pc}

0800158a <HAL_ADC_GetValue>:
  * @param  hadc pointer to a ADC_HandleTypeDef structure that contains
  *         the configuration information for the specified ADC.
  * @retval Converted value
  */
uint32_t HAL_ADC_GetValue(ADC_HandleTypeDef* hadc)
{       
 800158a:	b480      	push	{r7}
 800158c:	b083      	sub	sp, #12
 800158e:	af00      	add	r7, sp, #0
 8001590:	6078      	str	r0, [r7, #4]
  /* Return the selected ADC converted value */ 
  return hadc->Instance->DR;
 8001592:	687b      	ldr	r3, [r7, #4]
 8001594:	681b      	ldr	r3, [r3, #0]
 8001596:	6cdb      	ldr	r3, [r3, #76]	; 0x4c
}
 8001598:	4618      	mov	r0, r3
 800159a:	370c      	adds	r7, #12
 800159c:	46bd      	mov	sp, r7
 800159e:	f85d 7b04 	ldr.w	r7, [sp], #4
 80015a2:	4770      	bx	lr

080015a4 <HAL_ADC_ConfigChannel>:
  *         the configuration information for the specified ADC.
  * @param  sConfig ADC configuration structure. 
  * @retval HAL status
  */
HAL_StatusTypeDef HAL_ADC_ConfigChannel(ADC_HandleTypeDef* hadc, ADC_ChannelConfTypeDef* sConfig)
{
 80015a4:	b480      	push	{r7}
 80015a6:	b085      	sub	sp, #20
 80015a8:	af00      	add	r7, sp, #0
 80015aa:	6078      	str	r0, [r7, #4]
 80015ac:	6039      	str	r1, [r7, #0]
  __IO uint32_t counter = 0U;
 80015ae:	2300      	movs	r3, #0
 80015b0:	60bb      	str	r3, [r7, #8]
  assert_param(IS_ADC_CHANNEL(sConfig->Channel));
  assert_param(IS_ADC_REGULAR_RANK(sConfig->Rank));
  assert_param(IS_ADC_SAMPLE_TIME(sConfig->SamplingTime));
  
  /* Process locked */
  __HAL_LOCK(hadc);
 80015b2:	687b      	ldr	r3, [r7, #4]
 80015b4:	f893 303c 	ldrb.w	r3, [r3, #60]	; 0x3c
 80015b8:	2b01      	cmp	r3, #1
 80015ba:	d101      	bne.n	80015c0 <HAL_ADC_ConfigChannel+0x1c>
 80015bc:	2302      	movs	r3, #2
 80015be:	e105      	b.n	80017cc <HAL_ADC_ConfigChannel+0x228>
 80015c0:	687b      	ldr	r3, [r7, #4]
 80015c2:	2201      	movs	r2, #1
 80015c4:	f883 203c 	strb.w	r2, [r3, #60]	; 0x3c
    
  /* if ADC_Channel_10 ... ADC_Channel_18 is selected */
  if (sConfig->Channel > ADC_CHANNEL_9)
 80015c8:	683b      	ldr	r3, [r7, #0]
 80015ca:	681b      	ldr	r3, [r3, #0]
 80015cc:	2b09      	cmp	r3, #9
 80015ce:	d925      	bls.n	800161c <HAL_ADC_ConfigChannel+0x78>
  {
    /* Clear the old sample time */
    hadc->Instance->SMPR1 &= ~ADC_SMPR1(ADC_SMPR1_SMP10, sConfig->Channel);
 80015d0:	687b      	ldr	r3, [r7, #4]
 80015d2:	681b      	ldr	r3, [r3, #0]
 80015d4:	68d9      	ldr	r1, [r3, #12]
 80015d6:	683b      	ldr	r3, [r7, #0]
 80015d8:	681b      	ldr	r3, [r3, #0]
 80015da:	b29b      	uxth	r3, r3
 80015dc:	461a      	mov	r2, r3
 80015de:	4613      	mov	r3, r2
 80015e0:	005b      	lsls	r3, r3, #1
 80015e2:	4413      	add	r3, r2
 80015e4:	3b1e      	subs	r3, #30
 80015e6:	2207      	movs	r2, #7
 80015e8:	fa02 f303 	lsl.w	r3, r2, r3
 80015ec:	43da      	mvns	r2, r3
 80015ee:	687b      	ldr	r3, [r7, #4]
 80015f0:	681b      	ldr	r3, [r3, #0]
 80015f2:	400a      	ands	r2, r1
 80015f4:	60da      	str	r2, [r3, #12]
    
    /* Set the new sample time */
    hadc->Instance->SMPR1 |= ADC_SMPR1(sConfig->SamplingTime, sConfig->Channel);
 80015f6:	687b      	ldr	r3, [r7, #4]
 80015f8:	681b      	ldr	r3, [r3, #0]
 80015fa:	68d9      	ldr	r1, [r3, #12]
 80015fc:	683b      	ldr	r3, [r7, #0]
 80015fe:	689a      	ldr	r2, [r3, #8]
 8001600:	683b      	ldr	r3, [r7, #0]
 8001602:	681b      	ldr	r3, [r3, #0]
 8001604:	b29b      	uxth	r3, r3
 8001606:	4618      	mov	r0, r3
 8001608:	4603      	mov	r3, r0
 800160a:	005b      	lsls	r3, r3, #1
 800160c:	4403      	add	r3, r0
 800160e:	3b1e      	subs	r3, #30
 8001610:	409a      	lsls	r2, r3
 8001612:	687b      	ldr	r3, [r7, #4]
 8001614:	681b      	ldr	r3, [r3, #0]
 8001616:	430a      	orrs	r2, r1
 8001618:	60da      	str	r2, [r3, #12]
 800161a:	e022      	b.n	8001662 <HAL_ADC_ConfigChannel+0xbe>
  }
  else /* ADC_Channel include in ADC_Channel_[0..9] */
  {
    /* Clear the old sample time */
    hadc->Instance->SMPR2 &= ~ADC_SMPR2(ADC_SMPR2_SMP0, sConfig->Channel);
 800161c:	687b      	ldr	r3, [r7, #4]
 800161e:	681b      	ldr	r3, [r3, #0]
 8001620:	6919      	ldr	r1, [r3, #16]
 8001622:	683b      	ldr	r3, [r7, #0]
 8001624:	681b      	ldr	r3, [r3, #0]
 8001626:	b29b      	uxth	r3, r3
 8001628:	461a      	mov	r2, r3
 800162a:	4613      	mov	r3, r2
 800162c:	005b      	lsls	r3, r3, #1
 800162e:	4413      	add	r3, r2
 8001630:	2207      	movs	r2, #7
 8001632:	fa02 f303 	lsl.w	r3, r2, r3
 8001636:	43da      	mvns	r2, r3
 8001638:	687b      	ldr	r3, [r7, #4]
 800163a:	681b      	ldr	r3, [r3, #0]
 800163c:	400a      	ands	r2, r1
 800163e:	611a      	str	r2, [r3, #16]
    
    /* Set the new sample time */
    hadc->Instance->SMPR2 |= ADC_SMPR2(sConfig->SamplingTime, sConfig->Channel);
 8001640:	687b      	ldr	r3, [r7, #4]
 8001642:	681b      	ldr	r3, [r3, #0]
 8001644:	6919      	ldr	r1, [r3, #16]
 8001646:	683b      	ldr	r3, [r7, #0]
 8001648:	689a      	ldr	r2, [r3, #8]
 800164a:	683b      	ldr	r3, [r7, #0]
 800164c:	681b      	ldr	r3, [r3, #0]
 800164e:	b29b      	uxth	r3, r3
 8001650:	4618      	mov	r0, r3
 8001652:	4603      	mov	r3, r0
 8001654:	005b      	lsls	r3, r3, #1
 8001656:	4403      	add	r3, r0
 8001658:	409a      	lsls	r2, r3
 800165a:	687b      	ldr	r3, [r7, #4]
 800165c:	681b      	ldr	r3, [r3, #0]
 800165e:	430a      	orrs	r2, r1
 8001660:	611a      	str	r2, [r3, #16]
  }
  
  /* For Rank 1 to 6 */
  if (sConfig->Rank < 7U)
 8001662:	683b      	ldr	r3, [r7, #0]
 8001664:	685b      	ldr	r3, [r3, #4]
 8001666:	2b06      	cmp	r3, #6
 8001668:	d824      	bhi.n	80016b4 <HAL_ADC_ConfigChannel+0x110>
  {
    /* Clear the old SQx bits for the selected rank */
    hadc->Instance->SQR3 &= ~ADC_SQR3_RK(ADC_SQR3_SQ1, sConfig->Rank);
 800166a:	687b      	ldr	r3, [r7, #4]
 800166c:	681b      	ldr	r3, [r3, #0]
 800166e:	6b59      	ldr	r1, [r3, #52]	; 0x34
 8001670:	683b      	ldr	r3, [r7, #0]
 8001672:	685a      	ldr	r2, [r3, #4]
 8001674:	4613      	mov	r3, r2
 8001676:	009b      	lsls	r3, r3, #2
 8001678:	4413      	add	r3, r2
 800167a:	3b05      	subs	r3, #5
 800167c:	221f      	movs	r2, #31
 800167e:	fa02 f303 	lsl.w	r3, r2, r3
 8001682:	43da      	mvns	r2, r3
 8001684:	687b      	ldr	r3, [r7, #4]
 8001686:	681b      	ldr	r3, [r3, #0]
 8001688:	400a      	ands	r2, r1
 800168a:	635a      	str	r2, [r3, #52]	; 0x34
    
    /* Set the SQx bits for the selected rank */
    hadc->Instance->SQR3 |= ADC_SQR3_RK(sConfig->Channel, sConfig->Rank);
 800168c:	687b      	ldr	r3, [r7, #4]
 800168e:	681b      	ldr	r3, [r3, #0]
 8001690:	6b59      	ldr	r1, [r3, #52]	; 0x34
 8001692:	683b      	ldr	r3, [r7, #0]
 8001694:	681b      	ldr	r3, [r3, #0]
 8001696:	b29b      	uxth	r3, r3
 8001698:	4618      	mov	r0, r3
 800169a:	683b      	ldr	r3, [r7, #0]
 800169c:	685a      	ldr	r2, [r3, #4]
 800169e:	4613      	mov	r3, r2
 80016a0:	009b      	lsls	r3, r3, #2
 80016a2:	4413      	add	r3, r2
 80016a4:	3b05      	subs	r3, #5
 80016a6:	fa00 f203 	lsl.w	r2, r0, r3
 80016aa:	687b      	ldr	r3, [r7, #4]
 80016ac:	681b      	ldr	r3, [r3, #0]
 80016ae:	430a      	orrs	r2, r1
 80016b0:	635a      	str	r2, [r3, #52]	; 0x34
 80016b2:	e04c      	b.n	800174e <HAL_ADC_ConfigChannel+0x1aa>
  }
  /* For Rank 7 to 12 */
  else if (sConfig->Rank < 13U)
 80016b4:	683b      	ldr	r3, [r7, #0]
 80016b6:	685b      	ldr	r3, [r3, #4]
 80016b8:	2b0c      	cmp	r3, #12
 80016ba:	d824      	bhi.n	8001706 <HAL_ADC_ConfigChannel+0x162>
  {
    /* Clear the old SQx bits for the selected rank */
    hadc->Instance->SQR2 &= ~ADC_SQR2_RK(ADC_SQR2_SQ7, sConfig->Rank);
 80016bc:	687b      	ldr	r3, [r7, #4]
 80016be:	681b      	ldr	r3, [r3, #0]
 80016c0:	6b19      	ldr	r1, [r3, #48]	; 0x30
 80016c2:	683b      	ldr	r3, [r7, #0]
 80016c4:	685a      	ldr	r2, [r3, #4]
 80016c6:	4613      	mov	r3, r2
 80016c8:	009b      	lsls	r3, r3, #2
 80016ca:	4413      	add	r3, r2
 80016cc:	3b23      	subs	r3, #35	; 0x23
 80016ce:	221f      	movs	r2, #31
 80016d0:	fa02 f303 	lsl.w	r3, r2, r3
 80016d4:	43da      	mvns	r2, r3
 80016d6:	687b      	ldr	r3, [r7, #4]
 80016d8:	681b      	ldr	r3, [r3, #0]
 80016da:	400a      	ands	r2, r1
 80016dc:	631a      	str	r2, [r3, #48]	; 0x30
    
    /* Set the SQx bits for the selected rank */
    hadc->Instance->SQR2 |= ADC_SQR2_RK(sConfig->Channel, sConfig->Rank);
 80016de:	687b      	ldr	r3, [r7, #4]
 80016e0:	681b      	ldr	r3, [r3, #0]
 80016e2:	6b19      	ldr	r1, [r3, #48]	; 0x30
 80016e4:	683b      	ldr	r3, [r7, #0]
 80016e6:	681b      	ldr	r3, [r3, #0]
 80016e8:	b29b      	uxth	r3, r3
 80016ea:	4618      	mov	r0, r3
 80016ec:	683b      	ldr	r3, [r7, #0]
 80016ee:	685a      	ldr	r2, [r3, #4]
 80016f0:	4613      	mov	r3, r2
 80016f2:	009b      	lsls	r3, r3, #2
 80016f4:	4413      	add	r3, r2
 80016f6:	3b23      	subs	r3, #35	; 0x23
 80016f8:	fa00 f203 	lsl.w	r2, r0, r3
 80016fc:	687b      	ldr	r3, [r7, #4]
 80016fe:	681b      	ldr	r3, [r3, #0]
 8001700:	430a      	orrs	r2, r1
 8001702:	631a      	str	r2, [r3, #48]	; 0x30
 8001704:	e023      	b.n	800174e <HAL_ADC_ConfigChannel+0x1aa>
  }
  /* For Rank 13 to 16 */
  else
  {
    /* Clear the old SQx bits for the selected rank */
    hadc->Instance->SQR1 &= ~ADC_SQR1_RK(ADC_SQR1_SQ13, sConfig->Rank);
 8001706:	687b      	ldr	r3, [r7, #4]
 8001708:	681b      	ldr	r3, [r3, #0]
 800170a:	6ad9      	ldr	r1, [r3, #44]	; 0x2c
 800170c:	683b      	ldr	r3, [r7, #0]
 800170e:	685a      	ldr	r2, [r3, #4]
 8001710:	4613      	mov	r3, r2
 8001712:	009b      	lsls	r3, r3, #2
 8001714:	4413      	add	r3, r2
 8001716:	3b41      	subs	r3, #65	; 0x41
 8001718:	221f      	movs	r2, #31
 800171a:	fa02 f303 	lsl.w	r3, r2, r3
 800171e:	43da      	mvns	r2, r3
 8001720:	687b      	ldr	r3, [r7, #4]
 8001722:	681b      	ldr	r3, [r3, #0]
 8001724:	400a      	ands	r2, r1
 8001726:	62da      	str	r2, [r3, #44]	; 0x2c
    
    /* Set the SQx bits for the selected rank */
    hadc->Instance->SQR1 |= ADC_SQR1_RK(sConfig->Channel, sConfig->Rank);
 8001728:	687b      	ldr	r3, [r7, #4]
 800172a:	681b      	ldr	r3, [r3, #0]
 800172c:	6ad9      	ldr	r1, [r3, #44]	; 0x2c
 800172e:	683b      	ldr	r3, [r7, #0]
 8001730:	681b      	ldr	r3, [r3, #0]
 8001732:	b29b      	uxth	r3, r3
 8001734:	4618      	mov	r0, r3
 8001736:	683b      	ldr	r3, [r7, #0]
 8001738:	685a      	ldr	r2, [r3, #4]
 800173a:	4613      	mov	r3, r2
 800173c:	009b      	lsls	r3, r3, #2
 800173e:	4413      	add	r3, r2
 8001740:	3b41      	subs	r3, #65	; 0x41
 8001742:	fa00 f203 	lsl.w	r2, r0, r3
 8001746:	687b      	ldr	r3, [r7, #4]
 8001748:	681b      	ldr	r3, [r3, #0]
 800174a:	430a      	orrs	r2, r1
 800174c:	62da      	str	r2, [r3, #44]	; 0x2c
  }

    /* Pointer to the common control register to which is belonging hadc    */
    /* (Depending on STM32F4 product, there may be up to 3 ADCs and 1 common */
    /* control register)                                                    */
    tmpADC_Common = ADC_COMMON_REGISTER(hadc);
 800174e:	4b22      	ldr	r3, [pc, #136]	; (80017d8 <HAL_ADC_ConfigChannel+0x234>)
 8001750:	60fb      	str	r3, [r7, #12]

  /* if ADC1 Channel_18 is selected for VBAT Channel ennable VBATE */
  if ((hadc->Instance == ADC1) && (sConfig->Channel == ADC_CHANNEL_VBAT))
 8001752:	687b      	ldr	r3, [r7, #4]
 8001754:	681b      	ldr	r3, [r3, #0]
 8001756:	4a21      	ldr	r2, [pc, #132]	; (80017dc <HAL_ADC_ConfigChannel+0x238>)
 8001758:	4293      	cmp	r3, r2
 800175a:	d109      	bne.n	8001770 <HAL_ADC_ConfigChannel+0x1cc>
 800175c:	683b      	ldr	r3, [r7, #0]
 800175e:	681b      	ldr	r3, [r3, #0]
 8001760:	2b12      	cmp	r3, #18
 8001762:	d105      	bne.n	8001770 <HAL_ADC_ConfigChannel+0x1cc>
    if ((uint16_t)ADC_CHANNEL_TEMPSENSOR == (uint16_t)ADC_CHANNEL_VBAT)
    {
      tmpADC_Common->CCR &= ~ADC_CCR_TSVREFE;
    }
    /* Enable the VBAT channel*/
    tmpADC_Common->CCR |= ADC_CCR_VBATE;
 8001764:	68fb      	ldr	r3, [r7, #12]
 8001766:	685b      	ldr	r3, [r3, #4]
 8001768:	f443 0280 	orr.w	r2, r3, #4194304	; 0x400000
 800176c:	68fb      	ldr	r3, [r7, #12]
 800176e:	605a      	str	r2, [r3, #4]
  }
  
  /* if ADC1 Channel_16 or Channel_18 is selected for Temperature sensor or 
     Channel_17 is selected for VREFINT enable TSVREFE */
  if ((hadc->Instance == ADC1) && ((sConfig->Channel == ADC_CHANNEL_TEMPSENSOR) || (sConfig->Channel == ADC_CHANNEL_VREFINT)))
 8001770:	687b      	ldr	r3, [r7, #4]
 8001772:	681b      	ldr	r3, [r3, #0]
 8001774:	4a19      	ldr	r2, [pc, #100]	; (80017dc <HAL_ADC_ConfigChannel+0x238>)
 8001776:	4293      	cmp	r3, r2
 8001778:	d123      	bne.n	80017c2 <HAL_ADC_ConfigChannel+0x21e>
 800177a:	683b      	ldr	r3, [r7, #0]
 800177c:	681b      	ldr	r3, [r3, #0]
 800177e:	2b10      	cmp	r3, #16
 8001780:	d003      	beq.n	800178a <HAL_ADC_ConfigChannel+0x1e6>
 8001782:	683b      	ldr	r3, [r7, #0]
 8001784:	681b      	ldr	r3, [r3, #0]
 8001786:	2b11      	cmp	r3, #17
 8001788:	d11b      	bne.n	80017c2 <HAL_ADC_ConfigChannel+0x21e>
    if ((uint16_t)ADC_CHANNEL_TEMPSENSOR == (uint16_t)ADC_CHANNEL_VBAT)
    {
      tmpADC_Common->CCR &= ~ADC_CCR_VBATE;
    }
    /* Enable the Temperature sensor and VREFINT channel*/
    tmpADC_Common->CCR |= ADC_CCR_TSVREFE;
 800178a:	68fb      	ldr	r3, [r7, #12]
 800178c:	685b      	ldr	r3, [r3, #4]
 800178e:	f443 0200 	orr.w	r2, r3, #8388608	; 0x800000
 8001792:	68fb      	ldr	r3, [r7, #12]
 8001794:	605a      	str	r2, [r3, #4]
    
    if(sConfig->Channel == ADC_CHANNEL_TEMPSENSOR)
 8001796:	683b      	ldr	r3, [r7, #0]
 8001798:	681b      	ldr	r3, [r3, #0]
 800179a:	2b10      	cmp	r3, #16
 800179c:	d111      	bne.n	80017c2 <HAL_ADC_ConfigChannel+0x21e>
    {
      /* Delay for temperature sensor stabilization time */
      /* Compute number of CPU cycles to wait for */
      counter = (ADC_TEMPSENSOR_DELAY_US * (SystemCoreClock / 1000000U));
 800179e:	4b10      	ldr	r3, [pc, #64]	; (80017e0 <HAL_ADC_ConfigChannel+0x23c>)
 80017a0:	681b      	ldr	r3, [r3, #0]
 80017a2:	4a10      	ldr	r2, [pc, #64]	; (80017e4 <HAL_ADC_ConfigChannel+0x240>)
 80017a4:	fba2 2303 	umull	r2, r3, r2, r3
 80017a8:	0c9a      	lsrs	r2, r3, #18
 80017aa:	4613      	mov	r3, r2
 80017ac:	009b      	lsls	r3, r3, #2
 80017ae:	4413      	add	r3, r2
 80017b0:	005b      	lsls	r3, r3, #1
 80017b2:	60bb      	str	r3, [r7, #8]
      while(counter != 0U)
 80017b4:	e002      	b.n	80017bc <HAL_ADC_ConfigChannel+0x218>
      {
        counter--;
 80017b6:	68bb      	ldr	r3, [r7, #8]
 80017b8:	3b01      	subs	r3, #1
 80017ba:	60bb      	str	r3, [r7, #8]
      while(counter != 0U)
 80017bc:	68bb      	ldr	r3, [r7, #8]
 80017be:	2b00      	cmp	r3, #0
 80017c0:	d1f9      	bne.n	80017b6 <HAL_ADC_ConfigChannel+0x212>
      }
    }
  }
  
  /* Process unlocked */
  __HAL_UNLOCK(hadc);
 80017c2:	687b      	ldr	r3, [r7, #4]
 80017c4:	2200      	movs	r2, #0
 80017c6:	f883 203c 	strb.w	r2, [r3, #60]	; 0x3c
  
  /* Return function status */
  return HAL_OK;
 80017ca:	2300      	movs	r3, #0
}
 80017cc:	4618      	mov	r0, r3
 80017ce:	3714      	adds	r7, #20
 80017d0:	46bd      	mov	sp, r7
 80017d2:	f85d 7b04 	ldr.w	r7, [sp], #4
 80017d6:	4770      	bx	lr
 80017d8:	40012300 	.word	0x40012300
 80017dc:	40012000 	.word	0x40012000
 80017e0:	20000004 	.word	0x20000004
 80017e4:	431bde83 	.word	0x431bde83

080017e8 <ADC_Init>:
  * @param  hadc pointer to a ADC_HandleTypeDef structure that contains
  *         the configuration information for the specified ADC.  
  * @retval None
  */
static void ADC_Init(ADC_HandleTypeDef* hadc)
{
 80017e8:	b480      	push	{r7}
 80017ea:	b085      	sub	sp, #20
 80017ec:	af00      	add	r7, sp, #0
 80017ee:	6078      	str	r0, [r7, #4]
  
  /* Set ADC parameters */
  /* Pointer to the common control register to which is belonging hadc    */
  /* (Depending on STM32F4 product, there may be up to 3 ADCs and 1 common */
  /* control register)                                                    */
  tmpADC_Common = ADC_COMMON_REGISTER(hadc);
 80017f0:	4b79      	ldr	r3, [pc, #484]	; (80019d8 <ADC_Init+0x1f0>)
 80017f2:	60fb      	str	r3, [r7, #12]
  
  /* Set the ADC clock prescaler */
  tmpADC_Common->CCR &= ~(ADC_CCR_ADCPRE);
 80017f4:	68fb      	ldr	r3, [r7, #12]
 80017f6:	685b      	ldr	r3, [r3, #4]
 80017f8:	f423 3240 	bic.w	r2, r3, #196608	; 0x30000
 80017fc:	68fb      	ldr	r3, [r7, #12]
 80017fe:	605a      	str	r2, [r3, #4]
  tmpADC_Common->CCR |=  hadc->Init.ClockPrescaler;
 8001800:	68fb      	ldr	r3, [r7, #12]
 8001802:	685a      	ldr	r2, [r3, #4]
 8001804:	687b      	ldr	r3, [r7, #4]
 8001806:	685b      	ldr	r3, [r3, #4]
 8001808:	431a      	orrs	r2, r3
 800180a:	68fb      	ldr	r3, [r7, #12]
 800180c:	605a      	str	r2, [r3, #4]
  
  /* Set ADC scan mode */
  hadc->Instance->CR1 &= ~(ADC_CR1_SCAN);
 800180e:	687b      	ldr	r3, [r7, #4]
 8001810:	681b      	ldr	r3, [r3, #0]
 8001812:	685a      	ldr	r2, [r3, #4]
 8001814:	687b      	ldr	r3, [r7, #4]
 8001816:	681b      	ldr	r3, [r3, #0]
 8001818:	f422 7280 	bic.w	r2, r2, #256	; 0x100
 800181c:	605a      	str	r2, [r3, #4]
  hadc->Instance->CR1 |=  ADC_CR1_SCANCONV(hadc->Init.ScanConvMode);
 800181e:	687b      	ldr	r3, [r7, #4]
 8001820:	681b      	ldr	r3, [r3, #0]
 8001822:	6859      	ldr	r1, [r3, #4]
 8001824:	687b      	ldr	r3, [r7, #4]
 8001826:	691b      	ldr	r3, [r3, #16]
 8001828:	021a      	lsls	r2, r3, #8
 800182a:	687b      	ldr	r3, [r7, #4]
 800182c:	681b      	ldr	r3, [r3, #0]
 800182e:	430a      	orrs	r2, r1
 8001830:	605a      	str	r2, [r3, #4]
  
  /* Set ADC resolution */
  hadc->Instance->CR1 &= ~(ADC_CR1_RES);
 8001832:	687b      	ldr	r3, [r7, #4]
 8001834:	681b      	ldr	r3, [r3, #0]
 8001836:	685a      	ldr	r2, [r3, #4]
 8001838:	687b      	ldr	r3, [r7, #4]
 800183a:	681b      	ldr	r3, [r3, #0]
 800183c:	f022 7240 	bic.w	r2, r2, #50331648	; 0x3000000
 8001840:	605a      	str	r2, [r3, #4]
  hadc->Instance->CR1 |=  hadc->Init.Resolution;
 8001842:	687b      	ldr	r3, [r7, #4]
 8001844:	681b      	ldr	r3, [r3, #0]
 8001846:	6859      	ldr	r1, [r3, #4]
 8001848:	687b      	ldr	r3, [r7, #4]
 800184a:	689a      	ldr	r2, [r3, #8]
 800184c:	687b      	ldr	r3, [r7, #4]
 800184e:	681b      	ldr	r3, [r3, #0]
 8001850:	430a      	orrs	r2, r1
 8001852:	605a      	str	r2, [r3, #4]
  
  /* Set ADC data alignment */
  hadc->Instance->CR2 &= ~(ADC_CR2_ALIGN);
 8001854:	687b      	ldr	r3, [r7, #4]
 8001856:	681b      	ldr	r3, [r3, #0]
 8001858:	689a      	ldr	r2, [r3, #8]
 800185a:	687b      	ldr	r3, [r7, #4]
 800185c:	681b      	ldr	r3, [r3, #0]
 800185e:	f422 6200 	bic.w	r2, r2, #2048	; 0x800
 8001862:	609a      	str	r2, [r3, #8]
  hadc->Instance->CR2 |= hadc->Init.DataAlign;
 8001864:	687b      	ldr	r3, [r7, #4]
 8001866:	681b      	ldr	r3, [r3, #0]
 8001868:	6899      	ldr	r1, [r3, #8]
 800186a:	687b      	ldr	r3, [r7, #4]
 800186c:	68da      	ldr	r2, [r3, #12]
 800186e:	687b      	ldr	r3, [r7, #4]
 8001870:	681b      	ldr	r3, [r3, #0]
 8001872:	430a      	orrs	r2, r1
 8001874:	609a      	str	r2, [r3, #8]
  /* Enable external trigger if trigger selection is different of software  */
  /* start.                                                                 */
  /* Note: This configuration keeps the hardware feature of parameter       */
  /*       ExternalTrigConvEdge "trigger edge none" equivalent to           */
  /*       software start.                                                  */
  if(hadc->Init.ExternalTrigConv != ADC_SOFTWARE_START)
 8001876:	687b      	ldr	r3, [r7, #4]
 8001878:	6a9b      	ldr	r3, [r3, #40]	; 0x28
 800187a:	4a58      	ldr	r2, [pc, #352]	; (80019dc <ADC_Init+0x1f4>)
 800187c:	4293      	cmp	r3, r2
 800187e:	d022      	beq.n	80018c6 <ADC_Init+0xde>
  {
    /* Select external trigger to start conversion */
    hadc->Instance->CR2 &= ~(ADC_CR2_EXTSEL);
 8001880:	687b      	ldr	r3, [r7, #4]
 8001882:	681b      	ldr	r3, [r3, #0]
 8001884:	689a      	ldr	r2, [r3, #8]
 8001886:	687b      	ldr	r3, [r7, #4]
 8001888:	681b      	ldr	r3, [r3, #0]
 800188a:	f022 6270 	bic.w	r2, r2, #251658240	; 0xf000000
 800188e:	609a      	str	r2, [r3, #8]
    hadc->Instance->CR2 |= hadc->Init.ExternalTrigConv;
 8001890:	687b      	ldr	r3, [r7, #4]
 8001892:	681b      	ldr	r3, [r3, #0]
 8001894:	6899      	ldr	r1, [r3, #8]
 8001896:	687b      	ldr	r3, [r7, #4]
 8001898:	6a9a      	ldr	r2, [r3, #40]	; 0x28
 800189a:	687b      	ldr	r3, [r7, #4]
 800189c:	681b      	ldr	r3, [r3, #0]
 800189e:	430a      	orrs	r2, r1
 80018a0:	609a      	str	r2, [r3, #8]
    
    /* Select external trigger polarity */
    hadc->Instance->CR2 &= ~(ADC_CR2_EXTEN);
 80018a2:	687b      	ldr	r3, [r7, #4]
 80018a4:	681b      	ldr	r3, [r3, #0]
 80018a6:	689a      	ldr	r2, [r3, #8]
 80018a8:	687b      	ldr	r3, [r7, #4]
 80018aa:	681b      	ldr	r3, [r3, #0]
 80018ac:	f022 5240 	bic.w	r2, r2, #805306368	; 0x30000000
 80018b0:	609a      	str	r2, [r3, #8]
    hadc->Instance->CR2 |= hadc->Init.ExternalTrigConvEdge;
 80018b2:	687b      	ldr	r3, [r7, #4]
 80018b4:	681b      	ldr	r3, [r3, #0]
 80018b6:	6899      	ldr	r1, [r3, #8]
 80018b8:	687b      	ldr	r3, [r7, #4]
 80018ba:	6ada      	ldr	r2, [r3, #44]	; 0x2c
 80018bc:	687b      	ldr	r3, [r7, #4]
 80018be:	681b      	ldr	r3, [r3, #0]
 80018c0:	430a      	orrs	r2, r1
 80018c2:	609a      	str	r2, [r3, #8]
 80018c4:	e00f      	b.n	80018e6 <ADC_Init+0xfe>
  }
  else
  {
    /* Reset the external trigger */
    hadc->Instance->CR2 &= ~(ADC_CR2_EXTSEL);
 80018c6:	687b      	ldr	r3, [r7, #4]
 80018c8:	681b      	ldr	r3, [r3, #0]
 80018ca:	689a      	ldr	r2, [r3, #8]
 80018cc:	687b      	ldr	r3, [r7, #4]
 80018ce:	681b      	ldr	r3, [r3, #0]
 80018d0:	f022 6270 	bic.w	r2, r2, #251658240	; 0xf000000
 80018d4:	609a      	str	r2, [r3, #8]
    hadc->Instance->CR2 &= ~(ADC_CR2_EXTEN);
 80018d6:	687b      	ldr	r3, [r7, #4]
 80018d8:	681b      	ldr	r3, [r3, #0]
 80018da:	689a      	ldr	r2, [r3, #8]
 80018dc:	687b      	ldr	r3, [r7, #4]
 80018de:	681b      	ldr	r3, [r3, #0]
 80018e0:	f022 5240 	bic.w	r2, r2, #805306368	; 0x30000000
 80018e4:	609a      	str	r2, [r3, #8]
  }
  
  /* Enable or disable ADC continuous conversion mode */
  hadc->Instance->CR2 &= ~(ADC_CR2_CONT);
 80018e6:	687b      	ldr	r3, [r7, #4]
 80018e8:	681b      	ldr	r3, [r3, #0]
 80018ea:	689a      	ldr	r2, [r3, #8]
 80018ec:	687b      	ldr	r3, [r7, #4]
 80018ee:	681b      	ldr	r3, [r3, #0]
 80018f0:	f022 0202 	bic.w	r2, r2, #2
 80018f4:	609a      	str	r2, [r3, #8]
  hadc->Instance->CR2 |= ADC_CR2_CONTINUOUS((uint32_t)hadc->Init.ContinuousConvMode);
 80018f6:	687b      	ldr	r3, [r7, #4]
 80018f8:	681b      	ldr	r3, [r3, #0]
 80018fa:	6899      	ldr	r1, [r3, #8]
 80018fc:	687b      	ldr	r3, [r7, #4]
 80018fe:	7e1b      	ldrb	r3, [r3, #24]
 8001900:	005a      	lsls	r2, r3, #1
 8001902:	687b      	ldr	r3, [r7, #4]
 8001904:	681b      	ldr	r3, [r3, #0]
 8001906:	430a      	orrs	r2, r1
 8001908:	609a      	str	r2, [r3, #8]
  
  if(hadc->Init.DiscontinuousConvMode != DISABLE)
 800190a:	687b      	ldr	r3, [r7, #4]
 800190c:	f893 3020 	ldrb.w	r3, [r3, #32]
 8001910:	2b00      	cmp	r3, #0
 8001912:	d01b      	beq.n	800194c <ADC_Init+0x164>
  {
    assert_param(IS_ADC_REGULAR_DISC_NUMBER(hadc->Init.NbrOfDiscConversion));
  
    /* Enable the selected ADC regular discontinuous mode */
    hadc->Instance->CR1 |= (uint32_t)ADC_CR1_DISCEN;
 8001914:	687b      	ldr	r3, [r7, #4]
 8001916:	681b      	ldr	r3, [r3, #0]
 8001918:	685a      	ldr	r2, [r3, #4]
 800191a:	687b      	ldr	r3, [r7, #4]
 800191c:	681b      	ldr	r3, [r3, #0]
 800191e:	f442 6200 	orr.w	r2, r2, #2048	; 0x800
 8001922:	605a      	str	r2, [r3, #4]
    
    /* Set the number of channels to be converted in discontinuous mode */
    hadc->Instance->CR1 &= ~(ADC_CR1_DISCNUM);
 8001924:	687b      	ldr	r3, [r7, #4]
 8001926:	681b      	ldr	r3, [r3, #0]
 8001928:	685a      	ldr	r2, [r3, #4]
 800192a:	687b      	ldr	r3, [r7, #4]
 800192c:	681b      	ldr	r3, [r3, #0]
 800192e:	f422 4260 	bic.w	r2, r2, #57344	; 0xe000
 8001932:	605a      	str	r2, [r3, #4]
    hadc->Instance->CR1 |=  ADC_CR1_DISCONTINUOUS(hadc->Init.NbrOfDiscConversion);
 8001934:	687b      	ldr	r3, [r7, #4]
 8001936:	681b      	ldr	r3, [r3, #0]
 8001938:	6859      	ldr	r1, [r3, #4]
 800193a:	687b      	ldr	r3, [r7, #4]
 800193c:	6a5b      	ldr	r3, [r3, #36]	; 0x24
 800193e:	3b01      	subs	r3, #1
 8001940:	035a      	lsls	r2, r3, #13
 8001942:	687b      	ldr	r3, [r7, #4]
 8001944:	681b      	ldr	r3, [r3, #0]
 8001946:	430a      	orrs	r2, r1
 8001948:	605a      	str	r2, [r3, #4]
 800194a:	e007      	b.n	800195c <ADC_Init+0x174>
  }
  else
  {
    /* Disable the selected ADC regular discontinuous mode */
    hadc->Instance->CR1 &= ~(ADC_CR1_DISCEN);
 800194c:	687b      	ldr	r3, [r7, #4]
 800194e:	681b      	ldr	r3, [r3, #0]
 8001950:	685a      	ldr	r2, [r3, #4]
 8001952:	687b      	ldr	r3, [r7, #4]
 8001954:	681b      	ldr	r3, [r3, #0]
 8001956:	f422 6200 	bic.w	r2, r2, #2048	; 0x800
 800195a:	605a      	str	r2, [r3, #4]
  }
  
  /* Set ADC number of conversion */
  hadc->Instance->SQR1 &= ~(ADC_SQR1_L);
 800195c:	687b      	ldr	r3, [r7, #4]
 800195e:	681b      	ldr	r3, [r3, #0]
 8001960:	6ada      	ldr	r2, [r3, #44]	; 0x2c
 8001962:	687b      	ldr	r3, [r7, #4]
 8001964:	681b      	ldr	r3, [r3, #0]
 8001966:	f422 0270 	bic.w	r2, r2, #15728640	; 0xf00000
 800196a:	62da      	str	r2, [r3, #44]	; 0x2c
  hadc->Instance->SQR1 |=  ADC_SQR1(hadc->Init.NbrOfConversion);
 800196c:	687b      	ldr	r3, [r7, #4]
 800196e:	681b      	ldr	r3, [r3, #0]
 8001970:	6ad9      	ldr	r1, [r3, #44]	; 0x2c
 8001972:	687b      	ldr	r3, [r7, #4]
 8001974:	69db      	ldr	r3, [r3, #28]
 8001976:	3b01      	subs	r3, #1
 8001978:	051a      	lsls	r2, r3, #20
 800197a:	687b      	ldr	r3, [r7, #4]
 800197c:	681b      	ldr	r3, [r3, #0]
 800197e:	430a      	orrs	r2, r1
 8001980:	62da      	str	r2, [r3, #44]	; 0x2c
  
  /* Enable or disable ADC DMA continuous request */
  hadc->Instance->CR2 &= ~(ADC_CR2_DDS);
 8001982:	687b      	ldr	r3, [r7, #4]
 8001984:	681b      	ldr	r3, [r3, #0]
 8001986:	689a      	ldr	r2, [r3, #8]
 8001988:	687b      	ldr	r3, [r7, #4]
 800198a:	681b      	ldr	r3, [r3, #0]
 800198c:	f422 7200 	bic.w	r2, r2, #512	; 0x200
 8001990:	609a      	str	r2, [r3, #8]
  hadc->Instance->CR2 |= ADC_CR2_DMAContReq((uint32_t)hadc->Init.DMAContinuousRequests);
 8001992:	687b      	ldr	r3, [r7, #4]
 8001994:	681b      	ldr	r3, [r3, #0]
 8001996:	6899      	ldr	r1, [r3, #8]
 8001998:	687b      	ldr	r3, [r7, #4]
 800199a:	f893 3030 	ldrb.w	r3, [r3, #48]	; 0x30
 800199e:	025a      	lsls	r2, r3, #9
 80019a0:	687b      	ldr	r3, [r7, #4]
 80019a2:	681b      	ldr	r3, [r3, #0]
 80019a4:	430a      	orrs	r2, r1
 80019a6:	609a      	str	r2, [r3, #8]
  
  /* Enable or disable ADC end of conversion selection */
  hadc->Instance->CR2 &= ~(ADC_CR2_EOCS);
 80019a8:	687b      	ldr	r3, [r7, #4]
 80019aa:	681b      	ldr	r3, [r3, #0]
 80019ac:	689a      	ldr	r2, [r3, #8]
 80019ae:	687b      	ldr	r3, [r7, #4]
 80019b0:	681b      	ldr	r3, [r3, #0]
 80019b2:	f422 6280 	bic.w	r2, r2, #1024	; 0x400
 80019b6:	609a      	str	r2, [r3, #8]
  hadc->Instance->CR2 |= ADC_CR2_EOCSelection(hadc->Init.EOCSelection);
 80019b8:	687b      	ldr	r3, [r7, #4]
 80019ba:	681b      	ldr	r3, [r3, #0]
 80019bc:	6899      	ldr	r1, [r3, #8]
 80019be:	687b      	ldr	r3, [r7, #4]
 80019c0:	695b      	ldr	r3, [r3, #20]
 80019c2:	029a      	lsls	r2, r3, #10
 80019c4:	687b      	ldr	r3, [r7, #4]
 80019c6:	681b      	ldr	r3, [r3, #0]
 80019c8:	430a      	orrs	r2, r1
 80019ca:	609a      	str	r2, [r3, #8]
}
 80019cc:	bf00      	nop
 80019ce:	3714      	adds	r7, #20
 80019d0:	46bd      	mov	sp, r7
 80019d2:	f85d 7b04 	ldr.w	r7, [sp], #4
 80019d6:	4770      	bx	lr
 80019d8:	40012300 	.word	0x40012300
 80019dc:	0f000001 	.word	0x0f000001

080019e0 <__NVIC_SetPriorityGrouping>:
           In case of a conflict between priority grouping and available
           priority bits (__NVIC_PRIO_BITS), the smallest possible priority group is set.
  \param [in]      PriorityGroup  Priority grouping field.
 */
__STATIC_INLINE void __NVIC_SetPriorityGrouping(uint32_t PriorityGroup)
{
 80019e0:	b480      	push	{r7}
 80019e2:	b085      	sub	sp, #20
 80019e4:	af00      	add	r7, sp, #0
 80019e6:	6078      	str	r0, [r7, #4]
  uint32_t reg_value;
  uint32_t PriorityGroupTmp = (PriorityGroup & (uint32_t)0x07UL);             /* only values 0..7 are used          */
 80019e8:	687b      	ldr	r3, [r7, #4]
 80019ea:	f003 0307 	and.w	r3, r3, #7
 80019ee:	60fb      	str	r3, [r7, #12]

  reg_value  =  SCB->AIRCR;                                                   /* read old register configuration    */
 80019f0:	4b0c      	ldr	r3, [pc, #48]	; (8001a24 <__NVIC_SetPriorityGrouping+0x44>)
 80019f2:	68db      	ldr	r3, [r3, #12]
 80019f4:	60bb      	str	r3, [r7, #8]
  reg_value &= ~((uint32_t)(SCB_AIRCR_VECTKEY_Msk | SCB_AIRCR_PRIGROUP_Msk)); /* clear bits to change               */
 80019f6:	68ba      	ldr	r2, [r7, #8]
 80019f8:	f64f 03ff 	movw	r3, #63743	; 0xf8ff
 80019fc:	4013      	ands	r3, r2
 80019fe:	60bb      	str	r3, [r7, #8]
  reg_value  =  (reg_value                                   |
                ((uint32_t)0x5FAUL << SCB_AIRCR_VECTKEY_Pos) |
                (PriorityGroupTmp << SCB_AIRCR_PRIGROUP_Pos)  );              /* Insert write key and priority group */
 8001a00:	68fb      	ldr	r3, [r7, #12]
 8001a02:	021a      	lsls	r2, r3, #8
                ((uint32_t)0x5FAUL << SCB_AIRCR_VECTKEY_Pos) |
 8001a04:	68bb      	ldr	r3, [r7, #8]
 8001a06:	4313      	orrs	r3, r2
  reg_value  =  (reg_value                                   |
 8001a08:	f043 63bf 	orr.w	r3, r3, #100139008	; 0x5f80000
 8001a0c:	f443 3300 	orr.w	r3, r3, #131072	; 0x20000
 8001a10:	60bb      	str	r3, [r7, #8]
  SCB->AIRCR =  reg_value;
 8001a12:	4a04      	ldr	r2, [pc, #16]	; (8001a24 <__NVIC_SetPriorityGrouping+0x44>)
 8001a14:	68bb      	ldr	r3, [r7, #8]
 8001a16:	60d3      	str	r3, [r2, #12]
}
 8001a18:	bf00      	nop
 8001a1a:	3714      	adds	r7, #20
 8001a1c:	46bd      	mov	sp, r7
 8001a1e:	f85d 7b04 	ldr.w	r7, [sp], #4
 8001a22:	4770      	bx	lr
 8001a24:	e000ed00 	.word	0xe000ed00

08001a28 <__NVIC_GetPriorityGrouping>:
  \brief   Get Priority Grouping
  \details Reads the priority grouping field from the NVIC Interrupt Controller.
  \return                Priority grouping field (SCB->AIRCR [10:8] PRIGROUP field).
 */
__STATIC_INLINE uint32_t __NVIC_GetPriorityGrouping(void)
{
 8001a28:	b480      	push	{r7}
 8001a2a:	af00      	add	r7, sp, #0
  return ((uint32_t)((SCB->AIRCR & SCB_AIRCR_PRIGROUP_Msk) >> SCB_AIRCR_PRIGROUP_Pos));
 8001a2c:	4b04      	ldr	r3, [pc, #16]	; (8001a40 <__NVIC_GetPriorityGrouping+0x18>)
 8001a2e:	68db      	ldr	r3, [r3, #12]
 8001a30:	0a1b      	lsrs	r3, r3, #8
 8001a32:	f003 0307 	and.w	r3, r3, #7
}
 8001a36:	4618      	mov	r0, r3
 8001a38:	46bd      	mov	sp, r7
 8001a3a:	f85d 7b04 	ldr.w	r7, [sp], #4
 8001a3e:	4770      	bx	lr
 8001a40:	e000ed00 	.word	0xe000ed00

08001a44 <__NVIC_SetPriority>:
  \param [in]      IRQn  Interrupt number.
  \param [in]  priority  Priority to set.
  \note    The priority cannot be set for every processor exception.
 */
__STATIC_INLINE void __NVIC_SetPriority(IRQn_Type IRQn, uint32_t priority)
{
 8001a44:	b480      	push	{r7}
 8001a46:	b083      	sub	sp, #12
 8001a48:	af00      	add	r7, sp, #0
 8001a4a:	4603      	mov	r3, r0
 8001a4c:	6039      	str	r1, [r7, #0]
 8001a4e:	71fb      	strb	r3, [r7, #7]
  if ((int32_t)(IRQn) >= 0)
 8001a50:	f997 3007 	ldrsb.w	r3, [r7, #7]
 8001a54:	2b00      	cmp	r3, #0
 8001a56:	db0a      	blt.n	8001a6e <__NVIC_SetPriority+0x2a>
  {
    NVIC->IP[((uint32_t)IRQn)]               = (uint8_t)((priority << (8U - __NVIC_PRIO_BITS)) & (uint32_t)0xFFUL);
 8001a58:	683b      	ldr	r3, [r7, #0]
 8001a5a:	b2da      	uxtb	r2, r3
 8001a5c:	490c      	ldr	r1, [pc, #48]	; (8001a90 <__NVIC_SetPriority+0x4c>)
 8001a5e:	f997 3007 	ldrsb.w	r3, [r7, #7]
 8001a62:	0112      	lsls	r2, r2, #4
 8001a64:	b2d2      	uxtb	r2, r2
 8001a66:	440b      	add	r3, r1
 8001a68:	f883 2300 	strb.w	r2, [r3, #768]	; 0x300
  }
  else
  {
    SCB->SHP[(((uint32_t)IRQn) & 0xFUL)-4UL] = (uint8_t)((priority << (8U - __NVIC_PRIO_BITS)) & (uint32_t)0xFFUL);
  }
}
 8001a6c:	e00a      	b.n	8001a84 <__NVIC_SetPriority+0x40>
    SCB->SHP[(((uint32_t)IRQn) & 0xFUL)-4UL] = (uint8_t)((priority << (8U - __NVIC_PRIO_BITS)) & (uint32_t)0xFFUL);
 8001a6e:	683b      	ldr	r3, [r7, #0]
 8001a70:	b2da      	uxtb	r2, r3
 8001a72:	4908      	ldr	r1, [pc, #32]	; (8001a94 <__NVIC_SetPriority+0x50>)
 8001a74:	79fb      	ldrb	r3, [r7, #7]
 8001a76:	f003 030f 	and.w	r3, r3, #15
 8001a7a:	3b04      	subs	r3, #4
 8001a7c:	0112      	lsls	r2, r2, #4
 8001a7e:	b2d2      	uxtb	r2, r2
 8001a80:	440b      	add	r3, r1
 8001a82:	761a      	strb	r2, [r3, #24]
}
 8001a84:	bf00      	nop
 8001a86:	370c      	adds	r7, #12
 8001a88:	46bd      	mov	sp, r7
 8001a8a:	f85d 7b04 	ldr.w	r7, [sp], #4
 8001a8e:	4770      	bx	lr
 8001a90:	e000e100 	.word	0xe000e100
 8001a94:	e000ed00 	.word	0xe000ed00

08001a98 <NVIC_EncodePriority>:
  \param [in]   PreemptPriority  Preemptive priority value (starting from 0).
  \param [in]       SubPriority  Subpriority value (starting from 0).
  \return                        Encoded priority. Value can be used in the function \ref NVIC_SetPriority().
 */
__STATIC_INLINE uint32_t NVIC_EncodePriority (uint32_t PriorityGroup, uint32_t PreemptPriority, uint32_t SubPriority)
{
 8001a98:	b480      	push	{r7}
 8001a9a:	b089      	sub	sp, #36	; 0x24
 8001a9c:	af00      	add	r7, sp, #0
 8001a9e:	60f8      	str	r0, [r7, #12]
 8001aa0:	60b9      	str	r1, [r7, #8]
 8001aa2:	607a      	str	r2, [r7, #4]
  uint32_t PriorityGroupTmp = (PriorityGroup & (uint32_t)0x07UL);   /* only values 0..7 are used          */
 8001aa4:	68fb      	ldr	r3, [r7, #12]
 8001aa6:	f003 0307 	and.w	r3, r3, #7
 8001aaa:	61fb      	str	r3, [r7, #28]
  uint32_t PreemptPriorityBits;
  uint32_t SubPriorityBits;

  PreemptPriorityBits = ((7UL - PriorityGroupTmp) > (uint32_t)(__NVIC_PRIO_BITS)) ? (uint32_t)(__NVIC_PRIO_BITS) : (uint32_t)(7UL - PriorityGroupTmp);
 8001aac:	69fb      	ldr	r3, [r7, #28]
 8001aae:	f1c3 0307 	rsb	r3, r3, #7
 8001ab2:	2b04      	cmp	r3, #4
 8001ab4:	bf28      	it	cs
 8001ab6:	2304      	movcs	r3, #4
 8001ab8:	61bb      	str	r3, [r7, #24]
  SubPriorityBits     = ((PriorityGroupTmp + (uint32_t)(__NVIC_PRIO_BITS)) < (uint32_t)7UL) ? (uint32_t)0UL : (uint32_t)((PriorityGroupTmp - 7UL) + (uint32_t)(__NVIC_PRIO_BITS));
 8001aba:	69fb      	ldr	r3, [r7, #28]
 8001abc:	3304      	adds	r3, #4
 8001abe:	2b06      	cmp	r3, #6
 8001ac0:	d902      	bls.n	8001ac8 <NVIC_EncodePriority+0x30>
 8001ac2:	69fb      	ldr	r3, [r7, #28]
 8001ac4:	3b03      	subs	r3, #3
 8001ac6:	e000      	b.n	8001aca <NVIC_EncodePriority+0x32>
 8001ac8:	2300      	movs	r3, #0
 8001aca:	617b      	str	r3, [r7, #20]

  return (
           ((PreemptPriority & (uint32_t)((1UL << (PreemptPriorityBits)) - 1UL)) << SubPriorityBits) |
 8001acc:	f04f 32ff 	mov.w	r2, #4294967295
 8001ad0:	69bb      	ldr	r3, [r7, #24]
 8001ad2:	fa02 f303 	lsl.w	r3, r2, r3
 8001ad6:	43da      	mvns	r2, r3
 8001ad8:	68bb      	ldr	r3, [r7, #8]
 8001ada:	401a      	ands	r2, r3
 8001adc:	697b      	ldr	r3, [r7, #20]
 8001ade:	409a      	lsls	r2, r3
           ((SubPriority     & (uint32_t)((1UL << (SubPriorityBits    )) - 1UL)))
 8001ae0:	f04f 31ff 	mov.w	r1, #4294967295
 8001ae4:	697b      	ldr	r3, [r7, #20]
 8001ae6:	fa01 f303 	lsl.w	r3, r1, r3
 8001aea:	43d9      	mvns	r1, r3
 8001aec:	687b      	ldr	r3, [r7, #4]
 8001aee:	400b      	ands	r3, r1
           ((PreemptPriority & (uint32_t)((1UL << (PreemptPriorityBits)) - 1UL)) << SubPriorityBits) |
 8001af0:	4313      	orrs	r3, r2
         );
}
 8001af2:	4618      	mov	r0, r3
 8001af4:	3724      	adds	r7, #36	; 0x24
 8001af6:	46bd      	mov	sp, r7
 8001af8:	f85d 7b04 	ldr.w	r7, [sp], #4
 8001afc:	4770      	bx	lr
	...

08001b00 <SysTick_Config>:
  \note    When the variable <b>__Vendor_SysTickConfig</b> is set to 1, then the
           function <b>SysTick_Config</b> is not included. In this case, the file <b><i>device</i>.h</b>
           must contain a vendor-specific implementation of this function.
 */
__STATIC_INLINE uint32_t SysTick_Config(uint32_t ticks)
{
 8001b00:	b580      	push	{r7, lr}
 8001b02:	b082      	sub	sp, #8
 8001b04:	af00      	add	r7, sp, #0
 8001b06:	6078      	str	r0, [r7, #4]
  if ((ticks - 1UL) > SysTick_LOAD_RELOAD_Msk)
 8001b08:	687b      	ldr	r3, [r7, #4]
 8001b0a:	3b01      	subs	r3, #1
 8001b0c:	f1b3 7f80 	cmp.w	r3, #16777216	; 0x1000000
 8001b10:	d301      	bcc.n	8001b16 <SysTick_Config+0x16>
  {
    return (1UL);                                                   /* Reload value impossible */
 8001b12:	2301      	movs	r3, #1
 8001b14:	e00f      	b.n	8001b36 <SysTick_Config+0x36>
  }

  SysTick->LOAD  = (uint32_t)(ticks - 1UL);                         /* set reload register */
 8001b16:	4a0a      	ldr	r2, [pc, #40]	; (8001b40 <SysTick_Config+0x40>)
 8001b18:	687b      	ldr	r3, [r7, #4]
 8001b1a:	3b01      	subs	r3, #1
 8001b1c:	6053      	str	r3, [r2, #4]
  NVIC_SetPriority (SysTick_IRQn, (1UL << __NVIC_PRIO_BITS) - 1UL); /* set Priority for Systick Interrupt */
 8001b1e:	210f      	movs	r1, #15
 8001b20:	f04f 30ff 	mov.w	r0, #4294967295
 8001b24:	f7ff ff8e 	bl	8001a44 <__NVIC_SetPriority>
  SysTick->VAL   = 0UL;                                             /* Load the SysTick Counter Value */
 8001b28:	4b05      	ldr	r3, [pc, #20]	; (8001b40 <SysTick_Config+0x40>)
 8001b2a:	2200      	movs	r2, #0
 8001b2c:	609a      	str	r2, [r3, #8]
  SysTick->CTRL  = SysTick_CTRL_CLKSOURCE_Msk |
 8001b2e:	4b04      	ldr	r3, [pc, #16]	; (8001b40 <SysTick_Config+0x40>)
 8001b30:	2207      	movs	r2, #7
 8001b32:	601a      	str	r2, [r3, #0]
                   SysTick_CTRL_TICKINT_Msk   |
                   SysTick_CTRL_ENABLE_Msk;                         /* Enable SysTick IRQ and SysTick Timer */
  return (0UL);                                                     /* Function successful */
 8001b34:	2300      	movs	r3, #0
}
 8001b36:	4618      	mov	r0, r3
 8001b38:	3708      	adds	r7, #8
 8001b3a:	46bd      	mov	sp, r7
 8001b3c:	bd80      	pop	{r7, pc}
 8001b3e:	bf00      	nop
 8001b40:	e000e010 	.word	0xe000e010

08001b44 <HAL_NVIC_SetPriorityGrouping>:
  * @note   When the NVIC_PriorityGroup_0 is selected, IRQ preemption is no more possible. 
  *         The pending IRQ priority will be managed only by the subpriority. 
  * @retval None
  */
void HAL_NVIC_SetPriorityGrouping(uint32_t PriorityGroup)
{
 8001b44:	b580      	push	{r7, lr}
 8001b46:	b082      	sub	sp, #8
 8001b48:	af00      	add	r7, sp, #0
 8001b4a:	6078      	str	r0, [r7, #4]
  /* Check the parameters */
  assert_param(IS_NVIC_PRIORITY_GROUP(PriorityGroup));
  
  /* Set the PRIGROUP[10:8] bits according to the PriorityGroup parameter value */
  NVIC_SetPriorityGrouping(PriorityGroup);
 8001b4c:	6878      	ldr	r0, [r7, #4]
 8001b4e:	f7ff ff47 	bl	80019e0 <__NVIC_SetPriorityGrouping>
}
 8001b52:	bf00      	nop
 8001b54:	3708      	adds	r7, #8
 8001b56:	46bd      	mov	sp, r7
 8001b58:	bd80      	pop	{r7, pc}

08001b5a <HAL_NVIC_SetPriority>:
  *         This parameter can be a value between 0 and 15
  *         A lower priority value indicates a higher priority.          
  * @retval None
  */
void HAL_NVIC_SetPriority(IRQn_Type IRQn, uint32_t PreemptPriority, uint32_t SubPriority)
{ 
 8001b5a:	b580      	push	{r7, lr}
 8001b5c:	b086      	sub	sp, #24
 8001b5e:	af00      	add	r7, sp, #0
 8001b60:	4603      	mov	r3, r0
 8001b62:	60b9      	str	r1, [r7, #8]
 8001b64:	607a      	str	r2, [r7, #4]
 8001b66:	73fb      	strb	r3, [r7, #15]
  uint32_t prioritygroup = 0x00U;
 8001b68:	2300      	movs	r3, #0
 8001b6a:	617b      	str	r3, [r7, #20]
  
  /* Check the parameters */
  assert_param(IS_NVIC_SUB_PRIORITY(SubPriority));
  assert_param(IS_NVIC_PREEMPTION_PRIORITY(PreemptPriority));
  
  prioritygroup = NVIC_GetPriorityGrouping();
 8001b6c:	f7ff ff5c 	bl	8001a28 <__NVIC_GetPriorityGrouping>
 8001b70:	6178      	str	r0, [r7, #20]
  
  NVIC_SetPriority(IRQn, NVIC_EncodePriority(prioritygroup, PreemptPriority, SubPriority));
 8001b72:	687a      	ldr	r2, [r7, #4]
 8001b74:	68b9      	ldr	r1, [r7, #8]
 8001b76:	6978      	ldr	r0, [r7, #20]
 8001b78:	f7ff ff8e 	bl	8001a98 <NVIC_EncodePriority>
 8001b7c:	4602      	mov	r2, r0
 8001b7e:	f997 300f 	ldrsb.w	r3, [r7, #15]
 8001b82:	4611      	mov	r1, r2
 8001b84:	4618      	mov	r0, r3
 8001b86:	f7ff ff5d 	bl	8001a44 <__NVIC_SetPriority>
}
 8001b8a:	bf00      	nop
 8001b8c:	3718      	adds	r7, #24
 8001b8e:	46bd      	mov	sp, r7
 8001b90:	bd80      	pop	{r7, pc}

08001b92 <HAL_SYSTICK_Config>:
  * @param  TicksNumb Specifies the ticks Number of ticks between two interrupts.
  * @retval status:  - 0  Function succeeded.
  *                  - 1  Function failed.
  */
uint32_t HAL_SYSTICK_Config(uint32_t TicksNumb)
{
 8001b92:	b580      	push	{r7, lr}
 8001b94:	b082      	sub	sp, #8
 8001b96:	af00      	add	r7, sp, #0
 8001b98:	6078      	str	r0, [r7, #4]
   return SysTick_Config(TicksNumb);
 8001b9a:	6878      	ldr	r0, [r7, #4]
 8001b9c:	f7ff ffb0 	bl	8001b00 <SysTick_Config>
 8001ba0:	4603      	mov	r3, r0
}
 8001ba2:	4618      	mov	r0, r3
 8001ba4:	3708      	adds	r7, #8
 8001ba6:	46bd      	mov	sp, r7
 8001ba8:	bd80      	pop	{r7, pc}
	...

08001bac <HAL_GPIO_Init>:
  * @param  GPIO_Init pointer to a GPIO_InitTypeDef structure that contains
  *         the configuration information for the specified GPIO peripheral.
  * @retval None
  */
void HAL_GPIO_Init(GPIO_TypeDef  *GPIOx, GPIO_InitTypeDef *GPIO_Init)
{
 8001bac:	b480      	push	{r7}
 8001bae:	b089      	sub	sp, #36	; 0x24
 8001bb0:	af00      	add	r7, sp, #0
 8001bb2:	6078      	str	r0, [r7, #4]
 8001bb4:	6039      	str	r1, [r7, #0]
  uint32_t position;
  uint32_t ioposition = 0x00U;
 8001bb6:	2300      	movs	r3, #0
 8001bb8:	617b      	str	r3, [r7, #20]
  uint32_t iocurrent = 0x00U;
 8001bba:	2300      	movs	r3, #0
 8001bbc:	613b      	str	r3, [r7, #16]
  uint32_t temp = 0x00U;
 8001bbe:	2300      	movs	r3, #0
 8001bc0:	61bb      	str	r3, [r7, #24]
  assert_param(IS_GPIO_ALL_INSTANCE(GPIOx));
  assert_param(IS_GPIO_PIN(GPIO_Init->Pin));
  assert_param(IS_GPIO_MODE(GPIO_Init->Mode));

  /* Configure the port pins */
  for(position = 0U; position < GPIO_NUMBER; position++)
 8001bc2:	2300      	movs	r3, #0
 8001bc4:	61fb      	str	r3, [r7, #28]
 8001bc6:	e16b      	b.n	8001ea0 <HAL_GPIO_Init+0x2f4>
  {
    /* Get the IO position */
    ioposition = 0x01U << position;
 8001bc8:	2201      	movs	r2, #1
 8001bca:	69fb      	ldr	r3, [r7, #28]
 8001bcc:	fa02 f303 	lsl.w	r3, r2, r3
 8001bd0:	617b      	str	r3, [r7, #20]
    /* Get the current IO position */
    iocurrent = (uint32_t)(GPIO_Init->Pin) & ioposition;
 8001bd2:	683b      	ldr	r3, [r7, #0]
 8001bd4:	681b      	ldr	r3, [r3, #0]
 8001bd6:	697a      	ldr	r2, [r7, #20]
 8001bd8:	4013      	ands	r3, r2
 8001bda:	613b      	str	r3, [r7, #16]

    if(iocurrent == ioposition)
 8001bdc:	693a      	ldr	r2, [r7, #16]
 8001bde:	697b      	ldr	r3, [r7, #20]
 8001be0:	429a      	cmp	r2, r3
 8001be2:	f040 815a 	bne.w	8001e9a <HAL_GPIO_Init+0x2ee>
    {
      /*--------------------- GPIO Mode Configuration ------------------------*/
      /* In case of Output or Alternate function mode selection */
      if(((GPIO_Init->Mode & GPIO_MODE) == MODE_OUTPUT) || \
 8001be6:	683b      	ldr	r3, [r7, #0]
 8001be8:	685b      	ldr	r3, [r3, #4]
 8001bea:	f003 0303 	and.w	r3, r3, #3
 8001bee:	2b01      	cmp	r3, #1
 8001bf0:	d005      	beq.n	8001bfe <HAL_GPIO_Init+0x52>
          (GPIO_Init->Mode & GPIO_MODE) == MODE_AF)
 8001bf2:	683b      	ldr	r3, [r7, #0]
 8001bf4:	685b      	ldr	r3, [r3, #4]
 8001bf6:	f003 0303 	and.w	r3, r3, #3
      if(((GPIO_Init->Mode & GPIO_MODE) == MODE_OUTPUT) || \
 8001bfa:	2b02      	cmp	r3, #2
 8001bfc:	d130      	bne.n	8001c60 <HAL_GPIO_Init+0xb4>
      {
        /* Check the Speed parameter */
        assert_param(IS_GPIO_SPEED(GPIO_Init->Speed));
        /* Configure the IO Speed */
        temp = GPIOx->OSPEEDR; 
 8001bfe:	687b      	ldr	r3, [r7, #4]
 8001c00:	689b      	ldr	r3, [r3, #8]
 8001c02:	61bb      	str	r3, [r7, #24]
        temp &= ~(GPIO_OSPEEDER_OSPEEDR0 << (position * 2U));
 8001c04:	69fb      	ldr	r3, [r7, #28]
 8001c06:	005b      	lsls	r3, r3, #1
 8001c08:	2203      	movs	r2, #3
 8001c0a:	fa02 f303 	lsl.w	r3, r2, r3
 8001c0e:	43db      	mvns	r3, r3
 8001c10:	69ba      	ldr	r2, [r7, #24]
 8001c12:	4013      	ands	r3, r2
 8001c14:	61bb      	str	r3, [r7, #24]
        temp |= (GPIO_Init->Speed << (position * 2U));
 8001c16:	683b      	ldr	r3, [r7, #0]
 8001c18:	68da      	ldr	r2, [r3, #12]
 8001c1a:	69fb      	ldr	r3, [r7, #28]
 8001c1c:	005b      	lsls	r3, r3, #1
 8001c1e:	fa02 f303 	lsl.w	r3, r2, r3
 8001c22:	69ba      	ldr	r2, [r7, #24]
 8001c24:	4313      	orrs	r3, r2
 8001c26:	61bb      	str	r3, [r7, #24]
        GPIOx->OSPEEDR = temp;
 8001c28:	687b      	ldr	r3, [r7, #4]
 8001c2a:	69ba      	ldr	r2, [r7, #24]
 8001c2c:	609a      	str	r2, [r3, #8]

        /* Configure the IO Output Type */
        temp = GPIOx->OTYPER;
 8001c2e:	687b      	ldr	r3, [r7, #4]
 8001c30:	685b      	ldr	r3, [r3, #4]
 8001c32:	61bb      	str	r3, [r7, #24]
        temp &= ~(GPIO_OTYPER_OT_0 << position) ;
 8001c34:	2201      	movs	r2, #1
 8001c36:	69fb      	ldr	r3, [r7, #28]
 8001c38:	fa02 f303 	lsl.w	r3, r2, r3
 8001c3c:	43db      	mvns	r3, r3
 8001c3e:	69ba      	ldr	r2, [r7, #24]
 8001c40:	4013      	ands	r3, r2
 8001c42:	61bb      	str	r3, [r7, #24]
        temp |= (((GPIO_Init->Mode & OUTPUT_TYPE) >> OUTPUT_TYPE_Pos) << position);
 8001c44:	683b      	ldr	r3, [r7, #0]
 8001c46:	685b      	ldr	r3, [r3, #4]
 8001c48:	091b      	lsrs	r3, r3, #4
 8001c4a:	f003 0201 	and.w	r2, r3, #1
 8001c4e:	69fb      	ldr	r3, [r7, #28]
 8001c50:	fa02 f303 	lsl.w	r3, r2, r3
 8001c54:	69ba      	ldr	r2, [r7, #24]
 8001c56:	4313      	orrs	r3, r2
 8001c58:	61bb      	str	r3, [r7, #24]
        GPIOx->OTYPER = temp;
 8001c5a:	687b      	ldr	r3, [r7, #4]
 8001c5c:	69ba      	ldr	r2, [r7, #24]
 8001c5e:	605a      	str	r2, [r3, #4]
       }

      if((GPIO_Init->Mode & GPIO_MODE) != MODE_ANALOG)
 8001c60:	683b      	ldr	r3, [r7, #0]
 8001c62:	685b      	ldr	r3, [r3, #4]
 8001c64:	f003 0303 	and.w	r3, r3, #3
 8001c68:	2b03      	cmp	r3, #3
 8001c6a:	d017      	beq.n	8001c9c <HAL_GPIO_Init+0xf0>
      {
        /* Check the parameters */
        assert_param(IS_GPIO_PULL(GPIO_Init->Pull));
        
        /* Activate the Pull-up or Pull down resistor for the current IO */
        temp = GPIOx->PUPDR;
 8001c6c:	687b      	ldr	r3, [r7, #4]
 8001c6e:	68db      	ldr	r3, [r3, #12]
 8001c70:	61bb      	str	r3, [r7, #24]
        temp &= ~(GPIO_PUPDR_PUPDR0 << (position * 2U));
 8001c72:	69fb      	ldr	r3, [r7, #28]
 8001c74:	005b      	lsls	r3, r3, #1
 8001c76:	2203      	movs	r2, #3
 8001c78:	fa02 f303 	lsl.w	r3, r2, r3
 8001c7c:	43db      	mvns	r3, r3
 8001c7e:	69ba      	ldr	r2, [r7, #24]
 8001c80:	4013      	ands	r3, r2
 8001c82:	61bb      	str	r3, [r7, #24]
        temp |= ((GPIO_Init->Pull) << (position * 2U));
 8001c84:	683b      	ldr	r3, [r7, #0]
 8001c86:	689a      	ldr	r2, [r3, #8]
 8001c88:	69fb      	ldr	r3, [r7, #28]
 8001c8a:	005b      	lsls	r3, r3, #1
 8001c8c:	fa02 f303 	lsl.w	r3, r2, r3
 8001c90:	69ba      	ldr	r2, [r7, #24]
 8001c92:	4313      	orrs	r3, r2
 8001c94:	61bb      	str	r3, [r7, #24]
        GPIOx->PUPDR = temp;
 8001c96:	687b      	ldr	r3, [r7, #4]
 8001c98:	69ba      	ldr	r2, [r7, #24]
 8001c9a:	60da      	str	r2, [r3, #12]
      }

      /* In case of Alternate function mode selection */
      if((GPIO_Init->Mode & GPIO_MODE) == MODE_AF)
 8001c9c:	683b      	ldr	r3, [r7, #0]
 8001c9e:	685b      	ldr	r3, [r3, #4]
 8001ca0:	f003 0303 	and.w	r3, r3, #3
 8001ca4:	2b02      	cmp	r3, #2
 8001ca6:	d123      	bne.n	8001cf0 <HAL_GPIO_Init+0x144>
      {
        /* Check the Alternate function parameter */
        assert_param(IS_GPIO_AF(GPIO_Init->Alternate));
        /* Configure Alternate function mapped with the current IO */
        temp = GPIOx->AFR[position >> 3U];
 8001ca8:	69fb      	ldr	r3, [r7, #28]
 8001caa:	08da      	lsrs	r2, r3, #3
 8001cac:	687b      	ldr	r3, [r7, #4]
 8001cae:	3208      	adds	r2, #8
 8001cb0:	f853 3022 	ldr.w	r3, [r3, r2, lsl #2]
 8001cb4:	61bb      	str	r3, [r7, #24]
        temp &= ~(0xFU << ((uint32_t)(position & 0x07U) * 4U)) ;
 8001cb6:	69fb      	ldr	r3, [r7, #28]
 8001cb8:	f003 0307 	and.w	r3, r3, #7
 8001cbc:	009b      	lsls	r3, r3, #2
 8001cbe:	220f      	movs	r2, #15
 8001cc0:	fa02 f303 	lsl.w	r3, r2, r3
 8001cc4:	43db      	mvns	r3, r3
 8001cc6:	69ba      	ldr	r2, [r7, #24]
 8001cc8:	4013      	ands	r3, r2
 8001cca:	61bb      	str	r3, [r7, #24]
        temp |= ((uint32_t)(GPIO_Init->Alternate) << (((uint32_t)position & 0x07U) * 4U));
 8001ccc:	683b      	ldr	r3, [r7, #0]
 8001cce:	691a      	ldr	r2, [r3, #16]
 8001cd0:	69fb      	ldr	r3, [r7, #28]
 8001cd2:	f003 0307 	and.w	r3, r3, #7
 8001cd6:	009b      	lsls	r3, r3, #2
 8001cd8:	fa02 f303 	lsl.w	r3, r2, r3
 8001cdc:	69ba      	ldr	r2, [r7, #24]
 8001cde:	4313      	orrs	r3, r2
 8001ce0:	61bb      	str	r3, [r7, #24]
        GPIOx->AFR[position >> 3U] = temp;
 8001ce2:	69fb      	ldr	r3, [r7, #28]
 8001ce4:	08da      	lsrs	r2, r3, #3
 8001ce6:	687b      	ldr	r3, [r7, #4]
 8001ce8:	3208      	adds	r2, #8
 8001cea:	69b9      	ldr	r1, [r7, #24]
 8001cec:	f843 1022 	str.w	r1, [r3, r2, lsl #2]
      }

      /* Configure IO Direction mode (Input, Output, Alternate or Analog) */
      temp = GPIOx->MODER;
 8001cf0:	687b      	ldr	r3, [r7, #4]
 8001cf2:	681b      	ldr	r3, [r3, #0]
 8001cf4:	61bb      	str	r3, [r7, #24]
      temp &= ~(GPIO_MODER_MODER0 << (position * 2U));
 8001cf6:	69fb      	ldr	r3, [r7, #28]
 8001cf8:	005b      	lsls	r3, r3, #1
 8001cfa:	2203      	movs	r2, #3
 8001cfc:	fa02 f303 	lsl.w	r3, r2, r3
 8001d00:	43db      	mvns	r3, r3
 8001d02:	69ba      	ldr	r2, [r7, #24]
 8001d04:	4013      	ands	r3, r2
 8001d06:	61bb      	str	r3, [r7, #24]
      temp |= ((GPIO_Init->Mode & GPIO_MODE) << (position * 2U));
 8001d08:	683b      	ldr	r3, [r7, #0]
 8001d0a:	685b      	ldr	r3, [r3, #4]
 8001d0c:	f003 0203 	and.w	r2, r3, #3
 8001d10:	69fb      	ldr	r3, [r7, #28]
 8001d12:	005b      	lsls	r3, r3, #1
 8001d14:	fa02 f303 	lsl.w	r3, r2, r3
 8001d18:	69ba      	ldr	r2, [r7, #24]
 8001d1a:	4313      	orrs	r3, r2
 8001d1c:	61bb      	str	r3, [r7, #24]
      GPIOx->MODER = temp;
 8001d1e:	687b      	ldr	r3, [r7, #4]
 8001d20:	69ba      	ldr	r2, [r7, #24]
 8001d22:	601a      	str	r2, [r3, #0]

      /*--------------------- EXTI Mode Configuration ------------------------*/
      /* Configure the External Interrupt or event for the current IO */
      if((GPIO_Init->Mode & EXTI_MODE) != 0x00U)
 8001d24:	683b      	ldr	r3, [r7, #0]
 8001d26:	685b      	ldr	r3, [r3, #4]
 8001d28:	f403 3340 	and.w	r3, r3, #196608	; 0x30000
 8001d2c:	2b00      	cmp	r3, #0
 8001d2e:	f000 80b4 	beq.w	8001e9a <HAL_GPIO_Init+0x2ee>
      {
        /* Enable SYSCFG Clock */
        __HAL_RCC_SYSCFG_CLK_ENABLE();
 8001d32:	2300      	movs	r3, #0
 8001d34:	60fb      	str	r3, [r7, #12]
 8001d36:	4b60      	ldr	r3, [pc, #384]	; (8001eb8 <HAL_GPIO_Init+0x30c>)
 8001d38:	6c5b      	ldr	r3, [r3, #68]	; 0x44
 8001d3a:	4a5f      	ldr	r2, [pc, #380]	; (8001eb8 <HAL_GPIO_Init+0x30c>)
 8001d3c:	f443 4380 	orr.w	r3, r3, #16384	; 0x4000
 8001d40:	6453      	str	r3, [r2, #68]	; 0x44
 8001d42:	4b5d      	ldr	r3, [pc, #372]	; (8001eb8 <HAL_GPIO_Init+0x30c>)
 8001d44:	6c5b      	ldr	r3, [r3, #68]	; 0x44
 8001d46:	f403 4380 	and.w	r3, r3, #16384	; 0x4000
 8001d4a:	60fb      	str	r3, [r7, #12]
 8001d4c:	68fb      	ldr	r3, [r7, #12]

        temp = SYSCFG->EXTICR[position >> 2U];
 8001d4e:	4a5b      	ldr	r2, [pc, #364]	; (8001ebc <HAL_GPIO_Init+0x310>)
 8001d50:	69fb      	ldr	r3, [r7, #28]
 8001d52:	089b      	lsrs	r3, r3, #2
 8001d54:	3302      	adds	r3, #2
 8001d56:	f852 3023 	ldr.w	r3, [r2, r3, lsl #2]
 8001d5a:	61bb      	str	r3, [r7, #24]
        temp &= ~(0x0FU << (4U * (position & 0x03U)));
 8001d5c:	69fb      	ldr	r3, [r7, #28]
 8001d5e:	f003 0303 	and.w	r3, r3, #3
 8001d62:	009b      	lsls	r3, r3, #2
 8001d64:	220f      	movs	r2, #15
 8001d66:	fa02 f303 	lsl.w	r3, r2, r3
 8001d6a:	43db      	mvns	r3, r3
 8001d6c:	69ba      	ldr	r2, [r7, #24]
 8001d6e:	4013      	ands	r3, r2
 8001d70:	61bb      	str	r3, [r7, #24]
        temp |= ((uint32_t)(GPIO_GET_INDEX(GPIOx)) << (4U * (position & 0x03U)));
 8001d72:	687b      	ldr	r3, [r7, #4]
 8001d74:	4a52      	ldr	r2, [pc, #328]	; (8001ec0 <HAL_GPIO_Init+0x314>)
 8001d76:	4293      	cmp	r3, r2
 8001d78:	d02b      	beq.n	8001dd2 <HAL_GPIO_Init+0x226>
 8001d7a:	687b      	ldr	r3, [r7, #4]
 8001d7c:	4a51      	ldr	r2, [pc, #324]	; (8001ec4 <HAL_GPIO_Init+0x318>)
 8001d7e:	4293      	cmp	r3, r2
 8001d80:	d025      	beq.n	8001dce <HAL_GPIO_Init+0x222>
 8001d82:	687b      	ldr	r3, [r7, #4]
 8001d84:	4a50      	ldr	r2, [pc, #320]	; (8001ec8 <HAL_GPIO_Init+0x31c>)
 8001d86:	4293      	cmp	r3, r2
 8001d88:	d01f      	beq.n	8001dca <HAL_GPIO_Init+0x21e>
 8001d8a:	687b      	ldr	r3, [r7, #4]
 8001d8c:	4a4f      	ldr	r2, [pc, #316]	; (8001ecc <HAL_GPIO_Init+0x320>)
 8001d8e:	4293      	cmp	r3, r2
 8001d90:	d019      	beq.n	8001dc6 <HAL_GPIO_Init+0x21a>
 8001d92:	687b      	ldr	r3, [r7, #4]
 8001d94:	4a4e      	ldr	r2, [pc, #312]	; (8001ed0 <HAL_GPIO_Init+0x324>)
 8001d96:	4293      	cmp	r3, r2
 8001d98:	d013      	beq.n	8001dc2 <HAL_GPIO_Init+0x216>
 8001d9a:	687b      	ldr	r3, [r7, #4]
 8001d9c:	4a4d      	ldr	r2, [pc, #308]	; (8001ed4 <HAL_GPIO_Init+0x328>)
 8001d9e:	4293      	cmp	r3, r2
 8001da0:	d00d      	beq.n	8001dbe <HAL_GPIO_Init+0x212>
 8001da2:	687b      	ldr	r3, [r7, #4]
 8001da4:	4a4c      	ldr	r2, [pc, #304]	; (8001ed8 <HAL_GPIO_Init+0x32c>)
 8001da6:	4293      	cmp	r3, r2
 8001da8:	d007      	beq.n	8001dba <HAL_GPIO_Init+0x20e>
 8001daa:	687b      	ldr	r3, [r7, #4]
 8001dac:	4a4b      	ldr	r2, [pc, #300]	; (8001edc <HAL_GPIO_Init+0x330>)
 8001dae:	4293      	cmp	r3, r2
 8001db0:	d101      	bne.n	8001db6 <HAL_GPIO_Init+0x20a>
 8001db2:	2307      	movs	r3, #7
 8001db4:	e00e      	b.n	8001dd4 <HAL_GPIO_Init+0x228>
 8001db6:	2308      	movs	r3, #8
 8001db8:	e00c      	b.n	8001dd4 <HAL_GPIO_Init+0x228>
 8001dba:	2306      	movs	r3, #6
 8001dbc:	e00a      	b.n	8001dd4 <HAL_GPIO_Init+0x228>
 8001dbe:	2305      	movs	r3, #5
 8001dc0:	e008      	b.n	8001dd4 <HAL_GPIO_Init+0x228>
 8001dc2:	2304      	movs	r3, #4
 8001dc4:	e006      	b.n	8001dd4 <HAL_GPIO_Init+0x228>
 8001dc6:	2303      	movs	r3, #3
 8001dc8:	e004      	b.n	8001dd4 <HAL_GPIO_Init+0x228>
 8001dca:	2302      	movs	r3, #2
 8001dcc:	e002      	b.n	8001dd4 <HAL_GPIO_Init+0x228>
 8001dce:	2301      	movs	r3, #1
 8001dd0:	e000      	b.n	8001dd4 <HAL_GPIO_Init+0x228>
 8001dd2:	2300      	movs	r3, #0
 8001dd4:	69fa      	ldr	r2, [r7, #28]
 8001dd6:	f002 0203 	and.w	r2, r2, #3
 8001dda:	0092      	lsls	r2, r2, #2
 8001ddc:	4093      	lsls	r3, r2
 8001dde:	69ba      	ldr	r2, [r7, #24]
 8001de0:	4313      	orrs	r3, r2
 8001de2:	61bb      	str	r3, [r7, #24]
        SYSCFG->EXTICR[position >> 2U] = temp;
 8001de4:	4935      	ldr	r1, [pc, #212]	; (8001ebc <HAL_GPIO_Init+0x310>)
 8001de6:	69fb      	ldr	r3, [r7, #28]
 8001de8:	089b      	lsrs	r3, r3, #2
 8001dea:	3302      	adds	r3, #2
 8001dec:	69ba      	ldr	r2, [r7, #24]
 8001dee:	f841 2023 	str.w	r2, [r1, r3, lsl #2]

        /* Clear EXTI line configuration */
        temp = EXTI->IMR;
 8001df2:	4b3b      	ldr	r3, [pc, #236]	; (8001ee0 <HAL_GPIO_Init+0x334>)
 8001df4:	681b      	ldr	r3, [r3, #0]
 8001df6:	61bb      	str	r3, [r7, #24]
        temp &= ~((uint32_t)iocurrent);
 8001df8:	693b      	ldr	r3, [r7, #16]
 8001dfa:	43db      	mvns	r3, r3
 8001dfc:	69ba      	ldr	r2, [r7, #24]
 8001dfe:	4013      	ands	r3, r2
 8001e00:	61bb      	str	r3, [r7, #24]
        if((GPIO_Init->Mode & EXTI_IT) != 0x00U)
 8001e02:	683b      	ldr	r3, [r7, #0]
 8001e04:	685b      	ldr	r3, [r3, #4]
 8001e06:	f403 3380 	and.w	r3, r3, #65536	; 0x10000
 8001e0a:	2b00      	cmp	r3, #0
 8001e0c:	d003      	beq.n	8001e16 <HAL_GPIO_Init+0x26a>
        {
          temp |= iocurrent;
 8001e0e:	69ba      	ldr	r2, [r7, #24]
 8001e10:	693b      	ldr	r3, [r7, #16]
 8001e12:	4313      	orrs	r3, r2
 8001e14:	61bb      	str	r3, [r7, #24]
        }
        EXTI->IMR = temp;
 8001e16:	4a32      	ldr	r2, [pc, #200]	; (8001ee0 <HAL_GPIO_Init+0x334>)
 8001e18:	69bb      	ldr	r3, [r7, #24]
 8001e1a:	6013      	str	r3, [r2, #0]

        temp = EXTI->EMR;
 8001e1c:	4b30      	ldr	r3, [pc, #192]	; (8001ee0 <HAL_GPIO_Init+0x334>)
 8001e1e:	685b      	ldr	r3, [r3, #4]
 8001e20:	61bb      	str	r3, [r7, #24]
        temp &= ~((uint32_t)iocurrent);
 8001e22:	693b      	ldr	r3, [r7, #16]
 8001e24:	43db      	mvns	r3, r3
 8001e26:	69ba      	ldr	r2, [r7, #24]
 8001e28:	4013      	ands	r3, r2
 8001e2a:	61bb      	str	r3, [r7, #24]
        if((GPIO_Init->Mode & EXTI_EVT) != 0x00U)
 8001e2c:	683b      	ldr	r3, [r7, #0]
 8001e2e:	685b      	ldr	r3, [r3, #4]
 8001e30:	f403 3300 	and.w	r3, r3, #131072	; 0x20000
 8001e34:	2b00      	cmp	r3, #0
 8001e36:	d003      	beq.n	8001e40 <HAL_GPIO_Init+0x294>
        {
          temp |= iocurrent;
 8001e38:	69ba      	ldr	r2, [r7, #24]
 8001e3a:	693b      	ldr	r3, [r7, #16]
 8001e3c:	4313      	orrs	r3, r2
 8001e3e:	61bb      	str	r3, [r7, #24]
        }
        EXTI->EMR = temp;
 8001e40:	4a27      	ldr	r2, [pc, #156]	; (8001ee0 <HAL_GPIO_Init+0x334>)
 8001e42:	69bb      	ldr	r3, [r7, #24]
 8001e44:	6053      	str	r3, [r2, #4]

        /* Clear Rising Falling edge configuration */
        temp = EXTI->RTSR;
 8001e46:	4b26      	ldr	r3, [pc, #152]	; (8001ee0 <HAL_GPIO_Init+0x334>)
 8001e48:	689b      	ldr	r3, [r3, #8]
 8001e4a:	61bb      	str	r3, [r7, #24]
        temp &= ~((uint32_t)iocurrent);
 8001e4c:	693b      	ldr	r3, [r7, #16]
 8001e4e:	43db      	mvns	r3, r3
 8001e50:	69ba      	ldr	r2, [r7, #24]
 8001e52:	4013      	ands	r3, r2
 8001e54:	61bb      	str	r3, [r7, #24]
        if((GPIO_Init->Mode & TRIGGER_RISING) != 0x00U)
 8001e56:	683b      	ldr	r3, [r7, #0]
 8001e58:	685b      	ldr	r3, [r3, #4]
 8001e5a:	f403 1380 	and.w	r3, r3, #1048576	; 0x100000
 8001e5e:	2b00      	cmp	r3, #0
 8001e60:	d003      	beq.n	8001e6a <HAL_GPIO_Init+0x2be>
        {
          temp |= iocurrent;
 8001e62:	69ba      	ldr	r2, [r7, #24]
 8001e64:	693b      	ldr	r3, [r7, #16]
 8001e66:	4313      	orrs	r3, r2
 8001e68:	61bb      	str	r3, [r7, #24]
        }
        EXTI->RTSR = temp;
 8001e6a:	4a1d      	ldr	r2, [pc, #116]	; (8001ee0 <HAL_GPIO_Init+0x334>)
 8001e6c:	69bb      	ldr	r3, [r7, #24]
 8001e6e:	6093      	str	r3, [r2, #8]

        temp = EXTI->FTSR;
 8001e70:	4b1b      	ldr	r3, [pc, #108]	; (8001ee0 <HAL_GPIO_Init+0x334>)
 8001e72:	68db      	ldr	r3, [r3, #12]
 8001e74:	61bb      	str	r3, [r7, #24]
        temp &= ~((uint32_t)iocurrent);
 8001e76:	693b      	ldr	r3, [r7, #16]
 8001e78:	43db      	mvns	r3, r3
 8001e7a:	69ba      	ldr	r2, [r7, #24]
 8001e7c:	4013      	ands	r3, r2
 8001e7e:	61bb      	str	r3, [r7, #24]
        if((GPIO_Init->Mode & TRIGGER_FALLING) != 0x00U)
 8001e80:	683b      	ldr	r3, [r7, #0]
 8001e82:	685b      	ldr	r3, [r3, #4]
 8001e84:	f403 1300 	and.w	r3, r3, #2097152	; 0x200000
 8001e88:	2b00      	cmp	r3, #0
 8001e8a:	d003      	beq.n	8001e94 <HAL_GPIO_Init+0x2e8>
        {
          temp |= iocurrent;
 8001e8c:	69ba      	ldr	r2, [r7, #24]
 8001e8e:	693b      	ldr	r3, [r7, #16]
 8001e90:	4313      	orrs	r3, r2
 8001e92:	61bb      	str	r3, [r7, #24]
        }
        EXTI->FTSR = temp;
 8001e94:	4a12      	ldr	r2, [pc, #72]	; (8001ee0 <HAL_GPIO_Init+0x334>)
 8001e96:	69bb      	ldr	r3, [r7, #24]
 8001e98:	60d3      	str	r3, [r2, #12]
  for(position = 0U; position < GPIO_NUMBER; position++)
 8001e9a:	69fb      	ldr	r3, [r7, #28]
 8001e9c:	3301      	adds	r3, #1
 8001e9e:	61fb      	str	r3, [r7, #28]
 8001ea0:	69fb      	ldr	r3, [r7, #28]
 8001ea2:	2b0f      	cmp	r3, #15
 8001ea4:	f67f ae90 	bls.w	8001bc8 <HAL_GPIO_Init+0x1c>
      }
    }
  }
}
 8001ea8:	bf00      	nop
 8001eaa:	bf00      	nop
 8001eac:	3724      	adds	r7, #36	; 0x24
 8001eae:	46bd      	mov	sp, r7
 8001eb0:	f85d 7b04 	ldr.w	r7, [sp], #4
 8001eb4:	4770      	bx	lr
 8001eb6:	bf00      	nop
 8001eb8:	40023800 	.word	0x40023800
 8001ebc:	40013800 	.word	0x40013800
 8001ec0:	40020000 	.word	0x40020000
 8001ec4:	40020400 	.word	0x40020400
 8001ec8:	40020800 	.word	0x40020800
 8001ecc:	40020c00 	.word	0x40020c00
 8001ed0:	40021000 	.word	0x40021000
 8001ed4:	40021400 	.word	0x40021400
 8001ed8:	40021800 	.word	0x40021800
 8001edc:	40021c00 	.word	0x40021c00
 8001ee0:	40013c00 	.word	0x40013c00

08001ee4 <HAL_RCC_OscConfig>:
  *         supported by this API. User should request a transition to HSE Off
  *         first and then HSE On or HSE Bypass.
  * @retval HAL status
  */
__weak HAL_StatusTypeDef HAL_RCC_OscConfig(RCC_OscInitTypeDef  *RCC_OscInitStruct)
{
 8001ee4:	b580      	push	{r7, lr}
 8001ee6:	b086      	sub	sp, #24
 8001ee8:	af00      	add	r7, sp, #0
 8001eea:	6078      	str	r0, [r7, #4]
  uint32_t tickstart, pll_config;

  /* Check Null pointer */
  if(RCC_OscInitStruct == NULL)
 8001eec:	687b      	ldr	r3, [r7, #4]
 8001eee:	2b00      	cmp	r3, #0
 8001ef0:	d101      	bne.n	8001ef6 <HAL_RCC_OscConfig+0x12>
  {
    return HAL_ERROR;
 8001ef2:	2301      	movs	r3, #1
 8001ef4:	e264      	b.n	80023c0 <HAL_RCC_OscConfig+0x4dc>
  }

  /* Check the parameters */
  assert_param(IS_RCC_OSCILLATORTYPE(RCC_OscInitStruct->OscillatorType));
  /*------------------------------- HSE Configuration ------------------------*/
  if(((RCC_OscInitStruct->OscillatorType) & RCC_OSCILLATORTYPE_HSE) == RCC_OSCILLATORTYPE_HSE)
 8001ef6:	687b      	ldr	r3, [r7, #4]
 8001ef8:	681b      	ldr	r3, [r3, #0]
 8001efa:	f003 0301 	and.w	r3, r3, #1
 8001efe:	2b00      	cmp	r3, #0
 8001f00:	d075      	beq.n	8001fee <HAL_RCC_OscConfig+0x10a>
  {
    /* Check the parameters */
    assert_param(IS_RCC_HSE(RCC_OscInitStruct->HSEState));
    /* When the HSE is used as system clock or clock source for PLL in these cases HSE will not disabled */
    if((__HAL_RCC_GET_SYSCLK_SOURCE() == RCC_CFGR_SWS_HSE) ||\
 8001f02:	4ba3      	ldr	r3, [pc, #652]	; (8002190 <HAL_RCC_OscConfig+0x2ac>)
 8001f04:	689b      	ldr	r3, [r3, #8]
 8001f06:	f003 030c 	and.w	r3, r3, #12
 8001f0a:	2b04      	cmp	r3, #4
 8001f0c:	d00c      	beq.n	8001f28 <HAL_RCC_OscConfig+0x44>
      ((__HAL_RCC_GET_SYSCLK_SOURCE() == RCC_CFGR_SWS_PLL) && ((RCC->PLLCFGR & RCC_PLLCFGR_PLLSRC) == RCC_PLLCFGR_PLLSRC_HSE)))
 8001f0e:	4ba0      	ldr	r3, [pc, #640]	; (8002190 <HAL_RCC_OscConfig+0x2ac>)
 8001f10:	689b      	ldr	r3, [r3, #8]
 8001f12:	f003 030c 	and.w	r3, r3, #12
    if((__HAL_RCC_GET_SYSCLK_SOURCE() == RCC_CFGR_SWS_HSE) ||\
 8001f16:	2b08      	cmp	r3, #8
 8001f18:	d112      	bne.n	8001f40 <HAL_RCC_OscConfig+0x5c>
      ((__HAL_RCC_GET_SYSCLK_SOURCE() == RCC_CFGR_SWS_PLL) && ((RCC->PLLCFGR & RCC_PLLCFGR_PLLSRC) == RCC_PLLCFGR_PLLSRC_HSE)))
 8001f1a:	4b9d      	ldr	r3, [pc, #628]	; (8002190 <HAL_RCC_OscConfig+0x2ac>)
 8001f1c:	685b      	ldr	r3, [r3, #4]
 8001f1e:	f403 0380 	and.w	r3, r3, #4194304	; 0x400000
 8001f22:	f5b3 0f80 	cmp.w	r3, #4194304	; 0x400000
 8001f26:	d10b      	bne.n	8001f40 <HAL_RCC_OscConfig+0x5c>
    {
      if((__HAL_RCC_GET_FLAG(RCC_FLAG_HSERDY) != RESET) && (RCC_OscInitStruct->HSEState == RCC_HSE_OFF))
 8001f28:	4b99      	ldr	r3, [pc, #612]	; (8002190 <HAL_RCC_OscConfig+0x2ac>)
 8001f2a:	681b      	ldr	r3, [r3, #0]
 8001f2c:	f403 3300 	and.w	r3, r3, #131072	; 0x20000
 8001f30:	2b00      	cmp	r3, #0
 8001f32:	d05b      	beq.n	8001fec <HAL_RCC_OscConfig+0x108>
 8001f34:	687b      	ldr	r3, [r7, #4]
 8001f36:	685b      	ldr	r3, [r3, #4]
 8001f38:	2b00      	cmp	r3, #0
 8001f3a:	d157      	bne.n	8001fec <HAL_RCC_OscConfig+0x108>
      {
        return HAL_ERROR;
 8001f3c:	2301      	movs	r3, #1
 8001f3e:	e23f      	b.n	80023c0 <HAL_RCC_OscConfig+0x4dc>
      }
    }
    else
    {
      /* Set the new HSE configuration ---------------------------------------*/
      __HAL_RCC_HSE_CONFIG(RCC_OscInitStruct->HSEState);
 8001f40:	687b      	ldr	r3, [r7, #4]
 8001f42:	685b      	ldr	r3, [r3, #4]
 8001f44:	f5b3 3f80 	cmp.w	r3, #65536	; 0x10000
 8001f48:	d106      	bne.n	8001f58 <HAL_RCC_OscConfig+0x74>
 8001f4a:	4b91      	ldr	r3, [pc, #580]	; (8002190 <HAL_RCC_OscConfig+0x2ac>)
 8001f4c:	681b      	ldr	r3, [r3, #0]
 8001f4e:	4a90      	ldr	r2, [pc, #576]	; (8002190 <HAL_RCC_OscConfig+0x2ac>)
 8001f50:	f443 3380 	orr.w	r3, r3, #65536	; 0x10000
 8001f54:	6013      	str	r3, [r2, #0]
 8001f56:	e01d      	b.n	8001f94 <HAL_RCC_OscConfig+0xb0>
 8001f58:	687b      	ldr	r3, [r7, #4]
 8001f5a:	685b      	ldr	r3, [r3, #4]
 8001f5c:	f5b3 2fa0 	cmp.w	r3, #327680	; 0x50000
 8001f60:	d10c      	bne.n	8001f7c <HAL_RCC_OscConfig+0x98>
 8001f62:	4b8b      	ldr	r3, [pc, #556]	; (8002190 <HAL_RCC_OscConfig+0x2ac>)
 8001f64:	681b      	ldr	r3, [r3, #0]
 8001f66:	4a8a      	ldr	r2, [pc, #552]	; (8002190 <HAL_RCC_OscConfig+0x2ac>)
 8001f68:	f443 2380 	orr.w	r3, r3, #262144	; 0x40000
 8001f6c:	6013      	str	r3, [r2, #0]
 8001f6e:	4b88      	ldr	r3, [pc, #544]	; (8002190 <HAL_RCC_OscConfig+0x2ac>)
 8001f70:	681b      	ldr	r3, [r3, #0]
 8001f72:	4a87      	ldr	r2, [pc, #540]	; (8002190 <HAL_RCC_OscConfig+0x2ac>)
 8001f74:	f443 3380 	orr.w	r3, r3, #65536	; 0x10000
 8001f78:	6013      	str	r3, [r2, #0]
 8001f7a:	e00b      	b.n	8001f94 <HAL_RCC_OscConfig+0xb0>
 8001f7c:	4b84      	ldr	r3, [pc, #528]	; (8002190 <HAL_RCC_OscConfig+0x2ac>)
 8001f7e:	681b      	ldr	r3, [r3, #0]
 8001f80:	4a83      	ldr	r2, [pc, #524]	; (8002190 <HAL_RCC_OscConfig+0x2ac>)
 8001f82:	f423 3380 	bic.w	r3, r3, #65536	; 0x10000
 8001f86:	6013      	str	r3, [r2, #0]
 8001f88:	4b81      	ldr	r3, [pc, #516]	; (8002190 <HAL_RCC_OscConfig+0x2ac>)
 8001f8a:	681b      	ldr	r3, [r3, #0]
 8001f8c:	4a80      	ldr	r2, [pc, #512]	; (8002190 <HAL_RCC_OscConfig+0x2ac>)
 8001f8e:	f423 2380 	bic.w	r3, r3, #262144	; 0x40000
 8001f92:	6013      	str	r3, [r2, #0]

      /* Check the HSE State */
      if((RCC_OscInitStruct->HSEState) != RCC_HSE_OFF)
 8001f94:	687b      	ldr	r3, [r7, #4]
 8001f96:	685b      	ldr	r3, [r3, #4]
 8001f98:	2b00      	cmp	r3, #0
 8001f9a:	d013      	beq.n	8001fc4 <HAL_RCC_OscConfig+0xe0>
      {
        /* Get Start Tick */
        tickstart = HAL_GetTick();
 8001f9c:	f7ff f948 	bl	8001230 <HAL_GetTick>
 8001fa0:	6138      	str	r0, [r7, #16]

        /* Wait till HSE is ready */
        while(__HAL_RCC_GET_FLAG(RCC_FLAG_HSERDY) == RESET)
 8001fa2:	e008      	b.n	8001fb6 <HAL_RCC_OscConfig+0xd2>
        {
          if((HAL_GetTick() - tickstart ) > HSE_TIMEOUT_VALUE)
 8001fa4:	f7ff f944 	bl	8001230 <HAL_GetTick>
 8001fa8:	4602      	mov	r2, r0
 8001faa:	693b      	ldr	r3, [r7, #16]
 8001fac:	1ad3      	subs	r3, r2, r3
 8001fae:	2b64      	cmp	r3, #100	; 0x64
 8001fb0:	d901      	bls.n	8001fb6 <HAL_RCC_OscConfig+0xd2>
          {
            return HAL_TIMEOUT;
 8001fb2:	2303      	movs	r3, #3
 8001fb4:	e204      	b.n	80023c0 <HAL_RCC_OscConfig+0x4dc>
        while(__HAL_RCC_GET_FLAG(RCC_FLAG_HSERDY) == RESET)
 8001fb6:	4b76      	ldr	r3, [pc, #472]	; (8002190 <HAL_RCC_OscConfig+0x2ac>)
 8001fb8:	681b      	ldr	r3, [r3, #0]
 8001fba:	f403 3300 	and.w	r3, r3, #131072	; 0x20000
 8001fbe:	2b00      	cmp	r3, #0
 8001fc0:	d0f0      	beq.n	8001fa4 <HAL_RCC_OscConfig+0xc0>
 8001fc2:	e014      	b.n	8001fee <HAL_RCC_OscConfig+0x10a>
        }
      }
      else
      {
        /* Get Start Tick */
        tickstart = HAL_GetTick();
 8001fc4:	f7ff f934 	bl	8001230 <HAL_GetTick>
 8001fc8:	6138      	str	r0, [r7, #16]

        /* Wait till HSE is bypassed or disabled */
        while(__HAL_RCC_GET_FLAG(RCC_FLAG_HSERDY) != RESET)
 8001fca:	e008      	b.n	8001fde <HAL_RCC_OscConfig+0xfa>
        {
          if((HAL_GetTick() - tickstart ) > HSE_TIMEOUT_VALUE)
 8001fcc:	f7ff f930 	bl	8001230 <HAL_GetTick>
 8001fd0:	4602      	mov	r2, r0
 8001fd2:	693b      	ldr	r3, [r7, #16]
 8001fd4:	1ad3      	subs	r3, r2, r3
 8001fd6:	2b64      	cmp	r3, #100	; 0x64
 8001fd8:	d901      	bls.n	8001fde <HAL_RCC_OscConfig+0xfa>
          {
            return HAL_TIMEOUT;
 8001fda:	2303      	movs	r3, #3
 8001fdc:	e1f0      	b.n	80023c0 <HAL_RCC_OscConfig+0x4dc>
        while(__HAL_RCC_GET_FLAG(RCC_FLAG_HSERDY) != RESET)
 8001fde:	4b6c      	ldr	r3, [pc, #432]	; (8002190 <HAL_RCC_OscConfig+0x2ac>)
 8001fe0:	681b      	ldr	r3, [r3, #0]
 8001fe2:	f403 3300 	and.w	r3, r3, #131072	; 0x20000
 8001fe6:	2b00      	cmp	r3, #0
 8001fe8:	d1f0      	bne.n	8001fcc <HAL_RCC_OscConfig+0xe8>
 8001fea:	e000      	b.n	8001fee <HAL_RCC_OscConfig+0x10a>
      if((__HAL_RCC_GET_FLAG(RCC_FLAG_HSERDY) != RESET) && (RCC_OscInitStruct->HSEState == RCC_HSE_OFF))
 8001fec:	bf00      	nop
        }
      }
    }
  }
  /*----------------------------- HSI Configuration --------------------------*/
  if(((RCC_OscInitStruct->OscillatorType) & RCC_OSCILLATORTYPE_HSI) == RCC_OSCILLATORTYPE_HSI)
 8001fee:	687b      	ldr	r3, [r7, #4]
 8001ff0:	681b      	ldr	r3, [r3, #0]
 8001ff2:	f003 0302 	and.w	r3, r3, #2
 8001ff6:	2b00      	cmp	r3, #0
 8001ff8:	d063      	beq.n	80020c2 <HAL_RCC_OscConfig+0x1de>
    /* Check the parameters */
    assert_param(IS_RCC_HSI(RCC_OscInitStruct->HSIState));
    assert_param(IS_RCC_CALIBRATION_VALUE(RCC_OscInitStruct->HSICalibrationValue));

    /* Check if HSI is used as system clock or as PLL source when PLL is selected as system clock */
    if((__HAL_RCC_GET_SYSCLK_SOURCE() == RCC_CFGR_SWS_HSI) ||\
 8001ffa:	4b65      	ldr	r3, [pc, #404]	; (8002190 <HAL_RCC_OscConfig+0x2ac>)
 8001ffc:	689b      	ldr	r3, [r3, #8]
 8001ffe:	f003 030c 	and.w	r3, r3, #12
 8002002:	2b00      	cmp	r3, #0
 8002004:	d00b      	beq.n	800201e <HAL_RCC_OscConfig+0x13a>
      ((__HAL_RCC_GET_SYSCLK_SOURCE() == RCC_CFGR_SWS_PLL) && ((RCC->PLLCFGR & RCC_PLLCFGR_PLLSRC) == RCC_PLLCFGR_PLLSRC_HSI)))
 8002006:	4b62      	ldr	r3, [pc, #392]	; (8002190 <HAL_RCC_OscConfig+0x2ac>)
 8002008:	689b      	ldr	r3, [r3, #8]
 800200a:	f003 030c 	and.w	r3, r3, #12
    if((__HAL_RCC_GET_SYSCLK_SOURCE() == RCC_CFGR_SWS_HSI) ||\
 800200e:	2b08      	cmp	r3, #8
 8002010:	d11c      	bne.n	800204c <HAL_RCC_OscConfig+0x168>
      ((__HAL_RCC_GET_SYSCLK_SOURCE() == RCC_CFGR_SWS_PLL) && ((RCC->PLLCFGR & RCC_PLLCFGR_PLLSRC) == RCC_PLLCFGR_PLLSRC_HSI)))
 8002012:	4b5f      	ldr	r3, [pc, #380]	; (8002190 <HAL_RCC_OscConfig+0x2ac>)
 8002014:	685b      	ldr	r3, [r3, #4]
 8002016:	f403 0380 	and.w	r3, r3, #4194304	; 0x400000
 800201a:	2b00      	cmp	r3, #0
 800201c:	d116      	bne.n	800204c <HAL_RCC_OscConfig+0x168>
    {
      /* When HSI is used as system clock it will not disabled */
      if((__HAL_RCC_GET_FLAG(RCC_FLAG_HSIRDY) != RESET) && (RCC_OscInitStruct->HSIState != RCC_HSI_ON))
 800201e:	4b5c      	ldr	r3, [pc, #368]	; (8002190 <HAL_RCC_OscConfig+0x2ac>)
 8002020:	681b      	ldr	r3, [r3, #0]
 8002022:	f003 0302 	and.w	r3, r3, #2
 8002026:	2b00      	cmp	r3, #0
 8002028:	d005      	beq.n	8002036 <HAL_RCC_OscConfig+0x152>
 800202a:	687b      	ldr	r3, [r7, #4]
 800202c:	68db      	ldr	r3, [r3, #12]
 800202e:	2b01      	cmp	r3, #1
 8002030:	d001      	beq.n	8002036 <HAL_RCC_OscConfig+0x152>
      {
        return HAL_ERROR;
 8002032:	2301      	movs	r3, #1
 8002034:	e1c4      	b.n	80023c0 <HAL_RCC_OscConfig+0x4dc>
      }
      /* Otherwise, just the calibration is allowed */
      else
      {
        /* Adjusts the Internal High Speed oscillator (HSI) calibration value.*/
        __HAL_RCC_HSI_CALIBRATIONVALUE_ADJUST(RCC_OscInitStruct->HSICalibrationValue);
 8002036:	4b56      	ldr	r3, [pc, #344]	; (8002190 <HAL_RCC_OscConfig+0x2ac>)
 8002038:	681b      	ldr	r3, [r3, #0]
 800203a:	f023 02f8 	bic.w	r2, r3, #248	; 0xf8
 800203e:	687b      	ldr	r3, [r7, #4]
 8002040:	691b      	ldr	r3, [r3, #16]
 8002042:	00db      	lsls	r3, r3, #3
 8002044:	4952      	ldr	r1, [pc, #328]	; (8002190 <HAL_RCC_OscConfig+0x2ac>)
 8002046:	4313      	orrs	r3, r2
 8002048:	600b      	str	r3, [r1, #0]
      if((__HAL_RCC_GET_FLAG(RCC_FLAG_HSIRDY) != RESET) && (RCC_OscInitStruct->HSIState != RCC_HSI_ON))
 800204a:	e03a      	b.n	80020c2 <HAL_RCC_OscConfig+0x1de>
      }
    }
    else
    {
      /* Check the HSI State */
      if((RCC_OscInitStruct->HSIState)!= RCC_HSI_OFF)
 800204c:	687b      	ldr	r3, [r7, #4]
 800204e:	68db      	ldr	r3, [r3, #12]
 8002050:	2b00      	cmp	r3, #0
 8002052:	d020      	beq.n	8002096 <HAL_RCC_OscConfig+0x1b2>
      {
        /* Enable the Internal High Speed oscillator (HSI). */
        __HAL_RCC_HSI_ENABLE();
 8002054:	4b4f      	ldr	r3, [pc, #316]	; (8002194 <HAL_RCC_OscConfig+0x2b0>)
 8002056:	2201      	movs	r2, #1
 8002058:	601a      	str	r2, [r3, #0]

        /* Get Start Tick*/
        tickstart = HAL_GetTick();
 800205a:	f7ff f8e9 	bl	8001230 <HAL_GetTick>
 800205e:	6138      	str	r0, [r7, #16]

        /* Wait till HSI is ready */
        while(__HAL_RCC_GET_FLAG(RCC_FLAG_HSIRDY) == RESET)
 8002060:	e008      	b.n	8002074 <HAL_RCC_OscConfig+0x190>
        {
          if((HAL_GetTick() - tickstart ) > HSI_TIMEOUT_VALUE)
 8002062:	f7ff f8e5 	bl	8001230 <HAL_GetTick>
 8002066:	4602      	mov	r2, r0
 8002068:	693b      	ldr	r3, [r7, #16]
 800206a:	1ad3      	subs	r3, r2, r3
 800206c:	2b02      	cmp	r3, #2
 800206e:	d901      	bls.n	8002074 <HAL_RCC_OscConfig+0x190>
          {
            return HAL_TIMEOUT;
 8002070:	2303      	movs	r3, #3
 8002072:	e1a5      	b.n	80023c0 <HAL_RCC_OscConfig+0x4dc>
        while(__HAL_RCC_GET_FLAG(RCC_FLAG_HSIRDY) == RESET)
 8002074:	4b46      	ldr	r3, [pc, #280]	; (8002190 <HAL_RCC_OscConfig+0x2ac>)
 8002076:	681b      	ldr	r3, [r3, #0]
 8002078:	f003 0302 	and.w	r3, r3, #2
 800207c:	2b00      	cmp	r3, #0
 800207e:	d0f0      	beq.n	8002062 <HAL_RCC_OscConfig+0x17e>
          }
        }

        /* Adjusts the Internal High Speed oscillator (HSI) calibration value. */
        __HAL_RCC_HSI_CALIBRATIONVALUE_ADJUST(RCC_OscInitStruct->HSICalibrationValue);
 8002080:	4b43      	ldr	r3, [pc, #268]	; (8002190 <HAL_RCC_OscConfig+0x2ac>)
 8002082:	681b      	ldr	r3, [r3, #0]
 8002084:	f023 02f8 	bic.w	r2, r3, #248	; 0xf8
 8002088:	687b      	ldr	r3, [r7, #4]
 800208a:	691b      	ldr	r3, [r3, #16]
 800208c:	00db      	lsls	r3, r3, #3
 800208e:	4940      	ldr	r1, [pc, #256]	; (8002190 <HAL_RCC_OscConfig+0x2ac>)
 8002090:	4313      	orrs	r3, r2
 8002092:	600b      	str	r3, [r1, #0]
 8002094:	e015      	b.n	80020c2 <HAL_RCC_OscConfig+0x1de>
      }
      else
      {
        /* Disable the Internal High Speed oscillator (HSI). */
        __HAL_RCC_HSI_DISABLE();
 8002096:	4b3f      	ldr	r3, [pc, #252]	; (8002194 <HAL_RCC_OscConfig+0x2b0>)
 8002098:	2200      	movs	r2, #0
 800209a:	601a      	str	r2, [r3, #0]

        /* Get Start Tick*/
        tickstart = HAL_GetTick();
 800209c:	f7ff f8c8 	bl	8001230 <HAL_GetTick>
 80020a0:	6138      	str	r0, [r7, #16]

        /* Wait till HSI is ready */
        while(__HAL_RCC_GET_FLAG(RCC_FLAG_HSIRDY) != RESET)
 80020a2:	e008      	b.n	80020b6 <HAL_RCC_OscConfig+0x1d2>
        {
          if((HAL_GetTick() - tickstart ) > HSI_TIMEOUT_VALUE)
 80020a4:	f7ff f8c4 	bl	8001230 <HAL_GetTick>
 80020a8:	4602      	mov	r2, r0
 80020aa:	693b      	ldr	r3, [r7, #16]
 80020ac:	1ad3      	subs	r3, r2, r3
 80020ae:	2b02      	cmp	r3, #2
 80020b0:	d901      	bls.n	80020b6 <HAL_RCC_OscConfig+0x1d2>
          {
            return HAL_TIMEOUT;
 80020b2:	2303      	movs	r3, #3
 80020b4:	e184      	b.n	80023c0 <HAL_RCC_OscConfig+0x4dc>
        while(__HAL_RCC_GET_FLAG(RCC_FLAG_HSIRDY) != RESET)
 80020b6:	4b36      	ldr	r3, [pc, #216]	; (8002190 <HAL_RCC_OscConfig+0x2ac>)
 80020b8:	681b      	ldr	r3, [r3, #0]
 80020ba:	f003 0302 	and.w	r3, r3, #2
 80020be:	2b00      	cmp	r3, #0
 80020c0:	d1f0      	bne.n	80020a4 <HAL_RCC_OscConfig+0x1c0>
        }
      }
    }
  }
  /*------------------------------ LSI Configuration -------------------------*/
  if(((RCC_OscInitStruct->OscillatorType) & RCC_OSCILLATORTYPE_LSI) == RCC_OSCILLATORTYPE_LSI)
 80020c2:	687b      	ldr	r3, [r7, #4]
 80020c4:	681b      	ldr	r3, [r3, #0]
 80020c6:	f003 0308 	and.w	r3, r3, #8
 80020ca:	2b00      	cmp	r3, #0
 80020cc:	d030      	beq.n	8002130 <HAL_RCC_OscConfig+0x24c>
  {
    /* Check the parameters */
    assert_param(IS_RCC_LSI(RCC_OscInitStruct->LSIState));

    /* Check the LSI State */
    if((RCC_OscInitStruct->LSIState)!= RCC_LSI_OFF)
 80020ce:	687b      	ldr	r3, [r7, #4]
 80020d0:	695b      	ldr	r3, [r3, #20]
 80020d2:	2b00      	cmp	r3, #0
 80020d4:	d016      	beq.n	8002104 <HAL_RCC_OscConfig+0x220>
    {
      /* Enable the Internal Low Speed oscillator (LSI). */
      __HAL_RCC_LSI_ENABLE();
 80020d6:	4b30      	ldr	r3, [pc, #192]	; (8002198 <HAL_RCC_OscConfig+0x2b4>)
 80020d8:	2201      	movs	r2, #1
 80020da:	601a      	str	r2, [r3, #0]

      /* Get Start Tick*/
      tickstart = HAL_GetTick();
 80020dc:	f7ff f8a8 	bl	8001230 <HAL_GetTick>
 80020e0:	6138      	str	r0, [r7, #16]

      /* Wait till LSI is ready */
      while(__HAL_RCC_GET_FLAG(RCC_FLAG_LSIRDY) == RESET)
 80020e2:	e008      	b.n	80020f6 <HAL_RCC_OscConfig+0x212>
      {
        if((HAL_GetTick() - tickstart ) > LSI_TIMEOUT_VALUE)
 80020e4:	f7ff f8a4 	bl	8001230 <HAL_GetTick>
 80020e8:	4602      	mov	r2, r0
 80020ea:	693b      	ldr	r3, [r7, #16]
 80020ec:	1ad3      	subs	r3, r2, r3
 80020ee:	2b02      	cmp	r3, #2
 80020f0:	d901      	bls.n	80020f6 <HAL_RCC_OscConfig+0x212>
        {
          return HAL_TIMEOUT;
 80020f2:	2303      	movs	r3, #3
 80020f4:	e164      	b.n	80023c0 <HAL_RCC_OscConfig+0x4dc>
      while(__HAL_RCC_GET_FLAG(RCC_FLAG_LSIRDY) == RESET)
 80020f6:	4b26      	ldr	r3, [pc, #152]	; (8002190 <HAL_RCC_OscConfig+0x2ac>)
 80020f8:	6f5b      	ldr	r3, [r3, #116]	; 0x74
 80020fa:	f003 0302 	and.w	r3, r3, #2
 80020fe:	2b00      	cmp	r3, #0
 8002100:	d0f0      	beq.n	80020e4 <HAL_RCC_OscConfig+0x200>
 8002102:	e015      	b.n	8002130 <HAL_RCC_OscConfig+0x24c>
      }
    }
    else
    {
      /* Disable the Internal Low Speed oscillator (LSI). */
      __HAL_RCC_LSI_DISABLE();
 8002104:	4b24      	ldr	r3, [pc, #144]	; (8002198 <HAL_RCC_OscConfig+0x2b4>)
 8002106:	2200      	movs	r2, #0
 8002108:	601a      	str	r2, [r3, #0]

      /* Get Start Tick */
      tickstart = HAL_GetTick();
 800210a:	f7ff f891 	bl	8001230 <HAL_GetTick>
 800210e:	6138      	str	r0, [r7, #16]

      /* Wait till LSI is ready */
      while(__HAL_RCC_GET_FLAG(RCC_FLAG_LSIRDY) != RESET)
 8002110:	e008      	b.n	8002124 <HAL_RCC_OscConfig+0x240>
      {
        if((HAL_GetTick() - tickstart ) > LSI_TIMEOUT_VALUE)
 8002112:	f7ff f88d 	bl	8001230 <HAL_GetTick>
 8002116:	4602      	mov	r2, r0
 8002118:	693b      	ldr	r3, [r7, #16]
 800211a:	1ad3      	subs	r3, r2, r3
 800211c:	2b02      	cmp	r3, #2
 800211e:	d901      	bls.n	8002124 <HAL_RCC_OscConfig+0x240>
        {
          return HAL_TIMEOUT;
 8002120:	2303      	movs	r3, #3
 8002122:	e14d      	b.n	80023c0 <HAL_RCC_OscConfig+0x4dc>
      while(__HAL_RCC_GET_FLAG(RCC_FLAG_LSIRDY) != RESET)
 8002124:	4b1a      	ldr	r3, [pc, #104]	; (8002190 <HAL_RCC_OscConfig+0x2ac>)
 8002126:	6f5b      	ldr	r3, [r3, #116]	; 0x74
 8002128:	f003 0302 	and.w	r3, r3, #2
 800212c:	2b00      	cmp	r3, #0
 800212e:	d1f0      	bne.n	8002112 <HAL_RCC_OscConfig+0x22e>
        }
      }
    }
  }
  /*------------------------------ LSE Configuration -------------------------*/
  if(((RCC_OscInitStruct->OscillatorType) & RCC_OSCILLATORTYPE_LSE) == RCC_OSCILLATORTYPE_LSE)
 8002130:	687b      	ldr	r3, [r7, #4]
 8002132:	681b      	ldr	r3, [r3, #0]
 8002134:	f003 0304 	and.w	r3, r3, #4
 8002138:	2b00      	cmp	r3, #0
 800213a:	f000 80a0 	beq.w	800227e <HAL_RCC_OscConfig+0x39a>
  {
    FlagStatus       pwrclkchanged = RESET;
 800213e:	2300      	movs	r3, #0
 8002140:	75fb      	strb	r3, [r7, #23]
    /* Check the parameters */
    assert_param(IS_RCC_LSE(RCC_OscInitStruct->LSEState));

    /* Update LSE configuration in Backup Domain control register    */
    /* Requires to enable write access to Backup Domain of necessary */
    if(__HAL_RCC_PWR_IS_CLK_DISABLED())
 8002142:	4b13      	ldr	r3, [pc, #76]	; (8002190 <HAL_RCC_OscConfig+0x2ac>)
 8002144:	6c1b      	ldr	r3, [r3, #64]	; 0x40
 8002146:	f003 5380 	and.w	r3, r3, #268435456	; 0x10000000
 800214a:	2b00      	cmp	r3, #0
 800214c:	d10f      	bne.n	800216e <HAL_RCC_OscConfig+0x28a>
    {
      __HAL_RCC_PWR_CLK_ENABLE();
 800214e:	2300      	movs	r3, #0
 8002150:	60bb      	str	r3, [r7, #8]
 8002152:	4b0f      	ldr	r3, [pc, #60]	; (8002190 <HAL_RCC_OscConfig+0x2ac>)
 8002154:	6c1b      	ldr	r3, [r3, #64]	; 0x40
 8002156:	4a0e      	ldr	r2, [pc, #56]	; (8002190 <HAL_RCC_OscConfig+0x2ac>)
 8002158:	f043 5380 	orr.w	r3, r3, #268435456	; 0x10000000
 800215c:	6413      	str	r3, [r2, #64]	; 0x40
 800215e:	4b0c      	ldr	r3, [pc, #48]	; (8002190 <HAL_RCC_OscConfig+0x2ac>)
 8002160:	6c1b      	ldr	r3, [r3, #64]	; 0x40
 8002162:	f003 5380 	and.w	r3, r3, #268435456	; 0x10000000
 8002166:	60bb      	str	r3, [r7, #8]
 8002168:	68bb      	ldr	r3, [r7, #8]
      pwrclkchanged = SET;
 800216a:	2301      	movs	r3, #1
 800216c:	75fb      	strb	r3, [r7, #23]
    }

    if(HAL_IS_BIT_CLR(PWR->CR, PWR_CR_DBP))
 800216e:	4b0b      	ldr	r3, [pc, #44]	; (800219c <HAL_RCC_OscConfig+0x2b8>)
 8002170:	681b      	ldr	r3, [r3, #0]
 8002172:	f403 7380 	and.w	r3, r3, #256	; 0x100
 8002176:	2b00      	cmp	r3, #0
 8002178:	d121      	bne.n	80021be <HAL_RCC_OscConfig+0x2da>
    {
      /* Enable write access to Backup domain */
      SET_BIT(PWR->CR, PWR_CR_DBP);
 800217a:	4b08      	ldr	r3, [pc, #32]	; (800219c <HAL_RCC_OscConfig+0x2b8>)
 800217c:	681b      	ldr	r3, [r3, #0]
 800217e:	4a07      	ldr	r2, [pc, #28]	; (800219c <HAL_RCC_OscConfig+0x2b8>)
 8002180:	f443 7380 	orr.w	r3, r3, #256	; 0x100
 8002184:	6013      	str	r3, [r2, #0]

      /* Wait for Backup domain Write protection disable */
      tickstart = HAL_GetTick();
 8002186:	f7ff f853 	bl	8001230 <HAL_GetTick>
 800218a:	6138      	str	r0, [r7, #16]

      while(HAL_IS_BIT_CLR(PWR->CR, PWR_CR_DBP))
 800218c:	e011      	b.n	80021b2 <HAL_RCC_OscConfig+0x2ce>
 800218e:	bf00      	nop
 8002190:	40023800 	.word	0x40023800
 8002194:	42470000 	.word	0x42470000
 8002198:	42470e80 	.word	0x42470e80
 800219c:	40007000 	.word	0x40007000
      {
        if((HAL_GetTick() - tickstart) > RCC_DBP_TIMEOUT_VALUE)
 80021a0:	f7ff f846 	bl	8001230 <HAL_GetTick>
 80021a4:	4602      	mov	r2, r0
 80021a6:	693b      	ldr	r3, [r7, #16]
 80021a8:	1ad3      	subs	r3, r2, r3
 80021aa:	2b02      	cmp	r3, #2
 80021ac:	d901      	bls.n	80021b2 <HAL_RCC_OscConfig+0x2ce>
        {
          return HAL_TIMEOUT;
 80021ae:	2303      	movs	r3, #3
 80021b0:	e106      	b.n	80023c0 <HAL_RCC_OscConfig+0x4dc>
      while(HAL_IS_BIT_CLR(PWR->CR, PWR_CR_DBP))
 80021b2:	4b85      	ldr	r3, [pc, #532]	; (80023c8 <HAL_RCC_OscConfig+0x4e4>)
 80021b4:	681b      	ldr	r3, [r3, #0]
 80021b6:	f403 7380 	and.w	r3, r3, #256	; 0x100
 80021ba:	2b00      	cmp	r3, #0
 80021bc:	d0f0      	beq.n	80021a0 <HAL_RCC_OscConfig+0x2bc>
        }
      }
    }

    /* Set the new LSE configuration -----------------------------------------*/
    __HAL_RCC_LSE_CONFIG(RCC_OscInitStruct->LSEState);
 80021be:	687b      	ldr	r3, [r7, #4]
 80021c0:	689b      	ldr	r3, [r3, #8]
 80021c2:	2b01      	cmp	r3, #1
 80021c4:	d106      	bne.n	80021d4 <HAL_RCC_OscConfig+0x2f0>
 80021c6:	4b81      	ldr	r3, [pc, #516]	; (80023cc <HAL_RCC_OscConfig+0x4e8>)
 80021c8:	6f1b      	ldr	r3, [r3, #112]	; 0x70
 80021ca:	4a80      	ldr	r2, [pc, #512]	; (80023cc <HAL_RCC_OscConfig+0x4e8>)
 80021cc:	f043 0301 	orr.w	r3, r3, #1
 80021d0:	6713      	str	r3, [r2, #112]	; 0x70
 80021d2:	e01c      	b.n	800220e <HAL_RCC_OscConfig+0x32a>
 80021d4:	687b      	ldr	r3, [r7, #4]
 80021d6:	689b      	ldr	r3, [r3, #8]
 80021d8:	2b05      	cmp	r3, #5
 80021da:	d10c      	bne.n	80021f6 <HAL_RCC_OscConfig+0x312>
 80021dc:	4b7b      	ldr	r3, [pc, #492]	; (80023cc <HAL_RCC_OscConfig+0x4e8>)
 80021de:	6f1b      	ldr	r3, [r3, #112]	; 0x70
 80021e0:	4a7a      	ldr	r2, [pc, #488]	; (80023cc <HAL_RCC_OscConfig+0x4e8>)
 80021e2:	f043 0304 	orr.w	r3, r3, #4
 80021e6:	6713      	str	r3, [r2, #112]	; 0x70
 80021e8:	4b78      	ldr	r3, [pc, #480]	; (80023cc <HAL_RCC_OscConfig+0x4e8>)
 80021ea:	6f1b      	ldr	r3, [r3, #112]	; 0x70
 80021ec:	4a77      	ldr	r2, [pc, #476]	; (80023cc <HAL_RCC_OscConfig+0x4e8>)
 80021ee:	f043 0301 	orr.w	r3, r3, #1
 80021f2:	6713      	str	r3, [r2, #112]	; 0x70
 80021f4:	e00b      	b.n	800220e <HAL_RCC_OscConfig+0x32a>
 80021f6:	4b75      	ldr	r3, [pc, #468]	; (80023cc <HAL_RCC_OscConfig+0x4e8>)
 80021f8:	6f1b      	ldr	r3, [r3, #112]	; 0x70
 80021fa:	4a74      	ldr	r2, [pc, #464]	; (80023cc <HAL_RCC_OscConfig+0x4e8>)
 80021fc:	f023 0301 	bic.w	r3, r3, #1
 8002200:	6713      	str	r3, [r2, #112]	; 0x70
 8002202:	4b72      	ldr	r3, [pc, #456]	; (80023cc <HAL_RCC_OscConfig+0x4e8>)
 8002204:	6f1b      	ldr	r3, [r3, #112]	; 0x70
 8002206:	4a71      	ldr	r2, [pc, #452]	; (80023cc <HAL_RCC_OscConfig+0x4e8>)
 8002208:	f023 0304 	bic.w	r3, r3, #4
 800220c:	6713      	str	r3, [r2, #112]	; 0x70
    /* Check the LSE State */
    if((RCC_OscInitStruct->LSEState) != RCC_LSE_OFF)
 800220e:	687b      	ldr	r3, [r7, #4]
 8002210:	689b      	ldr	r3, [r3, #8]
 8002212:	2b00      	cmp	r3, #0
 8002214:	d015      	beq.n	8002242 <HAL_RCC_OscConfig+0x35e>
    {
      /* Get Start Tick*/
      tickstart = HAL_GetTick();
 8002216:	f7ff f80b 	bl	8001230 <HAL_GetTick>
 800221a:	6138      	str	r0, [r7, #16]

      /* Wait till LSE is ready */
      while(__HAL_RCC_GET_FLAG(RCC_FLAG_LSERDY) == RESET)
 800221c:	e00a      	b.n	8002234 <HAL_RCC_OscConfig+0x350>
      {
        if((HAL_GetTick() - tickstart ) > RCC_LSE_TIMEOUT_VALUE)
 800221e:	f7ff f807 	bl	8001230 <HAL_GetTick>
 8002222:	4602      	mov	r2, r0
 8002224:	693b      	ldr	r3, [r7, #16]
 8002226:	1ad3      	subs	r3, r2, r3
 8002228:	f241 3288 	movw	r2, #5000	; 0x1388
 800222c:	4293      	cmp	r3, r2
 800222e:	d901      	bls.n	8002234 <HAL_RCC_OscConfig+0x350>
        {
          return HAL_TIMEOUT;
 8002230:	2303      	movs	r3, #3
 8002232:	e0c5      	b.n	80023c0 <HAL_RCC_OscConfig+0x4dc>
      while(__HAL_RCC_GET_FLAG(RCC_FLAG_LSERDY) == RESET)
 8002234:	4b65      	ldr	r3, [pc, #404]	; (80023cc <HAL_RCC_OscConfig+0x4e8>)
 8002236:	6f1b      	ldr	r3, [r3, #112]	; 0x70
 8002238:	f003 0302 	and.w	r3, r3, #2
 800223c:	2b00      	cmp	r3, #0
 800223e:	d0ee      	beq.n	800221e <HAL_RCC_OscConfig+0x33a>
 8002240:	e014      	b.n	800226c <HAL_RCC_OscConfig+0x388>
      }
    }
    else
    {
      /* Get Start Tick */
      tickstart = HAL_GetTick();
 8002242:	f7fe fff5 	bl	8001230 <HAL_GetTick>
 8002246:	6138      	str	r0, [r7, #16]

      /* Wait till LSE is ready */
      while(__HAL_RCC_GET_FLAG(RCC_FLAG_LSERDY) != RESET)
 8002248:	e00a      	b.n	8002260 <HAL_RCC_OscConfig+0x37c>
      {
        if((HAL_GetTick() - tickstart ) > RCC_LSE_TIMEOUT_VALUE)
 800224a:	f7fe fff1 	bl	8001230 <HAL_GetTick>
 800224e:	4602      	mov	r2, r0
 8002250:	693b      	ldr	r3, [r7, #16]
 8002252:	1ad3      	subs	r3, r2, r3
 8002254:	f241 3288 	movw	r2, #5000	; 0x1388
 8002258:	4293      	cmp	r3, r2
 800225a:	d901      	bls.n	8002260 <HAL_RCC_OscConfig+0x37c>
        {
          return HAL_TIMEOUT;
 800225c:	2303      	movs	r3, #3
 800225e:	e0af      	b.n	80023c0 <HAL_RCC_OscConfig+0x4dc>
      while(__HAL_RCC_GET_FLAG(RCC_FLAG_LSERDY) != RESET)
 8002260:	4b5a      	ldr	r3, [pc, #360]	; (80023cc <HAL_RCC_OscConfig+0x4e8>)
 8002262:	6f1b      	ldr	r3, [r3, #112]	; 0x70
 8002264:	f003 0302 	and.w	r3, r3, #2
 8002268:	2b00      	cmp	r3, #0
 800226a:	d1ee      	bne.n	800224a <HAL_RCC_OscConfig+0x366>
        }
      }
    }

    /* Restore clock configuration if changed */
    if(pwrclkchanged == SET)
 800226c:	7dfb      	ldrb	r3, [r7, #23]
 800226e:	2b01      	cmp	r3, #1
 8002270:	d105      	bne.n	800227e <HAL_RCC_OscConfig+0x39a>
    {
      __HAL_RCC_PWR_CLK_DISABLE();
 8002272:	4b56      	ldr	r3, [pc, #344]	; (80023cc <HAL_RCC_OscConfig+0x4e8>)
 8002274:	6c1b      	ldr	r3, [r3, #64]	; 0x40
 8002276:	4a55      	ldr	r2, [pc, #340]	; (80023cc <HAL_RCC_OscConfig+0x4e8>)
 8002278:	f023 5380 	bic.w	r3, r3, #268435456	; 0x10000000
 800227c:	6413      	str	r3, [r2, #64]	; 0x40
    }
  }
  /*-------------------------------- PLL Configuration -----------------------*/
  /* Check the parameters */
  assert_param(IS_RCC_PLL(RCC_OscInitStruct->PLL.PLLState));
  if ((RCC_OscInitStruct->PLL.PLLState) != RCC_PLL_NONE)
 800227e:	687b      	ldr	r3, [r7, #4]
 8002280:	699b      	ldr	r3, [r3, #24]
 8002282:	2b00      	cmp	r3, #0
 8002284:	f000 809b 	beq.w	80023be <HAL_RCC_OscConfig+0x4da>
  {
    /* Check if the PLL is used as system clock or not */
    if(__HAL_RCC_GET_SYSCLK_SOURCE() != RCC_CFGR_SWS_PLL)
 8002288:	4b50      	ldr	r3, [pc, #320]	; (80023cc <HAL_RCC_OscConfig+0x4e8>)
 800228a:	689b      	ldr	r3, [r3, #8]
 800228c:	f003 030c 	and.w	r3, r3, #12
 8002290:	2b08      	cmp	r3, #8
 8002292:	d05c      	beq.n	800234e <HAL_RCC_OscConfig+0x46a>
    {
      if((RCC_OscInitStruct->PLL.PLLState) == RCC_PLL_ON)
 8002294:	687b      	ldr	r3, [r7, #4]
 8002296:	699b      	ldr	r3, [r3, #24]
 8002298:	2b02      	cmp	r3, #2
 800229a:	d141      	bne.n	8002320 <HAL_RCC_OscConfig+0x43c>
        assert_param(IS_RCC_PLLN_VALUE(RCC_OscInitStruct->PLL.PLLN));
        assert_param(IS_RCC_PLLP_VALUE(RCC_OscInitStruct->PLL.PLLP));
        assert_param(IS_RCC_PLLQ_VALUE(RCC_OscInitStruct->PLL.PLLQ));

        /* Disable the main PLL. */
        __HAL_RCC_PLL_DISABLE();
 800229c:	4b4c      	ldr	r3, [pc, #304]	; (80023d0 <HAL_RCC_OscConfig+0x4ec>)
 800229e:	2200      	movs	r2, #0
 80022a0:	601a      	str	r2, [r3, #0]

        /* Get Start Tick */
        tickstart = HAL_GetTick();
 80022a2:	f7fe ffc5 	bl	8001230 <HAL_GetTick>
 80022a6:	6138      	str	r0, [r7, #16]

        /* Wait till PLL is ready */
        while(__HAL_RCC_GET_FLAG(RCC_FLAG_PLLRDY) != RESET)
 80022a8:	e008      	b.n	80022bc <HAL_RCC_OscConfig+0x3d8>
        {
          if((HAL_GetTick() - tickstart ) > PLL_TIMEOUT_VALUE)
 80022aa:	f7fe ffc1 	bl	8001230 <HAL_GetTick>
 80022ae:	4602      	mov	r2, r0
 80022b0:	693b      	ldr	r3, [r7, #16]
 80022b2:	1ad3      	subs	r3, r2, r3
 80022b4:	2b02      	cmp	r3, #2
 80022b6:	d901      	bls.n	80022bc <HAL_RCC_OscConfig+0x3d8>
          {
            return HAL_TIMEOUT;
 80022b8:	2303      	movs	r3, #3
 80022ba:	e081      	b.n	80023c0 <HAL_RCC_OscConfig+0x4dc>
        while(__HAL_RCC_GET_FLAG(RCC_FLAG_PLLRDY) != RESET)
 80022bc:	4b43      	ldr	r3, [pc, #268]	; (80023cc <HAL_RCC_OscConfig+0x4e8>)
 80022be:	681b      	ldr	r3, [r3, #0]
 80022c0:	f003 7300 	and.w	r3, r3, #33554432	; 0x2000000
 80022c4:	2b00      	cmp	r3, #0
 80022c6:	d1f0      	bne.n	80022aa <HAL_RCC_OscConfig+0x3c6>
          }
        }

        /* Configure the main PLL clock source, multiplication and division factors. */
        WRITE_REG(RCC->PLLCFGR, (RCC_OscInitStruct->PLL.PLLSource                                            | \
 80022c8:	687b      	ldr	r3, [r7, #4]
 80022ca:	69da      	ldr	r2, [r3, #28]
 80022cc:	687b      	ldr	r3, [r7, #4]
 80022ce:	6a1b      	ldr	r3, [r3, #32]
 80022d0:	431a      	orrs	r2, r3
 80022d2:	687b      	ldr	r3, [r7, #4]
 80022d4:	6a5b      	ldr	r3, [r3, #36]	; 0x24
 80022d6:	019b      	lsls	r3, r3, #6
 80022d8:	431a      	orrs	r2, r3
 80022da:	687b      	ldr	r3, [r7, #4]
 80022dc:	6a9b      	ldr	r3, [r3, #40]	; 0x28
 80022de:	085b      	lsrs	r3, r3, #1
 80022e0:	3b01      	subs	r3, #1
 80022e2:	041b      	lsls	r3, r3, #16
 80022e4:	431a      	orrs	r2, r3
 80022e6:	687b      	ldr	r3, [r7, #4]
 80022e8:	6adb      	ldr	r3, [r3, #44]	; 0x2c
 80022ea:	061b      	lsls	r3, r3, #24
 80022ec:	4937      	ldr	r1, [pc, #220]	; (80023cc <HAL_RCC_OscConfig+0x4e8>)
 80022ee:	4313      	orrs	r3, r2
 80022f0:	604b      	str	r3, [r1, #4]
                                 RCC_OscInitStruct->PLL.PLLM                                                 | \
                                 (RCC_OscInitStruct->PLL.PLLN << RCC_PLLCFGR_PLLN_Pos)             | \
                                 (((RCC_OscInitStruct->PLL.PLLP >> 1U) - 1U) << RCC_PLLCFGR_PLLP_Pos) | \
                                 (RCC_OscInitStruct->PLL.PLLQ << RCC_PLLCFGR_PLLQ_Pos)));
        /* Enable the main PLL. */
        __HAL_RCC_PLL_ENABLE();
 80022f2:	4b37      	ldr	r3, [pc, #220]	; (80023d0 <HAL_RCC_OscConfig+0x4ec>)
 80022f4:	2201      	movs	r2, #1
 80022f6:	601a      	str	r2, [r3, #0]

        /* Get Start Tick */
        tickstart = HAL_GetTick();
 80022f8:	f7fe ff9a 	bl	8001230 <HAL_GetTick>
 80022fc:	6138      	str	r0, [r7, #16]

        /* Wait till PLL is ready */
        while(__HAL_RCC_GET_FLAG(RCC_FLAG_PLLRDY) == RESET)
 80022fe:	e008      	b.n	8002312 <HAL_RCC_OscConfig+0x42e>
        {
          if((HAL_GetTick() - tickstart ) > PLL_TIMEOUT_VALUE)
 8002300:	f7fe ff96 	bl	8001230 <HAL_GetTick>
 8002304:	4602      	mov	r2, r0
 8002306:	693b      	ldr	r3, [r7, #16]
 8002308:	1ad3      	subs	r3, r2, r3
 800230a:	2b02      	cmp	r3, #2
 800230c:	d901      	bls.n	8002312 <HAL_RCC_OscConfig+0x42e>
          {
            return HAL_TIMEOUT;
 800230e:	2303      	movs	r3, #3
 8002310:	e056      	b.n	80023c0 <HAL_RCC_OscConfig+0x4dc>
        while(__HAL_RCC_GET_FLAG(RCC_FLAG_PLLRDY) == RESET)
 8002312:	4b2e      	ldr	r3, [pc, #184]	; (80023cc <HAL_RCC_OscConfig+0x4e8>)
 8002314:	681b      	ldr	r3, [r3, #0]
 8002316:	f003 7300 	and.w	r3, r3, #33554432	; 0x2000000
 800231a:	2b00      	cmp	r3, #0
 800231c:	d0f0      	beq.n	8002300 <HAL_RCC_OscConfig+0x41c>
 800231e:	e04e      	b.n	80023be <HAL_RCC_OscConfig+0x4da>
        }
      }
      else
      {
        /* Disable the main PLL. */
        __HAL_RCC_PLL_DISABLE();
 8002320:	4b2b      	ldr	r3, [pc, #172]	; (80023d0 <HAL_RCC_OscConfig+0x4ec>)
 8002322:	2200      	movs	r2, #0
 8002324:	601a      	str	r2, [r3, #0]

        /* Get Start Tick */
        tickstart = HAL_GetTick();
 8002326:	f7fe ff83 	bl	8001230 <HAL_GetTick>
 800232a:	6138      	str	r0, [r7, #16]

        /* Wait till PLL is ready */
        while(__HAL_RCC_GET_FLAG(RCC_FLAG_PLLRDY) != RESET)
 800232c:	e008      	b.n	8002340 <HAL_RCC_OscConfig+0x45c>
        {
          if((HAL_GetTick() - tickstart ) > PLL_TIMEOUT_VALUE)
 800232e:	f7fe ff7f 	bl	8001230 <HAL_GetTick>
 8002332:	4602      	mov	r2, r0
 8002334:	693b      	ldr	r3, [r7, #16]
 8002336:	1ad3      	subs	r3, r2, r3
 8002338:	2b02      	cmp	r3, #2
 800233a:	d901      	bls.n	8002340 <HAL_RCC_OscConfig+0x45c>
          {
            return HAL_TIMEOUT;
 800233c:	2303      	movs	r3, #3
 800233e:	e03f      	b.n	80023c0 <HAL_RCC_OscConfig+0x4dc>
        while(__HAL_RCC_GET_FLAG(RCC_FLAG_PLLRDY) != RESET)
 8002340:	4b22      	ldr	r3, [pc, #136]	; (80023cc <HAL_RCC_OscConfig+0x4e8>)
 8002342:	681b      	ldr	r3, [r3, #0]
 8002344:	f003 7300 	and.w	r3, r3, #33554432	; 0x2000000
 8002348:	2b00      	cmp	r3, #0
 800234a:	d1f0      	bne.n	800232e <HAL_RCC_OscConfig+0x44a>
 800234c:	e037      	b.n	80023be <HAL_RCC_OscConfig+0x4da>
      }
    }
    else
    {
      /* Check if there is a request to disable the PLL used as System clock source */
      if((RCC_OscInitStruct->PLL.PLLState) == RCC_PLL_OFF)
 800234e:	687b      	ldr	r3, [r7, #4]
 8002350:	699b      	ldr	r3, [r3, #24]
 8002352:	2b01      	cmp	r3, #1
 8002354:	d101      	bne.n	800235a <HAL_RCC_OscConfig+0x476>
      {
        return HAL_ERROR;
 8002356:	2301      	movs	r3, #1
 8002358:	e032      	b.n	80023c0 <HAL_RCC_OscConfig+0x4dc>
      }
      else
      {
        /* Do not return HAL_ERROR if request repeats the current configuration */
        pll_config = RCC->PLLCFGR;
 800235a:	4b1c      	ldr	r3, [pc, #112]	; (80023cc <HAL_RCC_OscConfig+0x4e8>)
 800235c:	685b      	ldr	r3, [r3, #4]
 800235e:	60fb      	str	r3, [r7, #12]
            (READ_BIT(pll_config, RCC_PLLCFGR_PLLN) != (RCC_OscInitStruct->PLL.PLLN) << RCC_PLLCFGR_PLLN_Pos) ||
            (READ_BIT(pll_config, RCC_PLLCFGR_PLLP) != (((RCC_OscInitStruct->PLL.PLLP >> 1U) - 1U)) << RCC_PLLCFGR_PLLP_Pos) ||
            (READ_BIT(pll_config, RCC_PLLCFGR_PLLQ) != (RCC_OscInitStruct->PLL.PLLQ << RCC_PLLCFGR_PLLQ_Pos)) ||
            (READ_BIT(pll_config, RCC_PLLCFGR_PLLR) != (RCC_OscInitStruct->PLL.PLLR << RCC_PLLCFGR_PLLR_Pos)))
#else
        if (((RCC_OscInitStruct->PLL.PLLState) == RCC_PLL_OFF) ||
 8002360:	687b      	ldr	r3, [r7, #4]
 8002362:	699b      	ldr	r3, [r3, #24]
 8002364:	2b01      	cmp	r3, #1
 8002366:	d028      	beq.n	80023ba <HAL_RCC_OscConfig+0x4d6>
            (READ_BIT(pll_config, RCC_PLLCFGR_PLLSRC) != RCC_OscInitStruct->PLL.PLLSource) ||
 8002368:	68fb      	ldr	r3, [r7, #12]
 800236a:	f403 0280 	and.w	r2, r3, #4194304	; 0x400000
 800236e:	687b      	ldr	r3, [r7, #4]
 8002370:	69db      	ldr	r3, [r3, #28]
        if (((RCC_OscInitStruct->PLL.PLLState) == RCC_PLL_OFF) ||
 8002372:	429a      	cmp	r2, r3
 8002374:	d121      	bne.n	80023ba <HAL_RCC_OscConfig+0x4d6>
            (READ_BIT(pll_config, RCC_PLLCFGR_PLLM) != (RCC_OscInitStruct->PLL.PLLM) << RCC_PLLCFGR_PLLM_Pos) ||
 8002376:	68fb      	ldr	r3, [r7, #12]
 8002378:	f003 023f 	and.w	r2, r3, #63	; 0x3f
 800237c:	687b      	ldr	r3, [r7, #4]
 800237e:	6a1b      	ldr	r3, [r3, #32]
            (READ_BIT(pll_config, RCC_PLLCFGR_PLLSRC) != RCC_OscInitStruct->PLL.PLLSource) ||
 8002380:	429a      	cmp	r2, r3
 8002382:	d11a      	bne.n	80023ba <HAL_RCC_OscConfig+0x4d6>
            (READ_BIT(pll_config, RCC_PLLCFGR_PLLN) != (RCC_OscInitStruct->PLL.PLLN) << RCC_PLLCFGR_PLLN_Pos) ||
 8002384:	68fa      	ldr	r2, [r7, #12]
 8002386:	f647 73c0 	movw	r3, #32704	; 0x7fc0
 800238a:	4013      	ands	r3, r2
 800238c:	687a      	ldr	r2, [r7, #4]
 800238e:	6a52      	ldr	r2, [r2, #36]	; 0x24
 8002390:	0192      	lsls	r2, r2, #6
            (READ_BIT(pll_config, RCC_PLLCFGR_PLLM) != (RCC_OscInitStruct->PLL.PLLM) << RCC_PLLCFGR_PLLM_Pos) ||
 8002392:	4293      	cmp	r3, r2
 8002394:	d111      	bne.n	80023ba <HAL_RCC_OscConfig+0x4d6>
            (READ_BIT(pll_config, RCC_PLLCFGR_PLLP) != (((RCC_OscInitStruct->PLL.PLLP >> 1U) - 1U)) << RCC_PLLCFGR_PLLP_Pos) ||
 8002396:	68fb      	ldr	r3, [r7, #12]
 8002398:	f403 3240 	and.w	r2, r3, #196608	; 0x30000
 800239c:	687b      	ldr	r3, [r7, #4]
 800239e:	6a9b      	ldr	r3, [r3, #40]	; 0x28
 80023a0:	085b      	lsrs	r3, r3, #1
